:020000040800F2
:1000000038160024390300083F4E0008CD4200088E
:100010003D4E00089106000813680008000000002B
:1000200000000000000000000000000081530008F4
:100030009306000800000000454E000835550008F2
:100040005303000853030008530300085303000838
:100050005303000853030008530300085303000828
:10006000070700080D0700081307000853030008DE
:100070005303000853030008530300085303000808
:1000800053030008530300085303000853030008F8
:10009000530300085303000853030008190700081E
:1000A000530300085303000853030008C95600080F
:1000B000D5560008E1560008ED5600085303000825
:1000C00053030008530300085303000853030008B8
:1000D00053030008530300085303000853030008A8
:1000E000FF06000853030008000000001D57000829
:1000F00061570008455700083957000853030008A6
:100100005303000853030008F9560008530300087E
:10011000555A0008530300080557000811570008F6
:100120005303000853030008530300085303000857
:100130005303000853030008530300085303000847
:1001400000000000000000000000000000000000AF
:100150005303000853030008530300085303000827
:100160005303000853030008530300085303000817
:100170005303000853030008530300080000000065
:1001800053030008530300085303000853030008F7
:1001900053030008530300085303000853030008E7
:1001A00053030008530300085303000853030008D7
:1001B00053030008530300085303000853030008C7
:1001C00053030008530300085303000853030008B7
:1001D00053030008530300085303000853030008A7
:1001E0005303000853030008530300085303000897
:1001F0005303000853030008530300085303000887
:100200005303000853030008530300085303000876
:10021000BD560008530300085303000853030008A9
:1002200053030008530300085303000800000000B4
:1002300053030008530300080000000053030008A4
:100240005303000853030008530300085303000836
:100250005303000853030008530300085303000826
:100260005303000853030008530300085303000816
:100270005303000853030008530300080000000064
:100280005303000853030008530300080000000054
:10029000000000005303000800F002F800F03CF8F2
:1002A0000AA090E8000C82448344AAF10107DA45D1
:1002B00001D100F031F8AFF2090EBAE80F0013F0E7
:1002C000010F18BFFB1A43F001031847CC7E000052
:1002D000EC7E0000103A24BF78C878C1FAD85207E3
:1002E00024BF30C830C144BF04680C6070470000B0
:1002F0000023002400250026103A28BF78C1FBD82F
:10030000520728BF30C148BF0B6070471FB507F0C8
:1003100045FB1FBD10B510BD00F085F91146FFF774
:10032000F5FF06F03BFB00F0A3F903B4FFF7F2FF83
:1003300003BC00F0A7F900000948804709480047BE
:10034000FEE7FEE7FEE7FEE7FEE7FEE7FEE7FEE785
:10035000FEE7FEE704480549054A064B70470000E2
:10036000E1550008990200083810002438160024CE
:10037000381200243812002453EA020C00F069807D
:100380002DE9F04B4FF00006002B1FBFB3FA83F5A9
:1003900003FA05F424FA05F65E4012BF1643B2FADA
:1003A00082F502FA05F4C5F120051EBF22FA05FC0C
:1003B00044EA0C04203556EA044C4FEA144418BFB2
:1003C000641C4FF000084FF00009904271EB030CE1
:1003D00039D3002919BFB1FA81F701FA07F6B0FA4B
:1003E00080F700FA07F6C7F120071EBF20FA07FCC6
:1003F00046EA0C062037B6FBF4FCA7EB0507103FD6
:1004000007F01F0BCBF120060CFA0BFB2CFA06F6BB
:1004100044BFB3460026202FA4BF5E464FF0000B1A
:100420005BEA060C08BF4FF0010B19EB0B09ABFBA5
:10043000027C48EB0608C01B06FB02CC0BFB03CC7E
:1004400071EB0C01C1E70B46024641464846BDE848
:10045000F08B13B54FF000004FF00001AFF30080B8
:10046000BDE81C407047032A40F2308010F0030CB6
:1004700000F0158011F8013BBCF1020F624498BFF7
:1004800011F801CB00F8013B38BF11F8013BA2F194
:10049000040298BF00F801CB38BF00F8013B11F00F
:1004A000030300F08480083AC0F0088051F8043B50
:1004B000083A51F804CBA0E80810F5E7121D5CBF1C
:1004C00051F8043B40F8043BAFF30080D20724BF4F
:1004D00011F8013B11F801CB48BF11F8012B24BFE3
:1004E00000F8013B00F801CB48BF00F8012B704732
:1004F00002F0FF0343EA032242EA024200F002B89C
:100500004FF000020429C0F0128010F0030C00F03C
:100510001B80CCF1040CBCF1020F18BF00F8012BBA
:10052000A8BF20F8022BA1EB0C0100F00DB85FEA88
:10053000C17C24BF00F8012B00F8012B48BF00F854
:10054000012B70474FF0000200B5134694469646C3
:10055000203922BFA0E80C50A0E80C50B1F12001D6
:10056000BFF4F7AF090728BFA0E80C5048BF0CC084
:100570005DF804EB890028BF40F8042B08BF7047E2
:1005800048BF20F8022B11F0804F18BF00F8012B54
:10059000704770477047704710B500F03FF800682B
:1005A00010BD10B5044600F039F8046010BD10B558
:1005B000203AC0F00B80B1E81850203AA0E818505B
:1005C000B1E81850A0E81850BFF4F5AF5FEA027C1C
:1005D00024BFB1E81850A0E8185044BF18C918C08B
:1005E000BDE810405FEA827C24BF51F8043B40F82C
:1005F000043B08BF7047D20728BF31F8023B48BF11
:1006000011F8012B28BF20F8023B48BF00F8012B4E
:100610007047000000487047D80F0024004870471A
:10062000D80F002470477546FFF7F4FFAE4605006B
:100630006946534620F00700854618B020B5FFF7FD
:1006400089FEBDE820404FF000064FF000074FF054
:1006500000084FF0000B21F00701AC46ACE8C009E0
:10066000ACE8C009ACE8C009ACE8C0098D467047E9
:1006700010B50446AFF300802046BDE81040FFF7F8
:1006800054BE000001491820ABBEFEE72600020060
:10069000FEE77047FEB5044642EA811108988AB227
:1006A000A5796426029645F00101CDE90030606924
:1006B000022300F075FF10B10220A070FEBD0120E2
:1006C000FBE710B5486140248B717AB1012A4FF4E1
:1006D00080700FD0022A0FD0032A4FF400700BD085
:1006E000042A02D180220880CA7010BD0C8010201C
:1006F000C87010BD2022F6E70880CC7010BD4FF402
:10070000005000F03CBC042000F039BC082000F090
:1007100036BC102000F033BC202010B500F02FFCB8
:10072000BDE81040402000F02ABC72B6FEE7000091
:100730002DE9F04F04468E4897B04FF002074FF076
:100740000109400702D084F89F7101E084F89F916D
:100750000025874E04F180001090705DFF287DD148
:10076000721950785A28FAD19078FF28F7D194F866
:100770009F01012872D1D078012812D0022813D00D
:10078000042814D005286AD0062868D007282BD062
:1007900008287CD009287BD00A287AD00B285ED084
:1007A000D6E084F89091D3E084F89071D0E00420F2
:1007B00084F89001107902A984F89101507984F8A5
:1007C0009201907984F89301D07984F89401002003
:1007D0002A183244127A0A54401C0828F8DBDDE952
:1007E0000201C4E92C01B3E0072084F89001002045
:1007F0000DF1500A0DF1300B0DF1380C0DF1440ED6
:10080000311891F804800AF8008091F80C800BF8F8
:1008100000800B7D0CF8003091F81C8002AB0EF8C4
:10082000008091F8248003F8008004AB91F82C80BC
:1008300003F8008006AB91F8348003F8008008AB21
:1008400091F83C8003F8008091F844300AA90B54D9
:10085000401C0828D4DB5FEA4A7001E07DE075E0C7
:1008600005D15FEA4B7002D15FEA4C7018D084F872
:10087000A0910DF13808DDE91401C4E93401DDE986
:100880000C131098C0E9161398E80B0002E048E03A
:100890004EE054E0C3E918015FEA4E7003D011E066
:1008A00084F8A071F8E702A840070BD104A840071C
:1008B00008D106A8400705D108A8400702D10AA818
:1008C00040072AD0032184F8A011DDE9111304F5B3
:1008D0008070C4E94613DDE90213C0E90813DDE9BD
:1008E0000413C0E90A13DDE90613C0E90C13DDE9BE
:1008F0000813C0E90E13DDE90A13C0E9101300BFA5
:1009000092F84D0084F8A30092F84E0084F8970105
:1009100092F84F0084F8A4001AE0042084F8A001A3
:10092000EEE7082084F89001107984F89B010FE02D
:10093000092084F89001107984F89C0108E00A20CD
:1009400084F89001107984F89E0101E084F8900108
:1009500050220749A01CFFF786FD6D1C502DFFF6A5
:10096000FCAE17B002485021BDE8F04FFFF7C8BDFC
:10097000880B00242DE9F84F044600F02FFC00906E
:100980003CB194F83500022806D080216165002032
:10099000E4E00120BDE8F88FC74DC74EC6491835C1
:1009A00020683036DFF81483DFF814938842DFF8CC
:1009B00014A3DFF814B32ED0A8422CD0B0422AD012
:1009C000404528D0484526D0504524D0584522D00F
:1009D000BD4A183290421ED0BC4A90421BD0BB4A3E
:1009E0001832904217D0B94A3032904213D0B74AE9
:1009F000483290420FD0B54A603290420BD0B34A91
:100A00007832904207D0B14A9032904203D0AF4A38
:100A1000A832904209D1026822F01E0202602068CA
:100A2000426922F08002426103E0026822F00E0275
:100A3000026027688F4238464DD0A8424BD0B04262
:100A400049D0404547D0484545D0504543D058450A
:100A500041D09D4A183290423DD09C4A90423AD0B3
:100A60009A4A1832904236D0984A3032904232D068
:100A7000964A483290422ED0944A603290422AD010
:100A8000924A7832904226D0904A9032904222D0B8
:100A90008E4AA83290421ED08D4A90421BD08C4A7A
:100AA0001432904217D08A4A2832904213D0884A92
:100AB0003C3290420FD0864A503290420BD0844A4A
:100AC0006432904207D0824A7832904203D0804A02
:100AD0008C32974204D1206E026822F48072026048
:100AE00075492068884228D0A84226D0B04224D038
:100AF000404522D0484520D050451ED058451CD0F6
:100B000071491831884218D07049884215D06F4910
:100B10001831884211D06D49303188420DD06B496F
:100B20004831884209D069496031884205D0674917
:100B30007831884201D065499031016821F0010186
:100B400001600EE000F04AFB0099401A052808D920
:100B5000202262650321002084F8351084F83400D7
:100B600017E73868C007EDD1534A01212068904249
:100B70002ED0A8422CD0B0422AD0404528D048459B
:100B800026D0504524D0584522D04F4B1833984298
:100B90001ED04E4B98421BD04C4B1833984217D066
:100BA0004A4B3033984213D0484B483398420FD0C9
:100BB000464B603398420BD0444B7833984207D071
:100BC000424B9033984203D0404BA833984208D10F
:100BD00094F85C703F23A06D07F01F07BB40836053
:100BE00007E094F85C30A06D03F01F0301FA03F3F3
:100BF0004360206890424DD0A8424BD0B04249D0CB
:100C0000404547D0484545D0504543D0584541D050
:100C10002D4A183290423DD02C4A90423AD02B4A6D
:100C20001832904236D0294A3032904232D0274A88
:100C3000483290422ED0254A603290422AD0234A30
:100C40007832904226D0214A9032904222D01F4AD8
:100C5000A83290421ED01E4A90421BD01C4A143229
:100C6000904217D01A4A2832904213D0184A3C3288
:100C700090420FD0164A503290420BD0144A643240
:100C8000904207D0124A7832904203D0104A8C32F8
:100C900090420BD1D4E919024260E06E30B1026893
:100CA00022F480720260D4E91C024260002084F8C1
:100CB000351084F834006DE6100002405800024000
:100CC0007000024088000240A00002401004024070
:100CD000085402582DE9F05F28B190F83510022928
:100CE00004D0802141650120BDE8F09F904C904BDD
:100CF0000168183C18338E4ADFF83C92A1428D4CB3
:100D0000DFF838E28E4FDFF83CB2DFF83CA28F4DBF
:100D10008F4E31D091422FD099422DD0A1422BD06D
:100D2000494529D0714527D0B94225D0DFF810C2F6
:100D30000CF1180C61451FD0DFF808C2ACF1600C53
:100D4000614519D0DFF8FCC1ACF1480C614513D006
:100D5000DFF8F0C1ACF1300C61450DD0DFF8E4C133
:100D6000ACF1180C614507D0594505D0514503D069
:100D7000A94201D0B1422CD1DFF8B4C14FF0040830
:100D800080F83580ACF1180C61451DD091421BD024
:100D9000994219D0A14217D0494515D0714513D0B9
:100DA000B94211D06648183081420DD0654860388C
:100DB000814209D063484838814205D061483038C3
:100DC000814201D05F481838086820F001000860AF
:100DD000ABE0D1F800C02CF00E08DFF854C1C1F828
:100DE0000080ACF1180C0168614527D0914225D0F4
:100DF000994223D0A14221D049451FD071451DD031
:100E0000B9421BD0DFF838C10CF1180C614515D080
:100E1000DFF830C1ACF1600C61450FD0DFF824C1C0
:100E2000ACF1480C614509D0DFF818C1ACF1300CC9
:100E3000614503D0DFF80CC1ACF1180CD1F800C04B
:100E40002CF0010CC1F800C0DFF8E4804FF0010C79
:100E50000168A8F11808414546D0914244D0994212
:100E600042D0A14240D049453ED071453CD0B94224
:100E70003AD0334A1832914236D0324A603A9142DF
:100E800032D0304A483A91422ED02E4A303A9142DE
:100E90002AD02C4A183A914226D0594524D051459F
:100EA00022D0A94220D0B1421ED02A4A91421BD062
:100EB000284A1432914217D0264A2832914213D040
:100EC000244A3C3291420FD0224A503291420BD0F8
:100ED000204A6432914207D01E4A7832914203D0B0
:100EE0001C4A8C32914218D1016E0A6822F4807239
:100EF0000A6090F85C20816D02F01F020CFA02F289
:100F00004A60D0E919124A60C16E31B10A6822F410
:100F100080720A60D0E91C124A600022016D80F8DC
:100F200035C080F8342001B188470020DCE600009D
:100F30002800024058000240700002408800024031
:100F4000A00002407004024088040240A004024055
:100F5000B80402400854025870B5044600F03EF947
:100F60000546601C02D004480078044400F036F9BD
:100F7000401BA042FAD370BDEC00002470474FF034
:100F8000B04110B5D1F88820024203D0C1F88800E2
:100F9000FFF7F4FF10BD00002DE9F84F03247D4D4D
:100FA00000234FF001094FF0B04B4FF00F0AE9E07A
:100FB00009FA03F73A4076D00E7906F00306012EBF
:100FC00001D0022E18D1D0F808C04FEA430ECE68E7
:100FD00004FA0EF82CEA080C06FA0EF646EA0C069D
:100FE0008660D0F804C00E792CEA070CC6F3001610
:100FF0009E4046EA0C0646600E79F643B6070BD0D3
:10100000C6684FEA43088F6804FA08FC26EA0C0613
:1010100007FA08F73743C7600E7906F00306022E79
:1010200012D1DE080F694FEA437C00EB8606B64614
:10103000366A4FEADC6C0AFA0CF807FA0CF726EA73
:1010400008063743CEF820700F7906684FEA430848
:1010500007F0030704FA08FC07FA08F726EA0C066B
:10106000374307604E6816F4403F1CD04A4E37683D
:1010700047F00207376036689F0706F002060096C1
:1010800023F0030606F1B046B6463F0FD6F80864D3
:10109000DFF808810AFA07FC404526EA0C0603D16E
:1010A0004FF0000C41E06CE0DFF8F4C0604502D185
:1010B0004FF0010C39E0DFF8ECC0604502D14FF091
:1010C000020C32E0DFF8E0C0604502D14FF0030CC3
:1010D0002BE0DFF8D8C0604502D14FF0040C24E0CB
:1010E000DFF8CCC0604502D14FF0050C1DE0DFF801
:1010F000C4C0604502D14FF0060C16E0DFF8B8C05E
:10110000604502D14FF0070C0FE0DFF8B0C060453A
:1011100002D14FF0080C08E0DFF8A4C0604502D10E
:101120004FF0090C01E04FF00A0C0CFA07FC4CEAF6
:10113000060CCEF808C44F68DBF80060FF0226EA10
:10114000020600D516435F46CBF80060D1F804C014
:10115000DBF804605FEA8C2C26EA020600D5164311
:101160007E606E684F6826EA0206BF0300D516430C
:101170006E602E684F6826EA0206FF0300D516430C
:101180002E605B1C0A6832FA03F67FF411AFBDE8EB
:10119000F88F000080000058F44402580000025804
:1011A0000004025800080258000C025800100258AF
:1011B0000014025800180258001C0258002002585F
:1011C000002402580AB1816170470904FBE700005E
:1011D00001480068000C70470010005C01488068FE
:1011E00070470000EC00002430B590F84120202A20
:1011F00024D190F84020012A20D0012380F84030EB
:10120000242280F84120202300240268156825F05C
:10121000010515600268156825F48055156002689F
:1012200015680D43156001680A6842F001020A6002
:1012300080F8413080F84040002030BD022030BDB1
:1012400030B590F84120202A22D190F84020012A80
:101250001ED0012380F84030242280F84120202431
:1012600000250268136823F0010313600268136805
:1012700023F4706343EA0121116001680A6842F0B7
:1012800001020A6080F8414080F84050002030BDE3
:10129000022030BD70B5040004D094F84100002550
:1012A00010B106E0012070BD204684F8405000F0E7
:1012B00029FA242084F841002068016821F0010106
:1012C0000160D4E9001020F0706008612068816836
:1012D00021F400418160E06821680128A06830D0D5
:1012E00040F404408860E0680228206841682BD000
:1012F00021F40061416020682021154A43681343AE
:1013000043602068C26822F40042C26054F8106B47
:101310000DCC104340EA0320F06054F81C3CD4E9A3
:1013200000021043186054F81C0D026842F00102DC
:101330000260656484F84110256384F842500020FF
:1013400070BD40F40040CDE741F40061D2E70000F9
:10135000008000022DE9FC47002504461E46924607
:101360000195894690F84100202868D1206880695D
:10137000C043000463D594F8400001285FD00121E8
:1013800084F8401024204FF0200884F84100656460
:10139000E06801280BD02B4A2B4900BF49EA020024
:1013A000084021684860FFF719FF07460AE0274A0E
:1013B0002749F3E7701C05D0FFF710FFC01BB042B0
:1013C00019D8C6B1206881698269C1F34010C2F39F
:1013D00000110843EED02068806933464FF00002C8
:1013E0004FF02001C0430097C006204616D503F0F9
:1013F00051F8B0B908E084F84180606C84F840503E
:1014000040F0200060640CE02168C1F81C8084F882
:101410004180002084F84050BDE8FC8703F03AF892
:1014200008B10120F8E722681021D1612168C1F8D4
:101430001C800198401C01905045A9D3DBE7022095
:10144000EAE7000000280002FF2B00020020000253
:10145000FF2300022DE9FF4F81B0044690F84100C0
:1014600099469046DDF838B020287BD194F84000AA
:10147000012877D0012084F84000FFF7AFFE012259
:10148000064619230090D103204603F003F80028F4
:1014900053D1414921220025C4F82480102084F82A
:1014A0004120FF2784F842006564A4F82A90608DEB
:1014B0004FF080794FF0007A6563FF2802D94B46E0
:1014C000278505E0608D534620850004000C10D070
:1014D000226898F800009062606A401C6062608D2B
:1014E000401E6085208D401E2085401C0091C2B2A8
:1014F00001E0002200910299204602F0B3FF13E0C0
:1015000003F032F8C8B9606A216800788862606ABE
:10151000401C6062608D401E6085208D401E80B240
:101520002085618D01B160B1608D32465946002839
:101530002046E5D102F0ECFFE0B1012005B0BDE8A6
:10154000F08F00225B4680212046009602F0A2FF29
:101550000028F2D1608DFF2805D927853A464B46F1
:101560000095C8E716E0608D53462085009594F8F5
:101570002820C0E721682020084AC86121684B68FC
:1015800013404B6084F8410084F84250002084F8F6
:101590004050D3E70220D1E70020008000E800FEA1
:1015A0002DE9FF4F83B0044690F841009A469346D8
:1015B000DDE91087DDF84890202874D15FEA080043
:1015C00014D09FB194F8400001286CD0012084F819
:1015D0004000FFF703FE0122064619230090D103C5
:1015E000204602F057FF002871D103E04FF400704D
:1015F00060646CE00025C4F82480222184F8411046
:10160000402084F8420065646785534665635A4606
:1016100004992046CDE9009602F0F2FE10B184F85C
:10162000405054E0618DFF2734484FF08078FF2907
:101630004FF0007A04D927853A464346009005E0EA
:10164000618D53462185009094F828202046049906
:1016500002F008FF00224B4604212046009602F0CB
:1016600019FFA0BB2068616A406A0870606A401C6C
:101670006062208D401E81B22185608D401E608594
:10168000608DD8B1D1B900224B468021204600960A
:1016900002F000FFD8B9608DFF2805D927853A46AA
:1016A0004346009506E026E0608D53462085009570
:1016B00094F828202046049902F0D4FE608D00287A
:1016C000C8D132464946204602F022FF18B1012017
:1016D00007B0BDE8F08F21682020094AC861216861
:1016E0004B6813404B6084F8410084F8425000205E
:1016F00084F84050ECE70220EAE700000024008074
:1017000000E800FE10B5B6B00446142130A8FEF77C
:1017100019FFC0216846FEF715FF18492068884266
:101720002AD10020219008210446CDE90010684606
:1017300000F04EFA08B1FEF7F8FF1148016841F0D9
:1017400002010160006830AB122100F00200359008
:10175000C020042283E813000A4830A9CDE93342AF
:10176000FFF71AFC06480830016841F400110160D7
:10177000006800F40010359036B010BD00540040F1
:10178000E04402580004025802488168027811447B
:1017900081607047EC000024032010B500F086F84B
:1017A00001F06AF80F4A104914681368C4F3032261
:1017B00003F00F038A5CC95C02F01F0201F01F01F5
:1017C000D0400A4A20FA01F11160094908600F204F
:1017D00000F010F808B1012010BD00F02BF8002037
:1017E00010BD00001844025888810008FC00002445
:1017F000F800002470B50D4D04462878A0B14FF4D0
:101800007A71B1FBF0F00A490968B1FBF0F001F020
:10181000A0FB48B9102C07D200222146501E00F030
:1018200025F800206C6070BD012070BDEC00002424
:10183000F8000024054808B5016841F00201016084
:10184000006800F00200009008BD0000F444025857
:10185000002809DB410900F01F028900012001F185
:10186000E0219040C1F80001704700000E4BF0B439
:101870001B680D46C3F30223C3F10706042E00D9EB
:101880000426191D072901D2002300E0DB1E0124D4
:1018900004FA06F19C40491E2940641E99401440F8
:1018A0002143F0BC04F0B6BF0CED00E0064900F0A7
:1018B000070210B54FF6FF040868044B204040EAC9
:1018C00002201843086010BD0CED00E00000FA058E
:1018D000134970B50A68D243520705D5096801F06B
:1018E0000701814213D118E00A6822F0070202437F
:1018F0000A60FFF773FC0A4D4FF47A760446083D00
:1019000007E000BFFFF76AFC001BB04201D90120CD
:1019100070BD2868C0438004F4D4002070BD00006E
:101920000C48025810B500F061FF05490968054AE6
:10193000C1F30211515C01F01F01C84010BD00004D
:101940002044025888810008494930B5484C0B1D95
:101950000A68143409681D68246802F00303C5F39B
:101960000012C1F30531C4F3CC04002914FB02F2C8
:1019700000EE102AF8EE400A75D03F4A9FED3D1A5E
:10198000B7EE000A6BB1DFED3D1A012B01D0022B3F
:1019900064D002EE101A1168F8EE422A81EEA22AF3
:1019A00021E0334C283C23689B0612D5344B246835
:1019B00001EE901A1168C4F3C104F8EE612AE34005
:1019C00001EE903AC1F30801F8EE611A81EEA22A05
:1019D0000BE001EE901ADFED2B2A00BFF8EE611A42
:1019E000116882EEA12AC1F3080101EE901A116874
:1019F000F8EE611A40EE811A71EE800A62EE200A5A
:101A0000C1F3462101EE101AB8EE411A31EE001A68
:101A1000C0EE811ABCEEE11A80ED001A1168C1F324
:101A2000064101EE101AB8EE411A31EE001AC0EE6E
:101A3000811ABCEEE11A80ED011A1168C1F306614A
:101A400001EE101AB8EE411A31EE000A80EE801A4B
:101A5000BCEEC10A80ED020A30BD04E001EE901A2E
:101A6000DFED092ABAE70021016041608160F3E7F8
:101A70002844025800000039384402580024744AAF
:101A80000090D0030024744C20BCBE4B494930B5B3
:101A9000484C0B1D0A681C3409681D68246802F054
:101AA0000303C5F30022C1F30551C4F3CC0400299C
:101AB00014FB02F200EE102AF8EE400A75D03F4AFD
:101AC0009FED3D1AB7EE000A6BB1DFED3D1A012B19
:101AD00001D0022B64D002EE101A1168F8EE422AEF
:101AE00081EEA22A21E0334C283C23689B0612D5C4
:101AF000344B246801EE901A1168C4F3C104F8EE67
:101B0000612AE34001EE903AC1F30801F8EE611A50
:101B100081EEA22A0BE001EE901ADFED2B2A00BF26
:101B2000F8EE611A116882EEA12AC1F3080101EEF4
:101B3000901A1168F8EE611A40EE811A71EE800A6F
:101B400062EE200AC1F3462101EE101AB8EE411AE6
:101B500031EE001AC0EE811ABCEEE11A80ED001AD7
:101B60001168C1F3064101EE101AB8EE411A31EEC8
:101B7000001AC0EE811ABCEEE11A80ED011A11685C
:101B8000C1F3066101EE101AB8EE411A31EE000AF7
:101B900080EE801ABCEEC10A80ED020A30BD04E07E
:101BA00001EE901ADFED092ABAE7002101604160D9
:101BB0008160F3E72844025800000039404402588D
:101BC0000024744A0090D0030024744C20BCBE4B07
:101BD0002DE9FE4F0546DFF8E48350F8081B00248A
:101BE000F64FC943019005F12800264608F1240864
:101BF000009008011DD4A86E50B1B0F5801F0CD024
:101C0000B0F5001F0ED0B0F5401F1ED001240FE02C
:101C1000386840F40030386017E00198022103F082
:101C200013F903E00098022103F09EF904000CD0A0
:101C300026462888C043C00523D4A86D05281ED297
:101C4000DFE800F00C11161B1B00AA6ED8F800107C
:101C500021F440111143C8F80010EAE7386840F455
:101C60000030386009E00198002103F0EDF803E04E
:101C70000098002103F078F9044674B100E00124D3
:101C800026462888C043800528D4E86D80281ED0C9
:101C90000CDC90B140280ED114E0AA6DD8F80010E9
:101CA00021F007011143C8F80010EAE7C02813D05B
:101CB000B0F5807F10D001240FE0386840F4003088
:101CC000386009E00198002103F0BEF803E00098B5
:101CD000002103F049F904469CB126462888DFF824
:101CE000DC92C04309F12C0940052CD4D5F8A8009A
:101CF000B0F5800F20D00DDCA0B1B0F5001F0FD1E2
:101D000015E0EA6DD8F8001021F4E0711143C8F82D
:101D10000010E3E7B0F5C00F13D0B0F5000F10D0FE
:101D200001240FE0386840F40030386009E0019881
:101D3000002103F089F803E00098002103F014F972
:101D400004467CB126462888C04300052DD4D5F82A
:101D5000AC00B0F1007F21D00EDCA8B1B0F1807FE3
:101D600010D116E0D5F8A820D9F8001021F46001B0
:101D70001143C9F80010E6E7B0F1407F13D0B0F18D
:101D8000806F10D001240FE0386840F400303860D4
:101D900009E00198002103F057F803E000980021C2
:101DA00003F0E2F8044674B126462868C043800177
:101DB0001FD4E86CD8B110280FD0202812D03028BA
:101DC00015D0012414E0D5F8AC20D9F8001021F08A
:101DD000E0611143C9F80010E7E7386840F40030CB
:101DE000386004E00198022103F02EF8044674B133
:101DF00026462888C043C0042BD4286EB0F5005F67
:101E000020D00DDCA0B1B0F5805F0FD115E06B489C
:101E1000EA6C2030016821F0300111430160E8E7ED
:101E2000B0F5405F13D0B0F5804F10D001240FE023
:101E3000386840F40030386009E00198002103F070
:101E400003F803E00098002103F08EF804468CB1FB
:101E500026462888C043800429D4686EB0F5403FE8
:101E600023D010DC08B3B0F5803F14D0B0F5003FAC
:101E70000FD115E02A6ED8F8001021F4E04111438B
:101E8000C8F80010E5E7B0F5802F0ED0B0F5A02F10
:101E90000BD001240AE00198012102F0D5FF03E0F4
:101EA0000098012103F060F8044694B12646288882
:101EB000C04340042AD4D5F8B000B0F1405F23D02D
:101EC00010DC08B3B0F1805F14D0B0F1005F0FD127
:101ED00015E06A6ED8F8001021F4E0211143C8F82B
:101EE0000010E4E7B0F1804F0ED0B0F1A04F0BD05E
:101EF00001240AE00198012102F0A6FF03E0009806
:101F0000012103F031F8044674B126462888C04305
:101F100000041FD4286FD8B1B0F1805F0ED0B0F1AB
:101F2000005F10D0012414E0D5F8B020D9F80010DB
:101F300021F0E0411143C9F80010E7E7386840F4A8
:101F40000030386004E00198012102F07DFF044672
:101F500074B126462868C043C0011ED4A86CD0B115
:101F600001280ED0022811D0032814D0012413E038
:101F70002A6FD8F8001021F040511143C8F8001022
:101F8000E8E7386840F40030386004E00198022146
:101F900002F05AFF0446ACB126462868DFF81CB0B0
:101FA000C043ABF11C0B400252D40548016841F418
:101FB00080710160FFF712F9824611E02C4402584B
:101FC00000480258FA48AA6C016821F00301114345
:101FD0000160E2E7FFF702F9A0EB0A00642835D8B8
:101FE000F4480068C005F5D58CBBDFF8C4A3B5F88C
:101FF000B4100AF1240ADAF8000001F4407100F488
:102000004070884211D0DAF80010DAF8002021F48C
:10201000407142F48032CAF80020DAF8002022F43D
:102020008032CAF80020CAF80010D5F8B400B0F524
:10203000807F1AD1FFF7D2F8029012E0FFF7CEF8B6
:102040000299411A41F2883081420AD90324264676
:102050002878DFF85CA3C0430AF1080AC00721D042
:102060003CE0DAF800008007E8D5D5F8B410C1F3F9
:102070000120032858460DD0016821F47C510160ED
:10208000B5F8B420DAF80010C2F30B021143CAF815
:102090000010DDE7C84A036802EA111223F47C51FC
:1020A0001143ECE7E86F182816D005DCA0B108282A
:1020B00008D0102804D10AE020280DD028280BD001
:1020C00001240AE00198012102F0BEFE03E000981D
:1020D000012102F049FF044664B126462878C04336
:1020E00080071ED4A86F062819D2DFE800F0160C6E
:1020F00011161616EA6FDAF8001021F038011143B4
:10210000CAF80010EAE70198012102F09DFE03E001
:102110000098012102F028FF04467CB100E0012470
:1021200026462878C04340071FD4D5F894000628D7
:1021300019D2DFE800F0160C11161616AA6FDAF89D
:10214000001021F007011143CAF80010E9E70198D7
:10215000012102F079FE03E00098012102F004FF62
:102160000446A4B100E0012426462878C043800636
:102170002BD4D5F89000B0F1405F24D011DC10B31F
:10218000B0F1805F15D0B0F1005F10D116E0D5F846
:102190009420D9F8001021F007011143C9F800106C
:1021A000E3E7B0F1804F0ED0B0F1A04F0BD0012487
:1021B0000AE00198002102F047FE03E000980221A6
:1021C00002F0D2FE044694B126462878C043400669
:1021D0002BD4D5F89C00B0F5406F24D011DC10B39F
:1021E000B0F5806F15D0B0F5006F10D116E0D5F8BE
:1021F0009020DAF8001021F0E0411143CAF80010F5
:10220000E3E7B0F5805F0ED0B0F5A05F0BD00124FE
:102210000AE00198002102F017FE03E00098022175
:1022200002F0A2FE044694B126462878C043000678
:102230002BD4D5F8A000B0F5C04F24D011DC10B3DA
:10224000B0F5005F15D0B0F5804F10D116E0D5F88D
:102250009C20D9F8001021F4E0511143C9F8001076
:10226000E3E7B0F5004F0ED0B0F5204F0BD00124BE
:102270000AE00198002102F0E7FD03E00098022146
:1022800002F072FE044654B126462878C043000787
:102290001ED4D5F88400B0F5805F0AD00FE0D5F8E1
:1022A000A020D9F8001021F460411143C9F80010B2
:1022B000EBE70098022102F057FE00B10126D5F8A5
:1022C0008420DAF8001021F440511143CAF80010BC
:1022D0002878C043C00613D4D5F89800B0F5807FA5
:1022E00005D10098022102F03FFE00B10126D5F889
:1022F0009820D9F8001021F440711143C9F800105A
:102300002868C043000316D4D5F8A40038B1B0F54E
:10231000803F09D0B0F5003F0BD001240AE00198BE
:10232000002102F091FD03E00098022102F01CFE62
:1023300004468CB126462868C043400322D4D5F811
:102340008800B0F5801F11D0B0F5001F13D0B0F594
:10235000401F15D0012414E0D5F8A420D9F80010AE
:1023600021F440311143C9F80010E4E7386840F423
:102370000030386004E00098012102F0F5FD0446C9
:102380005CB126462868C043C00323D4286DA8B199
:10239000B0F5803F17D001241BE0D5F88820DAF88B
:1023A000001021F440111143CAF80010EAE70000C0
:1023B0004C44025800480258CFFFFF00386840F4F0
:1023C0000030386004E00198022102F03DFD04462F
:1023D000E4B126462868C043800005D40098022155
:1023E00002F0C2FD00B101262868C04380031BD45F
:1023F000D5F88000B0B1B0F5807F0FD0B0F5007F88
:1024000010D0B0F5407F0DD001240CE05A482A6D61
:10241000016821F4803111430160DBE7386840F442
:1024200000303860ECB326462868C043C00207D4A9
:102430006A6FD8F8001021F000411143C8F800106D
:102440002868C043C00008D4D5F8B820DBF80010D5
:1024500021F480411143CBF800102868C04380026A
:1024600007D4EA6ED8F8001021F080711143C8F843
:1024700000102868C04340000CD4DBF8001021F4A1
:102480000041CBF80010DBF80010D5F8BC20114358
:10249000CBF800102868C04308D437486A6D01683B
:1024A00000E018E021F04051114301602868C0436A
:1024B000000208D4D5F88C20DAF8001021F440018D
:1024C0001143CAF8001028790024C04300F001002D
:1024D00020430AD00FE0D5F88020DAF8001021F46C
:1024E00040711143CAF800109EE70198002102F0E4
:1024F000ABFC00B106462879C04300F0020020433F
:1025000005D10198012102F09FFC00B1064628790F
:10251000C04300F00400204305D10198022102F0DD
:1025200093FC00B106462879C04300F00800204320
:1025300005D10098002102F017FD00B10646287968
:10254000C04300F01000204305D10098012102F0A3
:102550000BFD00B106462879C04300F0200004437B
:1025600004D10098022102F0FFFC00B916B101204D
:10257000BDE8FE8F0020FBE74C4402587047000086
:102580002DE9F05F04000F467ED0DFF83882D8F8DE
:10259000000000F00F00B8420CD2D8F8001021F073
:1025A0000F013943C8F80010D8F8000000F00F0000
:1025B000B84269D12078844D40070AD5206929683E
:1025C00001F07001884204D9296821F070010143AB
:1025D000296020787C4E361D00070AD56069316875
:1025E00001F07001884204D9316821F07001014383
:1025F00031602078C0060AD5A069316801F4E06135
:10260000884204D9316821F4E061014331602078C7
:10261000DFF8B4B180060BF1080B0CD5E169584620
:10262000DBF8002002F07002914204D9026822F027
:1026300070020A430260207880070AD5E0682968A2
:1026400001F00F01884204D9296821F00F010143EC
:1026500029602078C0073ED05B49A26828681839F5
:1026600020F47060104328606068022818D00328A6
:1026700019D00968012819D0490700294ADADFF87A
:1026800048A1AAF1080A00E044E0DAF8002022F0AC
:1026900007020243CAF80020FEF7A0FD814612E0BF
:1026A00009688903E9E709688901E6E7C905E4E7FC
:1026B000FEF794FDA0EB090141F28830814202D976
:1026C0000320BDE8F09F6168DAF8000000F03800F0
:1026D000B0EBC10FECD1207880070AD5E0682968FB
:1026E00001F00F01884204D2296821F00F01014353
:1026F0002960D8F80010404601F00F01B9420BD90B
:10270000016821F00F0139430160006800F00F00FB
:10271000B84201D00120D4E7207840070AD52069CB
:10272000296801F07001884204D2296821F0700103
:1027300001432960207800070AD56069316801F0FB
:102740007001884204D2316821F070010143316088
:102750002078C0060AD5A069316801F4E06188429A
:1027600004D2316821F4E0610143316020788006B1
:102770000CD5E1695846DBF8002002F07002914266
:1027800004D2026822F070020A43026000F074F87A
:102790000E492A682B68C2F3032203F00F038A5CF8
:1027A000C95C02F01F0201F01F01D040084A20FA64
:1027B00001F111600749086007480068BDE8F05F53
:1027C000FFF718B80020005218440258888100080A
:1027D000FC000024F8000024F000002402480168F6
:1027E00041F40021016070470044025830B500F008
:1027F00043F80B4A0B490C4B15681468C5F30322C8
:1028000004F00F048A5C095D02F01F0201F01F0151
:10281000D040064A20FA01F119601060084630BD28
:102820001844025888810008FC000024F8000024A5
:1028300000B5FFF7DBFF05490968054AC1F302113E
:10284000515C01F01F01C84000BD00001C4402584B
:102850008881000800B5FFF7C9FF05490968054AE6
:10286000C1F30221515C01F01F01C84000BD00000E
:102870001C44025888810008454970B545480968DC
:10288000434B103B11F0380208D00111082A03D045
:10289000102A0BD0182A0BD0084670BD196889067B
:1028A000FBD51968C1F3C101C84070BD3A4870BD7D
:1028B0003749374D18310C1D24350A6809682668D8
:1028C0002D6802F0030406F00102C1F30511C5F3FF
:1028D000CC0515FB02F200EE102AB8EE400AE9B36F
:1028E0002F4ADFED2E0AB7EE001A6CB1DFED2D1A7C
:1028F000012C01D0022C43D002EE101A1068F8EE21
:10290000422A81EEA22A1EE01C68A40611D51B688B
:1029100001EE901A1168C3F3C103F8EE612AD840A2
:1029200001EE900AC1F30800F8EE611A81EEA22AC6
:102930000BE001EE901ADFED1C2A00BFF8EE611AE1
:10294000106882EEA12AC0F3080001EE900AF8EEAA
:10295000611A40EE201A31EE810A00E015E022EE05
:10296000000A1068C0F34620401C00EE900AF8EE02
:10297000600A80EE201ABCEEC10A10EE100A70BD8B
:1029800001EE901ADFED092AD8E7002070BD0000A3
:10299000104402580090D00340787D0100000039B7
:1029A000304402580024744A0024744C20BCBE4BAE
:1029B000064810B50068400506D5FFF7DFFD03495E
:1029C0004FF48060091D086010BD00006444025887
:1029D0002DE9F05F04007DD0FF4F2078FE4D1837C1
:1029E000DFF8F493103DC00748D0D9F800003968EB
:1029F00000F03800102815D0182803D101F003008A
:102A000002280FD06068B0F5803F12D010B1B0F549
:102A1000A02F18D0286820F480302860286820F47F
:102A2000802009E02868800328D560680028D2D07B
:102A300024E0286840F480302860606888B1FEF7A0
:102A4000CDFB064609E0286840F480202860F0E7C6
:102A5000FEF7C4FB801B64286FD828688003F7D575
:102A60000CE0FEF7BBFB064605E000BFFEF7B6FB39
:102A7000801B6428F0D828688003F7D4207841F2BE
:102A80000308D54E0C3E800769D5D9F80000396897
:102A900010F038000ED0182801D188070AD0E0685D
:102AA00090B3296821F0190101432960FEF796FBD4
:102AB000824631E02868400702D5E06800288AD0C5
:102AC000E168286820F0190008432860FEF786FBBB
:102AD000824607E0DFE000BFFEF780FBA0EB0A00C4
:102AE0000228B9D828684007F6D500BFFEF770FB6A
:102AF00040451BD82069402812D0316821F47C3130
:102B000041EA003030602AE018E000BFFEF766FBC3
:102B1000A0EB0A0002289FD828684007F6D5E5E711
:102B2000306820F47C3040F40030EBE7207C3168E2
:102B300021F0FE4141EA0060E4E70DE1286820F061
:102B400001002860FEF74AFB824605E0FEF746FBDF
:102B5000A0EB0A0002288DD828684007F6D4207818
:102B6000C0065DD5D9F80000DFF86CB2396800F016
:102B70003800ABF1040B082810D0182803D101F05D
:102B8000030001280AD0E0690028286838D040F006
:102B900080002860FEF722FB824623E02868C005FB
:102BA00023D5E069802876D11FE0206A202821D033
:102BB000316821F0F84141EA8060306030E000BFC8
:102BC00094F82010DBF8002022F07C5242EA0161E8
:102BD000CBF8001024E000BFFEF700FBA0EB0A00DA
:102BE000022898D82868C005F6D5FEF7F1FA4045C6
:102BF000E6D8DAE7306820F0F84040F08040DCE7C3
:102C000020F080002860FEF7E9FA064605E000BFE4
:102C1000FEF7E4FA801B02289DD82868C005F7D487
:102C20002078000729D56C48616964300029804606
:102C3000016811D041F001010160FEF7CFFA0646AC
:102C400005E000BFFEF7CAFA801B0228C9D8D8F8F1
:102C500000008007F6D510E021F001010160FEF7C9
:102C6000BDFA064605E000BFFEF7B8FA801B022851
:102C700072D8D8F800008007F6D42078800623D5D3
:102C8000A0690028286810D040F480502860FEF722
:102C9000A5FA064605E036E1FEF7A0FA801B0228F9
:102CA0005AD828688004F7D50EE020F480502860B8
:102CB000FEF794FA064604E0FEF790FA801B02281D
:102CC0004AD828688004F7D4207840074FD5DFF829
:102CD0000C81D8F8001041F48071C8F80010FEF79C
:102CE0007DFA064605E000BFFEF778FA801B6428EF
:102CF00032D8D8F80000C005F6D5374EA068603647
:102D000001280AD008B1052813D0306820F001004E
:102D10003060306820F0040002E0306840F00100CC
:102D20003060A06841F2883A90B1FEF757FA8046C9
:102D30000AE0306840F004003060EEE7FEF74EFA3B
:102D4000A0EB0801514507D830688007F6D50EE0A2
:102D5000FEF744FA804607E084E000BFFEF73EFA43
:102D6000A0EB080151457DD830688007F6D4606A31
:102D7000B0B3DFF86480D9F8001008F120084FF6EE
:102D8000F87B08F10409C1F3C2010329A8F1040A80
:102D900069D00228286820F08070286003D0FEF7F0
:102DA0001DFA044684E0FEF719FA064605E000BF66
:102DB000FEF714FA801B022877D828688001F7D420
:102DC000E26A40F2F331386854F8283F884340EA19
:102DD00002101843386004E01044025800480258BA
:102DE000B5E0217B434622894FF4FE0C208A4FF048
:102DF000FE474902267D521E401EA1F50071C2F316
:102E000008088AB2761E0CEA004042EA0802024331
:102E1000504607EA06610A431A60DAF8002022F0F9
:102E20000102CAF80020D9F80020266A22EA0B0223
:102E300042EAC602C9F80020DAF80010A26921F0BF
:102E40000C011143CAF800100168E26921F0020187
:102E500011430160016841F480310160016841F46F
:102E6000003101E021E027E00160016841F48021A8
:102E70000160016841F001010160286840F0807044
:102E80002860FEF7ABF9044605E000BFFEF7A6F99F
:102E9000001B022809D828688001F7D557E000BF39
:102EA000FEF79CF9001B022802D90320BDE8F09F21
:102EB00028688001F4D44AE039680128D8F8000075
:102EC00021D0A26A01F0030393421CD1E26AC1F34C
:102ED00005118A4217D1216BC0F30802491E8A42AC
:102EE00011D1616BC0F34622491E91420BD1A16BF7
:102EF000C0F30642491E914205D1E16BC0F3066062
:102F0000491E814201D00120D0E7A16C4E46D9F87C
:102F10000000C0F3CC00814219D0DAF80000554619
:102F200020F00100CAF80000FEF758F94FEA000748
:102F3000FEF754F9B842FBD0A26C306820EA0B00CF
:102F400040EAC2003060286840F00100286000209C
:102F5000ACE7401EB0F1807F10B501D3012010BD59
:102F60004FF0E02460610F21601703F053FC002054
:102F7000A0610721216110BD7047704770470000B4
:102F8000F0B590F83C20012A3BD01F4E012480F878
:102F90003C40022280F83D2002681C4D5368B2423A
:102FA000D2F808C001D0AA4203D14F6823F47003BD
:102FB0003B430F6823F070031F4357600268B2421F
:102FC00013D0B2F1804F10D0114B9A420DD0114B5B
:102FD0009A420AD0104B9A4207D0AA4205D00F4B12
:102FE0009A4202D00E4B9A4204D189682CF0800399
:102FF00019439160002180F83D4080F83C1008465C
:10300000F0BD0220F0BD00000000014000040140BE
:103010000004004000080040000C00400018004080
:103020000040014010B5040003D094F83D0010B1F9
:1030300007E0012010BD002084F83C00204600F08D
:1030400023F8022084F83D002068211D02F096FB41
:10305000012084F8480084F83E0084F83F0084F89A
:10306000400084F8410084F8420084F8430084F86A
:10307000440084F8450084F8460084F8470084F84A
:103080003D00002010BD0000F0B587B004461421BB
:103090006846FDF757FAB64A002325680224B5486A
:1030A000103AB34E0127854220D1306840F001002C
:1030B0003060306800F001000590106840F01000AA
:1030C00010601068694600F0100005902002009022
:1030D000CDE90143A848CDE90337FDF75DFF0022A4
:1030E00002211B20FEF7C2FB1B2049E0A349B5F1DA
:1030F000804FA34825D0DFF88CE24FF0400C754597
:1031000042D10D6845F002050D60096801F0020129
:103110000591116841F0010111601168CDF800C0FE
:1031200001F00101CDE901430393CDE90441694672
:10313000FDF732FF002203211D20FEF797FB1D2023
:103140001EE00D6845F001050D60096801F0010100
:103150000591116841F001011160116801F0010150
:10316000059120210091CDE90143CDE9033769465E
:10317000FDF712FF002201211C20FEF777FB1C2027
:10318000FEF766FB07B0F0BDDFF8FCE1754521D125
:10319000086840F004000860086800F0040005902A
:1031A000106840F0080010601068694600F00800E0
:1031B00005904FF480500090CDE901437348CDE96C
:1031C0000334FDF7E9FE002204211E20FEF74EFB2A
:1031D0001E20D5E7DFF8B8E175451ED10D6845F032
:1031E00008050D60096801F008010591116841F0BA
:1031F000010111601168009701F00101CDE901435F
:103200000393CDE904416946FDF7C6FE0022322052
:103210001146FEF72BFB3220B2E75E4885420ED105
:10322000086840F01000086008680022062100F0DD
:10323000100005903620FEF719FB3620A0E756480F
:1032400085420ED1086840F020000860086800221E
:10325000072100F0200005903720FEF707FB3720FC
:103260008EE74E48854239D1306840F00200306028
:10327000306800F002000590106840F00400106013
:103280001068694600F0040005900320CDF800C0E6
:10329000CDE90143CDE903304148FDF77DFE002231
:1032A00008212B20FEF7E2FA2B20FEF7D1FA0022AC
:1032B00009212C20FEF7DAFA2C20FEF7C9FA0022A9
:1032C0000A212D20FEF7D2FA2D20FEF7C1FA0022A6
:1032D00005212E20FEF7CAFA2E2051E731488542FB
:1032E0000ED1086840F040000860086800220821FC
:1032F00000F0400005902B20FEF7B8FA2B203FE7A6
:10330000294885420ED1086840F0800008600868AE
:103310000022092100F0800005902C20FEF7A6FA7B
:103320002C202DE7214885420ED1086840F480709A
:103330000860086800220A2100F4807005902D20A2
:10334000FEF794FA2D201BE7194885427FF41AAF47
:10335000306840F480303060306800220B2100F487
:10336000803005907420FEF781FA742008E7000091
:10337000F04402580000014000100258E84402588E
:10338000000002580004004000080040000C0258F1
:10339000000C0040001000400014004000040140F8
:1033A0000008025800180040001C004000200040A7
:1033B0000040014090F83D10012901D001207047E4
:1033C000174A022180F83D100168CB6843F00103E1
:1033D000CB600068904214D0B0F1804F11D01149F9
:1033E00088420ED0104988420BD01049884208D03C
:1033F0000F49884205D00F49884202D00E498842C1
:1034000007D181680D4A1140062906D0B1F5803FE9
:1034100003D0016841F00101016000207047000005
:10342000000001400004004000080040000C004083
:103430000004014000180040004001400700010066
:10344000016841F21113CA6822F00102CA600168E2
:103450000A6A1A4207D10A6A9B101A4203D10A6803
:1034600022F001020A60012180F83D10002070471F
:1034700070B5044690F83C000025012814D03A4B62
:10348000012684F83C60022084F83D0022689068A0
:10349000184020F47F409060086870282FD010DC1E
:1034A00010F00F0F03D022E04FF0020070BD4FEA82
:1034B0002012072A1BD2DFE802F0535353534B3933
:1034C0004100B0F1101F4BD009DCB0F5805F0FD088
:1034D000B0F5005F1ED0B0F5801F08D140E0A0F528
:1034E000801120393CD010293AD0202938D001252C
:1034F00084F83D60002084F83C00284670BD4A688E
:103500002068D1E9021302F0A1F92068816841F036
:10351000770109E04A682068D1E9021302F096F9C0
:103520002068816841F480418160E1E7CA684968A8
:10353000206802F00FFA2068502106E0CA68496846
:10354000206802F059FA2068602102F089F9CFE77B
:10355000CA684968206802F0FDF920684021F4E754
:10356000226801461046F0E788FFCEFF70B5434958
:103570000546006888427DD10021284600F0B0FA57
:103580003F4C0028206078D00421284600F0A8FA9B
:1035900000EE100A9FED3B1B2068B8EE400B3B4944
:1035A000B1FBF0F220EE011B00EE100A04F118014D
:1035B0003748B8EE400B81EE002B9FED360AB7EE90
:1035C000C21B81ED001A30390A60D0ED020AD0ED3D
:1035D000031A01F1480031EE601A71EEE01A21EE93
:1035E000001AC1EE210AC0ED000A183090ED001A51
:1035F00070EEC10A9FED281B30EE800AB7EEC00ABC
:1036000003F01AF9B7EEC00B04F16000244B04F18B
:103610009001244C80ED000A1D489430008800EE93
:10362000900AA1F11800B8EE601AC0EE010AC1EDCF
:10363000000A0168A838994206DD10EE102AA2425D
:1036400002DA0168491C07E0A14206DA10EE101AFE
:10365000994202DD0168491E016000684FF4B471AF
:10366000484300EE100A0648B8EE400AA83030EE93
:10367000800A00E001E080ED000A70BD0008004013
:10368000C80A0024000000000000594000E1F505D0
:10369000000000240000B4430000000000807640D9
:1036A0000000AF43000020412DE9F047054690F8A7
:1036B0003C0000260C46012810D0012085F83C0073
:1036C00072B1042A1CD0082A2CD00C2A52D0012610
:1036D000002085F83C003046BDE8F0870220FBE77B
:1036E000E3682868D4E9001202F046F92868816985
:1036F00021F00C01816128688169A26811430FE003
:10370000E3682868D4E9001202F088F92868816922
:1037100021F44061816128688169A26841EA02213F
:103720008161D5E728684FF4206CD4E90032217B11
:10373000076AD0F820800CEA0323090727F42067E2
:1037400028F4807CC0F820C0D0F81CC03B432CF08B
:103750000307174327F0F00242EA1161C1610362D7
:103760002868C16921F00C01C1612868A268C1699B
:10377000114328E0D4E9002328684FF42048E16889
:103780004FF6FF7C9946036A076A08EA023223F47F
:1037900020431A430CEA013127F480570762C369BA
:1037A00023F4407747EA092323F470431943C161A6
:1037B00002622868C16921F44061C1612868A1687A
:1037C000C26942EA0121C16182E710B5040003D059
:1037D00094F83D0010B107E0012010BD002084F8EE
:1037E0003C00204600F022F8022084F83D002068CA
:1037F000211D01F0C3FF012084F8480084F83E0039
:1038000084F83F0084F8400084F8410084F84200C6
:1038100084F8430084F8440084F8450084F84600A6
:1038200084F8470084F83D00002010BD70472DE962
:10383000F041044600680027C6680569A90713D54A
:10384000B10711D5FA1E0261012121772068806934
:103850008007204602D0FFF789FE04E000F08BF8D5
:10386000204600F089F82777680716D5700714D529
:10387000226802206FF004011161207720688069BE
:1038800010F4407F204602D0FFF770FE04E000F005
:1038900072F8204600F070F82777280715D5300712
:1038A00013D5226804206FF0080111612077206889
:1038B000C0698007204602D0FFF758FE04E000F000
:1038C0005AF8204600F058F82777E80616D5F00693
:1038D00014D5226808206FF010011161207720684C
:1038E000C06910F4407F204602D0FFF73FFE04E09D
:1038F00000F041F8204600F03FF82777E80708D0AD
:10390000F00706D021686FF001000861204600F042
:1039100035F8280601D4A80408D5300606D5216854
:103920006FF4025008612046FFF727FBE80508D531
:10393000300606D521686FF4807008612046FFF7D5
:103940001BFB680608D5700606D521686FF040009D
:103950000861204600F005F9A8060AD5B00608D58A
:1039600021686FF0200008612046BDE8F041FFF7B4
:1039700005BBBDE8F0817047704700002DE9F05F9E
:103980004E4B00264C4C4FF0010C016803F13C02F9
:10399000DFF830A103F118094948A142AAF1060B4A
:1039A0000AF10C0702F1180402F1300531D187F851
:1039B00000C00914D4F800C00CF1010CC4F800C018
:1039C0001B889C4501D2012205E01288521E9445B5
:1039D00004D24FF00002FDF7F5FB05E004D12660AC
:1039E000286800F101002860B9F8000029688142C8
:1039F00003D39AF80000012803D09BF800000028A8
:103A000005D13148FFF71CFD26602E603E70BDE8F1
:103A1000F09FDFF8B880414532D187F801C04FF4FC
:103A20008061D4F804C00CF1010CC4F804C05B88B8
:103A30009C4501D2012205E05288521E944504D2D1
:103A40004FF00002FDF7BEFB05E004D16660686838
:103A500000F101006860B9F800006968814203D391
:103A60009AF80100012803D09BF801000028CED16C
:103A700015484C30FFF7E4FC66606E607E70C6E768
:103A80001348814203D1A068401CA060BFE71148E1
:103A9000814203D1E068401CE060B8E70E488142F3
:103AA00003D12069401C2061B1E70C488142AED1AE
:103AB0006069401C6061AAE700100040980900247A
:103AC0000004025824000024A8040024001400402C
:103AD00000180040001C0040002000400040014051
:103AE00002464FF0000041B1042909D008290AD04C
:103AF0000C2901D11068006C70471068406B70474A
:103B00001068806B70471068C06B704770B50446D2
:103B100090F83C00012812D0012584F83C50022086
:103B200084F83D00204601F0A5FE00284FF000007B
:103B300007D084F83D5084F83C00012070BD02207D
:103B400070BD2168CA6822F04002CA602168CA6854
:103B500022F48042CA6084F83D5084F83C00002082
:103B600070BD704730B590F88410012918D001223B
:103B700080F884202421C0F88810002220240168C5
:103B80000B680D6823F0005325F001050D604266B7
:103B900001680B60C0F8884080F88420104630BD72
:103BA000022030BD7047704770B5044690F884001D
:103BB00001281DD0012284F884202420C4F8880024
:103BC00020680568026822F00102026020688268AD
:103BD00022F060620A438260204601F041FF2268C1
:103BE000202100201560C4F8881084F8840070BD7E
:103BF000022070BD70B5044690F8840001281DD0E5
:103C0000012284F884202420C4F8880020680568F4
:103C1000026822F0010202602068826822F060429D
:103C20000A438260204601F01BFF22682021002009
:103C30001560C4F8881084F8840070BD022070BD3F
:103C40007047704770470146D0F88800D1F88C1053
:103C5000084370472DE9F04107680025044640F607
:103C60000F030226F8693968BA6818420AD1830638
:103C70007ED501F0200302F0805C53EA0C0377D07C
:103C8000616F74E1CF4BDFF840C3134001EA0C0CC5
:103C900053EA0C0C6CD05FEAC07C0CD05FEAC15CCC
:103CA00009D54FF0010CC7F820C0D4F8907047F048
:103CB0000107C4F89070870709D5D70707D0276890
:103CC0003E62D4F8906046F00406C4F8906046075F
:103CD0000AD5D60708D0276804263E62D4F890603B
:103CE00046F00206C4F8906006070CD501F02006E5
:103CF0001E4308D0266808233362D4F8903043F07E
:103D00000803C4F8903003050BD54B0109D526688C
:103D10004FF400633362D4F8903043F02003C4F8CA
:103D20009030D4F89030002B3DD0800609D501F0BA
:103D3000200002F08051084303D0616F09B1204692
:103D400088472168D4F890008968490602D410F0A9
:103D5000280F2AD0204601F069FF206880684006BD
:103D60001ED52068083050E8001F21F0400100E017
:103D700021E040E80012002AF3D1D4F8800078B1A5
:103D800092490165D4F88000FCF7A4FF00280AD00E
:103D9000D4F88000016D00E02046BDE8F0410847FE
:103DA0002046FFF74FFFBDE8F0812046FFF74AFFAE
:103DB000C4F89050F7E7D4F86CC02023BCF1010F91
:103DC0007ED15FEAC06C7BD55FEAC16C78D51020EC
:103DD000386220688068400673D5D4F880107C4A29
:103DE0000868904234D07A4A1832904230D0784AEB
:103DF000303290422CD0764A4832904228D0744AD1
:103E00006032904224D0724A7832904220D0704A78
:103E1000903290421CD06E4AA832904218D06D4A1F
:103E2000904215D06B4A1832904211D0694A303214
:103E300090420DD0674A4832904209D0654A6032BC
:103E4000904205D0634A7832904201D0614A903264
:103E500040680004000CA6D0B4F85C208242A2D9CD
:103E6000A4F85E00C869B0F5807F2FD0216851E8C2
:103E7000000F20F4807041E80002002AF6D120688B
:103E8000083050E8001F21F0010140E80012002A2C
:103E9000F5D12068083050E8001F21F0400140E8CB
:103EA0000012002AF5D1C4F88C30E566216851E88B
:103EB000000F20F0100041E80002002AF6D101E0D6
:103EC00040E00BE0D4F88000FCF754FD2667B4F81E
:103ED0005C00B4F85E10401A81B22FE0B4F85C00C8
:103EE000B4F85E10B4F85E20401A81B2002AB2D055
:103EF0000029B0D0226852E8000F20F4907042E808
:103F00000007002FF6D1344F206800F1080050E878
:103F1000002F02EA070240E8002CBCF1000FF3D1A9
:103F2000C4F88C30E5666567206850E8002F22F001
:103F3000100240E80023002BF6D126672046FFF749
:103F400031FE30E7C60209D5560207D54FF480107E
:103F500038622046BDE8F041FFF773BE06060AD579
:103F600001F0800602F40002164304D0A16F00297C
:103F70007FF412AF17E7420611D54A060FD5204647
:103F8000026852E8001F21F0400142E80014002CB2
:103F9000F6D1C0F88830856700F084F903E70202A3
:103FA00006D54A0004D52046BDE8F041FFF748BEDB
:103FB000C001C6D50029C4DA2046BDE8F041FFF7AC
:103FC000F2BD00000100001020010004175C000891
:103FD0001000024010040240FEFFFFEF10B5040085
:103FE00003D0D4F8880010B107E0012010BD0020F4
:103FF00084F88400204600F027F82420C4F88800C4
:104000002068016821F001010160A06A10B120461A
:1040100001F048FD204602F09BF80128E6D0206818
:10402000416821F4904141602068816821F02A01B3
:1040300081602068016841F0010101602046BDE80F
:10404000104001F093BD000010B5B6B00446142135
:1040500030A8FCF777FAC0216846FCF773FA1F49CD
:104060002068884237D103680222002143F0100300
:104070000C46036068461E91CDE90021FDF7A8FDBE
:1040800008B1FCF752FB1648016841F400210160B9
:10409000006800F40020359011480838016841F0AC
:1040A00001010160006830AB022100F00100359091
:1040B0004FF4C050062283E813000A4830A9CDE926
:1040C0003342FCF769FF00220C213420FDF7CEFBC0
:1040D0003420FDF7BDFB36B010BD0000004C0040A1
:1040E000E84402580000025830B4D0F88C30202B3D
:1040F00002D0022030BC7047A9B1A2B10B4D002400
:104100000368C466AB420BD05B681B0208D5046829
:1041100054E8003F43F0806344E80035002DF6D1B9
:1041200030BC02F0EBB90120E4E70000000C0058BD
:1041300010B500680649884209D102F009FC054C17
:104140000121606104484170FDF748F8206110BD0D
:10415000004C004000000024300100242DE9F84309
:104160000446D0F88800984616460D46202802D00E
:104170000220BDE8F883A5B19EB10021C4F89010DB
:104180002120C4F888001834FDF728F8814654F837
:10419000100CA687E6872027183CB0F5805F02D078
:1041A00003E00120E5E7206910B12E46002510E06C
:1041B00000260EE08021204602F0E1FAC0B9DEB10F
:1041C00016F8010B21688862B4F85600401EA4F866
:1041D0005600B4F856004B464FF00002CDF8008070
:1041E0000028E7D14FF04001204602F0C8FA48B15C
:1041F000C4F888700320BCE735F8020B2168C0F3CF
:104200000800E0E7C4F888700020B2E710B5D0F8E5
:104210008830202B01D0022010BD21B31AB3A0F8A2
:1042200054200023A0F856204FF48054426E0165BC
:1042300021218367C0F89030C0F88810B2F1005F88
:10424000816812D0A14201D1016909B31149816786
:10425000026852E8001F41F0800142E80013002B81
:10426000F6D1002010BD012010BDA14201D101698D
:1042700061B1094981670168083151E8002F42F4B2
:10428000000241E80023002BF5D1EAE70349F1E7FA
:104290000349DCE7CB66000819670008616600087F
:1042A0000D66000810B500680549884206D102F085
:1042B0004FFB0449012248610348027010BD000011
:1042C000004C00400000002430010024FEE701689B
:1042D0008A69D243920701D400228A620068816908
:1042E000C943C90703D0816941F001018161704769
:1042F0002DE9F047044600680026894617464FF02E
:10430000200835468169C90641D51021C1612FE0D9
:10431000B9F1FF3F2CD0FCF761FFC11B494502D822
:10432000B9F1000F24D12068426894F842108369E3
:1043300002F48042DB431B0415D4B2F5804F12D047
:10434000202910D0416841F480414160FCF746FFCC
:10435000074608E0FCF742FFC01B192803D90126D5
:1043600045F0200504E020688069C0438006F1D450
:1043700020688069C043800602D5002EC8D003E0C3
:1043800016B92168C1F81C80012645F00405216892
:104390008869C20505D54FF48072CA6145F00105F0
:1043A000012641050AD5216880054FF4806245F059
:1043B0000805CA614FF0010602D40AE0800507D55E
:1043C000206801264FF4007145F00205C16100E04C
:1043D0008EB12046FFF77BFF20680021074F43681E
:1043E0003B404360606C2843606484F8418084F8FB
:1043F000421084F840103046BDE8F08700E800FE27
:104400002DE9F843174604461548DAB2DDE9089865
:104410001E4600900023204600F024F842464946FC
:10442000204600F0A1F8B8B9012EFDB208D02068EE
:10443000390A816242464946204600F095F858B94B
:1044400020688562002240214B462046CDF800803E
:1044500000F020F8002800D00120BDE8F88300001B
:104460000020008070B50068C1F3090141EA0241F3
:10447000074D049C19434FF480664268214306EAC5
:1044800054532B439A4321F000410A43426070BDCC
:10449000FF63FF032DE9F0411D4617460E46044613
:1044A000DDF8188028E0424629462046FFF720FF25
:1044B00010B10120BDE8F081681C1DD0FCF78EFE14
:1044C000A0EB0800A84200D8B5B92068806936EA98
:1044D00000000FD00020B8420ED1626C002084F89A
:1044E0004000202142F02002626484F8411084F8E8
:1044F0004200DEE70120EEE72068806936EA00002E
:1045000004D00020B842CED00020D3E70120F9E744
:1045100070B516460D4604461FE032462946204631
:10452000FFF7E6FE08B1012070BDFCF757FE801BC7
:10453000A84200D88DB920688069C04380060CD598
:10454000626C002084F84000202142F02002626466
:1045500084F8411084F84200E5E720688069C04390
:104560008006DAD4002070BD70B516460D460446AC
:1045700021E0324629462046FFF7BAFE08B1012065
:1045800070BD681C17D0FCF729FE801BA84200D81C
:104590008DB920688069C04380070CD5626C00200B
:1045A00084F84000202142F02002626484F8411027
:1045B00084F84200E3E720688069C0438007D8D4CC
:1045C000002070BD2DE9F04F87B014216846FBF73D
:1045D000B9FF7A48016841F010010160016801F0FB
:1045E00010010591016841F004010160016801F0CA
:1045F00004010591016841F080010160016801F04A
:1046000080010591016841F001010160016801F03C
:1046100001010591016841F002010160016801F0AA
:1046200002010591016841F0080101600068002263
:10463000DFF88CB1932100F0080005905846FCF794
:10464000C1FDDFF88081002296214046FCF7BAFDCB
:10465000DFF87491002245F20D414846FCF7B2FDA7
:10466000DFF868A100224FF4BA415046FCF7AAFDDA
:104670004FF40457564800223946FCF7A3FD3C028C
:10468000694601257C208DE831005046FCF784FC0A
:10469000680369468DE831005846FCF77DFC00242C
:1046A0006946932000905846CDE901540394FCF7E5
:1046B00073FC86200090CDE901546946404603947E
:1046C000FCF76AFC032669461020CDE90005CDE918
:1046D00002464046FCF760FC44F201406946CDE9E1
:1046E0000005CDE902464846FCF756FC41F20C00B5
:1046F0000090CDE90154694648460394FCF74CFC10
:104700004FF488506946CDE90005CDE90246504690
:10471000FCF742FC4FF498400090CDE90154694603
:1047200050460394FCF738FC00976946CDE90154E4
:1047300027480394FCF730FC022569464FF4F850F3
:1047400002AACDE900050C27584682E8D000FCF704
:1047500023FC0420694602AACDE900051C4882E832
:10476000D000FCF719FC00220D210820FDF77EF88F
:104770000820FDF76DF800220D210920FDF776F8DD
:104780000920FDF765F800220D210A20FDF76EF8DB
:104790000A20FDF75DF800220E211720FDF766F8CC
:1047A0001720FDF755F800220E212820FDF75EF8AE
:1047B0002820FDF74DF807B0BDE8F08FE04402581F
:1047C0000008025800000258000402580010025865
:1047D000000C02581248002110B5104C0123114A58
:1047E0000460C0E90121C0E9033141618161C16117
:1047F0000162FCF74FFD08B172B6FEE708480021E0
:10480000FCF7F2FC08B172B6FEE705480021FCF7A0
:1048100017FD002801D072B6FEE710BD005400401D
:10482000D80200245919400010B588B01648002459
:10483000144963220094019402940394049405940F
:104840000694C0E90014C0E9024204618461FEF7E5
:10485000E9FB08B172B6FEE74FF4805000900A48B9
:104860006946FEF705FE08B172B6FEE7064804A9E0
:1048700004940694FEF784FB002801D072B6FEE78C
:1048800008B010BD001800408C05002410B588B099
:10489000174800241549632200940194029403945C
:1048A000049405940694C0E90014C0E9024204612E
:1048B00044618461FEF7B6FB08B172B6FEE74FF4BF
:1048C000805000900A486946FEF7D2FD08B172B6E2
:1048D000FEE7074804A904940694FEF751FB00285C
:1048E00001D072B6FEE708B010BD000000400140E4
:1048F0007006002430B591B00024142107A80C9450
:104900000D940E940F94FBF71DFE2E484FF6FF7288
:10491000009401942A490294039404940594069403
:10492000C0E90014C0E90242046144618461FEF7F9
:1049300079FB08B172B6FEE74FF480500C90214825
:104940000CA9FEF795FD08B172B6FEE71D48FEF70B
:104950003CFF08B172B6FEE7042507955020CDE96B
:104960000804184807A9CDE90A45FFF7CFF808B1B0
:1049700072B6FEE7012069460022CDE90245CDE985
:1049800000401048FEF790FE08B172B6FEE7022024
:104990000090019004220B486946FEF785FE08B19D
:1049A00072B6FEE7074804A9049405940694FEF73E
:1049B000E7FA002801D072B6FEE711B030BD000062
:1049C000000001402C03002430B591B000241421D4
:1049D00007A80C940D940E940F94FBF7B3FD2C488C
:1049E000621E00944FF08041019402940394049459
:1049F00005940694C0E90014C0E902420461846190
:104A0000FEF710FB08B172B6FEE74FF480500C9031
:104A10001F480CA9FEF72CFD08B172B6FEE71C4832
:104A2000FEF7D3FE08B172B6FEE7042507955020C5
:104A3000CDE90804164807A9CDE90A45FFF766F84D
:104A400008B172B6FEE7012069460022CDE90245B1
:104A5000CDE900400E48FEF727FE08B172B6FEE72A
:104A6000022000900190042209486946FEF71CFECE
:104A700008B172B6FEE7064804A904940694FEF74E
:104A80007FFA002801D072B6FEE711B030BD0000F9
:104A90007803002430B591B00024142107A80C94A9
:104AA0000D940E940F94FBF74DFD2D484FF6FF72B9
:104AB0000094019429490294039404940594069463
:104AC000C0E90014C0E9024204618461FEF7AAFA59
:104AD00008B172B6FEE74FF480500C9020480CA944
:104AE000FEF7C6FC08B172B6FEE71D48FEF76DFE84
:104AF00008B172B6FEE7042507955020CDE90804F9
:104B0000174807A9CDE90A45FFF700F808B172B6C2
:104B1000FEE7012069460022CDE90245CDE90040CB
:104B20000F48FEF7C1FD08B172B6FEE70220009003
:104B3000019004220A486946FEF7B6FD08B172B634
:104B4000FEE7074804A904940694FEF719FA002822
:104B500001D072B6FEE711B030BD00000004004085
:104B6000C403002430B591B00024142107A80C948C
:104B70000D940E940F94FBF7E5FC2D484FF6FF7251
:104B80000094019429490294039404940594069492
:104B9000C0E90014C0E9024204618461FEF742FAF0
:104BA00008B172B6FEE74FF480500C9020480CA973
:104BB000FEF75EFC08B172B6FEE71D48FEF705FE83
:104BC00008B172B6FEE7042507955020CDE9080428
:104BD000174807A9CDE90A45FEF798FF08B172B654
:104BE000FEE7012069460022CDE90245CDE90040FB
:104BF0000F48FEF759FD08B172B6FEE7022000909B
:104C0000019004220A486946FEF74EFD08B172B6CB
:104C1000FEE7074804A904940694FEF7B1F90028BA
:104C200001D072B6FEE711B030BD000000080040B0
:104C30001004002430B591B00024142107A80C946E
:104C40000D940E940F94FBF77DFC2C48621E00948B
:104C50000194294902940394049405940694C0E9AC
:104C60000014C0E9024204618461FEF7DBF908B177
:104C700072B6FEE74FF480500C9020480CA9FEF766
:104C8000F7FB08B172B6FEE71C48FEF79EFD08B1BF
:104C900072B6FEE7042507955020CDE908041748B1
:104CA00007A9CDE90A45FEF731FF08B172B6FEE764
:104CB000012069460022CDE90245CDE900400F48B8
:104CC000FEF7F2FC08B172B6FEE7022000900190F8
:104CD00004220A486946FEF7E7FC08B172B6FEE70F
:104CE000064804A904940694FEF74AF9002801D066
:104CF00072B6FEE711B030BD000C00405C04002429
:104D000030B591B00024142107A80C940D940E9492
:104D10000F94FBF717FC2E484FF6FF720094019496
:104D20002A4902940394049405940694C0E900145B
:104D3000C0E90242046144618461FEF773F908B17D
:104D400072B6FEE74FF480500C9021480CA9FEF794
:104D50008FFB08B172B6FEE71D48FEF736FD08B1BD
:104D600072B6FEE7042507955020CDE908041848DF
:104D700007A9CDE90A45FEF7C9FE08B172B6FEE7FC
:104D8000012069460022CDE90245CDE900401048E6
:104D9000FEF78AFC08B172B6FEE70220009001908F
:104DA00004220B486946FEF77FFC08B172B6FEE7A5
:104DB000074804A9049405940694FEF7E1F8002836
:104DC00001D072B6FEE711B030BD00000004014012
:104DD0004005002418480C2210B54FF4E134154B5F
:104DE0000021C0E9003481601023C160C0E90412D1
:104DF00081611C02C161C4630162C0E90913FFF74C
:104E0000EDF808B172B6FEE70B480021FEF7F2FE9E
:104E100008B172B6FEE708480021FEF7C5FE08B1EA
:104E200072B6FEE70448FEF79DFE002801D072B678
:104E3000FEE710BD004C0040BC060024FEE7FDF775
:104E4000B7FDFEE7704700002DE9F047454D0446E9
:104E500089464FF0000A2868C04380070AD0414EB7
:104E6000283E306820F080603060FCF7B7F90746D4
:104E7000B04608E00120BDE8F08700BFFCF7AEF9BE
:104E8000C01B022867D8D8F800000001F6D42068BB
:104E900029684FF4FE0721F47C313E0241EA0030DC
:104EA0002860207AA389B4F804C040022D4D2D4912
:104EB0005B1E227CACF1010C1035091DA0F50070C1
:104EC00080B2521ECCF3080C07EA034340EA0C0000
:104ED000184306EA0262104328600868626920F0FD
:104EE000C000104308600A68A06922F02002024353
:104EF0000A60281D0A6822F010020A6002684FF654
:104F0000F873E4699A4342EAC40202600868B9F19E
:104F1000000F40F010020A6011D00868B9F1010FCB
:104F200011D040F400100860D8F80000444640F06A
:104F30008060C8F80000FCF751F905460DE00868EC
:104F400040F40020EFE740F48010ECE7FCF746F96E
:104F5000401B022801D903208DE720680001F5D508
:104F6000504688E7284402582DE9F047454D04464D
:104F700089464FF0000A2868C04380070AD0414E96
:104F8000283E306820F080503060FCF727F9074653
:104F9000B04608E00120BDE8F08700BFFCF71EF92D
:104FA000C01B022867D8D8F800008000F6D42088FB
:104FB00029684FF4FE0721F07C713E0241EA00505F
:104FC0002860207AA389B4F804C040022D4D2D49F1
:104FD0005B1E227CACF1010C1835091DA0F5007098
:104FE00080B2521ECCF3080C07EA034340EA0C00DF
:104FF000184306EA0262104328600868626920F4D8
:105000004060104308600A68A06922F400720243FD
:105010000A60281D0A6822F480720A6002684FF64E
:10502000F873E4699A4342EAC40202600868B9F17D
:10503000000F40F480720A6011D00868B9F1010FC6
:1050400011D040F080700860D8F80000444640F06D
:105050008050C8F80000FCF7C1F805460DE008686C
:1050600040F48000EFE740F40000ECE7FCF7B6F80E
:10507000401B022801D903208DE720688000F5D568
:10508000504688E7284402580149086070470000EC
:10509000E0000024002010B500F024F8BDE8104026
:1050A00000F04AB930B5802813D2402911D20B4BF9
:1050B00001F00704C90800EBC11109481D7901235B
:1050C000A3400DB132B101E0012A03D0425C9A4302
:1050D000425430BD425C1A43FAE70000E400002469
:1050E000D80B002428B1FF2203484FF48061FBF75E
:1050F000FFB90022F8E70000D80B0024014A108015
:1051000051807047E400002410B502F00BFB5648B4
:105110000122782144F62063FCF71CF908B1002035
:1051200010BD40F6C210401EFDD1AE2200217820F5
:1051300002F0FEFA20220021782002F0F9FA102273
:105140000021782002F0F4FAB0220021782002F049
:10515000EFFAC8220021782002F0EAFA0022782033
:10516000114602F0E5FA10220021782002F0E0FA60
:1051700040220021782002F0DBFA812200217820F1
:1051800002F0D6FAFF220021782002F0D1FAA12203
:105190000021782002F0CCFAA6220021782002F02B
:1051A000C7FAA8220021782002F0C2FA3F2200218B
:1051B000782002F0BDFAA4220021782002F0B8FA8B
:1051C000D3220021782002F0B3FA00227820114681
:1051D00002F0AEFAD5220021782002F0A9FAF022DE
:1051E0000021782002F0A4FAD9220021782002F0D0
:1051F0009FFA22220021782002F09AFADA22002176
:10520000782002F095FA12220021782002F090FA1C
:10521000DB220021782002F08BFA20220021782066
:1052200002F086FA8D220021782002F081FA142201
:105230000021782002F07CFAAF220021782002F0D1
:1052400077FA2E220021782002F072FA0020FFF770
:1052500049FF00F071F805480021012201804180DA
:105260004271104610BD0000D8020024E400002462
:105270002DE9F0478146254892460D460978028877
:105280001144802905D26978804640880844402826
:1052900002D30020BDE8F08700262AE0A9F1200112
:1052A0006A68002411FB006032F810701DE000BF36
:1052B00007FA04F0000409D5B8F802105246B8F80D
:1052C00000003144204489B280B20BE0BAF1000FF3
:1052D0001AD00022B8F80210B8F800003144204477
:1052E00089B280B2FFF7DEFE641C2878A042DFD8C6
:1052F000761C6878B042D1D829784846B8F80020A2
:105300001144A8F80010C5E70122E3E7E4000024F7
:1053100070B515460E46044609E02A463146FFF7A9
:10532000A7FF2178884201D0C8B270BD641C2078E4
:105330000028F2D1C0B270BD70B5104D5FF000040E
:1053400004F1B000C2B20021782002F0F1F900228D
:105350007820114602F0ECF910220021782002F0AA
:10536000E7F980234021782005EBC41202F0F0F920
:10537000641CE4B2082CE3D370BD0000D80B0024F9
:105380007047000010B594B00C46482102A8FBF706
:10539000D9F807495022D1E90E01CDE900010548AD
:1053A00069468DF804400068FEF730FF14B010BD68
:1053B00014810008E00000242DE9FF4FA9B0144635
:1053C0000D4606464C216F4601A8FBF7BBF8524834
:1053D00015AA17AB0DF1740C0DF17C0980680DF165
:1053E0006C0A00900DF1640BD5E900010DF1840EFB
:1053F000CDE91501D5E90201CDE91701D5E904018F
:10540000CDE91D01D4E90001CDE91F01D4E9020174
:10541000CDE91B01D4E90401CDE91901D4E9060164
:10542000CDE92101D4E90801CDE92301D4E90A013C
:10543000CDE925015FF00000391812F8008081F8ED
:10544000048013F8008081F80C801CF8008081F83B
:10545000148019F8008081F81C801AF8008081F807
:1054600024801BF8008081F82C801EF8008081F8D1
:1054700034800DF18C0818F8008081F83C800DF123
:10548000940818F80080401C082881F84480D3DB79
:10549000D5E9001206F58070C6E95212D5E902126C
:1054A000C0E91412D5E90412C0E91612D4E90012B9
:1054B000C0E91812D4E90212C0E91A12D4E90412A0
:1054C000C0E91C12D4E90612C0E91E12D4E9081280
:1054D0008030C6E96012D4E90A2369464907C0E969
:1054E00002232C988DF84D0036988DF84E00379891
:1054F0008DF84F0005D0022086F89F012DB0BDE841
:10550000F08F012086F89F010448642350226946E9
:105510000068FEF723FEF1E714810008E000002494
:105520000348502201490068FEF7DEBD880B0024C5
:10553000E0000024FCF728B970B59CB04C21684607
:10554000FBF700F8202113A8FAF7FCFF0220FCF774
:10555000BFF92149002421480A6822F001020A60AB
:105560000968016841F440410160016801F440416B
:105570001B9101688904FCD5022009904025012176
:10558000009104230A90C2030192CDE90B05CDE9F5
:105590000D030FAB0C2183E8130068461294FDF74E
:1055A00017FA08B172B6FEE708221A95CDE916255A
:1055B00013AA3F200321502382E813001E01022179
:1055C00013A8CDE91836FCF7DBFF08B172B6FEE789
:1055D000FDF704F91CB070BD2C040058184802589F
:1055E0002C48F0B52C4A016841F470010160106844
:1055F00000F00F00072804D2106820F00F00C01D33
:10560000106026490020254C10340B68244D43F0CF
:1056100001030B6020600B682B400B60136803F0E4
:105620000F03072B04D9136823F00F03DB1D13604E
:105630001A4C1C4A18341C4B261D371D2060174C71
:105640001A4D28343060261D3860371D23603B1DFD
:1056500035601C1D3A60251D2E1D1860331D22600B
:105660002860326018600A680C4B114C22F48022CA
:1056700060330A60186020686FF30F00B0F1005FBC
:1056800003D20C490120C1F8080143F2D2000A49B3
:105690000860F0BD88ED00E0002000520044025890
:1056A0007FEDF6EA80020101000202020000FF0124
:1056B0000010005C00800051004000520148FEF7DD
:1056C000B6B80000700600240148FEF7B0B800002C
:1056D0002C0300240148FEF7AAB800007803002438
:1056E0000148FEF7A4B80000C40300240148FEF7F7
:1056F0009EB80000100400240148FEF798B800008E
:105700005C0400240148FEF792B80000A8040024BD
:105710000148FEF78CB80000F4040024044810B5DA
:10572000FEF785F8BDE810400248FEF780B800009B
:10573000400500248C0500240148FEF778B80000DD
:1057400040050024044810B5FEF771F8BDE810408C
:105750000248FEF76CB8000040050024240600242F
:10576000044810B5FEF763F8BDE810400248FEF7A4
:105770005EB8000040050024D80500242DE9F0475C
:105780002A4B4FF0804A2A4D02689842294E2A4FF0
:105790002A4C09D0504507D0A84205D0B04203D0CA
:1057A000B84201D0A04205D1D1F804C022F0700265
:1057B0004CEA0202DFF888C0DFF888809842DFF800
:1057C00088900FD050450DD0A8420BD0B04209D0E0
:1057D000B84207D0A04205D0604503D0404501D073
:1057E000484503D1CD6822F440722A434D6922F026
:1057F00080022A43026098428A68C2620A68826212
:1058000007D0A04205D0604503D0404501D04845AF
:1058100001D109690163012141610169C90703D00F
:10582000016921F001010161BDE8F087000001403C
:105830000004004000080040000C0040000401404B
:1058400000400140004401400048014042EA032278
:1058500083680A4323F47F410A4382607047000053
:10586000034B82681A400A4342F007018160704787
:105870008FFFCFFF2DE9F041D1E900230668002416
:10588000DFF8C0C0304FB56805EA0C052B433B403C
:105890001A43B2604A68B2F1101F27D014DC402AC4
:1058A0002ED007DC12B3102A20D0202A1ED0302A96
:1058B0001BD11BE0502A39D0602A3DD0702A18D065
:1058C000B2F5801F11D111E02049501A8A420DD043
:1058D00004DCA2F58012A2F12002E3E7102805D033
:1058E0001B49401802D0102800D001242046BDE8F2
:1058F000F0818A680068D1E90313FFF7A7FFF5E795
:105900000A68052A10D00268136A156A25F0010595
:10591000156202680D69916921F0F00141EA0511F3
:10592000916100680362E1E70120E0E70A6900682D
:10593000896800F00FF8D9E70A690068896800F003
:105940005BF8D3E78FFFCFFFF8FFFEFF600010008A
:105950006000F0FF10B5036A046A23F00A0324F024
:105960000104046284690B4324F0F00141EA02114E
:105970008161036210BD000070B5184C056A066AAB
:10598000A04226F001040462846914D0B0F1804F73
:1059900011D0134EB0420ED0124EB0420BD0124E68
:1059A000B04208D0114EB04205D0114EB04202D0E4
:1059B000104EB04203D124F00304144301E044F03C
:1059C00001041A0724F0F00325F00A0401F00A018B
:1059D000214343EA12628261016270BD000001400E
:1059E0000004004000080040000C0040000401409A
:1059F000001800400040014010B5036A046A23F01B
:105A0000A00324F010040462846943EA011124F421
:105A1000704343EA02328261016210BD70B54FF6F5
:105A2000FF7404EA0333046AA025066A05EA01113B
:105A300026F01006066224F0A0058469294324F4A8
:105A4000407444EA022222F47042134383610162EB
:105A500070BD00000148FEF7FDB80000BC06002440
:105A600030B5416EB9B101680D4B03F108048A6885
:105A70008968C2F34262490F5D5C615C2D01B5FB30
:105A8000F1F1A0F86A10995CA25C0901B1FBF2F196
:105A9000A0F8681030BD0121A0F86A10F8E70000F6
:105AA0007881000890F82810090706D50168836BF3
:105AB0004A6822F400421A434A6090F82810C90745
:105AC00006D00168C36A4A6822F400321A434A6069
:105AD00090F82810890706D50168036B4A6822F4FC
