:020000040800F2
:10000000C8150024790300087B5A0008694F0008CE
:10001000795A0008D10600086B7300080000000040
:10002000000000000000000000000000BD5F0008AC
:10003000F908000800000000815A000875600008F7
:100040009303000893030008930300089303000838
:100050009303000893030008930300089303000828
:1000600003090008090900080F090008D50600085F
:100070009303000893030008930300089303000808
:1000800093030008930300089303000893030008F8
:100090009303000893030008930300081509000860
:1000A00093030008930300089303000821620008EB
:1000B0002D620008396200084562000893030008B9
:1000C00093030008930300089303000893030008B8
:1000D00093030008930300089303000893030008A8
:1000E000FB08000893030008000000005D620008A0
:1000F000A162000885620008796200089303000885
:10010000930300089303000851620008930300085A
:10011000AD650008930300089303000893030008EB
:100120009303000893030008930300089303000857
:100130009303000893030008930300089303000847
:1001400000000000000000000000000000000000AF
:100150009303000893030008930300089303000827
:100160009303000893030008930300089303000817
:1001700093030008930300089303000800000000A5
:1001800093030008930300089303000893030008F7
:1001900093030008930300089303000893030008E7
:1001A00093030008930300089303000893030008D7
:1001B00093030008930300089303000893030008C7
:1001C00093030008930300089303000893030008B7
:1001D00093030008930300089303000893030008A7
:1001E0009303000893030008930300089303000897
:1001F0009303000893030008930300089303000887
:100200009303000893030008930300089303000876
:10021000FD610008096200081562000893030008E8
:1002200093030008930300089303000800000000F4
:1002300093030008930300080000000093030008E4
:100240009303000893030008930300089303000836
:100250009303000893030008930300089303000826
:100260009303000893030008930300089303000816
:1002700093030008930300089303000800000000A4
:100280009303000893030008930300080000000094
:10029000000000009303000800F002F800F05CF892
:1002A0000AA090E8000C82448344AAF10107DA45D1
:1002B00001D100F051F8AFF2090EBAE80F0013F0C7
:1002C000010F18BFFB1A43F001031847088800000C
:1002D000288800000A444FF0000C10F8013B13F08E
:1002E000070408BF10F8014B1D1108BF10F8015B8F
:1002F000641E05D010F8016B641E01F8016BF9D182
:1003000013F0080F1EBF10F8014BAD1C0C1B09D1D8
:100310006D1E58BF01F801CBFAD505E014F8016B4A
:1003200001F8016B6D1EF9D59142D6D370470000DC
:100330000023002400250026103A28BF78C1FBD8EE
:10034000520728BF30C148BF0B6070471FB507F088
:10035000BFFF1FBD10B510BD00F085F91146FFF7B6
:10036000F5FF07F063F900F0A3F903B4FFF7F2FF1C
:1003700003BC00F0A7F9000009488047094800477E
:10038000FEE7FEE7FEE7FEE7FEE7FEE7FEE7FEE745
:10039000FEE7FEE704480549054A064B70470000A2
:1003A0002161000899020008C80F0024C815002424
:1003B000C8110024C811002453EA020C00F069801F
:1003C0002DE9F04B4FF00006002B1FBFB3FA83F569
:1003D00003FA05F424FA05F65E4012BF1643B2FA9A
:1003E00082F502FA05F4C5F120051EBF22FA05FCCC
:1003F00044EA0C04203556EA044C4FEA144418BF72
:10040000641C4FF000084FF00009904271EB030CA0
:1004100039D3002919BFB1FA81F701FA07F6B0FA0A
:1004200080F700FA07F6C7F120071EBF20FA07FC85
:1004300046EA0C062037B6FBF4FCA7EB0507103F95
:1004400007F01F0BCBF120060CFA0BFB2CFA06F67B
:1004500044BFB3460026202FA4BF5E464FF0000BDA
:100460005BEA060C08BF4FF0010B19EB0B09ABFB65
:10047000027C48EB0608C01B06FB02CC0BFB03CC3E
:1004800071EB0C01C1E70B46024641464846BDE808
:10049000F08B13B54FF000004FF00001AFF3008078
:1004A000BDE81C407047032A40F2308010F0030C76
:1004B00000F0158011F8013BBCF1020F624498BFB7
:1004C00011F801CB00F8013B38BF11F8013BA2F154
:1004D000040298BF00F801CB38BF00F8013B11F0CF
:1004E000030300F08480083AC0F0088051F8043B10
:1004F000083A51F804CBA0E80810F5E7121D5CBFDC
:1005000051F8043B40F8043BAFF30080D20724BF0E
:1005100011F8013B11F801CB48BF11F8012B24BFA2
:1005200000F8013B00F801CB48BF00F8012B7047F1
:1005300002F0FF0343EA032242EA024200F002B85B
:100540004FF000020429C0F0128010F0030C00F0FC
:100550001B80CCF1040CBCF1020F18BF00F8012B7A
:10056000A8BF20F8022BA1EB0C0100F00DB85FEA48
:10057000C17C24BF00F8012B00F8012B48BF00F814
:10058000012B70474FF0000200B513469446964683
:10059000203922BFA0E80C50A0E80C50B1F1200196
:1005A000BFF4F7AF090728BFA0E80C5048BF0CC044
:1005B0005DF804EB890028BF40F8042B08BF7047A2
:1005C00048BF20F8022B11F0804F18BF00F8012B14
:1005D000704770477047704710B500F03FF80068EB
:1005E00010BD10B5044600F039F8046010BD10B518
:1005F000203AC0F00B80B1E81850203AA0E818501B
:10060000B1E81850A0E81850BFF4F5AF5FEA027CDB
:1006100024BFB1E81850A0E8185044BF18C918C04A
:10062000BDE810405FEA827C24BF51F8043B40F8EB
:10063000043B08BF7047D20728BF31F8023B48BFD0
:1006400011F8012B28BF20F8023B48BF00F8012B0E
:100650007047000000487047680F0024004870474A
:10066000680F002470477546FFF7F4FFAE4605009B
:100670006946534620F00700854618B020B5FFF7BD
:1006800089FEBDE820404FF000064FF000074FF014
:1006900000084FF0000B21F00701AC46ACE8C009A0
:1006A000ACE8C009ACE8C009ACE8C0098D467047A9
:1006B00010B50446AFF300802046BDE81040FFF7B8
:1006C00054BE000001491820ABBEFEE72600020020
:1006D000FEE70000014800F023BD0000C80A002426
:1006E000294A016891423AD0274A1832914236D0BD
:1006F000254A3032914232D0234A483291422ED09C
:10070000214A603291422AD01F4A7832914226D043
:100710001D4A9032914222D01B4AA83291421ED0EB
:100720001A4A91421BD0194A1832914217D0174ADF
:100730003032914213D0154A483291420FD0134AB9
:10074000603291420BD0114A7832914207D00F4A61
:100750009032914203D00D4AA832914211D1CAB2CF
:100760001823103AB2FBF3F26FF30901032A02F0E7
:100770000703074AD25CC26500D9091D8165084696
:10078000704721F0FF01F9E7100002401004024019
:10079000948A000830B5224A012301689142CAB206
:1007A0001BD01F4C1434A14217D01D4C2834A14239
:1007B00013D01B4C3C34A1420FD0194C5034A142F1
:1007C0000BD0174C6434A14207D0154C7834A142A9
:1007D00003D0134C8C34A1420CD11421114C083A93
:1007E000B2FBF1F10F4A803201F01F0504EB8101E9
:1007F000AB4010E00C4D1824103A0D44B2FBF4F15C
:10080000A82D00D80831094A01F01F0402EB81012C
:10081000064AA3408032603080E80E0030BD000000
:100820000854025800580258F0FBFDBF000802406F
:1008300010B50279531E072B2DD8174C0168A14221
:100840001BD0154C1434A14217D0134C2834A142AC
:1008500013D0114C3C34A1420FD00F4C5034A14264
:100860000BD00D4C6434A14207D00B4C7834A1421C
:1008700003D0094C8C34A14203D10849074C4431C0
:1008800002E00749064C443104EB8202C0E91B2117
:1008900001219940416710BD08540258FC58025884
:1008A000FC08024010B583694FF0C074826A0146AB
:1008B000002053B1B3F5005F15D072B1012A0CD0FE
:1008C000022A0AD0032A09D104E01AB1012A06D06B
:1008D000022A03D1C96AC90100D5012010BDC96A25
:1008E000A142FAD010BD002AF7D0012AF2D0022A84
:1008F000F3D0032AF3D010BD70474FF4005001F03D
:1009000078B9042001F075B9082001F072B91020FF
:1009100001F06FB9202010B501F06BF9BDE810406F
:10092000402001F066B972B6FEE700002DE9F04FF5
:10093000054681488DB04FF002074FF0010940078E
:1009400002D085F8DB7001E085F8DB9000247A4E58
:10095000305DFF287ED1321950785A28FAD190782C
:10096000FF2877D195F8DB00012873D1D0780128D2
:1009700012D0022813D0042814D005286BD00628E2
:1009800069D0072829D0082866D0092876D00A28F7
:1009900075D00B285FD0BFE085F8CC90BCE085F81F
:1009A000CC70B9E0042085F8CC00107902A985F854
:1009B000CD00507985F8CE00907985F8CF00D079B8
:1009C00085F8D000002022183244127A0A54401CC4
:1009D0000428F8DB0298E8659EE0072085F8CC0043
:1009E00000200DF1200A0DF1240B0DF1280C0DF162
:1009F0002C0E311891F804800AF8008091F80880D4
:100A00000BF800800B7B0CF8003091F8108002ABE3
:100A10000EF8008091F8148003F8008003AB91F881
:100A2000188003F8008004AB91F81C8003F8008064
:100A300005AB91F8208003F8008091F8243006A9D6
:100A40000B54401C0428D4DB5FEA4A7009D15FEAEA
:100A50004B7002E065E05DE047E002D15FEA4C7078
:100A60000ED085F8DC900898E866099828670A98FF
:100A7000C5F874005FEA4E7005D012E03CE042E039
:100A800085F8DC70F6E702A840070AD103A8400702
:100A900007D104A8400704D105A8400701D14807A1
:100AA0001FD0032185F8DC100B9905F18000C5F8F3
:100AB000901002994161039981610499C16105997E
:100AC00001620699C0F8241092F8250085F85200BA
:100AD00092F8260085F8D30092F8270085F8530095
:100AE0001AE0042085F8DC00EEE7082085F8CC0049
:100AF000107985F8D7000FE0092085F8CC0010792F
:100B000085F8D80008E00A2085F8CC00107985F82F
:100B1000DA0001E085F8CC0028220749A81CFFF77D
:100B2000C2FC641C282CFFF613AF0DB0024828212C
:100B3000BDE8F04FFFF704BD400B00242DE9F84F4E
:100B4000044601F085F900903CB194F83500022884
:100B500006D0802161650020E4E00120BDE8F88F27
:100B6000C74DC74EC649183520683036DFF81483A4
:100B7000DFF814938842DFF814A3DFF814B32ED003
:100B8000A8422CD0B0422AD0404528D0484526D093
:100B9000504524D0584522D0BD4A183290421ED02C
:100BA000BC4A90421BD0BB4A1832904217D0B94A77
:100BB0003032904213D0B74A483290420FD0B54AF3
:100BC000603290420BD0B34A7832904207D0B14A9B
:100BD0009032904203D0AF4AA832904209D10268C5
:100BE00022F01E0202602068426922F08002426107
:100BF00003E0026822F00E02026027688F42384646
:100C00004DD0A8424BD0B04249D0404547D048458E
:100C100045D0504543D0584541D09D4A1832904266
:100C20003DD09C4A90423AD09A4A1832904236D0EF
:100C3000984A3032904232D0964A483290422ED072
:100C4000944A603290422AD0924A7832904226D01A
:100C5000904A9032904222D08E4AA83290421ED0C2
:100C60008D4A90421BD08C4A1432904217D08A4A47
:100C70002832904213D0884A3C3290420FD0864AA4
:100C8000503290420BD0844A6432904207D0824A5C
:100C90007832904203D0804A8C32974204D1206E41
:100CA000026822F48072026075492068884228D068
:100CB000A84226D0B04224D0404522D0484520D07A
:100CC00050451ED058451CD071491831884218D063
:100CD0007049884215D06F491831884211D06D494A
:100CE000303188420DD06B494831884209D069497A
:100CF0006031884205D067497831884201D0654922
:100D00009031016821F0010101600EE001F0A0F8CE
:100D10000099401A052808D9202262650321002085
:100D200084F8351084F8340017E73868C007EDD12F
:100D3000534A0121206890422ED0A8422CD0B042C4
:100D40002AD0404528D0484526D0504524D0584583
:100D500022D04F4B183398421ED04E4B98421BD096
:100D60004C4B1833984217D04A4B3033984213D02B
:100D7000484B483398420FD0464B603398420BD0D3
:100D8000444B7833984207D0424B9033984203D07B
:100D9000404BA833984208D194F85C703F23A06D73
:100DA00007F01F07BB40836007E094F85C30A06D3C
:100DB00003F01F0301FA03F34360206890424DD013
:100DC000A8424BD0B04249D0404547D0484545D0D5
:100DD000504543D0584541D02D4A183290423DD01D
:100DE0002C4A90423AD02B4A1832904236D0294AA7
:100DF0003032904232D0274A483290422ED0254A93
:100E0000603290422AD0234A7832904226D0214A3A
:100E10009032904222D01F4AA83290421ED01E4AE1
:100E200090421BD01C4A1432904217D01A4A2832E2
:100E3000904213D0184A3C3290420FD0164A50329A
:100E400090420BD0144A6432904207D0124A783252
:100E5000904203D0104A8C3290420BD1D4E919024F
:100E60004260E06E30B1026822F480720260D4E920
:100E70001C024260002084F8351084F834006DE6CE
:100E800010000240580002407000024088000240FA
:100E9000A000024010040240085402582DE9F05FFF
:100EA00028B190F83510022904D080214165012035
:100EB000BDE8F09F904C904B0168183C18338E4A67
:100EC000DFF83C92A1428D4CDFF838E28E4FDFF81C
:100ED0003CB2DFF83CA28F4D8F4E31D091422FD0E3
:100EE00099422DD0A1422BD0494529D0714527D018
:100EF000B94225D0DFF810C20CF1180C61451FD0A3
:100F0000DFF808C2ACF1600C614519D0DFF8FCC114
:100F1000ACF1480C614513D0DFF8F0C1ACF1300CF6
:100F200061450DD0DFF8E4C1ACF1180C614507D084
:100F3000594505D0514503D0A94201D0B1422CD129
:100F4000DFF8B4C14FF0040880F83580ACF1180C1C
:100F500061451DD091421BD0994219D0A14217D0B2
:100F6000494515D0714513D0B94211D066481830A3
:100F700081420DD065486038814209D063484838C5
:100F8000814205D061483038814201D05F4818382D
:100F9000086820F001000860ABE0D1F800C02CF038
:100FA0000E08DFF854C1C1F80080ACF1180C0168DC
:100FB000614527D0914225D0994223D0A14221D02A
:100FC00049451FD071451DD0B9421BD0DFF838C14B
:100FD0000CF1180C614515D0DFF830C1ACF1600C94
:100FE00061450FD0DFF824C1ACF1480C614509D050
:100FF000DFF818C1ACF1300C614503D0DFF80CC14B
:10100000ACF1180CD1F800C02CF0010CC1F800C0F4
:10101000DFF8E4804FF0010C0168A8F118084145A1
:1010200046D0914244D0994242D0A14240D0494555
:101030003ED071453CD0B9423AD0334A1832914241
:1010400036D0324A603A914232D0304A483A9142E0
:101050002ED02E4A303A91422AD02C4A183A914248
:1010600026D0594524D0514522D0A94220D0B142A2
:101070001ED02A4A91421BD0284A1432914217D0DE
:10108000264A2832914213D0244A3C3291420FD052
:10109000224A503291420BD0204A6432914207D00A
:1010A0001E4A7832914203D01C4A8C32914218D1A8
:1010B000016E0A6822F480720A6090F85C20816DEB
:1010C00002F01F020CFA02F24A60D0E919124A60DB
:1010D000C16E31B10A6822F480720A60D0E91C1234
:1010E0004A600022016D80F835C080F8342001B1DB
:1010F00088470020DCE6000028000240580002403B
:101100007000024088000240A000024070040240CB
:1011100088040240A0040240B80402400854025867
:101120002DE9FC5F0446F74E0020DFF8D8830090DD
:101130004FF41652F44808F11808A56DDFF8C4936F
:10114000DFF8C0A3016809F1300920680AF1480AF4
:10115000B1FBF2F1B04201912F68D5F800C0DFF881
:10116000ACB335D04146884232D0484530D05045A6
:101170002ED058452CD0E5491831884228D0E34973
:101180003031884224D0E1494831884220D0E049BA
:1011900088421DD0DE491831884219D0DC493031EF
:1011A000884215D0DA494831884211D0DFF860E32F
:1011B0000EF1600E70450BD0D54A7832904207D0C0
:1011C000D34B9033984203D0D149A83188427DD186
:1011D00094F85C20082102F01F0201FA02F23A4260
:1011E0004AD0B04232D0404530D048452ED050454C
:1011F0002CD058452AD0C54A1832904226D0C34A2E
:101200003032904222D0C14A483290421ED0C04A69
:1012100090421BD0BE4A1832904217D0BC4A30329E
:10122000904213D0BA4A483290420FD0B84A603246
:1012300090420BD0B64A7832904207D0B44A9032EE
:10124000904203D0B24AA832904203D1026802F021
:10125000040202E0026802F008026AB1026822F0A9
:101260000402026094F85C0000F01F008140A96055
:10127000606D40F00100606594F85C00012100F0B1
:101280001F008140394240D02068B04234D04045F0
:1012900032D0484530D050452ED058452CD09B4AAE
:1012A0001832904228D0994A3032904224D0974A3E
:1012B0004832904220D0964A90421DD0944A18322B
:1012C000904219D0924A3032904200E0AFE113D000
:1012D0008F4A483290420FD08D4A603290420BD0F4
:1012E0008B4A7832904207D0894A9032904203D09C
:1012F000874AA83290427DD1406910F0800F04D017
:10130000A960606D40F00200606594F85C00042103
:1013100000F01F00814039423ED02068B04232D0F8
:10132000404530D048452ED050452CD058452AD085
:10133000764A1832904226D0744A3032904222D0F7
:10134000724A483290421ED0714A90421BD0704A75
:101350001832904217D06E4A3032904213D06C4A05
:10136000483290420FD06A4A603290420BD0684AAD
:101370007832904207D0664A9032904203D0644A55
:10138000A83290424ED1006810F0020F04D0A9603C
:10139000606D40F00400606594F85C00102100F07E
:1013A0001F008140394258D02068B04234D04045B7
:1013B00032D0484530D050452ED058452CD0534AD5
:1013C0001832904228D0514A3032904224D04F4AAD
:1013D0004832904220D04E4A90421DD04C4A18329A
:1013E000904219D04A4A3032904215D0484A483289
:1013F000904200E014E00FD0454A603290420BD09A
:10140000434A7832904207D0414A9032904203D00A
:101410003F4AA832904207D1006800F0080006E079
:10142000006872E70068B7E7006800F00400A0B148
:10143000A96020680168490304D50068000308D545
:10144000A16C07E00168C90503D4016821F0080117
:101450000160216C09B12046884794F85C00202186
:1014600000F01F008140394279D02068B04232D06C
:10147000404530D048452ED050452CD058452AD034
:10148000224A1832904226D0204A3032904222D04E
:101490001E4A483290421ED01D4A90421BD01C4A20
:1014A0001832904217D01A4A3032904213D0184A5C
:1014B000483290420FD0164A603290420BD0144A04
:1014C0007832904207D0124A9032904203D0104AAC
:1014D000A832904203D1006800F0100002E00068DA
:1014E00000F00200B0B3A96094F835000428206829
:1014F00001680FD049037ED5006800032BD4616CCE
:101500002AE000001000024008020024700002409F
:101510001004024021F0160101602068416921F0A9
:1015200080014161206C08B9A06C20B1206801687D
:1015300021F00801016094F85C303F21012003F0A4
:101540001F0300229940A96084F8350084F83420F4
:10155000216D65E003E0E16B09B120468847606DCD
:1015600000287DD0606DC00759D02068042184F820
:101570003510B0422BD0404529D0484527D05045A2
:1015800025D0584523D09D49884220D09B49183109
:1015900088421CD099493031884218D098498842F5
:1015A00015D097491831884211D095493031884279
:1015B0000DD093494831884209D091496031884221
:1015C00005D08F497831884201D08D49903101682A
:1015D00021F00101016020680099019A491C0091E5
:1015E000914202D80168C907F6D10068C00710D03F
:1015F00003200FE0FFE70168C905ACD403680121AF
:10160000002223F01003036084F8351084F834209E
:10161000A1E7012084F83500002084F83400E16C53
:1016200000291DD002B02046BDE8F05F084775498B
:1016300088421DD073491431884219D0714928312C
:10164000884215D06F493C31884211D06D495031E4
:1016500088420DD06B496431884209D0694900E065
:1016600084E07831884203D066498C3188427DD14C
:1016700094F85C800427016808F01F0807FA08F74F
:1016800017EA0C0F009746D04F0744D500980F0477
:10169000686003D5C8033CD4A16CC1E7880638D480
:1016A0002068B0422DD055496039884229D048453C
:1016B00027D0504525D0584523D05049884220D0C6
:1016C0004E49183188421CD04C493031884218D0DC
:1016D0004B49884215D04A491831884211D04849AF
:1016E000303188420DD046494831884209D0704592
:1016F00007D0904205D0984203D04149A831884292
:1017000003D1016821F0080102E0016821F0040121
:101710000160216C84E7022707FA08F717EA0C0F2B
:1017200000974ED08F074CD500980F04686003D502
:10173000C80344D4616C73E7880640D42068B04283
:101740002FD02E49603988422BD0484529D05045AA
:1017500027D0584525D02949884222D02749183119
:1017600088421ED025493031884200E044E018D03C
:101770002349884215D022491831884211D0204986
:10178000303188420DD01E494831884209D0704519
:1017900007D0904205D0984203D01949A831884219
:1017A00003D1016821F0140102E0016821F00A016F
:1017B0000160012184F83510002084F83400E16BC9
:1017C0002EE7082202FA08F212EA0C0F14D00907D9
:1017D00012D5016821F00E01016094F85C1001201F
:1017E000002201F01F0100FA01F16960606584F8D0
:1017F000350084F8342012E7BDE8FC9F88000240E1
:1018000010040240085402582DE9F05F044600F02D
:101810001FFB002C07467DD0E34E022120684FF0CD
:101820000308DFF888934FF00005DFF884A3B04287
:10183000DFF880B334D0DC4A1832904230D04845CB
:101840002ED050452CD058452AD0DA4A1832904232
:1018500026D0D84A3032904222D0D64A48329042DE
:101860001ED0D54A90421BD0D34A1832904217D08E
:10187000D14A3032904213D0CF4A483290420FD0F2
:10188000CD4A603290420BD0CB4A7832904207D09A
:10189000C94A9032904203D0C74AA83290427DD1C3
:1018A00084F83510B04284F834502ED0BE49183137
:1018B00088422AD0484528D0504526D0584524D0C3
:1018C000BC491831884220D0BA49303188421CD0F6
:1018D000B8494831884218D0B749884215D0B6492E
:1018E0001831884211D0B449303188420DD0B24904
:1018F0004831884209D0B0496031884205D0AE49AC
:101900007831884201D0AC499031016821F0010161
:10191000016008E027E100BF00F09AFAC01B05282B
:1019200001D920211CE120680068C007F4D104F12E
:1019300008002168D4E9053C8E4685C80968104333
:10194000D4E907281F43636A38439C4F40EA0C00E0
:101950001043394040EA0800042B40EA010003D15B
:10196000D4E90B1211430843954909686FF30F013D
:10197000B1F1005F0FD36168A1F12902052A08D9EE
:10198000163A032A05D9083A012A02D94F39032900
:1019900001D840F48010CEF8000000E023E0206879
:1019A000676A4069042F20F0070047EA00070DD15D
:1019B000D4E90A01074349B12046FEF773FF28B175
:1019C00040206065012184F83510CCE02068476133
:1019D0002046FEF785FE94F85C203F2102F01F02AE
:1019E0009140816054E0774A90421BD0754B14338C
:1019F000984217D0734B2833984213D0714B3C3325
:101A000098420FD06F4B503398420BD06D4B6433DC
:101A1000984207D06B4B7833984203D0694B8C3394
:101A200098427DD184F8351084F83450664B0168B3
:101A3000A26801EA030E402A73D0802A72D00022E5
:101A4000D4E90378D4E9053142EAD70242EAD8085A
:101A50005C4AD4E9077C48EAD30848EAD10141EA64
:101A6000D701524241EA1C11142341EA0E010160E0
:101A700020681044B0FBF3F08000E0652046FEF7DC
:101A80002FFE94F85C20012102F01F02914041607A
:101A90002068B04257D044491831884253D0484555
:101AA00051D050454FD058454DD042491831884209
:101AB00049D040493031884245D03E49483188427A
:101AC00041D03D4988423ED03B49183188423AD006
:101AD00039493031884236D037494831884232D08E
:101AE0003549603188422ED03349783188422AD036
:101AF00031499031884226D02F49A831884222D0DE
:101B0000304988421FD02F49143188421BD02D49BB
:101B10002831884217D02B493C31884213D002E04B
:101B20001DE017E018E02749503188420BD02549C5
:101B30006431884207D023497831884203D0214953
:101B40008C31884229D12046FEF724FEA0688028E7
:101B50000CD00CE0102273E74FF4804270E7402174
:101B6000616584F835800120BDE8F09F6560216ED5
:101B700020790860D4E9190141606068401E072897
:101B800008D82046FEF754FEE06E0560D4E91C013B
:101B9000416002E0E566256765670120656584F8B8
:101BA00035000020E0E70000100002404000024045
:101BB0005800024070000240100402403F8010FEB6
:101BC0000010005C085402580F00FEFF70B5044678
:101BD00000F03EF90546601C02D004480078044439
:101BE00000F036F9401BA042FAD370BDFC0100247E
:101BF00070474FF0B04110B5D1F88820024203D0B1
:101C0000C1F88800FFF7F4FF10BD00002DE9F84F80
:101C100003247D4D00234FF001094FF0B04B4FF0EE
:101C20000F0AE9E009FA03F73A4076D00E7906F098
:101C30000306012E01D0022E18D1D0F808C04FEAB9
:101C4000430ECE6804FA0EF82CEA080C06FA0EF6DB
:101C500046EA0C068660D0F804C00E792CEA070C20
:101C6000C6F300169E4046EA0C0646600E79F6431F
:101C7000B6070BD0C6684FEA43088F6804FA08FC21
:101C800026EA0C0607FA08F73743C7600E7906F014
:101C90000306022E12D1DE080F694FEA437C00EBE7
:101CA0008606B646366A4FEADC6C0AFA0CF807FA82
:101CB0000CF726EA08063743CEF820700F7906683D
:101CC0004FEA430807F0030704FA08FC07FA08F78D
:101CD00026EA0C06374307604E6816F4403F1CD0D6
:101CE0004A4E376847F00207376036689F0706F0AC
:101CF0000206009623F0030606F1B046B6463F0FF3
:101D0000D6F80864DFF808810AFA07FC404526EA9D
:101D10000C0603D14FF0000C41E06CE0DFF8F4C09A
:101D2000604502D14FF0010C39E0DFF8ECC06045AE
:101D300002D14FF0020C32E0DFF8E0C0604502D182
:101D40004FF0030C2BE0DFF8D8C0604502D14FF014
:101D5000040C24E0DFF8CCC0604502D14FF0050C44
:101D60001DE0DFF8C4C0604502D14FF0060C16E05C
:101D7000DFF8B8C0604502D14FF0070C0FE0DFF884
:101D8000B0C0604502D14FF0080C08E0DFF8A4C0F5
:101D9000604502D14FF0090C01E04FF00A0C0CFA3B
:101DA00007FC4CEA060CCEF808C44F68DBF800606C
:101DB000FF0226EA020600D516435F46CBF8006014
:101DC000D1F804C0DBF804605FEA8C2C26EA020636
:101DD00000D516437E606E684F6826EA0206BF0390
:101DE00000D516436E602E684F6826EA0206FF0390
:101DF00000D516432E605B1C0A6832FA03F67FF4A6
:101E000011AFBDE8F88F000080000058F44402587C
:101E1000000002580004025800080258000C025842
:101E2000001002580014025800180258001C0258F2
:101E300000200258002402580AB181617047090449
:101E4000FBE7000001480068000C70470010005CD0
:101E50000148806870470000FC01002430B590F80C
:101E60004120202A24D190F84020012A20D00123AB
:101E700080F84030242280F841202023002402688A
:101E8000156825F0010515600268156825F4805570
:101E90001560026815680D43156001680A6842F014
:101EA00001020A6080F8413080F84040002030BDD7
:101EB000022030BD30B590F84120202A22D190F880
:101EC0004020012A1ED0012380F84030242280F8CF
:101ED0004120202400250268136823F001031360C9
:101EE0000268136823F4706343EA012111600168FA
:101EF0000A6842F001020A6080F8414080F84050D0
:101F0000002030BD022030BD70B5040004D094F82C
:101F10004100002510B106E0012070BD204684F884
:101F2000405000F077F9242084F8410020680168CF
:101F300021F001010160D4E9001020F07060086117
:101F40002068816821F400418160E06821680128EF
:101F5000A06830D040F404408860E068022820681F
:101F600041682BD021F40061416020682021154A8E
:101F70004368134343602068C26822F40042C26091
:101F800054F8106B0DCC104340EA0320F06054F875
:101F90001C3CD4E900021043186054F81C0D026880
:101FA00042F001020260656484F84110256384F800
:101FB0004250002070BD40F40040CDE741F4006184
:101FC000D2E70000008000022DE9FC47002504460E
:101FD0001E4692460195894690F84100202868D116
:101FE00020688069C043000463D594F8400001284C
:101FF0005FD0012184F8401024204FF0200884F89D
:1020000041006564E06801280BD02B4A2B4900BFD2
:1020100049EA0200084021684860FFF719FF0746B7
:102020000AE0274A2749F3E7701C05D0FFF710FFA5
:10203000C01BB04219D8C6B1206881698269C1F35A
:102040004010C2F300110843EED020688069334687
:102050004FF000024FF02001C0430097C006204619
:1020600016D503F033F8B0B908E084F84180606C0D
:1020700084F8405040F0200060640CE02168C1F812
:102080001C8084F84180002084F84050BDE8FC8723
:1020900003F01CF808B10120F8E722681021D16193
:1020A0002168C1F81C800198401C01905045A9D3BB
:1020B000DBE70220EAE7000000280002FF2B000215
:1020C00000200002FF2300022DE9FF4F81B00446EB
:1020D00090F8410099469046DDF838B020287BD131
:1020E00094F84000012877D0012084F84000FFF7E1
:1020F000AFFE0122064619230090D103204602F0CC
:10210000E5FF002853D1414921220025C4F824804D
:10211000102084F84120FF2784F842006564A4F869
:102120002A90608D4FF080794FF0007A6563FF2828
:1021300002D94B46278505E0608D53462085000473
:10214000000C10D0226898F800009062606A401C71
:102150006062608D401E6085208D401E2085401C81
:102160000091C2B201E0002200910299204602F0E3
:1021700095FF13E003F014F8C8B9606A216800788D
:102180008862606A401C6062608D401E6085208DA0
:10219000401E80B22085618D01B160B1608D3246F4
:1021A000594600282046E5D102F0CEFFE0B10120DB
:1021B00005B0BDE8F08F00225B46802120460096E6
:1021C00002F084FF0028F2D1608DFF2805D9278511
:1021D0003A464B460095C8E716E0608D5346208589
:1021E000009594F82820C0E721682020084AC8619B
:1021F00021684B6813404B6084F8410084F84250DA
:10220000002084F84050D3E70220D1E7002000806E
:1022100000E800FE10B5B6B00446142130A8FEF761
:10222000B1F9C0216846FEF7ADF918492068884227
:102230002AD10020219008210446CDE900106846EB
:1022400000F04EFA08B1FEF76EFB1148016841F04C
:1022500002010160006830AB122100F002003590ED
:10226000C020042283E813000A4830A9CDE9334294
:10227000FFF7CCFC06480830016841F4001101600A
:10228000006800F40010359036B010BD00540040D6
:10229000E044025800040258024881680278114460
:1022A00081607047FC010024032010B500F086F81F
:1022B00001F06AF80F4A104914681368C4F3032246
:1022C00003F00F038A5CC95C02F01F0201F01F01DA
:1022D000D0400A4A20FA01F11160094908600F2034
:1022E00000F010F808B1012010BD00F02BF800201C
:1022F00010BD000018440258C48A00080C020024D3
:102300000802002470B50D4D04462878A0B14FF4A2
:102310007A71B1FBF0F00A490968B1FBF0F001F005
:10232000A0FB48B9102C07D200222146501E00F015
:1023300025F800206C6070BD012070BDFC010024F8
:1023400008020024054808B5016841F00201016057
:10235000006800F00200009008BD0000F44402583C
:10236000002809DB410900F01F028900012001F16A
:10237000E0219040C1F80001704700000E4BF0B41E
:102380001B680D46C3F30223C3F10706042E00D9D0
:102390000426191D072901D2002300E0DB1E0124B9
:1023A00004FA06F19C40491E2940641E99401440DD
:1023B0002143F0BC04F0DABF0CED00E0064900F068
:1023C000070210B54FF6FF040868044B204040EAAE
:1023D00002201843086010BD0CED00E00000FA0573
:1023E000134970B50A68D243520705D5096801F050
:1023F0000701814213D118E00A6822F00702024364
:102400000A60FFF725FD0A4D4FF47A760446083D31
:1024100007E000BFFFF71CFD001BB04201D90120FF
:1024200070BD2868C0438004F4D4002070BD000053
:102430000C48025810B500F061FF05490968054ACB
:10244000C1F30211515C01F01F01C84010BD000032
:1024500020440258C48A0008494930B5484C0B1D35
:102460000A68143409681D68246802F00303C5F380
:102470000012C1F30531C4F3CC04002914FB02F2AD
:1024800000EE102AF8EE400A75D03F4A9FED3D1A43
:10249000B7EE000A6BB1DFED3D1A012B01D0022B24
:1024A00064D002EE101A1168F8EE422A81EEA22AD8
:1024B00021E0334C283C23689B0612D5344B24681A
:1024C00001EE901A1168C4F3C104F8EE612AE340EA
:1024D00001EE903AC1F30801F8EE611A81EEA22AEA
:1024E0000BE001EE901ADFED2B2A00BFF8EE611A27
:1024F000116882EEA12AC1F3080101EE901A116859
:10250000F8EE611A40EE811A71EE800A62EE200A3E
:10251000C1F3462101EE101AB8EE411A31EE001A4D
:10252000C0EE811ABCEEE11A80ED001A1168C1F309
:10253000064101EE101AB8EE411A31EE001AC0EE53
:10254000811ABCEEE11A80ED011A1168C1F306612F
:1025500001EE101AB8EE411A31EE000A80EE801A30
:10256000BCEEC10A80ED020A30BD04E001EE901A13
:10257000DFED092ABAE70021016041608160F3E7DD
:102580002844025800000039384402580024744A94
:102590000090D0030024744C20BCBE4B494930B598
:1025A000484C0B1D0A681C3409681D68246802F039
:1025B0000303C5F30022C1F30551C4F3CC04002981
:1025C00014FB02F200EE102AF8EE400A75D03F4AE2
:1025D0009FED3D1AB7EE000A6BB1DFED3D1A012BFE
:1025E00001D0022B64D002EE101A1168F8EE422AD4
:1025F00081EEA22A21E0334C283C23689B0612D5A9
:10260000344B246801EE901A1168C4F3C104F8EE4B
:10261000612AE34001EE903AC1F30801F8EE611A35
:1026200081EEA22A0BE001EE901ADFED2B2A00BF0B
:10263000F8EE611A116882EEA12AC1F3080101EED9
:10264000901A1168F8EE611A40EE811A71EE800A54
:1026500062EE200AC1F3462101EE101AB8EE411ACB
:1026600031EE001AC0EE811ABCEEE11A80ED001ABC
:102670001168C1F3064101EE101AB8EE411A31EEAD
:10268000001AC0EE811ABCEEE11A80ED011A116841
:10269000C1F3066101EE101AB8EE411A31EE000ADC
:1026A00080EE801ABCEEC10A80ED020A30BD04E063
:1026B00001EE901ADFED092ABAE7002101604160BE
:1026C0008160F3E728440258000000394044025872
:1026D0000024744A0090D0030024744C20BCBE4BEC
:1026E0002DE9FE4F0546DFF8E48350F8081B00246F
:1026F000F64FC943019005F12800264608F1240849
:10270000009008011DD4A86E50B1B0F5801F0CD008
:10271000B0F5001F0ED0B0F5401F1ED001240FE011
:10272000386840F40030386017E00198022103F067
:10273000A9F903E00098022103F034FA04000CD058
:1027400026462888C043C00523D4A86D05281ED27C
:10275000DFE800F00C11161B1B00AA6ED8F8001061
:1027600021F440111143C8F80010EAE7386840F43A
:102770000030386009E00198002103F083F903E09C
:102780000098002103F00EFA044674B100E0012421
:1027900026462888C043800528D4E86D80281ED0AE
:1027A0000CDC90B140280ED114E0AA6DD8F80010CE
:1027B00021F007011143C8F80010EAE7C02813D040
:1027C000B0F5807F10D001240FE0386840F400306D
:1027D000386009E00198002103F054F903E0009803
:1027E000002103F0DFF904469CB126462888DFF873
:1027F000DC92C04309F12C0940052CD4D5F8A8007F
:10280000B0F5800F20D00DDCA0B1B0F5001F0FD1C6
:1028100015E0EA6DD8F8001021F4E0711143C8F812
:102820000010E3E7B0F5C00F13D0B0F5000F10D0E3
:1028300001240FE0386840F40030386009E0019866
:10284000002103F01FF903E00098002103F0AAF92A
:1028500004467CB126462888C04300052DD4D5F80F
:10286000AC00B0F1007F21D00EDCA8B1B0F1807FC8
:1028700010D116E0D5F8A820D9F8001021F4600195
:102880001143C9F80010E6E7B0F1407F13D0B0F172
:10289000806F10D001240FE0386840F400303860B9
:1028A00009E00198002103F0EDF803E00098002111
:1028B00003F078F9044674B126462868C0438001C5
:1028C0001FD4E86CD8B110280FD0202812D030289F
:1028D00015D0012414E0D5F8AC20D9F8001021F06F
:1028E000E0611143C9F80010E7E7386840F40030B0
:1028F000386004E00198022103F0C4F8044674B182
:1029000026462888C043C0042BD4286EB0F5005F4B
:1029100020D00DDCA0B1B0F5805F0FD115E06B4881
:10292000EA6C2030016821F0300111430160E8E7D2
:10293000B0F5405F13D0B0F5804F10D001240FE008
:10294000386840F40030386009E00198002103F055
:1029500099F803E00098002103F024F904468CB1B3
:1029600026462888C043800429D4686EB0F5403FCD
:1029700023D010DC08B3B0F5803F14D0B0F5003F91
:102980000FD115E02A6ED8F8001021F4E041114370
:10299000C8F80010E5E7B0F5802F0ED0B0F5A02FF5
:1029A0000BD001240AE00198012103F06BF803E049
:1029B0000098012103F0F6F8044694B126462888D1
:1029C000C04340042AD4D5F8B000B0F1405F23D012
:1029D00010DC08B3B0F1805F14D0B0F1005F0FD10C
:1029E00015E06A6ED8F8001021F4E0211143C8F810
:1029F0000010E4E7B0F1804F0ED0B0F1A04F0BD043
:102A000001240AE00198012103F03CF803E000985A
:102A1000012103F0C7F8044674B126462888C04354
:102A200000041FD4286FD8B1B0F1805F0ED0B0F190
:102A3000005F10D0012414E0D5F8B020D9F80010C0
:102A400021F0E0411143C9F80010E7E7386840F48D
:102A50000030386004E00198012103F013F80446C7
:102A600074B126462868C043C0011ED4A86CD0B1FA
:102A700001280ED0022811D0032814D0012413E01D
:102A80002A6FD8F8001021F040511143C8F8001007
:102A9000E8E7386840F40030386004E0019802212B
:102AA00002F0F0FF0446ACB126462868DFF81CB0FF
:102AB000C043ABF11C0B400252D40548016841F4FD
:102AC00080710160FFF7C4F9824611E02C4402587E
:102AD00000480258FA48AA6C016821F0030111432A
:102AE0000160E2E7FFF7B4F9A0EB0A00642835D8EB
:102AF000F4480068C005F5D58CBBDFF8C4A3B5F871
:102B0000B4100AF1240ADAF8000001F4407100F46C
:102B10004070884211D0DAF80010DAF8002021F471
:102B2000407142F48032CAF80020DAF8002022F422
:102B30008032CAF80020CAF80010D5F8B400B0F509
:102B4000807F1AD1FFF784F9029012E0FFF780F935
:102B50000299411A41F2883081420AD9032426465B
:102B60002878DFF85CA3C0430AF1080AC00721D027
:102B70003CE0DAF800008007E8D5D5F8B410C1F3DE
:102B80000120032858460DD0016821F47C510160D2
:102B9000B5F8B420DAF80010C2F30B021143CAF8FA
:102BA0000010DDE7C84A036802EA111223F47C51E1
:102BB0001143ECE7E86F182816D005DCA0B108280F
:102BC00008D0102804D10AE020280DD028280BD0E6
:102BD00001240AE00198012102F054FF03E000986B
:102BE000012102F0DFFF044664B126462878C04385
:102BF00080071ED4A86F062819D2DFE800F0160C53
:102C000011161616EA6FDAF8001021F03801114398
:102C1000CAF80010EAE70198012102F033FF03E04F
:102C20000098012102F0BEFF04467CB100E00124BF
:102C300026462878C04340071FD4D5F894000628BC
:102C400019D2DFE800F0160C11161616AA6FDAF882
:102C5000001021F007011143CAF80010E9E70198BC
:102C6000012102F00FFF03E00098012102F09AFF1A
:102C70000446A4B100E0012426462878C04380061B
:102C80002BD4D5F89000B0F1405F24D011DC10B304
:102C9000B0F1805F15D0B0F1005F10D116E0D5F82B
:102CA0009420D9F8001021F007011143C9F8001051
:102CB000E3E7B0F1804F0ED0B0F1A04F0BD001246C
:102CC0000AE00198002102F0DDFE03E000980221F5
:102CD00002F068FF044694B126462878C0434006B7
:102CE0002BD4D5F89C00B0F5406F24D011DC10B384
:102CF000B0F5806F15D0B0F5006F10D116E0D5F8A3
:102D00009020DAF8001021F0E0411143CAF80010D9
:102D1000E3E7B0F5805F0ED0B0F5A05F0BD00124E3
:102D20000AE00198002102F0ADFE03E000980221C4
:102D300002F038FF044694B126462878C0430006C6
:102D40002BD4D5F8A000B0F5C04F24D011DC10B3BF
:102D5000B0F5005F15D0B0F5804F10D116E0D5F872
:102D60009C20D9F8001021F4E0511143C9F800105B
:102D7000E3E7B0F5004F0ED0B0F5204F0BD00124A3
:102D80000AE00198002102F07DFE03E00098022194
:102D900002F008FF044654B126462878C0430007D5
:102DA0001ED4D5F88400B0F5805F0AD00FE0D5F8C6
:102DB000A020D9F8001021F460411143C9F8001097
:102DC000EBE70098022102F0EDFE00B10126D5F8F4
:102DD0008420DAF8001021F440511143CAF80010A1
:102DE0002878C043C00613D4D5F89800B0F5807F8A
:102DF00005D10098022102F0D5FE00B10126D5F8D8
:102E00009820D9F8001021F440711143C9F800103E
:102E10002868C043000316D4D5F8A40038B1B0F533
:102E2000803F09D0B0F5003F0BD001240AE00198A3
:102E3000002102F027FE03E00098022102F0B2FE1A
:102E400004468CB126462868C043400322D4D5F8F6
:102E50008800B0F5801F11D0B0F5001F13D0B0F579
:102E6000401F15D0012414E0D5F8A420D9F8001093
:102E700021F440311143C9F80010E4E7386840F408
:102E80000030386004E00098012102F08BFE044617
:102E90005CB126462868C043C00323D4286DA8B17E
:102EA000B0F5803F17D001241BE0D5F88820DAF870
:102EB000001021F440111143CAF80010EAE70000A5
:102EC0004C44025800480258CFFFFF00386840F4D5
:102ED0000030386004E00198022102F0D3FD04467E
:102EE000E4B126462868C043800005D4009802213A
:102EF00002F058FE00B101262868C04380031BD4AD
:102F0000D5F88000B0B1B0F5807F0FD0B0F5007F6C
:102F100010D0B0F5407F0DD001240CE05A482A6D46
:102F2000016821F4803111430160DBE7386840F427
:102F300000303860ECB326462868C043C00207D48E
:102F40006A6FD8F8001021F000411143C8F8001052
:102F50002868C043C00008D4D5F8B820DBF80010BA
:102F600021F480411143CBF800102868C04380024F
:102F700007D4EA6ED8F8001021F080711143C8F828
:102F800000102868C04340000CD4DBF8001021F486
:102F90000041CBF80010DBF80010D5F8BC2011433D
:102FA000CBF800102868C04308D437486A6D016820
:102FB00000E018E021F04051114301602868C0434F
:102FC000000208D4D5F88C20DAF8001021F4400172
:102FD0001143CAF8001028790024C04300F0010012
:102FE00020430AD00FE0D5F88020DAF8001021F451
:102FF00040711143CAF800109EE70198002102F0C9
:1030000041FD00B106462879C04300F0020020438C
:1030100005D10198012102F035FD00B1064628795D
:10302000C04300F00400204305D10198022102F0C2
:1030300029FD00B106462879C04300F0080020436E
:1030400005D10098002102F0ADFD00B106462879B7
:10305000C04300F01000204305D10098012102F088
:10306000A1FD00B106462879C04300F020000443CA
:1030700004D10098022102F095FD00B916B101209B
:10308000BDE8FE8F0020FBE74C440258704700006B
:103090002DE9F05F04000F467ED0DFF83882D8F8C3
:1030A000000000F00F00B8420CD2D8F8001021F058
:1030B0000F013943C8F80010D8F8000000F00F00E5
:1030C000B84269D12078844D40070AD52069296823
:1030D00001F07001884204D9296821F07001014390
:1030E000296020787C4E361D00070AD5606931685A
:1030F00001F07001884204D9316821F07001014368
:1031000031602078C0060AD5A069316801F4E06119
:10311000884204D9316821F4E061014331602078AC
:10312000DFF8B4B180060BF1080B0CD5E169584605
:10313000DBF8002002F07002914204D9026822F00C
:1031400070020A430260207880070AD5E068296887
:1031500001F00F01884204D9296821F00F010143D1
:1031600029602078C0073ED05B49A26828681839DA
:1031700020F47060104328606068022818D003288B
:1031800019D00968012819D0490700294ADADFF85F
:1031900048A1AAF1080A00E044E0DAF8002022F091
:1031A00007020243CAF80020FEF752FE814612E0F1
:1031B00009688903E9E709688901E6E7C905E4E7E1
:1031C000FEF746FEA0EB090141F28830814202D9A8
:1031D0000320BDE8F09F6168DAF8000000F03800D5
:1031E000B0EBC10FECD1207880070AD5E0682968E0
:1031F00001F00F01884204D2296821F00F01014338
:103200002960D8F80010404601F00F01B9420BD9EF
:10321000016821F00F0139430160006800F00F00E0
:10322000B84201D00120D4E7207840070AD52069B0
:10323000296801F07001884204D2296821F07001E8
:1032400001432960207800070AD56069316801F0E0
:103250007001884204D2316821F07001014331606D
:103260002078C0060AD5A069316801F4E06188427F
:1032700004D2316821F4E061014331602078800696
:103280000CD5E1695846DBF8002002F0700291424B
:1032900004D2026822F070020A43026000F074F85F
:1032A0000E492A682B68C2F3032203F00F038A5CDD
:1032B000C95C02F01F0201F01F01D040084A20FA49
:1032C00001F111600749086007480068BDE8F05F38
:1032D000FFF718B80020005218440258C48A0008AA
:1032E0000C020024080200240002002402480168A5
:1032F00041F40021016070470044025830B500F0ED
:1033000043F80B4A0B490C4B15681468C5F30322AC
:1033100004F00F048A5C095D02F01F0201F01F0136
:10332000D040064A20FA01F119601060084630BD0D
:1033300018440258C48A00080C0200240802002421
:1033400000B5FFF7DBFF05490968054AC1F3021123
:10335000515C01F01F01C84000BD00001C44025830
:10336000C48A000800B5FFF7C9FF05490968054A86
:10337000C1F30221515C01F01F01C84000BD0000F3
:103380001C440258C48A0008454970B5454809687C
:10339000434B103B11F0380208D00111082A03D02A
:1033A000102A0BD0182A0BD0084670BD1968890660
:1033B000FBD51968C1F3C101C84070BD3A4870BD62
:1033C0003749374D18310C1D24350A6809682668BD
:1033D0002D6802F0030406F00102C1F30511C5F3E4
:1033E000CC0515FB02F200EE102AB8EE400AE9B354
:1033F0002F4ADFED2E0AB7EE001A6CB1DFED2D1A61
:10340000012C01D0022C43D002EE101A1068F8EE05
:10341000422A81EEA22A1EE01C68A40611D51B6870
:1034200001EE901A1168C3F3C103F8EE612AD84087
:1034300001EE900AC1F30800F8EE611A81EEA22AAB
:103440000BE001EE901ADFED1C2A00BFF8EE611AC6
:10345000106882EEA12AC0F3080001EE900AF8EE8F
:10346000611A40EE201A31EE810A00E015E022EEEA
:10347000000A1068C0F34620401C00EE900AF8EEE7
:10348000600A80EE201ABCEEC10A10EE100A70BD70
:1034900001EE901ADFED092AD8E7002070BD000088
:1034A000104402580090D00340787D01000000399C
:1034B000304402580024744A0024744C20BCBE4B93
:1034C000064810B50068400506D5FFF7DFFD034943
:1034D0004FF48060091D086010BD0000644402586C
:1034E0002DE9F05F04007DD0FF4F2078FE4D1837A6
:1034F000DFF8F493103DC00748D0D9F800003968D0
:1035000000F03800102815D0182803D101F003006E
:1035100002280FD06068B0F5803F12D010B1B0F52E
:10352000A02F18D0286820F480302860286820F464
:10353000802009E02868800328D560680028D2D060
:1035400024E0286840F480302860606888B1FEF785
:103550007FFC064609E0286840F480202860F0E7F8
:10356000FEF776FC801B64286FD828688003F7D5A7
:103570000CE0FEF76DFC064605E000BFFEF768FCB8
:10358000801B6428F0D828688003F7D4207841F2A3
:103590000308D54E0C3E800769D5D9F8000039687C
:1035A00010F038000ED0182801D188070AD0E06842
:1035B00090B3296821F0190101432960FEF748FC06
:1035C000824631E02868400702D5E06800288AD0AA
:1035D000E168286820F0190008432860FEF738FCED
:1035E000824607E0DFE000BFFEF732FCA0EB0A00F6
:1035F0000228B9D828684007F6D500BFFEF722FC9C
:1036000040451BD82069402812D0316821F47C3114
:1036100041EA003030602AE018E000BFFEF718FCF5
:10362000A0EB0A0002289FD828684007F6D5E5E7F6
:10363000306820F47C3040F40030EBE7207C3168C7
:1036400021F0FE4141EA0060E4E70DE1286820F046
:1036500001002860FEF7FCFB824605E0FEF7F8FB60
:10366000A0EB0A0002288DD828684007F6D42078FD
:10367000C0065DD5D9F80000DFF86CB2396800F0FB
:103680003800ABF1040B082810D0182803D101F042
:10369000030001280AD0E0690028286838D040F0EB
:1036A00080002860FEF7D4FB824623E02868C0052E
:1036B00023D5E069802876D11FE0206A202821D018
:1036C000316821F0F84141EA8060306030E000BFAD
:1036D00094F82010DBF8002022F07C5242EA0161CD
:1036E000CBF8001024E000BFFEF7B2FBA0EB0A000D
:1036F000022898D82868C005F6D5FEF7A3FB4045F8
:10370000E6D8DAE7306820F0F84040F08040DCE7A7
:1037100020F080002860FEF79BFB064605E000BF16
:10372000FEF796FB801B02289DD82868C005F7D4B9
:103730002078000729D56C486169643000298046EB
:10374000016811D041F001010160FEF781FB0646DE
:1037500005E000BFFEF77CFB801B0228C9D8D8F823
:1037600000008007F6D510E021F001010160FEF7AE
:103770006FFB064605E000BFFEF76AFB801B0228D0
:1037800072D8D8F800008007F6D42078800623D5B8
:10379000A0690028286810D040F480502860FEF707
:1037A00057FB064605E036E1FEF752FB801B022878
:1037B0005AD828688004F7D50EE020F4805028609D
:1037C000FEF746FB064604E0FEF742FB801B02289C
:1037D0004AD828688004F7D4207840074FD5DFF80E
:1037E0000C81D8F8001041F48071C8F80010FEF781
:1037F0002FFB064605E000BFFEF72AFB801B64286E
:1038000032D8D8F80000C005F6D5374EA06860362B
:1038100001280AD008B1052813D0306820F0010033
:103820003060306820F0040002E0306840F00100B1
:103830003060A06841F2883A90B1FEF709FB8046FB
:103840000AE0306840F004003060EEE7FEF700FB6D
:10385000A0EB0801514507D830688007F6D50EE087
:10386000FEF7F6FA804607E084E000BFFEF7F0FAC4
:10387000A0EB080151457DD830688007F6D4606A16
:10388000B0B3DFF86480D9F8001008F120084FF6D3
:10389000F87B08F10409C1F3C2010329A8F1040A65
:1038A00069D00228286820F08070286003D0FEF7D5
:1038B000CFFA044684E0FEF7CBFA064605E000BFE7
:1038C000FEF7C6FA801B022877D828688001F7D453
:1038D000E26A40F2F331386854F8283F884340EAFE
:1038E00002101843386004E010440258004802589F
:1038F000B5E0217B434622894FF4FE0C208A4FF02D
:10390000FE474902267D521E401EA1F50071C2F3FA
:1039100008088AB2761E0CEA004042EA0802024316
:10392000504607EA06610A431A60DAF8002022F0DE
:103930000102CAF80020D9F80020266A22EA0B0208
:1039400042EAC602C9F80020DAF80010A26921F0A4
:103950000C011143CAF800100168E26921F002016C
:1039600011430160016841F480310160016841F454
:10397000003101E021E027E00160016841F480218D
:103980000160016841F001010160286840F0807029
:103990002860FEF75DFA044605E000BFFEF758FA1E
:1039A000001B022809D828688001F7D557E000BF1E
:1039B000FEF74EFA001B022802D90320BDE8F09F53
:1039C00028688001F4D44AE039680128D8F800005A
:1039D00021D0A26A01F0030393421CD1E26AC1F331
:1039E00005118A4217D1216BC0F30802491E8A4291
:1039F00011D1616BC0F34622491E91420BD1A16BDC
:103A0000C0F30642491E914205D1E16BC0F3066046
:103A1000491E814201D00120D0E7A16C4E46D9F861
:103A20000000C0F3CC00814219D0DAF800005546FE
:103A300020F00100CAF80000FEF70AFA4FEA00077A
:103A4000FEF706FAB842FBD0A26C306820EA0B0001
:103A500040EAC2003060286840F001002860002081
:103A6000ACE7401EB0F1807F10B501D3012010BD3E
:103A70004FF0E02460610F21601703F077FC002015
:103A8000A0610721216110BD704770477047000099
:103A9000F0B590F83C20012A3BD01F4E012480F85D
:103AA0003C40022280F83D2002681C4D5368B2421F
:103AB000D2F808C001D0AA4203D14F6823F47003A2
:103AC0003B430F6823F070031F4357600268B24204
:103AD00013D0B2F1804F10D0114B9A420DD0114B40
:103AE0009A420AD0104B9A4207D0AA4205D00F4BF7
:103AF0009A4202D00E4B9A4204D189682CF080037E
:103B000019439160002180F83D4080F83C10084640
:103B1000F0BD0220F0BD00000000014000040140A3
:103B20000004004000080040000C00400018004065
:103B30000040014010B5040003D094F83D0010B1DE
:103B400007E0012010BD002084F83C00204600F072
:103B500023F8022084F83D002068211D02F0AEFB0E
:103B6000012084F8480084F83E0084F83F0084F87F
:103B7000400084F8410084F8420084F8430084F84F
:103B8000440084F8450084F8460084F8470084F82F
:103B90003D00002010BD0000F0B587B0054614219F
:103BA0006846FCF7EFFCB64A00242E680225B548AB
:103BB000103AB34B0127864220D1186840F001002B
:103BC0001860186800F001000590106840F01000BF
:103BD00010601068694600F01000059028020090FF
:103BE000CDE90154A848CDE90347FEF70FF80022BC
:103BF00007211B20FEF7C2FB1B2049E0A349B6F1B9
:103C0000804FA34825D0DFF88CE24FF0400C76457A
:103C100042D10B6843F002030B60096801F0020116
:103C20000591116841F0010111601168CDF800C0E3
:103C300001F00101CDE901540394CDE90451694635
:103C4000FDF7E4FF002208211D20FEF797FB1D2051
:103C50001EE00B6843F001030B60096801F00101ED
:103C60000591116841F001011160116801F0010135
:103C7000059120210091CDE90154CDE90347694622
:103C8000FDF7C4FF002207211C20FEF777FB1C2054
:103C9000FEF766FB07B0F0BDDFF8FCE1764521D109
:103CA000086840F004000860086800F0040005900F
:103CB000106840F0080010601068694600F00800C5
:103CC00005904FF480500090CDE901547348CDE940
:103CD0000345FDF79BFF002206211E20FEF74EFB49
:103CE0001E20D5E7DFF8B8E176451ED10B6843F01A
:103CF00008030B60096801F008010591116841F0A3
:103D0000010111601168009701F00101CDE9015432
:103D10000394CDE904516946FDF778FF002208219C
:103D20003220FEF72BFB3220B2E75E48864239D1C3
:103D3000186840F002001860186800F00200059052
:103D4000106840F0040010601068694600F004003C
:103D500005900320CDF800C0CDE90154CDE9034022
:103D60005148FDF753FF002209212B20FEF706FBE7
:103D70002B20FEF7F5FA002209212C20FEF7FEFA8F
:103D80002C20FEF7EDFA002209212D20FEF7F6FA8D
:103D90002D20FEF7E5FA002206212E20FEF7EEFA8E
:103DA0002E2075E7414886420ED1086840F0400059
:103DB000086008680022092100F0400005902B20CF
:103DC000FEF7DCFA2B2063E7394886420ED10868FB
:103DD00040F08000086008680022092100F080009F
:103DE00005902C20FEF7CAFA2C2051E73148864274
:103DF0000ED1086840F4807008600868002209212C
:103E000000F4807005902D20FEF7B8FA2D203FE7D2
:103E1000294886420ED1186840F48030186018682E
:103E20000022092100F4803005907420FEF7A6FAE4
:103E300074202DE7214886420ED1186840F40030E6
:103E4000186018680022092100F4003005907520E0
:103E5000FEF794FA75201BE7194886427FF41AAFE3
:103E6000186840F48020186018680022092100F4C6
:103E7000802005907620FEF781FA762008E7000082
:103E8000F04402580000014000100258E844025873
:103E9000000002580004004000080040000C0258D6
:103EA000000C0040000401400008025800180040C7
:103EB000001C004000200040004001400044014040
:103EC0000048014090F83D10012901D001207047C1
:103ED000174A022180F83D100168CB6843F00103C6
:103EE000CB600068904214D0B0F1804F11D01149DE
:103EF00088420ED0104988420BD01049884208D021
:103F00000F49884205D00F49884202D00E498842A5
:103F100007D181680D4A1140062906D0B1F5803FCE
:103F200003D0016841F001010160002070470000EA
:103F3000000001400004004000080040000C004068
:103F4000000401400018004000400140070001004B
:103F5000016841F21113CA6822F00102CA600168C7
:103F60000A6A1A4207D10A6A9B101A4203D10A68E8
:103F700022F001020A60012180F83D100020704704
:103F800070B5044690F83C000025012814D03A4B47
:103F9000012684F83C60022084F83D002268906885
:103FA000184020F47F409060086870282FD010DC03
:103FB00010F00F0F03D022E04FF0020070BD4FEA67
:103FC0002012072A1BD2DFE802F0535353534B3918
:103FD0004100B0F1101F4BD009DCB0F5805F0FD06D
:103FE000B0F5005F1ED0B0F5801F08D140E0A0F50D
:103FF000801120393CD010293AD0202938D0012511
:1040000084F83D60002084F83C00284670BD4A6872
:104010002068D1E9021302F0C6F92068816841F0F6
:10402000770109E04A682068D1E9021302F0BBF980
:104030002068816841F480418160E1E7CA6849688D
:10404000206802F033FA2068502106E0CA68496807
:10405000206802F07DFA2068602102F0ADF9CFE718
:10406000CA684968206802F021FA20684021F4E714
:10407000226801461046F0E788FFCEFF2DE9F05F89
:10408000DFF8B89100246C4F0546DFF8B4B109F1B0
:104090001806A6F1480A00BF57F82410286888427D
:1040A0007ED1287F022805D10421284600F054FB48
:1040B00049F82400287F012802D056F8240005E0A2
:1040C0000021284600F048FB46F82400002867D06D
:1040D0005A494FF0640859F82420DFF868C1343198
:1040E000DFF864E19FED591B02FB08F2BCFBF0FC1A
:1040F000B2FBF0F001F1300301EBC40103EB8403E8
:1041000000EE100A4D48B8EE402B183881ED002B18
:1041100040F824C09EED020ADEED030AB7EEC03A75
:1041200030EEC00AB7EEC00A32EE432B22EE012B6E
:1041300082EE003BB7EEC30B83ED000A9FED452AEC
:10414000943000EB8400D0ED000A30EE600A30EECF
:10415000020AB7EEC00A03F01BF9B7EEC00B3748EE
:10416000DFF8D4C09430DFF8F08000F1300100F1C6
:104170001802ACF1440C00EB840001EB840180EDEB
:10418000000A3CF8140002EB840200EE900AB8EE3C
:10419000601AC0EE010AC1ED000A1168414500E055
:1041A00043E007DD10EE103A5B4503DA5AF824309D
:1041B0005B1C08E0594508DA10EE101A414504DD91
:1041C0005AF824305B1E4AF824304FF4B4735AF87E
:1041D00024C0B3FBF0F31949DFF85C80DC3108F14F
:1041E000900801EB840008EB840803FB0CF301EE5C
:1041F000103AB8EE411A71EE200AC0ED000A98EDAF
:10420000001AF4EEC10AF1EE10FA0AD90A4978311F
:1042100001EB840191ED001AF4EEC10AF1EE10FAFF
:1042200001DB80ED001A82ED000A641C062CFFF60B
:1042300033AFBDE8F09F000040010024D409002402
:104240000000204140420F00000000240000000058
:10425000008076400000B4430000AF432DE9F047F2
:10426000054690F83C0000260C46012810D001209D
:1042700085F83C0072B1042A1CD0082A2CD00C2AE4
:1042800052D00126002085F83C003046BDE8F0877A
:104290000220FBE7E3682868D4E9001202F018F96D
:1042A0002868816921F00C01816128688169A26810
:1042B00011430FE0E3682868D4E9001202F05AF9CC
:1042C0002868816921F44061816128688169A26858
:1042D00041EA02218161D5E728684FF4206CD4E9D6
:1042E0000032217B076AD0F820800CEA03230907FB
:1042F00027F4206728F4807CC0F820C0D0F81CC0C8
:104300003B432CF00307174327F0F00242EA116108
:10431000C16103622868C16921F00C01C16128688C
:10432000A268C169114328E0D4E9002328684FF44A
:104330002048E1684FF6FF7C9946036A076A08EA5D
:10434000023223F420431A430CEA013127F4805748
:104350000762C36923F4407747EA092323F47043D3
:104360001943C16102622868C16921F44061C161D9
:104370002868A168C26942EA0121C16182E710B5DB
:10438000040003D094F83D0010B107E0012010BDF7
:10439000002084F83C00204600F022F8022084F837
:1043A0003D002068211D01F089FF012084F84800AC
:1043B00084F83E0084F83F0084F8400084F841000F
:1043C00084F8420084F8430084F8440084F84500EF
:1043D00084F8460084F8470084F83D00002010BDB2
:1043E0007047000030B504464FF0000579B104294C
:1043F00012D0082915D00C2918D0102919D094F8FA
:10440000430000BF94F84720012817D114E094F826
:104410003E0094F84420F7E794F83F0094F84520D4
:10442000F2E794F8400094F84620EDE794F8410054
:10443000E8E794F84200E5E7012A01D0012030BD09
:104440004FF0020079B1042916D008291DD00C299B
:104450004FD0102950D084F843000C2984F847002D
:104460004DD0012543E084F83E0084F844002068E4
:10447000C26842F0020210E084F83F0084F8450070
:104480002068C26842F0040207E084F8400084F823
:1044900046002068C26842F00802C260206801221B
:1044A00001F074FF18492068884214D0B0F1804FA1
:1044B00011D0164988420ED0154988420BD01549B3
:1044C000884208D01449884205D01449884202D055
:1044D0001349884207D18168124A1140062906D043
:1044E000B1F5803F03D0016841F001010160284629
:1044F00030BD84F84100B0E784F84200ADE72068A1
:10450000C26842F01002C8E7000001400004004009
:1045100000080040000C004000040140001800406A
:1045200000400140070001002DE9F0410446006809
:104530000027C6680569A90713D5B10711D5FA1E6A
:10454000026101212177206880698007204602D01E
:10455000FFF794FD04E000F08BF8204600F089F8A6
:104560002777680716D5700714D5226802206FF0E8
:104570000401116120772068806910F4407F204693
:1045800002D0FFF77BFD04E000F072F8204600F057
:1045900070F82777280715D5300713D5226804202F
:1045A0006FF00801116120772068C06980072046FC
:1045B00002D0FFF763FD04E000F05AF8204600F057
:1045C00058F82777E80616D5F00614D52268082093
:1045D0006FF01001116120772068C06910F4407FEE
:1045E000204602D0FFF74AFD04E000F041F82046E3
:1045F00000F03FF82777E80708D0F00706D02168D9
:104600006FF001000861204600F034F8280601D45C
:10461000A80408D5300606D521686FF40250086159
:104620002046FFF732FAE80508D5300606D521689E
:104630006FF4807008612046FFF726FA680608D5F7
:10464000700606D521686FF040000861204600F032
:10465000C4F8A8060AD5B00608D521686FF0200076
:1046600008612046BDE8F041FFF710BABDE8F081CF
:10467000704770472DE9F05F354F0024354D0646F1
:1046800007F1600BA7F1200AA7F1080905F1180846
:1046900057F824103068884254D1012109F80410D9
:1046A0002C4955F824005439401C45F8240031F8B1
:1046B0001410884207D226483BF8141030300122EB
:1046C00050F824000FE02349183931F81410491E1E
:1046D00088420BD21E484FF000023BF8141000F144
:1046E000300050F82400FDF7A7FB0AE009D14FF095
:1046F000000145F8241058F8241001F1010148F890
:1047000024101448A0F13C0030F8141058F824008C
:10471000884203D31AF80400012806D01AF80400CE
:1047200080B90B482638005D60B90948183050F848
:104730002400FFF70DFC002045F8240048F8240071
:1047400009F80400641C062CA2DBBDE8F09F000001
:10475000780000242C09002402464FF0000041B1EB
:10476000042909D008290AD00C2901D11068006C4D
:1047700070471068406B70471068806B7047106816
:10478000C06B704770B5044690F83C00012812D009
:10479000012584F83C50022084F83D00204601F0B9
:1047A00015FE00284FF0000007D084F83D5084F833
:1047B0003C00012070BD022070BD2168CA6822F053
:1047C0004002CA602168CA6822F48042CA6084F844
:1047D0003D5084F83C00002070BD704730B590F823
:1047E0008410012918D0012280F884202421C0F8E7
:1047F00088100022202401680B680D6823F0005304
:1048000025F001050D60426601680B60C0F8884024
:1048100080F88420104630BD022030BD70477047BC
:1048200070B5044690F8840001281DD0012284F858
:1048300084202420C4F8880020680568026822F0DB
:10484000010202602068826822F060620A4382608E
:10485000204601F0B1FE2268202100201560C4F836
:10486000881084F8840070BD022070BD70B50446C5
:1048700090F8840001281DD0012284F8842024208F
:10488000C4F8880020680568026822F0010202600E
:104890002068826822F060420A438260204601F06C
:1048A0008BFE2268202100201560C4F8881084F84F
:1048B000840070BD022070BD70477047704701468C
:1048C000D0F88800D1F88C10084370472DE9F041EA
:1048D00007680025044640F60F030226F869396888
:1048E000BA6818420AD183067ED501F0200302F08F
:1048F000805C53EA0C0377D0616F74E1CF4BDFF833
:1049000040C3134001EA0C0C53EA0C0C6CD05FEA74
:10491000C07C0CD05FEAC15C09D54FF0010CC7F830
:1049200020C0D4F8907047F00107C4F89070870752
:1049300009D5D70707D027683E62D4F8906046F0C3
:104940000406C4F8906046070AD5D60708D0276841
:1049500004263E62D4F8906046F00206C4F89060E7
:1049600006070CD501F020061E4308D02668082350
:104970003362D4F8903043F00803C4F89030030554
:104980000BD54B0109D526684FF400633362D4F888
:10499000903043F02003C4F89030D4F89030002BCE
:1049A0003DD0800609D501F0200002F08051084377
:1049B00003D0616F09B1204688472168D4F8900080
:1049C0008968490602D410F0280F2AD0204601F049
:1049D000D9FE2068806840061ED52068083050E85F
:1049E000001F21F0400100E021E040E80012002A11
:1049F000F3D1D4F8800078B192490165D4F88000F1
:104A0000FCF74CFA00280AD0D4F88000016D00E0D1
:104A10002046BDE8F04108472046FFF74FFFBDE8BC
:104A2000F0812046FFF74AFFC4F89050F7E7D4F82A
:104A30006CC02023BCF1010F7ED15FEAC06C7BD536
:104A40005FEAC16C78D51020386220688068400623
:104A500073D5D4F880107C4A0868904234D07A4AE2
:104A60001832904230D0784A303290422CD0764A78
:104A70004832904228D0744A6032904224D0724A20
:104A80007832904220D0704A903290421CD06E4AC8
:104A9000A832904218D06D4A904215D06B4A183215
:104AA000904211D0694A303290420DD0674A483264
:104AB000904209D0654A6032904205D0634A78320C
:104AC000904201D0614A903240680004000CA6D0A8
:104AD000B4F85C208242A2D9A4F85E00C869B0F59F
:104AE000807F2FD0216851E8000F20F4807041E8CA
:104AF0000002002AF6D12068083050E8001F21F09B
:104B0000010140E80012002AF5D12068083050E881
:104B1000001F21F0400140E80012002AF5D1C4F83E
:104B20008C30E566216851E8000F20F0100041E864
:104B30000002002AF6D101E040E00BE0D4F880004A
:104B4000FBF7FCFF2667B4F85C00B4F85E10401A6F
:104B500081B22FE0B4F85C00B4F85E10B4F85E20C7
:104B6000401A81B2002AB2D00029B0D0226852E89F
:104B7000000F20F4907042E80007002FF6D1344F68
:104B8000206800F1080050E8002F02EA070240E820
:104B9000002CBCF1000FF3D1C4F88C30E5666567DA
:104BA000206850E8002F22F0100240E80023002B7C
:104BB000F6D126672046FFF731FE30E7C60209D559
:104BC000560207D54FF4801038622046BDE8F04108
:104BD000FFF773BE06060AD501F0800602F4000254
:104BE000164304D0A16F00297FF412AF17E74206E5
:104BF00011D54A060FD52046026852E8001F21F061
:104C0000400142E80014002CF6D1C0F888308567D6
:104C100000F09EF903E7020206D54A0004D52046BB
:104C2000BDE8F041FFF748BEC001C6D50029C4DA8F
:104C30002046BDE8F041FFF7F2BD00000100001082
:104C4000200100046F6700081000024010040240B9
:104C5000FEFFFFEF10B5040003D0D4F8880010B1B8
:104C600007E0012010BD002084F88400204600F0F9
:104C700027F82420C4F888002068016821F0010189
:104C80000160A06A10B1204601F0B8FC204602F095
:104C90000BF80128E6D02068416821F4904141607A
:104CA0002068816821F02A0181602068016841F054
:104CB000010101602046BDE8104001F003BD000085
:104CC00070B5B6B00646142130A8FBF75BFCC021D6
:104CD0006846FBF757FC2A49306888424ED1036882
:104CE0000221002243F010031546036068461E921D
:104CF000CDE90012FDF7F4FC08B1FBF714FE2148E2
:104D0000016841F400210160006800F40020359042
:104D10001C480838016841F001010160006830ABAF
:104D2000022100F0010035904FF4C050062283E8C4
:104D30002300154830A9CDE93352FCF767FF134C27
:104D4000402013490201216081026060C4E902052C
:104D5000C4E90425A5612046C4E907516562FCF752
:104D600053FD08B1FBF7DFFDF46700220C21A663B9
:104D70003420FDF703FB3420FDF7F2FA36B070BDA6
:104D8000004C0040E844025800000258C80A0024C1
:104D90001000024030B4D0F88C30202B02D002201A
:104DA00030BC7047A9B1A2B10B4D00240368C466A2
:104DB000AB420BD05B681B0208D5046854E8003F87
:104DC00043F0806344E80035002DF6D130BC02F09A
:104DD00041B90120E4E70000000C005810B500685C
:104DE0000649884209D102F083FB054C0121E063AA
:104DF00004484170FDF72CF8A06310BD004C004042
:104E000000000024280200242DE9F8430446D0F8CD
:104E10008800984616460D46202802D00220BDE89C
:104E2000F883A5B19EB10021C4F890102120C4F8E8
:104E300088001834FDF70CF8814654F8100CA6874A
:104E4000E6872027183CB0F5805F02D003E0012000
:104E5000E5E7206910B12E46002510E000260EE09F
:104E60008021204602F037FAC0B9DEB116F8010BF6
:104E700021688862B4F85600401EA4F85600B4F8C1
:104E800056004B464FF00002CDF800800028E7D1D5
:104E90004FF04001204602F01EFA48B1C4F8887075
:104EA0000320BCE735F8020B2168C0F30800E0E7F7
:104EB000C4F888700020B2E710B5D0F88830202BF5
:104EC00001D0022010BD21B31AB3A0F85420002352
:104ED000A0F856204FF48054426E0165212183676B
:104EE000C0F89030C0F88810B2F1005F816812D02D
:104EF000A14201D1016909B311498167026852E8F1
:104F0000001F41F0800142E80013002BF6D1002081
:104F100010BD012010BDA14201D1016961B1094953
:104F200081670168083151E8002F42F4000241E82E
:104F30000023002BF5D1EAE70349F1E70349DCE759
:104F40002372000871720008B971000865710008C9
:104F500000680349884202D1024901200870704765
:104F6000004C004028020024FEE701688A69D24311
:104F7000920701D400228A6200688169C943C90787
:104F800003D0816941F00101816170472DE9F0474B
:104F9000044600680026894617464FF0200835462B
:104FA0008169C90641D51021C1612FE0B9F1FF3FE8
:104FB0002CD0FCF74DFFC11B494502D8B9F1000FB9
:104FC00024D12068426894F84210836902F4804238
:104FD000DB431B0415D4B2F5804F12D0202910D02A
:104FE000416841F480414160FCF732FF074608E028
:104FF000FCF72EFFC01B192803D9012645F0200518
:1050000004E020688069C0438006F1D4206880698C
:10501000C043800602D5002EC8D003E016B921682F
:10502000C1F81C80012645F0040521688869C20585
:1050300005D54FF48072CA6145F00105012641058E
:105040000AD5216880054FF4806245F00805CA61E1
:105050004FF0010602D40AE0800507D5206801263A
:105060004FF4007145F00205C16100E08EB12046A9
:10507000FFF77BFF20680021074F43683B404360F8
:10508000606C2843606484F8418084F8421084F89E
:1050900040103046BDE8F08700E800FE70B50068BB
:1050A000C1F3090141EA0241074D049C19434FF441
:1050B00080664268214306EA54532B439A4321F009
:1050C00000410A43426070BDFF63FF032DE9F041D8
:1050D0001D4617460E460446DDF8188028E0424675
:1050E00029462046FFF752FF10B10120BDE8F081AC
:1050F000681C1DD0FCF7ACFEA0EB0800A84200D84D
:10510000B5B92068806936EA00000FD00020B842A7
:105110000ED1626C002084F84000202142F0200271
:10512000626484F8411084F84200DEE70120EEE773
:105130002068806936EA000004D00020B842CED052
:105140000020D3E70120F9E770B516460D46044666
:105150001FE0324629462046FFF718FF08B101201C
:1051600070BDFCF775FE801BA84200D88DB9206881
:105170008069C04380060CD5626C002084F8400032
:10518000202142F02002626484F8411084F8420039
:10519000E5E720688069C0438006DAD4002070BD4E
:1051A00070B516460D46044621E032462946204693
:1051B000FFF7ECFE08B1012070BD681C17D0FCF7AA
:1051C00047FE801BA84200D88DB920688069C04383
:1051D00080070CD5626C002084F84000202142F04A
:1051E0002002626484F8411084F84200E3E72068FA
:1051F0008069C0438007D8D4002070BD2DE9F04FEE
:1052000087B014216846FBF7BDF97A48016841F080
:1052100010010160016801F010010591016841F081
:1052200004010160016801F004010591016841F089
:1052300080010160016801F080010591016841F081
:1052400001010160016801F001010591016841F06F
:1052500002010160016801F002010591016841F05D
:105260000801016000680022DFF88CB1932100F092
:10527000080005905846FCF7DFFDDFF8808100222A
:1052800096214046FCF7D8FDDFF87491002245F2E4
:105290000D414846FCF7D0FDDFF868A100224FF42D
:1052A000BA415046FCF7C8FD4FF404575648002257
:1052B0003946FCF7C1FD3C02694601257C208DE89A
:1052C00031005046FCF7A2FC680369468DE83100C6
:1052D0005846FCF79BFC00246946932000905846F2
:1052E000CDE901540394FCF791FC86200090CDE9B0
:1052F0000154694640460394FCF788FC032669463E
:105300001020CDE90005CDE902464046FCF77EFCC1
:1053100044F201406946CDE90005CDE90246484620
:10532000FCF774FC41F20C000090CDE90154694691
:1053300048460394FCF76AFC4FF488506946CDE96F
:105340000005CDE902465046FCF760FC4FF498405A
:105350000090CDE90154694650460394FCF756FC91
:1053600000976946CDE9015427480394FCF74EFCA9
:10537000022569464FF4F85002AACDE900050C2732
:10538000584682E8D000FCF741FC0420694602AA96
:10539000CDE900051C4882E8D000FCF737FC00226C
:1053A0000F210820FCF7EAFF0820FCF7D9FF0022B4
:1053B0000F210920FCF7E2FF0920FCF7D1FF0022B2
:1053C0000F210A20FCF7DAFF0A20FCF7C9FF0022B0
:1053D0000F211720FCF7D2FF1720FCF7C1FF002296
:1053E0000F212820FCF7CAFF2820FCF7B9FF07B0DF
:1053F000BDE8F08FE044025800080258000002584F
:105400000004025800100258000C025812480021F3
:1054100010B5104C0123114A0460C0E90121C0E914
:10542000033141618161C1610162FCF76DFD08B129
:1054300072B6FEE708480021FCF710FD08B172B60D
:10544000FEE705480021FCF735FD002801D072B6C3
:10545000FEE710BD00540040080300245919400025
:1054600010B588B0164800241449632200940194B2
:1054700002940394049405940694C0E90014C0E9CE
:10548000024204618461FEF755FB08B172B6FEE783
:105490004FF4805000900A486946FEF771FD08B14C
:1054A00072B6FEE7064804A904940694FEF7F0FAE3
:1054B000002801D072B6FEE708B010BD0018004009
:1054C0002405002410B588B017480024154963222C
:1054D0000094019402940394049405940694C0E902
:1054E0000014C0E90242046144618461FEF722FBBA
:1054F00008B172B6FEE74FF4805000900A48694642
:10550000FEF73EFD08B172B6FEE7074804A9049411
:105510000694FEF7BDFA002801D072B6FEE708B087
:1055200010BD0000004001400806002430B591B0D5
:105530000024142107A80C940D940E940F94FBF7EB
:1055400021F82E4863222C494FF6FF7300940194F2
:105550000294039404940594069480E81600C0E92C
:10556000033444618461FEF7E5FA08B172B6FEE7E0
:105570004FF480500C9021480CA9FEF701FD08B1B2
:1055800072B6FEE71D48FEF7FAFE08B172B6FEE7F6
:1055900007AA04205021052582E81300174807A90F
:1055A000CDE90A45FFF7EEF808B172B6FEE7012033
:1055B00069460022CDE90245CDE900400F48FEF7DB
:1055C0004DFE08B172B6FEE7022000900190042261
:1055D0000A486946FEF742FE08B172B6FEE7074880
:1055E00004A9049405940694FEF752FA002801D009
:1055F00072B6FEE711B030BD000001405C0300242C
:1056000030B591B00024142107A80C940D940E9489
:105610000F94FAF7B7FF2C48632200944FF08041B3
:105620000194631E0294039404940594069480E804
:105630001600C0E903348461FEF77CFA08B172B643
:10564000FEE74FF480500C901F480CA9FEF798FC21
:1056500008B172B6FEE71C48FEF791FE08B172B6BB
:10566000FEE707AA04205021052582E8130016480A
:1056700007A9CDE90A45FFF785F808B172B6FEE73C
:10568000012069460022CDE90245CDE900400E48DF
:10569000FEF7E4FD08B172B6FEE70220009001902B
:1056A000042209486946FEF7D9FD08B172B6FEE743
:1056B000054804A904940694FEF7EAF9002801D0ED
:1056C00072B6FEE711B030BDA803002430B591B02A
:1056D0000024142107A80C940D940E940F94FAF74B
:1056E00051FF2D4863222B494FF6FF73009401941C
:1056F0000294039404940594069480E81600C0E98B
:1057000003348461FEF716FA08B172B6FEE74FF46F
:1057100080500C9020480CA9FEF732FC08B172B6FC
:10572000FEE71D48FEF72BFE08B172B6FEE707AA9A
:1057300004205021052582E81300174807A9CDE968
:105740000A45FFF71FF808B172B6FEE70120694667
:105750000022CDE90245CDE900400F48FEF77EFD6D
:1057600008B172B6FEE702200090019004220A48B8
:105770006946FEF773FD08B172B6FEE7064804A954
:1057800004940694FEF784F9002801D072B6FEE76F
:1057900011B030BD00040040F403002430B591B0D6
:1057A0000024142107A80C940D940E940F94FAF77A
:1057B000E9FE2D4863222B494FF6FF7300940194B4
:1057C0000294039404940594069480E81600C0E9BA
:1057D00003348461FEF7AEF908B172B6FEE74FF408
:1057E00080500C9020480CA9FEF7CAFB08B172B695
:1057F000FEE71D48FEF7C3FD08B172B6FEE707AA33
:1058000004205021052582E81300174807A9CDE997
:105810000A45FEF7B7FF08B172B6FEE701206946F8
:105820000022CDE90245CDE900400F48FEF716FD04
:1058300008B172B6FEE702200090019004220A48E7
:105840006946FEF70BFD08B172B6FEE7064804A9EB
:1058500004940694FEF71CF9002801D072B6FEE706
:1058600011B030BD000800404004002430B591B0B4
:105870000024142107A80C940D940E940F94FAF7A9
:1058800081FE2D4863222B49631E009401940294EB
:10589000039404940594069480E81600C0E9033448
:1058A0008461FEF747F908B172B6FEE74FF4805005
:1058B0000C9021480CA9FEF763FB08B172B6FEE715
:1058C0001D48FEF75CFD08B172B6FEE707AA04208A
:1058D0005021052582E81300174807A9CDE90A459C
:1058E000FEF750FF08B172B6FEE7012069460022BC
:1058F000CDE90245CDE900400F48FEF7AFFC08B105
:1059000072B6FEE702200090019004220A48694620
:10591000FEF7A4FC08B172B6FEE7074804A9049498
:105920000694FEF7B5F8002801D072B6FEE711B074
:1059300030BD0000000C00408C04002430B591B054
:105940000024142107A80C940D940E940F94FAF7D8
:1059500019FE2E4863222C494FF6FF7300940194E0
:105960000294039404940594069480E81600C0E918
:10597000033444618461FEF7DDF808B172B6FEE7D6
:105980004FF480500C9021480CA9FEF7F9FA08B1A9
:1059900072B6FEE71D48FEF7F2FC08B172B6FEE7EC
:1059A00007AA04205021052582E81300174807A9FB
:1059B000CDE90A45FEF7E6FE08B172B6FEE7012022
:1059C00069460022CDE90245CDE900400F48FEF7C7
:1059D00045FC08B172B6FEE7022000900190042257
:1059E0000A486946FEF73AFC08B172B6FEE7074876
:1059F00004A9049405940694FEF74AF8002801D0FF
:105A000072B6FEE711B030BD00040140D804002496
:105A100018480C2210B54FF4E134154B0021C0E9B1
:105A2000003481601023C160C0E9041281611C024E
:105A3000C161C4630162C0E90913FFF70BF908B142
:105A400072B6FEE70B480021FEF710FF08B172B6F0
:105A5000FEE708480021FEF7E3FE08B172B6FEE754
:105A60000448FEF7BBFE002801D072B6FEE710BD69
:105A7000004C0040EC060024FEE7FDF721FDFEE7A8
:105A8000704700002DE9F047454D044689464FF028
:105A9000000A2868C04380070AD0414E283E30687B
:105AA00020F080603060FCF7D3F90746B04608E08C
:105AB0000120BDE8F08700BFFCF7CAF9C01B02282F
:105AC00067D8D8F800000001F6D4206829684FF4A0
:105AD000FE0721F47C313E0241EA00302860207A42
