:020000040800F2
:10000000E04D0024810300089B630008215800088C
:1000100099630008AF090008098700080000000084
:100020000000000000000000000000009D740008B7
:100030002D0A000800000000A1630008897500086F
:100040009B0300089B0300089B0300089B03000818
:100050009B0300089B0300089B0300089B03000808
:10006000DB0A0008E10A0008E70A00089B03000811
:100070009B0300089B0300089B0300089B030008E8
:100080009B0300089B0300089B0300089B030008D8
:100090009B0300089B0300089B030008ED0A00086F
:1000A0009B0300089B0300089B03000831770008AE
:1000B0003D77000849770008557700089B03000842
:1000C0009B0300089B0300089B0300089B03000898
:1000D0009B0300089B0300089B0300089B03000888
:1000E000D30A00089B030008000000006D77000899
:1000F000B177000895770008897700089B0300080E
:100100009B0300083D660008617700089B03000818
:10011000BD7A00089B0300089B0300089B030008AE
:100120009B0300089B0300089B0300089B03000837
:100130009B0300089B0300089B0300089B03000827
:1001400000000000000000000000000000000000AF
:100150009B0300089B0300089B0300089B03000807
:100160009B0300089B0300089B0300089B030008F7
:100170009B0300089B0300089B030008000000008D
:100180009B0300089B0300089B0300089B030008D7
:100190009B0300089B0300089B0300089B030008C7
:1001A0009B0300089B0300089B0300089B030008B7
:1001B0009B0300089B0300089B0300089B030008A7
:1001C0009B0300089B0300089B0300089B03000897
:1001D0009B0300089B0300089B0300089B03000887
:1001E0009B0300089B0300089B0300089B03000877
:1001F0009B0300089B0300089B0300089B03000867
:100200009B0300089B0300089B0300089B03000856
:100210000D77000819770008257700089B03000870
:100220009B0300089B0300089B03000800000000DC
:100230009B0300089B030008000000009B030008CC
:100240009B0300089B0300089B0300089B03000816
:100250009B0300089B0300089B0300089B03000806
:100260009B0300089B0300089B0300089B030008F6
:100270009B0300089B0300089B030008000000008C
:100280009B0300089B0300089B030008000000007C
:10029000000000009B03000800F002F800F060F886
:1002A0000AA090E8000C82448344AAF10107DA45D1
:1002B00001D100F055F8AFF2090EBAE80F0013F0C3
:1002C000010F18BFFB1A43F00103184734D7000091
:1002D00054D700000A444FF0000C10F8013B13F013
:1002E000070408BF10F8014B1D1108BF10F8015B8F
:1002F000641E05D010F8016B641E01F8016BF9D182
:1003000013F0080F1EBF10F8014BAD1C0C1B09D1D8
:100310006D1E58BF01F801CBFAD505E014F8016B4A
:1003200001F8016B6D1EF9D59142D6D370470000DC
:100330000023002400250026103A28BF78C1FBD8EE
:10034000520728BF30C148BF0B6070471FB50CF083
:10035000F9FC9DE8030000F0E7F91FBD10B510BDE2
:1003600000F04EFA1146FFF7F1FF0AF09DFD00F094
:100370006CFA03B4FFF7F2FF03BC00F09DFA000033
:100380000948804709480047FEE7FEE7FEE7FEE729
:10039000FEE7FEE7FEE7FEE7FEE7FEE70448054965
:1003A000054A064B704700003176000899020008A4
:1003B000E0470024E04D0024E0490024E049002407
:1003C00070B5064600F094F9056806F10B0020F0C0
:1003D0000704B4429CBF002070BD2B466A68BAB1C6
:1003E0001068A04210D304F1080188423CBF506855
:1003F000586007D35168101941601168091B0160EA
:1004000058601460101D70BD13465268002AE7D171
:100410002146284600F074F90028DED170BD70B581
:100420000446051F00F064F90068002C14BF4468FE
:1004300070BD002C18BFAC423CBF20466468F8D3A6
:1004400001680A18AA4218BF456003D12A68054608
:100450001144016028684119A1421CBF6C6070BD45
:100460006168696021680844286070BD53EA020C25
:1004700000F069802DE9F04B4FF00006002B1FBF04
:10048000B3FA83F503FA05F424FA05F65E4012BFC9
:100490001643B2FA82F502FA05F4C5F120051EBF33
:1004A00022FA05FC44EA0C04203556EA044C4FEAD3
:1004B000144418BF641C4FF000084FF0000990422C
:1004C00071EB030C39D3002919BFB1FA81F701FA96
:1004D00007F6B0FA80F700FA07F6C7F120071EBF4B
:1004E00020FA07FC46EA0C062037B6FBF4FCA7EB23
:1004F0000507103F07F01F0BCBF120060CFA0BFB92
:100500002CFA06F644BFB3460026202FA4BF5E4651
:100510004FF0000B5BEA060C08BF4FF0010B19EB24
:100520000B09ABFB027C48EB0608C01B06FB02CCA8
:100530000BFB03CC71EB0C01C1E70B4602464146B5
:100540004846BDE8F08B13B54FF000004FF00001B6
:10055000AFF30080BDE81C407047032A40F23080B2
:1005600010F0030C00F0158011F8013BBCF1020FF4
:10057000624498BF11F801CB00F8013B38BF11F875
:10058000013BA2F1040298BF00F801CB38BF00F88C
:10059000013B11F0030300F02580083AC0F0088009
:1005A00051F8043B083A51F804CBA0E80810F5E7ED
:1005B000121D5CBF51F8043B40F8043BAFF30080D0
:1005C000D20724BF11F8013B11F801CB48BF11F845
:1005D000012B24BF00F8013B00F801CB48BF00F815
:1005E000012B704710B5203AC0F00B80B1E81850CD
:1005F000203AA0E81850B1E81850A0E81850BFF40D
:10060000F5AF5FEA027C24BFB1E81850A0E81850AB
:1006100044BF18C918C0BDE810405FEA827C24BFFF
:1006200051F8043B40F8043B08BF7047D20728BF8D
:1006300031F8023B48BF11F8012B28BF20F8023BDC
:1006400048BF00F8012B704702F0FF0343EA032282
:1006500042EA024200F002B84FF000020429C0F062
:10066000128010F0030C00F01B80CCF1040CBCF1E4
:10067000020F18BF00F8012BA8BF20F8022BA1EB36
:100680000C0100F00DB85FEAC17C24BF00F8012B1B
:1006900000F8012B48BF00F8012B70474FF0000213
:1006A00000B5134694469646203922BFA0E80C5068
:1006B000A0E80C50B1F12001BFF4F7AF090728BF43
:1006C000A0E80C5048BF0CC05DF804EB890028BFBF
:1006D00040F8042B08BF704748BF20F8022B11F0E8
:1006E000804F18BF00F8012B704770477047704764
:1006F000004870478847002470477047704770472C
:1007000038B504460A4600206946AFF30080002849
:1007100008BF38BD02460099204600F04FF801207E
:1007200038BD012000F064B8F8B5AFF3008005468D
:1007300000200C46102000BF0646A819A0420DD983
:10074000324669460020AFF30080070008BF00F082
:100750004FF80098A04218BF0546C419FFF7C8FF1C
:1007600005600746F01D20F007004619284600F0F6
:100770000AF8B44208BFF8BDA21B31463868BDE88C
:10078000F84000F01BB800210160C0E9011070477B
:100790001020704710B500F00DF8006810BD10B5BE
:1007A000044600F007F8046010BD000000487047E0
:1007B0008047002400487047804700240346406873
:1007C0008C46002818BF88423CBF03464068F8D3D7
:1007D00018681844884207D00CF1030020F0070085
:1007E000001D411A521A0146081D0A60FFF717BE84
:1007F00010B500F039F8BDE8104000F02FB8704790
:100800007546FFF7D3FFAE4605006946534620F014
:100810000700854618B020B5FFF7C0FDBDE82040B1
:100820004FF000064FF000074FF000084FF0000BAC
:1008300021F00701AC46ACE8C009ACE8C009ACE85F
:10084000C009ACE8C0098D46704710B50446AFF347
:1008500000802046BDE81040FFF78BBD002801D086
:1008600000F02AB87047000010B5012805D000211B
:1008700003A000F027F8012010BD09A1F8E700004F
:1008800053494752544D454D3A204F7574206F6679
:100890002068656170206D656D6F727900000000E1
:1008A0003A2048656170206D656D6F727920636FC5
:1008B000727275707465640001491820ABBEFEE762
:1008C0002600020070B505460C460A2000E06D1CAB
:1008D00000F011F835B128780028F8D102E0641C46
:1008E00000F009F814B120780028F8D1BDE8704074
:1008F0000A20AFF3008008B569468DF80000032098
:10090000ABBE08BD0146014803F0C2B85037002411
:10091000044810B503F0CEF8042801D0012010BD22
:10092000002010BD5037002410B500F015F8012844
:1009300001D0022010BD074803F058FA040006D188
:1009400004484FF4804102F0FFFE00B1012420462C
:1009500010BD00005037002408B501208DF80000BC
:100960009DF8000008BD000038B500240093134630
:100970000A460146034803F03FFB00B1012420462C
:1009800038BD0000503700247047000038B50024FF
:10099000009313460A460146034803F017FC00B1D2
:1009A0000124204638BD0000503700247047FEE780
:1009B000F0B59FED160B9FED171B9FED182B00F167
:1009C000C80484EC060B002480ED380B80ED3A0B54
:1009D00080ED3C0B9FED130B01EBC40600EBC4054F
:1009E00096ED001B02EBC40685ED0E1B96ED001B79
:1009F00003EBC40785ED1A1B97ED001B641C062C46
:100A000021EE001B85ED261BE6DBF0BD000000009B
:100A10000000000000000000008056C00000000040
:100A200000806640399D52A246DF913F70473FB536
:100A300083B0044642EA81118AB20A9B6425617937
:100A400006A88DE829006069022300F09DFF18B117
:100A50000220207407B030BD0120FAE7FEB504463D
:100A6000807842EA81118EB26779FFF7A9FCA178FC
:100A70000546FFF7F1FD6421A07800950223324678
:100A8000CDE901016069394600F07EFF30B10220F6
:100A900020742846BDE8FE40FFF7C1BC0120F7E7FF
:100AA0003EB5044642EA811106988AB2617964250E
:100AB0000295CDE900306069022300F065FF010076
:100AC0004FF0010003D00221217420743EBD207438
:100AD000FBE74FF4005000F043BC042000F040BCA2
:100AE000082000F03DBC102000F03ABC202010B5DA
:100AF00000F036FCBDE81040402000F031BC72B67A
:100B0000FEE70022AFF300800E4B70B505465C7A1D
:100B10000120002C14D15E7A03F108009C555E7A06
:100B200003EB860675605D7A2A54587A421C5A7225
:100B30003A232F22303008704B7020468A70CC70D8
:100B400070BD0000744700242DE9F0470446714849
:100B50004FF001084FF00207400702D084F8EA7016
:100B600001E084F8EA8000256A4E04F18009705D96
:100B7000FF287DD1701941785A2979D18178FF29D0
:100B800076D194F8EA10012972D1C178012912D0E6
:100B900002291DD003292DD004293ED005294AD091
:100BA00006294FD007297DD008297CD009297BD080
:100BB0000A297AD09EE084F8D880017984F8D91087
:100BC000417984F8DB10817984F8DA10C07971E01A
:100BD00084F8D870017984F87B10417984F8E310A7
:100BE000817984F8E210C17984F8E810007A84F8F9
:100BF000E4007FE0032184F8D810017984F8DC1048
:100C0000417984F8DD10817984F8DE10C17984F8A7
:100C1000DF108068C4F880006CE0042184F8D810EC
:100C2000017984F8E110417984F8E010C08840BA75
:100C300084F87A005EE0052184F8D810007984F801
:100C4000E50057E0062184F8D8104168C4F8841004
:100C50008268C9F80820C268C9F80C200269C9F87E
:100C600010204269C9F814208269C9F8182000E0F0
:100C700045E0C269C9F81C20026AC9F82020426A0E
:100C8000C9F82420826AC9F82820C26AC9F82C2031
:100C9000026BC9F8302090F8351084F87B1090F87A
:100CA000361003E009E00FE015E020E084F8E210E0
:100CB00090F8370084F8E8001CE0072184F8D81089
:100CC000007984F8E60015E0082184F8D81000794E
:100CD00084F8E7000EE0092184F8D810017984F83F
:100CE000E910B0F8050040BAA4F87C0002E00A2040
:100CF00084F8D80007493C22A01CFFF72EFC6D1C8D
:100D00003C2DFFF634AFBDE8F04702483C21FFF729
:100D1000A3BC0000384300242DE9F84F044600F03E
:100D200051FC00903CB194F83500022806D0802197
:100D300061650020E4E00120BDE8F88FC74DC74E93
:100D4000C649183520683036DFF81483DFF814936D
:100D50008842DFF814A3DFF814B32ED0A8422CD0B9
:100D6000B0422AD0404528D0484526D0504524D00E
:100D7000584522D0BD4A183290421ED0BC4A9042FB
:100D80001BD0BB4A1832904217D0B94A3032904239
:100D900013D0B74A483290420FD0B54A60329042E1
:100DA0000BD0B34A7832904207D0B14A9032904289
:100DB00003D0AF4AA832904209D1026822F01E0245
:100DC00002602068426922F08002426103E002680A
:100DD00022F00E02026027688F4238464DD0A842AA
:100DE0004BD0B04249D0404547D0484545D050450A
:100DF00043D0584541D09D4A183290423DD09C4A3C
:100E000090423AD09A4A1832904236D0984A3032BC
:100E1000904232D0964A483290422ED0944A603264
:100E200090422AD0924A7832904226D0904A90320C
:100E3000904222D08E4AA83290421ED08D4A9042D3
:100E40001BD08C4A1432904217D08A4A28329042E2
:100E500013D0884A3C3290420FD0864A503290429A
:100E60000BD0844A6432904207D0824A7832904252
:100E700003D0804A8C32974204D1206E026822F45B
:100E80008072026075492068884228D0A84226D026
:100E9000B04224D0404522D0484520D050451ED0F5
:100EA00058451CD071491831884218D07049884281
:100EB00015D06F491831884211D06D4930318842C0
:100EC0000DD06B494831884209D069496031884268
:100ED00005D067497831884201D065499031016871
:100EE00021F0010101600EE000F06CFB0099401A56
:100EF000052808D9202262650321002084F83510D6
:100F000084F8340017E73868C007EDD1534A01214F
:100F1000206890422ED0A8422CD0B0422AD0404522
:100F200028D0484526D0504524D0584522D04F4B94
:100F3000183398421ED04E4B98421BD04C4B18335E
:100F4000984217D04A4B3033984213D0484B48331D
:100F500098420FD0464B603398420BD0444B7833C5
:100F6000984207D0424B9033984203D0404BA8336D
:100F7000984208D194F85C703F23A06D07F01F07DA
:100F8000BB40836007E094F85C30A06D03F01F0362
:100F900001FA03F34360206890424DD0A8424BD041
:100FA000B04249D0404547D0484545D0504543D050
:100FB000584541D02D4A183290423DD02C4A90429B
:100FC0003AD02B4A1832904236D0294A30329042D9
:100FD00032D0274A483290422ED0254A6032904281
:100FE0002AD0234A7832904226D0214A9032904229
:100FF00022D01F4AA83290421ED01E4A90421BD0D7
:101000001C4A1432904217D01A4A2832904213D008
:10101000184A3C3290420FD0164A503290420BD0C0
:10102000144A6432904207D0124A7832904203D078
:10103000104A8C3290420BD1D4E919024260E06E22
:1010400030B1026822F480720260D4E91C0242606E
:10105000002084F8351084F834006DE6100002405A
:10106000580002407000024088000240A000024088
:1010700010040240085402582DE9F05F28B190F89E
:101080003510022904D0802141650120BDE8F09F80
:10109000904C904B0168183C18338E4ADFF83C9214
:1010A000A1428D4CDFF838E28E4FDFF83CB2DFF81A
:1010B0003CA28F4D8F4E31D091422FD099422DD0EE
:1010C000A1422BD0494529D0714527D0B94225D01E
:1010D000DFF810C20CF1180C61451FD0DFF808C210
:1010E000ACF1600C614519D0DFF8FCC1ACF1480CE3
:1010F000614513D0DFF8F0C1ACF1300C61450DD083
:10110000DFF8E4C1ACF1180C614507D0594505D0B2
:10111000514503D0A94201D0B1422CD1DFF8B4C16E
:101120004FF0040880F83580ACF1180C61451DD0F3
:1011300091421BD0994219D0A14217D0494515D0F0
:10114000714513D0B94211D06648183081420DD094
:1011500065486038814209D063484838814205D0EB
:1011600061483038814201D05F481838086820F063
:1011700001000860ABE0D1F800C02CF00E08DFF8E9
:1011800054C1C1F80080ACF1180C0168614527D04A
:10119000914225D0994223D0A14221D049451FD068
:1011A00071451DD0B9421BD0DFF838C10CF1180CC5
:1011B000614515D0DFF830C1ACF1600C61450FD04E
:1011C000DFF824C1ACF1480C614509D0DFF818C143
:1011D000ACF1300C614503D0DFF80CC1ACF1180C58
:1011E000D1F800C02CF0010CC1F800C0DFF8E48099
:1011F0004FF0010C0168A8F11808414546D0914212
:1012000044D0994242D0A14240D049453ED0714598
:101210003CD0B9423AD0334A1832914236D0324AA1
:10122000603A914232D0304A483A91422ED02E4A0A
:10123000303A91422AD02C4A183A914226D0594548
:1012400024D0514522D0A94220D0B1421ED02A4AF2
:1012500091421BD0284A1432914217D0264A283294
:10126000914213D0244A3C3291420FD0224A50324C
:1012700091420BD0204A6432914207D01E4A783204
:10128000914203D01C4A8C32914218D1016E0A68F7
:1012900022F480720A6090F85C20816D02F01F02D7
:1012A0000CFA02F24A60D0E919124A60C16E31B1FB
:1012B0000A6822F480720A60D0E91C124A60002297
:1012C000016D80F835C080F8342001B188470020D6
:1012D000DCE6000028000240580002407000024096
:1012E00088000240A00002407004024088040240CE
:1012F000A0040240B80402400854025870B50446E5
:1013000000F060F90546601C02D0044800780444EF
:1013100000F058F9401BA042FAD370BDCC02002463
:101320002DE9F0410D4F00240B4E0546A7F503783B
:1013300036F81410A94207D157F8240000F032F90A
:1013400038B1002108F80410641C062CF0DBBDE85D
:10135000F0810121F6E7000028CF0008A002002458
:101360004FF0B04110B5D1F88820024203D0C1F847
:101370008800FFF7D5FF10BD2DE9F84F03247D4D00
:1013800000234FF001094FF0B04B4FF00F0AE9E096
:1013900009FA03F73A4076D00E7906F00306012EDB
:1013A00001D0022E18D1D0F808C04FEA430ECE6803
:1013B00004FA0EF82CEA080C06FA0EF646EA0C06B9
:1013C0008660D0F804C00E792CEA070CC6F300162C
:1013D0009E4046EA0C0646600E79F643B6070BD0EF
:1013E000C6684FEA43088F6804FA08FC26EA0C0630
:1013F00007FA08F73743C7600E7906F00306022E96
:1014000012D1DE080F694FEA437C00EB8606B64630
:10141000366A4FEADC6C0AFA0CF807FA0CF726EA8F
:1014200008063743CEF820700F7906684FEA430864
:1014300007F0030704FA08FC07FA08F726EA0C0687
:10144000374307604E6816F4403F1CD04A4E376859
:1014500047F00207376036689F0706F002060096DD
:1014600023F0030606F1B046B6463F0FD6F80864EF
:10147000DFF808810AFA07FC404526EA0C0603D18A
:101480004FF0000C41E06CE0DFF8F4C0604502D1A1
:101490004FF0010C39E0DFF8ECC0604502D14FF0AD
:1014A000020C32E0DFF8E0C0604502D14FF0030CDF
:1014B0002BE0DFF8D8C0604502D14FF0040C24E0E7
:1014C000DFF8CCC0604502D14FF0050C1DE0DFF81D
:1014D000C4C0604502D14FF0060C16E0DFF8B8C07A
:1014E000604502D14FF0070C0FE0DFF8B0C0604557
:1014F00002D14FF0080C08E0DFF8A4C0604502D12B
:101500004FF0090C01E04FF00A0C0CFA07FC4CEA12
:10151000060CCEF808C44F68DBF80060FF0226EA2C
:10152000020600D516435F46CBF80060D1F804C030
:10153000DBF804605FEA8C2C26EA020600D516432D
:101540007E606E684F6826EA0206BF0300D5164328
:101550006E602E684F6826EA0206FF0300D5164328
:101560002E605B1C0A6832FA03F67FF411AFBDE807
:10157000F88F000080000058F44402580000025820
:101580000004025800080258000C025800100258CB
:101590000014025800180258001C0258002002587B
:1015A000002402580069084000D0012070470AB1A9
:1015B000816170470904FBE701480068000C70472F
:1015C0000010005C0148806870470000CC020024D5
:1015D00030B590F84120202A24D190F84020012AEB
:1015E00020D0012380F84030242280F8412020239D
:1015F00000240268156825F0010515600268156869
:1016000025F480551560026815680D431560016862
:101610000A6842F001020A6080F8413080F84040D8
:10162000002030BD022030BD30B590F84120202A86
:1016300022D190F84020012A1ED0012380F84030AA
:10164000242280F84120202400250268136823F01A
:10165000010313600268136823F4706343EA0121F5
:10166000116001680A6842F001020A6080F8414096
:1016700080F84050002030BD022030BD70B504001D
:1016800004D094F84100002510B106E0012070BD9F
:10169000204684F8405000F023FA242084F84100CA
:1016A0002068016821F001010160D4E9001020F0F8
:1016B000706008612068816821F400418160E06801
:1016C00021680128A06830D040F404408860E068B8
:1016D0000228206841682BD021F400614160206815
:1016E0002021154A4368134343602068C26822F4EE
:1016F0000042C26054F8106B0DCC104340EA032046
:10170000F06054F81C3CD4E900021043186054F80F
:101710001C0D026842F001020260656484F8411009
:10172000256384F84250002070BD40F40040CDE7AE
:1017300041F40061D2E70000008000022DE9FC477F
:10174000002504461E4692460195894690F84100C0
:10175000202868D120688069C043000463D594F8CC
:10176000400001285FD0012184F8401024204FF070
:10177000200884F841006564E06801280BD02B4AFA
:101780002B4900BF49EA0200084021684860FFF782
:1017900019FF07460AE0274A2749F3E7701C05D0DE
:1017A000FFF710FFC01BB04219D8C6B1206881698D
:1017B0008269C1F34010C2F300110843EED02068E3
:1017C000806933464FF000024FF02001C04300977C
:1017D000C006204616D504F007F9B0B908E084F831
:1017E0004180606C84F8405040F0200060640CE060
:1017F0002168C1F81C8084F84180002084F84050A2
:10180000BDE8FC8704F0F0F808B10120F8E7226891
:101810001021D1612168C1F81C800198401C019001
:101820005045A9D3DBE70220EAE7000000280002C8
:10183000FF2B000200200002FF2300022DE9FF4FD2
:1018400081B0044690F8410099469046DDF838B0E2
:1018500020287BD194F84000012877D0012084F81B
:101860004000FFF7AFFE0122064619230090D10386
:10187000204604F0B9F8002853D14149212200251F
:10188000C4F82480102084F84120FF2784F8420007
:101890006564A4F82A90608D4FF080794FF0007A4B
:1018A0006563FF2802D94B46278505E0608D5346C6
:1018B00020850004000C10D0226898F80000906287
:1018C000606A401C6062608D401E6085208D401EF5
:1018D0002085401C0091C2B201E0002200910299D3
:1018E000204604F069F813E004F0E8F8C8B9606A2B
:1018F000216800788862606A401C6062608D401ECA
:101900006085208D401E80B22085618D01B160B15F
:10191000608D3246594600282046E5D104F0A2F8F1
:10192000E0B1012005B0BDE8F08F00225B468021C8
:101930002046009604F058F80028F2D1608DFF2868
:1019400005D927853A464B460095C8E716E0608DD5
:1019500053462085009594F82820C0E72168202070
:10196000084AC86121684B6813404B6084F8410005
:1019700084F84250002084F84050D3E70220D1E799
:101980000020008000E800FE2DE9FF4F83B00446F0
:1019900090F841009A469346DDE91087DDF84890BB
:1019A000202871D15FEA080014D09FB194F840005C
:1019B000012869D0012084F84000FFF703FE0122CE
:1019C000064619230090D103204604F00DF80028A4
:1019D0006ED103E04FF40070606469E00025C4F844
:1019E0002480212184F84110402084F8420065645D
:1019F0006785534665635A4604992046CDE90096AB
:101A000003F0A8FF10B184F8405051E0608DFF272B
:101A10004FF08078FF284FF0007A04D927853A46A6
:101A20004346009505E0608D53462085009594F867
:101A300028202046049903F0BFFF3246494620463D
:101A400004F03CF8A0BB606A216800788862606A94
:101A5000401C6062608D401E6085208D401E80B2FB
:101A60002085618DD9B1D0B900224B468021204616
:101A7000009603F0B9FFD8B9608DFF2805D92785F6
:101A80003A464346009506E026E0608D53462085A1
:101A9000009594F828202046049903F08DFF608D6E
:101AA0000028CAD132464946204603F0DBFF18B170
:101AB000012007B0BDE8F08F20682021074AC161EE
:101AC000206843681340436084F8411084F8425012
:101AD000002084F84050ECE70220EAE700E800FE2E
:101AE00010B5B6B00446142130A8FEF7D7FDC021CA
:101AF0006846FEF7D3FD1849206888422AD10020A5
:101B0000219008210446CDE90010684600F056FCFB
:101B100008B1FEF7F4FF1148016841F002010160CD
:101B2000006830AB122100F002003590C020042282
:101B300083E813000A4830A9CDE93342FFF71CFCC3
:101B400006480830016841F400110160006800F4A3
:101B50000010359036B010BD00540040E0440258EB
:101B6000000402580248816802781144816070477D
:101B7000CC020024032010B500F086F801F072FAC0
:101B80000F4A104914681368C4F3032203F00F03CB
:101B90008A5CC95C02F01F0201F01F01D0400A4AB2
:101BA00020FA01F11160094908600F2000F010F8D7
:101BB00008B1012010BD00F02BF8002010BD00007E
:101BC0001844025844D70008DC020024D80200243C
:101BD00070B50D4D04462878A0B14FF47A71B1FB71
:101BE000F0F00A490968B1FBF0F002F0DDFB48B9FA
:101BF000102C07D200222146501E00F025F80020AC
:101C00006C6070BD012070BDCC020024D80200249D
:101C1000054808B5016841F002010160006800F064
:101C20000200009008BD0000F4440258002809DBBF
:101C3000410900F01F028900012001F1E0219040DC
:101C4000C1F80001704700000E4BF0B41B680D4650
:101C5000C3F30223C3F10706042E00D90426191D7D
:101C6000072901D2002300E0DB1E012404FA06F15B
:101C70009C40491E2940641E994014402143F0BCF9
:101C800006F05BBD0CED00E0064900F0070210B560
:101C90004FF6FF040868044B204040EA0220184336
:101CA000086010BD0CED00E00000FA05134970B5A6
:101CB0000A68D243520705D5096801F0070181423D
:101CC00013D118E00A6822F0070202430A60FFF706
:101CD00079FC0A4D4FF47A760446083D07E000BFD0
:101CE000FFF770FC001BB04201D9012070BD2868CD
:101CF000C0438004F4D4002070BD00000C4802589A
:101D000010B501F069F905490968054AC1F30211E6
:101D1000515C01F01F01C84010BD00002044025872
:101D200044D700084A4930B5494C0B1D0A680C34A9
:101D300009681D68246802F0030305F00102C1F37D
:101D40000511C4F3CC04002914FB02F200EE102AA2
:101D5000F8EE400A76D0414A9FED3E1ADFED3E1A7A
:101D6000B7EE000A23B1012B5AD0022B18D15CE048
:101D7000374C283C23689B0612D5394B246801EE6A
:101D8000901A1168C4F3C104F8EE612AE34001EE31
:101D9000903AC1F30801F8EE611A81EEA22A07E039
:101DA00002EE101A1168F8EE422A81EEA22A45E0EE
:101DB00001EE901A1168F8EE611A40EE811A71EE88
:101DC000800A62EE200AC1F3462101EE101AB8EE35
:101DD000411A31EE001AC0EE811ABCEEE11A80ED14
:101DE000001A1168C1F3064101EE101AB8EE411A4B
:101DF00031EE001AC0EE811ABCEEE11A80ED011A34
:101E00001168C1F3066101EE101AB8EE411A31EE05
:101E1000000A80EE801ABCEEC10A80ED020A30BDD5
:101E200001EE901ADFED0F2A03E001EE901ADFEDCC
:101E30000E2A1168F8EE611A82EEA12AC1F3080198
:101E4000B6E7FFE7002101604160816030BD00001E
:101E500028440258000000390024744C30440258D1
:101E60000090D0030024744A20BCBE4B494930B5D1
:101E7000484C0B1D0A68143409681D68246802F078
:101E80000303C5F30012C1F30531C4F3CC040029E8
:101E900014FB02F200EE102AF8EE400A75D03F4A19
:101EA0009FED3D1AB7EE000A6BB1DFED3D1A012B35
:101EB00001D0022B64D002EE101A1168F8EE422A0B
:101EC00081EEA22A21E0334C283C23689B0612D5E0
:101ED000344B246801EE901A1168C4F3C104F8EE83
:101EE000612AE34001EE903AC1F30801F8EE611A6D
:101EF00081EEA22A0BE001EE901ADFED2B2A00BF43
:101F0000F8EE611A116882EEA12AC1F3080101EE10
:101F1000901A1168F8EE611A40EE811A71EE800A8B
:101F200062EE200AC1F3462101EE101AB8EE411A02
:101F300031EE001AC0EE811ABCEEE11A80ED001AF3
:101F40001168C1F3064101EE101AB8EE411A31EEE4
:101F5000001AC0EE811ABCEEE11A80ED011A116878
:101F6000C1F3066101EE101AB8EE411A31EE000A13
:101F700080EE801ABCEEC10A80ED020A30BD04E09A
:101F800001EE901ADFED092ABAE7002101604160F5
:101F90008160F3E7284402580000003938440258B1
:101FA0000024744A0090D0030024744C20BCBE4B23
:101FB000494930B5484C0B1D0A681C3409681D6836
:101FC000246802F00303C5F30022C1F30551C4F3F2
:101FD000CC04002914FB02F200EE102AF8EE400AAD
:101FE00075D03F4A9FED3D1AB7EE000A6BB1DFEDA9
:101FF0003D1A012B01D0022B64D002EE101A116899
:10200000F8EE422A81EEA22A21E0334C283C2368D4
:102010009B0612D5344B246801EE901A1168C4F364
:10202000C104F8EE612AE34001EE903AC1F30801E1
:10203000F8EE611A81EEA22A0BE001EE901ADFEDB4
:102040002B2A00BFF8EE611A116882EEA12AC1F3B3
:10205000080101EE901A1168F8EE611A40EE811A3B
:1020600071EE800A62EE200AC1F3462101EE101AD9
:10207000B8EE411A31EE001AC0EE811ABCEEE11A38
:1020800080ED001A1168C1F3064101EE101AB8EE96
:10209000411A31EE001AC0EE811ABCEEE11A80ED51
:1020A000011A1168C1F3066101EE101AB8EE411A67
:1020B00031EE000A80EE801ABCEEC10A80ED020A01
:1020C00030BD04E001EE901ADFED092ABAE70021E5
:1020D000016041608160F3E7284402580000003944
:1020E000404402580024744A0090D0030024744CE9
:1020F00020BCBE4B2DE9F04FAC4A0546DFF8A8A244
:1021000080F48070DFF8AC9289B01311AA4C0843B8
:10211000A748AAF104064FF0805C4FF000582CD07D
:1021200085F400770F4357D0DFF87CB285F48067E1
:102130000F430BF1080B61D085F400670F4374D097
:1021400085F480570F436ED085F400570F434FF44A
:1021500080394FF4003E67D085F400270F4371D0DB
:1021600085F480370F436ED085F480460E436BD0E4
:1021700085F400420A4368D02AE0DAF8001001F042
:102180000701052924D2DFE801F075BC7D25B100E7
:1021900006A8FFF7C7FD079809B0BDE8F08F6846AD
:1021A000FFF764FE0098F7E703A8FFF701FF039825
:1021B000F2E72068C0F3C10022FA00F0ECE72268E1
:1021C000D20571D561456FD11846E5E74145E3D0A9
:1021D0000020E1E74846DFE7DAF8001001F4E0719B
:1021E00080294FD004DC002944D04029F0D188E078
:1021F000C029EFD0B1F5807FEAD177E0DBF800109D
:1022000001F46001B1F5800F3CD004DC91B3B1F56D
:10221000001FDDD175E0B1F5C00FDBD0B1F5000FC7
:10222000D6D163E001E018E030E0DBF8001001F007
:10223000E061B1F1007F25D008DCD9B1B1F1807F38
:10224000C6D15EE049E06CE079E09CE0B1F1407F0E
:10225000C0D0B1F1806FBBD148E0DAF8001001F4D2
:10226000E041B1F5005F0DD005DC19B1B1F5805F3B
:10227000AED146E094E0B1F5405FABD0B1F5804F10
:10228000A6D133E020688000A2D58DE7DAF80010EF
:1022900001F4E021B1F5403F6CD006DC61B1494565
:1022A0007AD0714594D157E037E0B1F5802F65D0F1
:1022B000B1F5A02F8CD10CE000F0B0FE6CE76846C1
:1022C000FFF7D4FD019867E703A8FFF771FE0498B4
:1022D00062E721688903F1D47AE7DBF8001011F492
:1022E00040310ED0494510D07145F5D1316825688F
:1022F00001F040516D077FF562AF00297FF45FAFB9
:1023000057E720680001E7D549E720688000E3D55A
:1023100003A8FFF74DFE05983EE722689203DBD540
:1023200054E7306810F480303AD04845D4D1206862
:102330000001D1D56846FFF799FD02982CE7DBF83C
:10234000001001F0E041B1F1405F13D008DC71B141
:10235000614521D04145BFD120688000B4D437E722
:10236000B1F1804F0AD0B1F1A04FB2D030E7FFF702
:10237000C7FC11E720684007AED51AE72068C00502
:10238000AAD521E708E0DAF8001011F04051A0D0FA
:10239000614505D041459FD1206800018FD417E7E2
:1023A0002068800198D5F3E6504402580090D0038D
:1023B00040787D010080BB00004402582DE9FE4FAB
:1023C0000546DFF8E48350F8081B0024F64FC943A4
:1023D000019005F12800264608F124080090080124
:1023E0001DD4A86E50B1B0F5801F0CD0B0F5001F01
:1023F0000ED0B0F5401F1ED001240FE0386840F425
:102400000030386017E00198022103F0CBFF03E0B1
:102410000098022104F056F804000CD026462888C3
:10242000C043C00523D4A86D05281ED2DFE800F004
:102430000C11161B1B00AA6ED8F8001021F44011D5
:102440001143C8F80010EAE7386840F400303860FB
:1024500009E00198002103F0A5FF03E000980021A6
:1024600004F030F8044674B100E0012426462888C0
:10247000C043800528D4E86D80281ED00CDC90B1C4
:1024800040280ED114E0AA6DD8F8001021F0070101
:102490001143C8F80010EAE7C02813D0B0F5807FD8
:1024A00010D001240FE0386840F40030386009E0B3
:1024B0000198002103F076FF03E00098002104F06A
:1024C00001F804469CB126462888DFF8DC92C04318
:1024D00009F12C0940052CD4D5F8A800B0F5800FDF
:1024E00020D00DDCA0B1B0F5001F0FD115E0EA6DD2
:1024F000D8F8001021F4E0711143C8F80010E3E7A8
:10250000B0F5C00F13D0B0F5000F10D001240FE0CC
:10251000386840F40030386009E00198002103F089
:1025200041FF03E00098002103F0CCFF04467CB19A
:1025300026462888C04300052DD4D5F8AC00B0F15C
:10254000007F21D00EDCA8B1B0F1807F10D116E061
:10255000D5F8A820D9F8001021F460011143C9F87A
:102560000010E6E7B0F1407F13D0B0F1806F10D0DB
:1025700001240FE0386840F40030386009E0019829
:10258000002103F00FFF03E00098002103F09AFF01
:10259000044674B126462868C04380011FD4E86C05
:1025A000D8B110280FD0202812D0302815D00124FF
:1025B00014E0D5F8AC20D9F8001021F0E061114307
:1025C000C9F80010E7E7386840F40030386004E0EC
:1025D0000198022103F0E6FE044674B126462888DD
:1025E000C043C0042BD4286EB0F5005F20D00DDCB2
:1025F000A0B1B0F5805F0FD115E06B48EA6C2030D8
:10260000016821F0300111430160E8E7B0F5405F57
:1026100013D0B0F5804F10D001240FE0386840F49B
:102620000030386009E00198002103F0BBFE03E0B0
:102630000098002103F046FF04468CB12646288806
:10264000C043800429D4686EB0F5403F23D010DC2D
:1026500008B3B0F5803F14D0B0F5003F0FD115E0BE
:102660002A6ED8F8001021F4E0411143C8F8001098
:10267000E5E7B0F5802F0ED0B0F5A02F0BD00124E8
:102680000AE00198012103F08DFE03E0009801218A
:1026900003F018FF044694B126462888C04340043E
:1026A0002AD4D5F8B000B0F1405F23D010DC08B3D5
:1026B000B0F1805F14D0B0F1005F0FD115E06A6E09
:1026C000D8F8001021F4E0211143C8F80010E4E725
:1026D000B0F1804F0ED0B0F1A04F0BD001240AE032
:1026E0000198012103F05EFE03E00098012103F050
:1026F000E9FE044674B126462888C04300041FD46E
:10270000286FD8B1B0F1805F0ED0B0F1005F10D06B
:10271000012414E0D5F8B020D9F8001021F0E041F0
:102720001143C9F80010E7E7386840F4003038601A
:1027300004E00198012103F035FE044674B12646F9
:102740002868C043C0011ED4A86CD0B101280ED0A7
:10275000022811D0032814D0012413E02A6FD8F8DE
:10276000001021F040511143C8F80010E8E7386824
:1027700040F40030386004E00198022103F012FEBA
:102780000446ACB126462868DFF81CB0C043ABF164
:102790001C0B400252D40548016841F4807101606D
:1027A000FEF710FF824611E02C4402580048025800
:1027B000FA48AA6C016821F0030111430160E2E7C5
:1027C000FEF700FFA0EB0A00642835D8F448006843
:1027D000C005F5D58CBBDFF8C4A3B5F8B4100AF179
:1027E000240ADAF8000001F4407100F440708842D5
:1027F00011D0DAF80010DAF8002021F4407142F428
:102800008032CAF80020DAF8002022F48032CAF8B8
:102810000020CAF80010D5F8B400B0F5807F1AD1B6
:10282000FEF7D0FE029012E0FEF7CCFE0299411AAC
:1028300041F2883081420AD9032426462878DFF8FD
:102840005CA3C0430AF1080AC00721D03CE0DAF8D3
:1028500000008007E8D5D5F8B410C1F301200328A3
:1028600058460DD0016821F47C510160B5F8B420C0
:10287000DAF80010C2F30B021143CAF80010DDE7CA
:10288000C84A036802EA111223F47C511143ECE7B1
:10289000E86F182816D005DCA0B1082808D0102849
:1028A00004D10AE020280DD028280BD001240AE00A
:1028B0000198012103F076FD03E00098012103F067
:1028C00001FE044664B126462878C04380071ED422
:1028D000A86F062819D2DFE800F0160C111616169C
:1028E000EA6FDAF8001021F038011143CAF800103D
:1028F000EAE70198012103F055FD03E0009801216A
:1029000003F0E0FD04467CB100E00124264628786F
:10291000C04340071FD4D5F89400062819D2DFE839
:1029200000F0160C11161616AA6FDAF8001021F036
:1029300007011143CAF80010E9E70198012103F0EB
:1029400031FD03E00098012103F0BCFD0446A4B171
:1029500000E0012426462878C04380062BD4D5F811
:102960009000B0F1405F24D011DC10B3B0F1805F73
:1029700015D0B0F1005F10D116E0D5F89420D9F849
:10298000001021F007011143C9F80010E3E7B0F18E
:10299000804F0ED0B0F1A04F0BD001240AE0019877
:1029A000002103F0FFFC03E00098022103F08AFD00
:1029B000044694B126462878C04340062BD4D5F867
:1029C0009C00B0F5406F24D011DC10B3B0F5806FDF
:1029D00015D0B0F5006F10D116E0D5F89020DAF8D8
:1029E000001021F0E0411143CAF80010E3E7B0F510
:1029F000805F0ED0B0F5A05F0BD001240AE00198F3
:102A0000002103F0CFFC03E00098022103F05AFDFF
:102A1000044694B126462878C04300062BD4D5F846
:102A2000A000B0F5C04F24D011DC10B3B0F5005FAA
:102A300015D0B0F5804F10D116E0D5F89C20D9F80C
:102A4000001021F4E0511143C9F80010E3E7B0F59C
:102A5000004F0ED0B0F5204F0BD001240AE00198B2
:102A6000002103F09FFC03E00098022103F02AFDFF
:102A7000044654B126462878C04300071ED4D5F832
:102A80008400B0F5805F0AD00FE0D5F8A020D9F817
:102A9000001021F460411143C9F80010EBE70098E1
:102AA000022103F00FFD00B10126D5F88420DAF8E9
:102AB000001021F440511143CAF800102878C04397
:102AC000C00613D4D5F89800B0F5807F05D10098E2
:102AD000022103F0F7FC00B10126D5F89820D9F8BF
:102AE000001021F440711143C9F800102868C04358
:102AF000000316D4D5F8A40038B1B0F5803F09D052
:102B0000B0F5003F0BD001240AE00198002103F04A
:102B100049FC03E00098022103F0D4FC04468CB188
:102B200026462868C043400322D4D5F88800B0F573
:102B3000801F11D0B0F5001F13D0B0F5401F15D085
:102B4000012414E0D5F8A420D9F8001021F4403174
:102B50001143C9F80010E4E7386840F400303860E9
:102B600004E00098012103F0ADFC04465CB1264668
:102B70002868C043C00323D4286DA8B1B0F5803FB6
:102B800017D001241BE0D5F88820DAF8001021F4D2
:102B900040111143CAF80010EAE700004C44025803
:102BA00000480258CFFFFF00386840F4003038601A
:102BB00004E00198022103F0F5FB0446E4B1264647
:102BC0002868C043800005D40098022103F07AFCF5
:102BD00000B101262868C04380031BD4D5F88000CB
:102BE000B0B1B0F5807F0FD0B0F5007F10D0B0F558
:102BF000407F0DD001240CE05A482A6D016821F471
:102C0000803111430160DBE7386840F40030386000
:102C1000ECB326462868C043C00207D46A6FD8F8D0
:102C2000001021F000411143C8F800102868C0438B
:102C3000C00008D4D5F8B820DBF8001021F480419A
:102C40001143CBF800102868C043800207D4EA6E15
:102C5000D8F8001021F080711143C8F800102868DE
:102C6000C04340000CD4DBF8001021F40041CBF845
:102C70000010DBF80010D5F8BC201143CBF8001091
:102C80002868C04308D437486A6D016800E018E03E
:102C900021F04051114301602868C043000208D46C
:102CA000D5F88C20DAF8001021F440011143CAF85D
:102CB000001028790024C04300F0010020430AD00E
:102CC0000FE0D5F88020DAF8001021F440711143AC
:102CD000CAF800109EE70198002103F063FB00B1E1
:102CE00006462879C04300F00200204305D1019830
:102CF000012103F057FB00B106462879C04300F0DC
:102D00000400204305D10198022103F04BFB00B1E0
:102D100006462879C04300F00800204305D10098FA
:102D2000002103F0CFFB00B106462879C04300F034
:102D30001000204305D10098012103F0C3FB00B12E
:102D400006462879C04300F02000044304D10098CF
:102D5000022103F0B7FB00B916B10120BDE8FE8FD8
:102D60000020FBE74C440258704700002DE9F05F5B
:102D700004000F467ED0DFF83882D8F8000000F05B
:102D80000F00B8420CD2D8F8001021F00F013943DF
:102D9000C8F80010D8F8000000F00F00B84269D160
:102DA0002078844D40070AD52069296801F0700118
:102DB000884204D9296821F07001014329602078F4
:102DC0007C4E361D00070AD56069316801F070013C
:102DD000884204D9316821F07001014331602078C4
:102DE000C0060AD5A069316801F4E061884204D9BF
:102DF000316821F4E061014331602078DFF8B4B13B
:102E000080060BF1080B0CD5E1695846DBF8002071
:102E100002F07002914204D9026822F070020A4363
:102E20000260207880070AD5E068296801F00F0168
:102E3000884204D9296821F00F01014329602078D4
:102E4000C0073ED05B49A2682868183920F470603A
:102E5000104328606068022818D0032819D0096838
:102E6000012819D0490700294ADADFF848A1AAF158
:102E7000080A00E044E0DAF8002022F007020243EA
:102E8000CAF80020FEF79EFB814612E0096889031C
:102E9000E9E709688901E6E7C905E4E7FEF792FB7F
:102EA000A0EB090141F28830814202D90320BDE83C
:102EB000F09F6168DAF8000000F03800B0EBC10F55
:102EC000ECD1207880070AD5E068296801F00F016D
:102ED000884204D2296821F00F0101432960D8F803
:102EE0000010404601F00F01B9420BD9016821F0F2
:102EF0000F0139430160006800F00F00B84201D0B3
:102F00000120D4E7207840070AD52069296801F01C
:102F10007001884204D2296821F0700101432960C0
:102F2000207800070AD56069316801F07001884295
:102F300004D2316821F07001014331602078C0066D
:102F40000AD5A069316801F4E061884204D2316891
:102F500021F4E06101433160207880060CD5E169FD
:102F60005846DBF8002002F07002914204D2026859
:102F700022F070020A43026000F074F80E492A68D9
:102F80002B68C2F3032203F00F038A5CC95C02F0D2
:102F90001F0201F01F01D040084A20FA01F1116020
:102FA0000749086007480068BDE8F05FFEF710BEFB
:102FB000002000521844025844D70008DC020024C4
:102FC000D8020024D00200240248016841F4002104
:102FD000016070470044025830B500F043F80B4AD6
:102FE0000B490C4B15681468C5F3032204F00F0459
:102FF0008A5C095D02F01F0201F01F01D040064A01
:1030000020FA01F119601060084630BD18440258DA
:1030100044D70008DC020024D802002400B5FFF7E2
:10302000DBFF05490968054AC1F30211515C01F053
:103030001F01C84000BD00001C44025844D70008CE
:1030400000B5FFF7C9FF05490968054AC1F3022128
:10305000515C01F01F01C84000BD00001C44025833
:1030600044D70008454970B545480968434B103BB3
:1030700011F0380208D00111082A03D0102A0BD011
:10308000182A0BD0084670BD19688906FBD5196847
:10309000C1F3C101C84070BD3A4870BD3749374DD2
:1030A00018310C1D24350A68096826682D6802F05D
:1030B000030406F00102C1F30511C5F3CC0515FBAD
:1030C00002F200EE102AB8EE400AE9B32F4ADFED13
:1030D0002E0AB7EE001A6CB1DFED2D1A012C01D0CB
:1030E000022C43D002EE101A1068F8EE422A81EE4C
:1030F000A22A1EE01C68A40611D51B6801EE901AD6
:103100001168C3F3C103F8EE612AD84001EE900ABA
:10311000C1F30800F8EE611A81EEA22A0BE001EE7D
:10312000901ADFED1C2A00BFF8EE611A106882EEDB
:10313000A12AC0F3080001EE900AF8EE611A40EEF1
:10314000201A31EE810A00E015E022EE000A106834
:10315000C0F34620401C00EE900AF8EE600A80EEB4
:10316000201ABCEEC10A10EE100A70BD01EE901AD2
:10317000DFED092AD8E7002070BD00001044025896
:103180000090D00340787D0100000039304402589F
:103190000024744A0024744C20BCBE4B064810B571
:1031A0000068400506D5FFF7DFFD03494FF4806056
:1031B000091D086010BD0000644402582DE9F05F4D
:1031C00004007DD0FF4F2078FE4D1837DFF8F493D0
:1031D000103DC00748D0D9F80000396800F0380029
:1031E000102815D0182803D101F0030002280FD0B1
:1031F0006068B0F5803F12D010B1B0F5A02F18D0A4
:10320000286820F480302860286820F4802009E0B5
:103210002868800328D560680028D2D024E0286878
:1032200040F480302860606888B1FEF7CBF906462C
:1032300009E0286840F480202860F0E7FEF7C2F932
:10324000801B64286FD828688003F7D50CE0FEF750
:10325000B9F9064605E000BFFEF7B4F9801B642803
:10326000F0D828688003F7D4207841F20308D54EBF
:103270000C3E800769D5D9F80000396810F0380095
:103280000ED0182801D188070AD0E06890B32968C9
:1032900021F0190101432960FEF794F9824631E0DB
:1032A0002868400702D5E06800288AD0E1682868CD
:1032B00020F0190008432860FEF784F9824607E0F1
:1032C000DFE000BFFEF77EF9A0EB0A000228B9D8C4
:1032D00028684007F6D500BFFEF76EF940451BD8B9
:1032E0002069402812D0316821F47C3141EA003055
:1032F00030602AE018E000BFFEF764F9A0EB0A0096
:1033000002289FD828684007F6D5E5E7306820F402
:103310007C3040F40030EBE7207C316821F0FE4146
:1033200041EA0060E4E70DE1286820F00100286030
:10333000FEF748F9824605E0FEF744F9A0EB0A00E3
:1033400002288DD828684007F6D42078C0065DD5BD
:10335000D9F80000DFF86CB2396800F03800ABF142
:10336000040B082810D0182803D101F0030001280D
:103370000AD0E0690028286838D040F08000286032
:10338000FEF720F9824623E02868C00523D5E069CE
:10339000802876D11FE0206A202821D0316821F0D2
:1033A000F84141EA8060306030E000BF94F82010BE
:1033B000DBF8002022F07C5242EA0161CBF80010D9
:1033C00024E000BFFEF7FEF8A0EB0A00022898D820
:1033D0002868C005F6D5FEF7EFF84045E6D8DAE7ED
:1033E000306820F0F84040F08040DCE720F08000BA
:1033F0002860FEF7E7F8064605E000BFFEF7E2F8B2
:10340000801B02289DD82868C005F7D420780007C3
:1034100029D56C486169643000298046016811D063
:1034200041F001010160FEF7CDF8064605E000BF5E
:10343000FEF7C8F8801B0228C9D8D8F8000080071A
:10344000F6D510E021F001010160FEF7BBF8064659
:1034500005E000BFFEF7B6F8801B022872D8D8F846
:1034600000008007F6D42078800623D5A0690028C4
:10347000286810D040F480502860FEF7A3F8064674
:1034800005E036E1FEF79EF8801B02285AD828682E
:103490008004F7D50EE020F480502860FEF792F803
:1034A000064604E0FEF78EF8801B02284AD82868FA
:1034B0008004F7D4207840074FD5DFF80C81D8F886
:1034C000001041F48071C8F80010FEF77BF8064642
:1034D00005E000BFFEF776F8801B642832D8D8F8E4
:1034E0000000C005F6D5374EA068603601280AD026
:1034F00008B1052813D0306820F001003060306832
:1035000020F0040002E0306840F001003060A06864
:1035100041F2883A90B1FEF755F880460AE03068EB
:1035200040F004003060EEE7FEF74CF8A0EB080135
:10353000514507D830688007F6D50EE0FEF742F80F
:10354000804607E084E000BFFEF73CF8A0EB0801EE
:1035500051457DD830688007F6D4606AB0B3DFF893
:103560006480D9F8001008F120084FF6F87B08F1C4
:103570000409C1F3C2010329A8F1040A69D0022891
:10358000286820F08070286003D0FEF71BF80446FE
:1035900084E0FEF717F8064605E000BFFEF712F8D4
:1035A000801B022877D828688001F7D4E26A40F2AD
:1035B000F331386854F8283F884340EA0210184332
:1035C000386004E01044025800480258B5E0217BFE
:1035D000434622894FF4FE0C208A4FF0FE474902F1
:1035E000267D521E401EA1F50071C2F308088AB262
:1035F000761E0CEA004042EA08020243504607EAFF
:1036000006610A431A60DAF8002022F00102CAF8C3
:103610000020D9F80020266A22EA0B0242EAC602FC
:10362000C9F80020DAF80010A26921F00C0111435A
:10363000CAF800100168E26921F00201114301603B
:10364000016841F480310160016841F4003101E01A
:1036500021E027E00160016841F4802101600168F8
:1036600041F001010160286840F080702860FDF79A
:10367000A9FF044605E000BFFDF7A4FF001B0228D8
:1036800009D828688001F7D557E000BFFDF79AFFF9
:10369000001B022802D90320BDE8F09F28688001A2
:1036A000F4D44AE039680128D8F8000021D0A26A91
:1036B00001F0030393421CD1E26AC1F305118A426F
:1036C00017D1216BC0F30802491E8A4211D1616BE8
:1036D000C0F34622491E91420BD1A16BC0F30642B2
:1036E000491E914205D1E16BC0F30660491E81423B
:1036F00001D00120D0E7A16C4E46D9F80000C0F3FC
:10370000CC00814219D0DAF80000554620F00100C3
:10371000CAF80000FDF756FF4FEA0007FDF752FF19
:10372000B842FBD0A26C306820EA0B0040EAC2002D
:103730003060286840F0010028600020ACE7704746
:1037400070477047704700002DE9FC5F0446806BAE
:103750000E46032184F83010002703285CD0B6F50C
:10376000004F59D0B6F5804F4FF000054FF4006878
:103770004FF0806904D006B3606B40F000603FE01A
:10378000009500210195206803F0AAFA80011CD45D
:103790006946204603F0ECFA70BB019840032DD532
:1037A000B4F844102068090402F04EFF20BB2068E2
:1037B00002211DE0606B284322E000950021019565
:1037C000206803F08DFA800101D54546F2E769468D
:1037D000204603F0CDFA78B90198C0030ED5B4F8AD
:1037E00044102068090402F02FFF28B92068002146
:1037F00002F074FF0028DDD00546DBE74D46D9E72F
:103800006063606B4FF4007BDFF8B8A040B12168C3
:103810000127C1F838A042E0606B40F08050EFE72C
:1038200000214FF48030FEF765FC010032D0264DB8
:103830003346D4E904C0B1FBF5F8D4E901928045E0
:1038400010D9A66D5E450DD0B6F5807F11D04FEA38
:103850006506E0B14FEA4008B1FBF8F8B04501D980
:10386000B1FBF5F04946CDE900C0206803F03CFA11
:1038700015E0164E30B14FEA4008B1FBF8F8A84504
:1038800002D8EFE7A942EDD9B1FBF6F0EAE7B14281
:10389000E6D8E7E7606B012740F0006060632068CE
:1038A000594602F002FF30B122680127C2F838A061
:1038B000616B01436163012084F830003846BDE844
:1038C000FC9F0000FF0FE01F80F0FA0200E1F50509
:1038D00070470000F0B5C26D920F0A70C26DC2F35E
:1038E00083624A70C26DC2F301628A70C26D120CAB
:1038F000CA70B0F85C20120A0A7190F85C204A7114
:10390000026E120DCA80026EC2F303420A72B0F850
:103910006020C2F3C0324A72B0F86020C2F3803235
:103920008A72B0F86020C2F34032CA72B0F86020E8
:103930000026C2F300320A734E730122836B4FF4E8
:10394000007463B1012B3AD0036850499963416B0D
:1039500041F08051416380F830200120F0BDB0F883
:103960006030456E9B051B0D43EA95730B61436EFA
:10397000C3F3C2630B75436EC3F302634B75436EAF
:10398000C3F342538B75436EC3F38243CB75436ECF
:10399000C3F3C2330B760D696D1C85640B7E03F097
:1039A00007039B1C9D4085640B7A446503F00F035D
:1039B00002FA03F35F0A7D43C0E913350EE090F885
:1039C0006050436EAD06AD0A45EA13430B610B69C7
:1039D0005B1C9B028364C0E913434465B0F8643008
:1039E000C3F380334B76B0F86430C3F3C6138B76E1
:1039F00090F8643003F07F03CB76836EDB0F0B7798
:103A0000836EC3F341734B77836EC3F382638B770B
:103A1000836EC3F38353CB77836EC3F3405381F834
:103A2000203081F82160836EC3F3004381F8223097
:103A3000B0F86830C3F3C03381F82330B0F8683091
:103A4000C3F3803381F82430B0F86830C3F34033D7
:103A500081F82530B0F86830C3F3003381F82630A0
:103A6000B0F86830C3F3812381F82730B0F86830AC
:103A7000C3F3012381F8283090F86800C0F34600B2
:103A800081F8290081F82A200020F0BDFF0FE01FF7
:103A9000826B0A60C26B4A60026C8A60426CCA60C8
:103AA000826C0A61C26C4A61026D8A61406DC861B4
:103AB0000020704770B5B0F8441000250446006837
:103AC000090402F0F8FE18B1616B0143616304E080
:103AD0002068002103F004F90546C5F3432070BDBA
:103AE0002DE9F041054690F8300090B00C460026D4
:103AF000032810D06946284603F082FA2A4F4FF077
:103B0000010860B12A68012697636A6B02436A6301
:103B100085F8308039E0012010B0BDE8F0810099CF
:103B20004FF47F40C1F3811121700099C1F340111E
:103B30006170009900EA112242EA116161800199E5
:103B400009BA6160029921720299090A61720299A7
:103B5000C1F30351A172DDE9022100EA1240C9B2AA
:103B60000843A0810398C0F38520A0730398C0F395
:103B70000120E0730398C0F303102074039800F051
:103B80000F0060740498000EA07428684FF4007150
:103B900002F08BFD28B12A6801269763686385F8D7
:103BA00030803046B8E70000FF0FE01F2DE9F843F2
:103BB00004460068E56A416B09041BD5290719D53D
:103BC000D4E90950202813D30026206803F0A2F876
:103BD000020A2870010C6A70030EA970761CEB7043
:103BE000082E05F10405F0D3A06A2038C4E9095075
:103BF000BDE8F883416B0127DFF8EC810026C90599
:103C000051D539024CF23A12816329072068C16B01
:103C100021EA0201C1632068C16B21F08051C163B8
:103C20002068C16821F04001C16018D515F0220F4D
:103C300009D0206802F08CFE28B1616B01436163FA
:103C40002046FFF745FE2168AA07C1F8388084F8AE
:103C50003070E66223D1204600F0B4FAC8E72806A7
:103C6000C6D5206815F0220F86622068C6622068DB
:103C7000066509D0206802F06BFE28B1616B014334
:103C800061632046FFF724FE15F0300F84F8307092
:103C9000E66202D0204600F095FAA807A8D0204698
:103CA00000F08CFAA4E7416B490421D529071FD500
:103CB000D4E9075020289BD3002628780090697803
:103CC00040EA01200090A97840EA01400090E9789C
:103CD0002D1D40EA016000902068694603F032F82B
:103CE000761C082EE9D3206A2038C4E907507FE704
:103CF000416B11F03A0F416B58D0890703D5616BC6
:103D000041F002016163416B090703D5616B41F02A
:103D100008016163416B890603D5616B41F02001A5
:103D20006163416BC90603D5616B41F010016163AA
:103D3000C0F838802068C16B21F49D71C163206890
:103D4000C16821F04001C1602068C16A41F400519E
:103D5000C1622068C16841F08001C160206802F042
:103D6000F7FD626B2B074FF4006140EA02006063CD
:103D70002068C26822F08002C2602068816303D597
:103D800084F83070E6620DE028068BD5606B002861
:103D900088D02068C16B21F08051C163206806651E
:103DA00084F830702046FFF793FD21E7C9009ED5C7
:103DB0004FF0805181632068006D40074FEA8560B5
:103DC00008D40028204602DAFFF7BCFC10E7FFF712
:103DD000B7FC0DE70028204602DAFFF7B2FC07E740
:103DE000FFF7ADFC04E700003A0F0018F0B504003F
:103DF00085B020D094F83000002518B920462576EB
:103E000000F098F8042084F83000204600F03CF8D8
:103E100088B969462046FFF763FE60B99DF8101027
:103E2000A26B9DF81100012A08D0A5652046E16823
:103E3000FFF78AFC58B1012005B0F0BD014302D064
:103E40004FF4007001E04FF48070A065EEE7FDF7DD
:103E5000B9FB0127064604E0FDF7B4FB801B401CBC
:103E60000AD02046FFF726FE0428F5D16563E562F7
:103E700084F830700020DFE74FF00040606384F882
:103E800030700320D8E700002DE9FC414FF0000816
:103E900004464FF480304146FEF72CF905004FF000
:103EA000010723D02048434642464146B5FBF0F681
:103EB000CDE90086206802F017FF206802F024FF99
:103EC0001EB17000B5FBF0F52DB11848B0FBF5F050
:103ED000401CFDF713FA204603F038F860B100BF2C
:103EE00084F83070616B0143616319E04FF000604A
:103EF00084F83070606313E0204602F0ABFF0028C6
:103F0000EED120684FF4007102F0CFFB002808D0FA
:103F1000226807499163616B0143616384F83070E3
:103F20000120BDE8FC81000000350C0010210100DB
:103F3000FF0FE01FF0B5B7B00446142130A8FCF71E
:103F4000ADFBC0216846FCF7A9FB274920688842E1
:103F500047D1002014904FF480310446CDE9001081
:103F60006846FEF72BFA08B1FCF7C9FD1F48016847
:103F700041F480310160006800F4803035901B48C6
:103F80000C30016841F004010160016801F0040196
:103F90003591016841F0080101600068022532AAEC
:103FA00000F0080035904FF4F850CDE930050326B5
:103FB0000F480C2782E8D00030A9FDF7DDF9042076
:103FC00032AACDE930050B4830A982E8D000FDF7D0
:103FD000D3F900220A213120FDF736FE3120FDF70A
:103FE00025FE37B0F0BD000000700052D4440258E6
:103FF00000080258000C02582DE9F04F87B099468E
:1040000017460D460446FDF7DDFA06903DB194F8DB
:104010003000012807D0606B40F000500DE0606B6D
:1040200040F0006009E0226D002007EB09016063A9
:10403000914204D9606B40F000706063A8E00321F6
:1040400084F830102168C862A16B012900D07F027A
:104050004FF0020ACDE903A090264FF0FF324FEA5D
:10406000492305908DE84C0080462068694602F09F
:10407000CDFC2068B9F1010F4FF00106C16841F095
:104080004001C16006D9C4F82CA03946206802F06E
:104090007DFB04E0E6623946206802F091FBDFF820
:1040A00014A150B12368C3F838A0616B0143616368
:1040B00084F83060C4F82C806AE0DDF804B01FE0BA
:1040C000406B000414D5BBF1200F11D300272068EA
:1040D00002F020FE020A2870010C6A70030EA9701B
:1040E0007F1CEB70082F05F10405F0D3ABF1200B1A
:1040F000FDF768FA0699411A1098814221D200B35F
:104100002068416B11F4957FDAD0C16821F040013D
:10411000C1602068416BC90522D5B9F1010F1FD9D3
:10412000A16B03291CD002F013FCC8B12368C3F8AB
:1041300038A0626B0243626384F83060C4F82C805C
:1041400026E02268C2F838A0606B40F0004060634F
:1041500084F83060C4F82C80032007B0BDE8F08FED
:104160002068416B090706D5C0F838A0616B40464E
:1041700041F0080108E0416B89070BD5C0F838A071
:10418000616B404641F00201616384F83060E06297
:104190000120E2E7416B890606D5C0F838A0616BC3
:1041A000404641F02001EFE70349816384F8306025
:1041B0000020D2E7FF0FE01F3A0F001810B5FCF700
:1041C000E3FB10BD10B5FCF7F1FB10BD2DE9F04F7E
:1041D00089B09A4616460D460446FDF7F3F9069057
:1041E0003DB194F83000012807D0606B40F00050DA
:1041F0000DE0606B40F0006009E0226D002006EBEE
:104200000A016063914204D9606B40F00070606302
:10421000B2E0032184F830102168C862A16B012943
:1042200000D076024FF0FF314FEA4A2205909023EA
:104230000490CDE90230CDE900128046206869463D
:1042400002F0E4FB2068C168BAF1010F41F04002BE
:10425000C26006D92020E0622068314602F0A2FB4D
:1042600005E01020E0622068314602F0B5FBDFF87F
:1042700030B106004FF001090AD02368C3F838B006
:10428000606B3043606384F83090C4F82C8073E036
:104290000198089027E0406B40041CD5089820281E
:1042A00019D3002728780790697840EA0120079001
:1042B000A97840EA01400790E9782D1D40EA0160A5
:1042C0000790206807A902F03DFD7F1C082FE9D365
:1042D000089820380890FDF775F90699411A129848
:1042E000814221D200B32068416B11F48D7FD2D07E
:1042F000C16821F04001C1602068416BC90521D52A
:10430000BAF1010F1ED9A16B03291BD002F020FBCB
:10431000C0B12568C5F838B0616B0143616384F8AA
:104320003090C4F82C8027E02368C3F838B0626B63
:104330003243626384F83090C4F82C80032009B0C3
:10434000BDE8F08F2068416B090707D54946C0F8E2
:1043500038B0626B404642F0080209E0416B8907C1
:104360000CD54946C0F838B0626B404642F00202B4
:10437000626384F83010E0620120E0E7416BC90617
:1043800007D54946C0F838B0626B404642F010028B
:10439000EEE7044A826384F830900020CFE7000003
:1043A000FF0FE01F3A0F0018401EB0F1807F10B5DC
:1043B00001D3012010BD4FF0E02460610F21601790
:1043C00004F0BBF90020A0610721216110BD7047F6
:1043D00070477047F0B590F83C20012A3BD01F4E43
:1043E000012480F83C40022280F83D2002681C4DE8
:1043F0005368B242D2F808C001D0AA4203D14F6834
:1044000023F470033B430F6823F070031F4357608E
:104410000268B24213D0B2F1804F10D0114B9A42D1
:104420000DD0114B9A420AD0104B9A4207D0AA42A3
:1044300005D00F4B9A4202D00E4B9A4204D18968A4
:104440002CF0800319439160002180F83D4080F8F2
:104450003C100846F0BD0220F0BD00000000014005
:10446000000401400004004000080040000C00402F
:10447000001800400040014010B5040003D094F83B
:104480003D0010B107E0012010BD002084F83C0081
:10449000204600F023F8022084F83D002068211D0A
:1044A00003F094F9012084F8480084F83E0084F871
:1044B0003F0084F8400084F8410084F8420084F80A
:1044C000430084F8440084F8450084F8460084F8EA
:1044D000470084F83D00002010BD0000F0B587B013
:1044E000054614216846FCF7D9F8B64A00242E6820
:1044F0000225B548103AB34B0127864220D11868EF
:1045000040F001001860186800F001000590106884
:1045100040F0100010601068694600F0100005902F
:1045200028020090CDE90154A848CDE90347FCF7E3
:1045300023FF002204211B20FDF786FB1B2049E0FE
:10454000A349B6F1804FA34825D0DFF88CE24FF0A5
:10455000400C764542D10B6843F002030B600968BA
:1045600001F002010591116841F00101116011682B
:10457000CDF800C001F00101CDE901540394CDE96B
:1045800004516946FCF7F8FE002205211D20FDF7C5
:104590005BFB1D201EE00B6843F001030B60096804
:1045A00001F001010591116841F0010111601168EC
:1045B00001F00101059120210091CDE90154CDE9DF
:1045C00003476946FCF7D8FE002203211C20FDF7B3
:1045D0003BFB1C20FDF72AFB07B0F0BDDFF8FCE138
:1045E000764521D1086840F004000860086800F0B2
:1045F00004000590106840F00800106010686946DB
:1046000000F0080005904FF480500090CDE901546F
:104610007348CDE90345FCF7AFFE002201211E20BF
:10462000FDF712FB1E20D5E7DFF8B8E176451ED175
:104630000B6843F008030B60096801F0080105915D
:10464000116841F0010111601168009701F001014A
:10465000CDE901540394CDE904516946FCF78CFE81
:10466000002206213220FDF7EFFA3220B2E75E4841
:10467000864239D1186840F002001860186800F0CE
:1046800002000590106840F0040010601068694650
:1046900000F0040005900320CDF800C0CDE90154DE
:1046A000CDE903405148FCF767FE002207212B208B
:1046B000FDF7CAFA2B20FDF7B9FA002207212C20BA
:1046C000FDF7C2FA2C20FDF7B1FA002207212D20B8
:1046D000FDF7BAFA2D20FDF7A9FA002202212E20BB
:1046E000FDF7B2FA2E2075E7414886420ED10868E0
:1046F00040F04000086008680022072100F04000F8
:1047000005902B20FDF7A0FA2B2063E7394886425D
:104710000ED1086840F08000086008680022072178
:1047200000F0800005902C20FDF78EFA2C2051E738
:10473000314886420ED1086840F4807008600868ED
:104740000022072100F4807005902D20FDF77CFAEF
:104750002D203FE7294886420ED1186840F480306A
:10476000186018680022082100F480300590742039
:10477000FDF76AFA74202DE7214886420ED11868A9
:1047800040F40030186018680022082100F400305E
:1047900005907520FDF758FA75201BE719488642E9
:1047A0007FF41AAF186840F480201860186800225F
:1047B000082100F4802005907620FDF745FA762048
:1047C00008E70000F04402580000014000100258C1
:1047D000E84402580000025800040040000800406D
:1047E000000C0258000C0040000401400008025870
:1047F00000180040001C0040002000400040014024
:10480000004401400048014090F83D10012901D0CA
:1048100001207047174A022180F83D100168CB68DB
:1048200043F00103CB600068904214D0B0F1804F98
:1048300011D0114988420ED0104988420BD010493E
:10484000884208D00F49884205D00F49884202D0DB
:104850000E49884207D181680D4A1140062906D0C9
:10486000B1F5803F03D0016841F0010101600020F3
:1048700070470000000001400004004000080040B4
:10488000000C0040000401400018004000400140BE
:1048900007000100016841F21113CA6822F0010209
:1048A000CA6001680A6A1A4207D10A6A9B101A4252
:1048B00003D10A6822F001020A60012180F83D104C
:1048C0000020704770B5044690F83C000025012890
:1048D00014D03A4B012684F83C60022084F83D0055
:1048E00022689068184020F47F4090600868702823
:1048F0002FD010DC10F00F0F03D022E04FF0020099
:1049000070BD4FEA2012072A1BD2DFE802F0535392
:1049100053534B394100B0F1101F4BD009DCB0F5B7
:10492000805F0FD0B0F5005F1ED0B0F5801F08D1BA
:1049300040E0A0F5801120393CD010293AD0202940
:1049400038D0012584F83D60002084F83C002846DA
:1049500070BD4A682068D1E9021302F0ACFF2068FC
:10496000816841F0770109E04A682068D1E90213C3
:1049700002F0A1FF2068816841F480418160E1E795
:10498000CA684968206803F019F82068502106E0D9
:10499000CA684968206803F063F82068602102F063
:1049A00093FFCFE7CA684968206803F007F82068DA
:1049B0004021F4E7226801461046F0E788FFCEFF69
:1049C0002DE9F04FDFF8C8810646704F08F1180551
:1049D0002DED048BB2EE049B81B09FED6E8BDFF862
:1049E000BCB1002405F1C40A05F11809306857F874
:1049F000241088427ED1307F022805D10421304620
:104A000000F06CFB48F82400307F012805D100211C
:104A1000304600F063FB45F8240055F824000028D8
:104A200068D058F82400DFED5E0A9FED5E1B9FED15
:104A30005F2B9FED603B564B4C339FED604A55F822
:104A4000241003F1300200EE100A03EBC40302EB62
:104A5000C4000090B8EE400A60EE200A00EE101A82
:104A6000B8EE400AC0EE804AB7EEE40A83ED000BD0
:104A700030EE411B55F8241021EE020B943A80EEE3
:104A8000031B00EE101AB8EE400AC4EE000ABCEE9A
:104A9000E00A10EE101A42F8241080ED001B48487E
:104AA000E2B2817BC07905F03DFC009890ED000BEF
:104AB0003748AC3000EBC40090ED001B30EE410BEA
:104AC000B0EE421B30EE020B04F092F90AEBC40088
:104AD0003C490BEB840C80ED000B9CED001AA1F11E
:104AE000300201EBC401B7EEC12A02EBC40080EE34
:104AF000023B00E041E081ED003B90ED002BB4EE85
:104B0000C82BF1EE10FA08DDB4EEC90BF1EE10FA85
:104B100003D259F82420521C0EE0B4EEC92BF1EE5A
:104B200010FA0BD2B0EE482BB4EEC20BF1EE10FA35
:104B300004DD59F82420521E49F82420DFED221A02
:104B400080ED000B2148C1EE810A00EBC4011D4835
:104B5000303000EBC40259F8240091ED001B00EE48
:104B6000100AB8EEC00A20EE800AB7EEC00A30EE96
:104B7000030B30EE010B82ED000B641C062CFFF6DC
:104B800035AF01B0BDEC048BBDE8F08F40020024CE
:104B90006C4100240000000000E07540F8CE0008E1
:104BA0000000C84233333333333307400000000082
:104BB00000807640CCCCCCCCCC8C574000247449BF
:104BC00000000024A84200240000B443E8020024AE
:104BD0002DE9F047054690F83C0000260C460128D8
:104BE00010D0012085F83C0072B1042A1CD0082A9C
:104BF0002CD00C2A52D00126002085F83C003046EB
:104C0000BDE8F0870220FBE7E3682868D4E90012DA
:104C100002F0E6FE2868816921F00C0181612868B4
:104C20008169A26811430FE0E3682868D4E90012A3
:104C300002F028FF2868816921F4406181612868B9
:104C40008169A26841EA02218161D5E728684FF4B1
:104C5000206CD4E90032217B076AD0F820800CEA6E
:104C60000323090727F4206728F4807CC0F820C0BC
:104C7000D0F81CC03B432CF00307174327F0F00289
:104C800042EA1161C16103622868C16921F00C0127
:104C9000C1612868A268C169114328E0D4E90023F2
:104CA00028684FF42048E1684FF6FF7C9946036A74
:104CB000076A08EA023223F420431A430CEA01315E
:104CC00027F480570762C36923F4407747EA092332
:104CD00023F470431943C16102622868C16921F459
:104CE0004061C1612868A168C26942EA0121C161CD
:104CF00082E710B5040003D094F83D0010B107E03E
:104D0000012010BD002084F83C00204600F022F86D
:104D1000022084F83D002068211D02F057FD01208B
:104D200084F8480084F83E0084F83F0084F840008E
:104D300084F8410084F8420084F8430084F8440079
:104D400084F8450084F8460084F8470084F83D0064
:104D5000002010BD7047000030B504464FF000053C
:104D600079B1042912D0082915D00C2918D010299E
:104D700019D094F8430000BF94F84720012817D1B8
:104D800014E094F83E0094F84420F7E794F83F00CC
:104D900094F84520F2E794F8400094F84620EDE7B7
:104DA00094F84100E8E794F84200E5E7012A01D0D1
:104DB000012030BD4FF0020079B1042916D0082936
:104DC0001DD00C294FD0102950D084F843000C2955
:104DD00084F847004DD0012543E084F83E0084F874
:104DE00044002068C26842F0020210E084F83F00EC
:104DF00084F845002068C26842F0040207E084F8A5
:104E0000400084F846002068C26842F00802C26090
:104E10002068012202F042FD18492068884214D01F
:104E2000B0F1804F11D0164988420ED01549884202
:104E30000BD01549884208D01449884205D014493E
:104E4000884202D01349884207D18168124A114032
:104E5000062906D0B1F5803F03D0016841F0010179
:104E60000160284630BD84F84100B0E784F8420074
:104E7000ADE72068C26842F01002C8E700000140B8
:104E80000004004000080040000C00400004014005
:104E90000018004000400140070001002DE9F041EA
:104EA000044600680027C6680569A90713D5B1073D
:104EB00011D5FA1E026101212177206880698007DF
:104EC000204602D0FFF77CFD04E000F08BF820467E
:104ED00000F089F82777680716D5700714D522687F
:104EE00002206FF00401116120772068806910F4BE
:104EF000407F204602D0FFF763FD04E000F072F827
:104F0000204600F070F82777280715D5300713D50D
:104F1000226804206FF00801116120772068C069C1
:104F20008007204602D0FFF74BFD04E000F05AF85E
:104F3000204600F058F82777E80616D5F00614D575
:104F4000226808206FF01001116120772068C06985
:104F500010F4407F204602D0FFF732FD04E000F05D
:104F600041F8204600F03FF82777E80708D0F0071F
:104F700006D021686FF001000861204600F034F887
:104F8000280601D4A80408D5300606D521686FF498
:104F9000025008612046FFF71BFAE80508D53006E5
:104FA00006D521686FF4807008612046FFF70FFA7C
:104FB000680608D5700606D521686FF040000861C4
:104FC000204600F0CCF8A8060AD5B00608D521681E
:104FD0006FF0200008612046BDE8F041FFF7F9B905
:104FE000BDE8F081704770472DE9F05F384F4FF012
:104FF0000009384D0646A7F1DE0A4C46A7F5B07BFE
:1050000005F11808306857F8241088425AD1324800
:1050100000EB840155F82400401C45F8240091ED74
:10502000000A2C4980B20128A1F15401BCEEC00A4B
:1050300031F8143001F13C0131F814C0244901F178
:10504000300151F8242010EE101A89B204D0984291
:1050500004D1080490610AE0916108E0604506D33C
:1050600045F8249058F824305B1C48F8243019483F
:105070003C3830F8143058F8240098421AF80400EC
:1050800001D378B900E038B91148EA38005D18B9A1
:105090000F48E438005D28B19BF8043013B99BF841
:1050A000020078B1080490610948183050F82400D3
:1050B000FFF7F0FB0648012145F82490D23848F864
:1050C00024900155641C062C9CDBBDE8F09F000079
:1050D00060010024C4400024B0CE000802464FF016
:1050E000000041B1042909D008290AD00C2901D1B6
:1050F0001068006C70471068406B70471068806BD8
:1051000070471068C06B704770B5044690F83C005B
:10511000012812D0012584F83C50022084F83D007B
:10512000204602F0DBFB00284FF0000007D084F897
:105130003D5084F83C00012070BD022070BD216804
:10514000CA6822F04002CA602168CA6822F480421C
:10515000CA6084F83D5084F83C00002070BD704760
:1051600030B590F88410012918D0012280F88420ED
:105170002421C0F888100022202401680B680D68E3
:1051800023F0005325F001050D60426601680B60B5
:10519000C0F8884080F88420104630BD022030BD21
:1051A0007047704770B5044690F8840001281DD000
:1051B000012284F884202420C4F88800206805682F
:1051C000026822F0010202602068826822F06062B8
:1051D0000A438260204602F077FC226820210020EA
:1051E0001560C4F8881084F8840070BD022070BD7A
:1051F00070B5044690F8840001281DD0012284F87F
:1052000084202420C4F8880020680568026822F001
:10521000010202602068826822F060420A438260D4
:10522000204602F051FC2268202100201560C4F8BD
:10523000881084F8840070BD022070BD70477047EC
:1052400070470146D0F88800D1F88C1008437047A9
:105250002DE9F04107680025044640F60F030226B9
:10526000F8693968BA6818420AD183067ED501F018
:10527000200302F0805C53EA0C0377D0616F74E185
:10528000CF4BDFF840C3134001EA0C0C53EA0C0C7F
:105290006CD05FEAC07C0CD05FEAC15C09D54FF0EE
:1052A000010CC7F820C0D4F8907047F00107C4F88B
:1052B0009070870709D5D70707D027683E62D4F8D2
:1052C000906046F00406C4F8906046070AD5D607F9
:1052D00008D0276804263E62D4F8906046F00206A3
:1052E000C4F8906006070CD501F020061E4308D0D4
:1052F000266808233362D4F8903043F00803C4F8DA
:10530000903003050BD54B0109D526684FF4006397
:105310003362D4F8903043F02003C4F89030D4F8CE
:105320009030002B3DD0800609D501F0200002F01E
:105330008051084303D0616F09B120468847216836
:10534000D4F890008968490602D410F0280F2AD0BA
:10535000204602F09FFC2068806840061ED5206829
:10536000083050E8001F21F0400100E021E040E853
:105370000012002AF3D1D4F8800078B19249016577
:10538000D4F88000FBF778FE00280AD0D4F880001B
:10539000016D00E02046BDE8F04108472046FFF7D8
:1053A0004FFFBDE8F0812046FFF74AFFC4F8905058
:1053B000F7E7D4F86CC02023BCF1010F7ED15FEA7F
:1053C000C06C7BD55FEAC16C78D51020386220684C
:1053D0008068400673D5D4F880107C4A08689042F3
:1053E00034D07A4A1832904230D0784A30329042E3
:1053F0002CD0764A4832904228D0744A603290428B
:1054000024D0724A7832904220D0704A9032904232
:105410001CD06E4AA832904218D06D4A904215D0E6
:105420006B4A1832904211D0694A303290420DD006
:10543000674A4832904209D0654A6032904205D0AE
:10544000634A7832904201D0614A90324068000449
:10545000000CA6D0B4F85C208242A2D9A4F85E0069
:10546000C869B0F5807F2FD0216851E8000F20F483
:10547000807041E80002002AF6D12068083050E828
:10548000001F21F0010140E80012002AF5D1206838
:10549000083050E8001F21F0400140E80012002AC7
:1054A000F5D1C4F88C30E566216851E8000F20F092
:1054B000100041E80002002AF6D101E040E00BE0D4
:1054C000D4F88000FBF728FC2667B4F85C00B4F839
:1054D0005E10401A81B22FE0B4F85C00B4F85E10A0
:1054E000B4F85E20401A81B2002AB2D00029B0D0B0
:1054F000226852E8000F20F4907042E80007002F65
:10550000F6D1344F206800F1080050E8002F02EA7D
:10551000070240E8002CBCF1000FF3D1C4F88C3036
:10552000E5666567206850E8002F22F0100240E829
:105530000023002BF6D126672046FFF731FE30E727
:10554000C60209D5560207D54FF4801038622046AE
:10555000BDE8F041FFF773BE06060AD501F08006EC
:1055600002F40002164304D0A16F00297FF412AFA9
:1055700017E7420611D54A060FD52046026852E8C1
:10558000001F21F0400142E80014002CF6D1C0F8C1
:105590008830856700F038F903E7020206D54A0033
:1055A00004D52046BDE8F041FFF748BEC001C6D58E
:1055B0000029C4DA2046BDE8F041FFF7F2BD000043
:1055C00001000010200100047F7C00081000024050
:1055D00010040240FEFFFFEF10B5040003D0D4F822
:1055E000880010B107E0012010BD002084F884007D
:1055F000204600F027F82420C4F8880020680168BD
:1056000021F001010160A06A10B1204602F07EFA8B
:10561000204602F0D1FD0128E6D02068416821F43F
:10562000904141602068816821F02A0181602068F2
:10563000016841F0010101602046BDE8104002F020
:10564000C9BA000010B5B6B00446142130A8FBF763
:1056500025F8C0216846FBF721F81F4920688842D9
:1056600037D103680222002143F010030C46036087
:1056700068461E91CDE90021FCF7A0FE08B1FBF7BA
:105680003EFA1648016841F400210160006800F408
:105690000020359011480838016841F0010101608F
:1056A000006830AB022100F0010035904FF4C0508B
:1056B000062283E813000A4830A9CDE93342FBF7FC
:1056C0005BFE002209213420FCF7BEFA3420FCF7EF
:1056D000ADFA36B010BD0000004C0040E84402585E
:1056E0000000025830B4D0F88C30202B02D00220B9
:1056F00030BC7047A9B1A2B10B4D00240368C46649
:10570000AB420BD05B681B0208D5046854E8003F2D
:1057100043F0806344E80035002DF6D130BC02F040
:1057200021BF0120E4E70000000C005810B500681C
:105730000649884209D104F081FD054C012120630E
:1057400004484170FBF73EFFE06210BD004C004092
:1057500000000024480300242DE9F8430446D0F853
:105760008800984616460D46202802D00220BDE843
:10577000F883A5B19EB10021C4F890102120C4F88F
:1057800088001834FBF71EFF814654F8100CA687DA
:10579000E6872027183CB0F5805F02D003E00120A7
:1057A000E5E7206910B12E46002510E000260EE046
:1057B0008021204602F05EFFC0B9DEB116F8010B71
:1057C00021688862B4F85600401EA4F85600B4F868
:1057D00056004B464FF00002CDF800800028E7D17C
:1057E0004FF04001204602F045FF48B1C4F88870F0
:1057F0000320BCE735F8020B2168C0F30800E0E79E
:10580000C4F888700020B2E700680349884202D1DA
:105810000249012008707047004C004048030024F2
:10582000FEE701688A69D243920701D400228A62A6
:1058300000688169C943C90703D0816941F001014A
:10584000816170472DE9F0470446006800268946CB
:1058500017464FF0200835468169C90641D5102109
:10586000C1612FE0B9F1FF3F2CD0FBF7ABFEC11BAC
:10587000494502D8B9F1000F24D12068426894F854
:105880004210836902F48042DB431B0415D4B2F555
:10589000804F12D0202910D0416841F480414160EE
:1058A000FBF790FE074608E0FBF78CFEC01B1928AB
:1058B00003D9012645F0200504E020688069C04333
:1058C0008006F1D420688069C043800602D5002E8E
:1058D000C8D003E016B92168C1F81C80012645F044
:1058E000040521688869C20505D54FF48072CA6134
:1058F00045F00105012641050AD5216880054FF4D0
:10590000806245F00805CA614FF0010602D40AE042
:10591000800507D5206801264FF4007145F0020587
:10592000C16100E08EB12046FFF77BFF20680021B7
:10593000074F43683B404360606C2843606484F8D1
:10594000418084F8421084F840103046BDE8F0876A
:1059500000E800FE2DE9F8430446164817461E46A7
:10596000DAB20090C3022046DDE9089800F024F87E
:1059700042464946204600F0A1F8B8B9012EFDB2D2
:1059800008D02068390A816242464946204600F024
:1059900095F858B920688562002280214B46204640
:1059A000CDF8008000F020F8002800D00120BDE8EC
:1059B000F88300000020008070B50068C1F3090181
:1059C00041EA0241074D049C19434FF48066426846
:1059D000214306EA54532B439A4321F000410A43E2
:1059E000426070BDFF63FF032DE9F0411D4617467D
:1059F0000E460446DDF8188028E042462946204637
:105A0000FFF720FF10B10120BDE8F081681C1DD018
:105A1000FBF7D8FDA0EB0800A84200D8B5B9206874
:105A2000806936EA00000FD00020B8420ED1626CC7
:105A3000002084F84000202142F02002626484F8B3
:105A4000411084F84200DEE70120EEE7206880691B
:105A500036EA000004D00020B842CED00020D3E7C0
:105A60000120F9E770B516460D4604461FE03246A0
:105A700029462046FFF7E6FE08B1012070BDFBF77E
:105A8000A1FD801BA84200D88DB920688069C04361
:105A900080060CD5626C002084F84000202142F082
:105AA0002002626484F8411084F84200E5E720682F
:105AB0008069C0438006DAD4002070BD70B51646F8
:105AC0000D46044621E0324629462046FFF7BAFE3D
:105AD00008B1012070BD681C17D0FBF773FD801B57
