:020000040800F2
:10000000D80B00203502000817210008391E00080F
:10001000152100086F040008E9270008000000000F
:100020000000000000000000000000002521000882
:1000300071040008000000001D21000831210008A3
:100040004F0200084F0200084F0200084F0200084C
:100050004F0200084F0200084F0200087304000816
:100060004F0200084F0200084F0200084F0200082C
:100070004F0200084F0200084F0200084F0200081C
:100080004F0200084F0200084F0200080000000065
:100090000000000000000000000000004F02000807
:1000A0004F0200084F0200084F0200084F020008EC
:1000B000DD210008E92100084F0200084F02000876
:1000C0004F0200084F0200084F0200084F020008CC
:1000D0004F020008D12700084F020008000000006E
:1000E0004F0200084F0200084F0200080000000005
:1000F0000000000000000000000000004F020008A7
:10010000000000004F0200084F0200084F020008E4
:1001100000000000000000000000000000000000DF
:100120004F0200084F0200084F0200084F0200086B
:100130004F02000800000000000000000000000066
:100140000000000000000000000000004F02000856
:100150004F0200084F0200084F020008DD27000888
:100160004F0200084F0200080000000000000000DD
:10017000000000000000000000000000000000007F
:10018000000000004F020008000000000000000016
:100190004F02000800F002F800F03CF80AA090E8D6
:1001A000000C82448344AAF10107DA4501D100F032
:1001B00031F8AFF2090EBAE80F0013F0010F18BFC3
:1001C000FB1A43F00103184784270000A42700000E
:1001D000103A24BF78C878C1FAD8520724BF30C873
:1001E00030C144BF04680C60704700000023002445
:1001F00000250026103A28BF78C1FBD8520728BF37
:1002000030C148BF0B6070471FB502F089FB1FBDAE
:1002100010B510BD00F0F6F81146FFF7F5FF02F03B
:10022000F5FA00F014F903B4FFF7F2FF03BC00F095
:1002300017F900000948804709480047FEE7FEE734
:10024000FEE7FEE7FEE7FEE7FEE7FEE7FEE7FEE786
:1002500004480549054A064B70470000CD210008B7
:1002600095010008D8050020D80B0020D8070020F1
:10027000D807002053EA020C00F069802DE9F04B0A
:100280004FF00006002B1FBFB3FA83F503FA05F405
:1002900024FA05F65E4012BF1643B2FA82F502FA5E
:1002A00005F4C5F120051EBF22FA05FC44EA0C0442
:1002B000203556EA044C4FEA144418BF641C4FF032
:1002C00000084FF00009904271EB030C39D300296C
:1002D00019BFB1FA81F701FA07F6B0FA80F700FA10
:1002E00007F6C7F120071EBF20FA07FC46EA0C06F6
:1002F0002037B6FBF4FCA7EB0507103F07F01F0BF8
:10030000CBF120060CFA0BFB2CFA06F644BFB346E1
:100310000026202FA4BF5E464FF0000B5BEA060CC0
:1003200008BF4FF0010B19EB0B09ABFB027C48EB4C
:100330000608C01B06FB02CC0BFB03CC71EB0C01C7
:10034000C1E70B46024641464846BDE8F08B13B56F
:100350004FF000004FF00001AFF30080BDE81C40FB
:1003600070474FF000020429C0F0128010F0030C17
:1003700000F01B80CCF1040CBCF1020F18BF00F898
:10038000012BA8BF20F8022BA1EB0C0100F00DB847
:100390005FEAC17C24BF00F8012B00F8012B48BFA5
:1003A00000F8012B70474FF0000200B51346944649
:1003B0009646203922BFA0E80C50A0E80C50B1F1BD
:1003C0002001BFF4F7AF090728BFA0E80C5048BFD1
:1003D0000CC05DF804EB890028BF40F8042B08BF6F
:1003E000704748BF20F8022B11F0804F18BF00F86B
:1003F000012B7047704770477047000000487047F6
:10040000740500207546FFF7F9FFAE460500694602
:10041000534620F00700854618B020B5FFF718FFB7
:10042000BDE820404FF000064FF000074FF00008F5
:100430004FF0000B21F00701AC46ACE8C009ACE876
:10044000C009ACE8C009ACE8C0098D46704710B5DA
:100450000446AFF300802046BDE81040FFF7E3BE3E
:1004600001491820ABBEFEE7260002007047FEE7F8
:100470007047022000F0A2B92DE9F04F034697B073
:100480000C4648074FF002064FF0010702D083F8F0
:10049000A36101E083F8A37103F1800000211090B3
:1004A000605CFF287ED1651868785A28FAD1A87850
:1004B000FF28F7D193F8A301012873D1E878012828
:1004C00012D0022813D0042814D005286BD0062897
:1004D00069D007282BD0082866D009287DD00A28A3
:1004E0007CD00B285FD0DBE083F89471D8E083F8F0
:1004F0009461D5E0042083F89401287983F895016C
:10050000687983F89601A87983F89701E87983F8E8
:100510009801002002AA0D1825442D7A1554401C7C
:100520000828F8DBDDE90202C3E92C02B8E0072065
:1005300083F8940100200DF14C090DF1300A0DF102
:10054000380B0DF1440E22180DF1080C92F80480BE
:1005500009F8008092F80C800AF8008092F8148064
:100560000BF8008092F81C800EF8008092F824802E
:100570000CF800800DF1100C92F82C800CF8008023
:100580000DF1180C92F834800CF800800DF1200C5D
:1005900092F83C800CF8008092F844C00AAA02F855
:1005A00000C002E07FE079E063E0401C0828CADB7D
:1005B0005FEA497005D15FEA4A7002D15FEA4B7089
:1005C00018D083F8A471DDE91302C3E93402DDE930
:1005D0000C2C1098C0E9162C01E051E057E00DF109
:1005E000380898E80510CCE9180200BF5FEA4E70A1
:1005F00003D011E083F8A461F8E702A840070BD10B
:1006000004A8400708D106A8400705D108A840075C
:1006100002D10AA8400728D0032083F8A401DDE90D
:10062000112CC3E9462CDDE9022C03F58070C0E9EA
:10063000082CDDE9042CC0E90A2CDDE9062CC0E910
:100640000C2CDDE9082CC0E90E2CDDE90A2CC0E9F0
:10065000102C00BF15F84D0F83F8A200687883F8BE
:100660009B01A87883F8A3001AE0042083F8A40172
:10067000F0E7082083F89401287983F89F010FE0C0
:10068000092083F89401287983F8A00108E00A2062
:1006900083F89401287983F8A20101E083F894019A
:1006A0002068C3F80200491C5029FFF6F9AE17B0C4
:1006B0002046BDE8F04F5021FFF753BE2DE9F04131
:1006C0000446876D00F080F9064694F83500002551
:1006D000022806D08020606584F834500120BDE8EF
:1006E000F0812068016821F01601016020684169ED
:1006F00021F080014161206C08B9A06C20B1206814
:10070000016821F0080101602068016821F0010101
:1007100001600CE000F058F9801B052807D9202063
:100720006065032084F8350084F83450D7E72068EA
:100730000068C007EED194F85C103F208840B86094
:10074000012084F8350084F834500020C7E790F881
:100750003510022903D08021416501207047052111
:1007600080F835100068016821F001010160002067
:100770007047000070B5044600F026F90546601C7D
:1007800002D004480078044400F01EF9401BA04247
:10079000FAD370BD1000002010B5022807D1022145
:1007A000044800F007F918B100200349087010BD93
:1007B0000120FAE70000024000000020044910B5C3
:1007C0000A68024202D00860FFF7E6FF10BD000091
:1007D000143C01402DE9F84FDFF8B8A100220124B4
:1007E00003254FF00F090AF1040BAAF1040E00BF14
:1007F0000B6804FA02F63340B34273D10F7907F065
:100800000307012F01D0022F16D187684FEA420853
:1008100005FA08FC27EA0C07D1F80CC00CFA08FC12
:100820004CEA070CC0F808C04768B7430E79C6F316
:10083000001696403E4346600E79F643B6070DD04B
:10084000C768560005FA06FC27EA0C07D1F808C06D
:100850000CFA06FC4CEA070CC0F80CC00E7906F046
:100860000306022E10D1D60800EB8608D8F82060C7
:1008700057074FEAD76C09FA0CF7BE430F6907FA1E
:100880000CF73743C8F8207006684FEA420C05FAA7
:100890000CF7BE430F7907F0030707FA0CF737434D
:1008A00007604E6816F4403F6DD03B4E376847F402
:1008B00080473760366822F0030706F480460096CA
:1008C000364E07EB060CDCF8086897073F0F09FA6D
:1008D00007F826EA0806DFF8C880404503D14FF044
:1008E00000081EE04FE0DFF8BC80404502D14FF029
:1008F000010816E0DFF8B080404502D14FF0020851
:100900000FE0DFF8A880404502D14FF0030808E06F
:10091000DFF89C80404502D14FF0040801E04FF021
:10092000070808FA07F848EA0608CCF80888DAF851
:1009300000605746D1F804C09E435FEACC2C00D536
:100940001E433E60DBF800605F46D1F804C09E4362
:100950005FEA8C2C00D51E433E60DEF800607746CF
:10096000D1F804C09E435FEA8C3C00D51E433E6034
:10097000084F083F3E68D1F804C09E435FEACC3C74
:1009800000D51E433E60521C102AFFF431AFBDE873
:10099000F88F0000083C014044380240003001401C
:1009A000000002400004024000080240000C024027
:1009B000001002400069084000D0012070470AB1D1
:1009C000816170470904FBE70148806870470000B7
:1009D0001000002070B5040025D094F83D000025DB
:1009E00020B984F83C50204600F0B8F8242084F860
:1009F0003D002068016821F0010101602068016864
:100A000041F4004101602068016821F40041016067
:100A100000F014FA4D4A6168914201D84C4900E057
:100A20004C49884201D2012070BD4B492368B0FB7C
:100A3000F1F15E6826F03F060E435E606368934204
:100A400006D94FF4967359434FF47A73B1FBF3F11F
:100A50002368491C1E6A26F03F063143196261680B
:100A6000914210D84900401EB0FBF1F2521CC2F373
:100A70000B02042A01D2042022E0B0FBF1F0401C5A
:100A8000C0F30B001CE0A268F2B301EBC10303EB5F
:100A90000116431EB3FBF6F35B1C43F480431B05B6
:100AA00049D092B301EBC10202EB0111401EB0FB31
:100AB000F1F0401CC0F30B0040F4804040F40040D3
:100AC0002168CA694CF6FF739A431043C861D4E9A0
:100AD000071001432068026822F0C0021143016040
:100AE000D4E9030101432068826848F2FF339A4346
:100AF00011438160D4E9050108432168CA6822F0E6
:100B0000FF021043C86001E00EE016E020680168B3
:100B100041F0010101602564202084F83D00256337
:100B200084F83E50002070BD01EB4106431EB3FB2C
:100B3000F6F35B1CB3E70120C2E701EB4101401E65
:100B4000B0FBF1F0401CC0F30B00B7E7A08601003A
:100B500080841E0000093D0040420F0010B586B0A1
:100B6000044614216846FFF71EFC1349206888429A
:100B700020D112480021026842F00202026000689F
:100B800000F002000590C02000901220CDE9010184
:100B9000032003900420049069460948FFF71AFED9
:100BA00006481030016841F400110160006800F44B
:100BB0000010059006B010BD0054004030380240CF
:100BC0000004024002488168027811448160704745
:100BD000100000200B4810B5016841F4007101605D
:100BE000016841F480610160016841F48071016035
:100BF000032000F06FF80F2000F006F800F024F852
:100C0000002010BD003C024070B50D4D04464FF46D
:100C10007A712878B1FBF0F00A490968B1FBF0F06D
:100C200000F022FB48B9102C07D200222146501EAA
:100C300000F030F800206C6070BD012070BD000035
:100C4000100000201C0000200A4808B5016841F48B
:100C500080410160006800F4804000900548001F5A
:100C6000016841F080510160006800F08050009000
:100C700008BD000044380240002809DB00F01F02D4
:100C8000012191404009800000F1E020C0F80011EE
:100C900070470000F0B40E4B1B680C46C3F30223F0
:100CA000C3F10705042D00D90425191D072901D218
:100CB000002300E0DB1E012606FA05F1491E214053
:100CC00099409E40761E16403143F0BC01F08DBD28
:100CD0000CED00E0064900F0070208684FF6FF033C
:100CE000184040EA0220034A1043086070470000A1
:100CF0000CED00E00000FA05704700002DE9F04718
:100D00000E46050065D0DFF81481D8F80000F7B270
:100D100000F00700B04207D288F80070D8F8000051
:100D200000F00700B04254D128683D4C810712D52D
:100D3000400703D5206840F4E05020602878000781
:100D400003D5206840F4604020602068A96820F046
:100D5000F000084320602878C0072DD0304968682B
:100D60000839012812D0022813D0032811D00968AD
:100D7000890700292DDA216821F003010143216050
:100D8000FFF722FE814641F2883A0EE009688903A6
:100D9000EFE709688901ECE7FFF716FEA0EB090110
:100DA000514502D90320BDE8F0872068696800F04A
:100DB0000C00B0EB810FEFD1D8F80010404601F0E5
:100DC0000701B14207D90770006800F00700B04280
:100DD00001D00120E7E72878400705D52068E968B9
:100DE00020F4E050084320602878000706D52068EA
:100DF000296920F4604040EAC100206000F03EF81C
:100E00002168084AC1F30311515CC84006490860D3
:100E100006480068FFF7F8FE0020C4E7003C0240E7
:100E200008380240342900081C000020140000206B
:100E300001490120C8647047000047420448054941
:100E400000680968044AC1F38221515CC8407047B8
:100E50001C000020083802404429000804480549C5
:100E600000680968044AC1F34231515CC8407047C8
:100E70001C0000200838024044290008154810B51D
:100E8000006810F00C02144813D01449042A0FD043
:100E9000082A0ED10F4C241F2268236802F03F025B
:100EA0005B0207D52068C0F38810A0FB010106E0B3
:100EB000084610BD2168C1F38811A1FB0001002381
:100EC000FFF7D8F92168C1F30141491C4900B0FB83
:100ED000F1F010BD083802400024F40040787D0194
:100EE000054810B50068000605D5FFF705FF024963
:100EF0008020891C087010BD0C3802402DE9F84F85
:100F000004006ED02078DFF84C93C007A9F10405E7
:100F10004AD009F104000168C1F38101012908D018
:100F20000068C0F3810002280AD1D9F8000040020D
:100F300006D52868800337D560680028E1D033E003
:100F40006068B0F5803F10D0B0F5A02F286810D0B1
:100F500020F480302860286820F4802028606068B1
:100F6000A8B1FFF731FD06460DE0286840F4803057
:100F7000F4E740F480202860F7E700BFFFF724FD86
:100F8000801B642873D828688003F7D50CE0FFF72E
:100F90001BFD064605E000BFFFF716FD801B642819
:100FA000F0D828688003F7D42078DFF8AC82800777
:100FB0004FF0000A3ED5A748001D016811F00C0F44
:100FC00008D00068C0F3810002280BD1D9F80000D6
:100FD000400207D42868800716D5E068012800D1B0
:100FE00012E033E1E068B8B10120C8F80000FFF773
:100FF000EBFC064605E000BFFFF7E6FC801B02287D
:10100000C0D828688007F7D52868216920F0F80043
:1010100040EAC10028600DE0C8F800A0FFF7D4FC4A
:10102000064604E0FFF7D0FC801B02281FD8286882
:101030008007F7D42078000722D5864F874861695A
:10104000703771B101210160FFF7BEFC064604E074
:10105000FFF7BAFC801B022809D838688007F7D54B
:101060000EE0C0F800A0FFF7AFFC064605E082E006
:10107000FFF7AAFC801B02287DD838688007F7D4C8
:101080002078400768D5DFF8CCB100270BF13C0B86
:10109000DBF80000C0000BD4DBF8001041F08051F9
:1010A000CBF80010DBF80000012700F08050009022
:1010B0006B4E3068C00510D4306840F480703060EA
:1010C000FFF782FC009005E0FFF77EFC0099401AD4
:1010D000022850D83068C005F6D55E4EA0686C3640
:1010E00001280FD00528306810D020F001003060B2
:1010F000306820F004003060A068B8B1FFF764FCED
:1011000000900FE0306840F00100F4E740F0040088
:101110003060F7E7FFF758FC0099411A41F2883038
:10112000814266D830688007F4D50EE0FFF74CFCAA
:10113000009007E0FFF748FC0099411A41F288301F
:10114000814256D830688007F4D42FB1DBF8001004
:1011500021F08051CBF80010A069C8B33D49091DAA
:101160000968C1F3810102294AD00228504607D0FC
:10117000C8F8600000E03CE0FFF726FC04463BE0D6
:101180004746C8F86000FFF71FFC064605E000BFB1
:10119000FFF71AFC801B02282BD828688001F7D49F
:1011A000D4E907010843A16A2E4A490802EB01412C
:1011B000626A41EA8211084394F82C1040EA016106
:1011C000C9F8001001203866FFF7FEFB044606E070
:1011D0003EE000BFFFF7F8FB001B022809D8286893
:1011E0008001F7D534E000BFFFF7EEFB001B0228BB
:1011F00002D90320BDE8F88F28688001F4D427E0E5
:101200000128F7D0D9F80000E26900F4800191428A
:101210001CD1226A00F03F01914217D147F6C071FC
:10122000626A0140B1EB821F10D1A26A4FF0FF3316
:1012300000F4403103EB5202B1EB024F06D194F8B7
:101240002C1000F07060B0EB016F01D00120D1E7ED
:101250000020CFE70438024000004742800E47429A
:10126000007000400000FFFF10B5401EB0F1807F0D
:1012700001D3012010BD4FF0E02460610F21601701
:1012800001F0B3FA0020A06107202061002010BD0A
:101290007047704710B590F83C20012A22D00122F7
:1012A00080F83C20CA688C6822F4407222434C6863
:1012B00022F4806222430C6822F4006222430C690B
:1012C00022F4805222434C6922F400522243C9691D
:1012D000002322F480420A4301684A6480F83C30CB
:1012E000002010BD022010BD70B590F83C20012AEE
:1012F0002CD0012480F83C40022280F83D20036875
:101300005A689D6822F070060A6832435A60104B92
:1013100002689A420ED0B2F1804F0BD00D4B9A4228
:1013200008D00D4B9A4205D00C4B9A4202D00C4B80
:101330009A4204D1496825F080031943916080F8EE
:101340003D40002180F83C10084670BD022070BD71
:10135000000001400004004000080040000C004074
:101360000040014010B5040003D094F83D0010B1D6
:1013700007E0012010BD002084F83C00204600F06A
:101380001FF8022084F83D00211D206800F032FF84
:10139000012084F8460084F83E0084F83F0084F879
:1013A000400084F8410084F8420084F8430084F847
:1013B000440084F8450084F83D00002010BD000082
:1013C00010B586B0044614216846FEF7ECFF2748A6
:1013D0002268002182420AD12548016841F00101BA
:1013E0000160006800F00100059006B010BD2048C3
:1013F000001FB2F1804F14D01E498A42F5D1016816
:1014000041F0020101600068002200F00200059036
:1014100006211D20FFF73EFC5FF01D00FFF72CFCAE
:10142000E3E7026842F001020260006800F0010098
:1014300005900F481438026842F00102026000680B
:10144000022200F00100059001200090CDE9012169
:10145000CDE9031069460848FFF7BCF900220521D1
:101460001C20FFF717FC1C20D8E7000000000140FB
:1014700044380240000400400000024070B50446B9
:1014800090F83C000025012817D0012684F83C6024
:10149000022084F83D002068826822F0770222F45E
:1014A0007F4282600868502838D00DDC20284FD059
:1014B00005DC90B3102811D14AE0022070BD30281D
:1014C00046D040280AD13BE060282FD070280DD0AC
:1014D000B0F5805F03D0B0F5005F12D0012584F82D
:1014E0003D60002084F83C00284670BDCB68D1E9FF
:1014F0000121206800F0CAFE2068816841F0770170
:1015000009E0CB68D1E90121206800F0BFFE206826
:10151000816841F480418160E1E719E0CA68496867
:10152000206800F0ADFF5021206806E0CA684968D5
:10153000206800F0EDFF6021206800F0B1FECEE7EA
:10154000CA684968206800F09BFF40212068F4E7E2
:10155000226801461046F0E770472DE9F041054644
:1015600090F83C0000260C46012810D0012085F898
:101570003C0072B1042A1CD0082A2CD00C2A50D06E
:101580000126002085F83C003046BDE8F0810220AD
:10159000FBE7D4E90012E368286800F083FF2868BD
:1015A000816921F00C01816128688169A268114379
:1015B0000FE0D4E90012E368286800F0BBFF286858
:1015C000816921F44061816128688169A26841EAEA
:1015D00002218161D5E72868D4E9002C277B016AC4
:1015E00021F480710162C169036A21F0030141EABB
:1015F0000C0121F0F00C39074FF420674CEA11611F
:1016000023F4206307EA02221A43C16102622868B8
:10161000C16921F00C01C1612868C169A268114348
:1016200028E02868D4E90027E168036A23F480539E
:101630000362D0F81CC0036A2CF4407C4CEA0727F4
:101640004FF6FF7C27F470470CEA013139434FF421
:10165000204723F4204307EA02321A43C1610262A1
:101660002868C16921F44061C1612868C169A26824
:1016700041EA0221C16184E710B5040003D094F867
:101680003D0010B107E0012010BD002084F83C00AF
:10169000204600F01EF8022084F83D00211D20683D
:1016A00000F0A8FD012084F8460084F83E0084F88C
:1016B0003F0084F8400084F8410084F8420084F838
:1016C000430084F8440084F8450084F83D0000207D
:1016D00010BD704770B50446006801694FF0000501
:1016E000C943890715D4C168C943890711D4E91EC4
:1016F000016101202077206880698007204602D0A0
:10170000FFF72AFF04E000F0C3F8204600F055F987
:10171000257720680169C943490717D4C168C943BF
:10172000490713D46FF0040101610220207720687B
:10173000806910F4407F204602D0FFF70DFF04E0DF
:1017400000F0A6F8204600F038F9257720680169F6
:10175000C943090716D4C168C943090712D46FF0F9
:1017600008010161042020772068C06980072046B5
:1017700002D0FFF7F1FE04E000F08AF8204600F006
:101780001CF9257720680169C943C90617D4C168C7
:10179000C943C90613D46FF01001016108202077F6
:1017A0002068C06910F4407F204602D0FFF7D4FEC5
:1017B00004E000F06DF8204600F0FFF8257720687F
:1017C0000169C943C90708D1C168C943C90704D120
:1017D000891E0161204600F0F1F820680169C943C3
:1017E000090609D4C168C943090605D46FF0800110
:1017F00001612046FFF74CFD20680169C943490695
:1018000009D4C168C943490605D46FF0400101619C
:10181000204600F0FFF820680169C94389060BD40F
:10182000C168C943890607D46FF0200101612046D1
:10183000BDE87040FFF72DBD70BD000010B586B04B
:10184000044614216846FEF7AEFD0E492068884222
:1018500016D10D480021026842F0010202600068C2
:1018600000F0010005904FF4807000900220CDE957
:1018700001010120CDE9031069460448FEF7AAFFE3
:1018800006B010BD000001403038024000000240A8
:10189000704770B5044690F83C0000260D460128BC
:1018A0000FD0012084F83C006AB1042A1DD0082A18
:1018B0002FD00C2A3FD00126002084F83C0030466F
:1018C00070BD022070BD206800F0F2FC20688169C4
:1018D00041F0080181612068816921F00401816182
:1018E000206881692A69114311E0206800F008FD31
:1018F0002068816941F4006181612068816921F477
:1019000080618161206881692A6941EA02218161DF
:10191000D2E7206800F020FD2068C16941F008018D
:10192000C1612068C16921F00401C1612068C169F9
:101930002A69114311E0206800F03AFD2068C1696E
:1019400041F40061C1612068C16921F48061C16115
:101950002068C1692A6941EA0221C161ACE710B57A
:10196000040003D094F83D0010B107E0012010BD41
:10197000002084F83C00204600F01EF8022084F885
:101980003D00211D206800F035FC012084F8460050
:1019900084F83E0084F83F0084F8400084F8410059
:1019A00084F8420084F8430084F8440084F8450039
:1019B00084F83D00002010BD70477047704770B537
:1019C000044690F83C00012812D0012584F83C50D0
:1019D000022084F83D00204600F00CFD01004FF08D
:1019E000000007D084F83D5084F83C00012070BD11
:1019F000022070BD2168CA6822F04002CA602168D6
:101A0000CA6822F48042CA6084F83D5084F83C00E1
:101A1000002070BD7047704770470000F8B501683E
:101A200004460868CA684B6910F00F0F4FF00005B4
:101A300059D003F0010602F49077374365D0C1070F
:101A400005D0D10503D5216C41F001012164410786
:101A500005D5D90703D0216C41F00201216481072B
:101A600005D5D90703D0216C41F004012164010799
:101A700007D502F02001314303D0216C41F0080169
:101A80002164216C00293AD0800604D5900602D545
:101A9000204600F099FD20684069216CC0F3801059
:101AA000090700D460B3204600F067FD2068406954
:101AB000400621D52068143050E8001F21F0400175
:101AC00040E80012002AF5D1A06BA8B16C4901656D
:101AD000A06BFEF73CFE002811D0A06B016D01B099
:101AE000BDE8F040084783060FD593060DD5204684
:101AF000BDE8F84000F068BD2046FFF78DFFF8BD57
:101B00002046FFF789FF2564F8BD266B2023012EB0
:101B100079D1C60677D5D60675D50868486800908D
:101B20004869400640D5A16B086840680004000C75
:101B3000EAD0A28D8242E7D9E085C869B0F5807FFE
:101B40002DD020680C3050E8001F21F4807140E84F
:101B50000012002AF5D12068143050E8001F21F04F
:101B6000010140E80012002AF5D12068143050E845
:101B7000001F21F0400140E80012002AF5D184F84E
:101B80003E30256320680C3050E8001F21F0100122
:101B900040E80012002AF5D1A06BFEF78FFDA08D62
:101BA000E18D401A81B229E0A08DE18D401A81B209
:101BB000E08D0028A8D00029A6D020680C3050E87D
:101BC000002F22F4907240E80026002EF5D1206804
:101BD000143050E8002F22F0010240E80026002EC9
:101BE000F5D184F83E30256320680C3050E8002F92
:101BF00022F0100240E80023002BF5D12046FFF729
:101C00000AFFF8BDFFE705062BD5150629D594F880
:101C10003D002128F5D1A068B0F5805F01D1206991
:101C2000B0B1206A411C2162216800784860E08CD4
:101C3000401E0004000CE084E3D12068C16821F05C
:101C40008001C1602068C16841F04001C160D8E7EF
:101C5000206A0088C0F308004860206A801C206267
:101C6000E5E74006CDD55006CBD5CA68204622F020
:101C70004002CA6084F83D3000F0DDF8C1E70000A2
:101C80006B25000870B5040004D094F83D000025D1
:101C900010B106E0012070BD84F83C50204600F0F1
:101CA00023F8242084F83D002068C16821F4005105
:101CB000C160204600F0E8FC2068016921F49041F1
:101CC00001612068416921F02A0141612068C168F1
:101CD00041F40051C1602564202084F83D0084F85F
:101CE0003E00002070BD0000F0B587B0044614210E
:101CF0006846FEF758FB2A49284F26680025284ADF
:101D00001439022303242748BE421FD1166846F027
:101D100010061660126802F0100205920A6842F07E
:101D200001020A60096801F00101059161028DE874
:101D30002A000721CDE903416946FEF74BFD002249
:101D400007212520FEF7A6FF252022E0164FBE42E0
:101D500021D1166846F020061660126802F02002B3
:101D600005920A6842F001020A60096801F0010167
:101D700005914FF4C0518DE82A000821CDE90341B7
:101D80006946FEF727FD002211464720FEF782FF35
:101D90004720FEF771FF07B0F0BD000000100140C2
:101DA00044380240000002400014014090F83E30E8
:101DB000202B0ED159B152B190F83C30012B08D0F4
:101DC000012380F83C300023036300F0E3BC0120D2
:101DD000704702207047000010B50068044988422F
:101DE00005D1FEF7F1FD034948600120487010BDA0
:101DF000001001400000002090F83D30202B18D149
:101E0000A9B1A2B190F83C30012B12D001628284BA
:101E1000C28400210164212280F83D2080F83C101A
:101E20000068C16841F08001C16000207047012056
:101E30007047022070477047FEE700002DE9F0412F
:101E400086B014216846FEF7AEFA314800240168D6
:101E500041F004010160016801F00401059101688D
:101E600041F080010160016801F080010591016885
:101E700041F001010160016801F001010591016873
:101E800041F0020101600068224F00F002004FF4AF
:101E900000560590002231463846FEF790FDDFF8E7
:101EA000788000224FF4C0414046FEF788FD0125AE
:101EB0000096CDE90154694638460394FEF78AFC42
:101EC000022000904FF44410CDE901056946134803
:101ED000FEF780FC0096CDE9015469464046039424
:101EE000FEF778FCA803CDE900050320CDE9024008
:101EF00069464046FEF76EFC00220B210720FEF7E4
:101F0000C9FE0720FEF7B8FE06B0BDE8F08100006C
:101F10003038024000080240000402400000024045
:101F200010B596B000240F94109411941294139449
:101F30001C2108A81494FEF736FA20216846FEF703
:101F400032FA2848264901605421C0E9011464216D
:101F5000C0E9031444618461FFF704FA08B172B662
:101F6000FEE74FF480500F900FA91E48FFF786FA46
:101F700008B172B6FEE71B48FFF7F1FC08B172B674
:101F8000FEE7139413A917481494FFF7ADF908B1AD
:101F900072B6FEE76020CDE908040A940B940C9415
:101FA0000D94002208A90F480E94FFF772FC08B1A7
:101FB00072B6FEE700944FF40050CDE9044002945D
:101FC00001940394694607480794FFF763F908B141
:101FD00072B6FEE70348FFF731FC16B010BD0000F3
:101FE00000000140C403002010B590B00024099403
:101FF0000A940B94142104A80C94FEF7D4F92B48EE
:1020000003940094019402940D944FF080410E9437
:10201000C0E90014611EC0E9024104618461FFF758
:10202000A1F908B172B6FEE74FF48050099009A9F2
:102030001E48FFF723FA08B172B6FEE71B48FFF708
:102040001BFB08B172B6FEE7042004905020CDE9D6
:102050000504079404A915480894FFF7B0FC08B1DB
:1020600072B6FEE70120CDE90040029400226946E5
:102070000E480394FFF771FA08B172B6FEE702202A
:1020800000900190042269460848FFF766FA08B1FB
:1020900072B6FEE70D940DA904480E94FFF724F9DB
:1020A000002801D072B6FEE710B010BD0C0400206D
:1020B00010B586B00024164800940194029403944D
:1020C000049412490594C0E900145321C0E9024167
:1020D00004618461FFF746F908B172B6FEE74FF478
:1020E0008050009069460A48FFF7C8F908B172B6F7
:1020F000FEE7049404A906480594FFF7F5F80028C4
:1021000001D072B6FEE706B010BD0000000400402A
:1021100054040020FEE7FEF7E3FEFEE77047C0F838
:10212000901170477047D0F890015022FFF73EBEE3
:10213000FEF748BD30B593B030216846FEF733F95D
:1021400014210CA8FEF72FF91E480025016841F064
:1021500080510160006800F0805011901A480168B9
:1021600021F4404141F4004101600068022400F480
:102170004040119001200090000401908001CDE9C1
:10218000064019200890A820CDE9090404200B90EE
:102190006846FEF7B3FE08B172B6FEE70CA90F2041
:1021A00081E831004FF480500F90109002210CA86C
:1021B000FEF7A4FD08B172B6FEE7FEF739FE13B0D4
:1021C00030BD000040380240007000400248016805
:1021D00041F470010160704788ED00E00148FFF7AD
:1021E00079BA00000C0400200148FFF773BA000020
:1021F00054040020F0B502681D4B1E4C9F031E4D79
:102200001E4E984207D0B84205D0A04203D0A84243
:1022100001D0B04204D122F0700C4A6842EA0C02AC
:10222000984210D0B8420ED0A0420CD0A8420AD09A
:10223000B04208D0124CA04205D0124CA04202D0AD
:10224000114CA04203D122F44074CA6822434C6965
:1022500022F08002224302608A68C2620A688262B7
:10226000984201D10969016301214161F0BD00007B
:10227000000001400004004000080040000C004045
:1022800000400140004401400048014010B584680E
:1022900042EA032224F47F440A432243826010BDB1
:1022A000826822F070020A4342F0070181607047A1
:1022B00030B5026A22F001020262026A4368846950
:1022C00024F073050C682C4322F002058A682A4327
:1022D0000A4DA8420BD122F00805CA6823F44073C6
:1022E0002A434D6922F004021D438B692B4343604E
:1022F000846149684163026230BD00000000014012
:1023000030B5026A22F010020262026A43688469F0
:102310000D6824F4E64444EA05248D6822F0200286
:1023200042EA05120B4DA8420ED1CD6822F0800280
:1023300042EA05124D6923F4406343EA85038D693F
:1023400022F0400243EA8503436084614968816367
:10235000026230BD0000014030B5026A22F4807292
:102360000262036A4268C46923F4007324F07305AF
:102370000C682C438D6843EA05230C4DA8420ED10E
:10238000CD6823F4006343EA05234D6922F44052EB
:1023900042EA05128D6923F4806342EA0512426025
:1023A000C4614968C163036230BD000000000140A0
:1023B00030B5026A22F480520262046A4268C3693C
:1023C0000D6823F4E64343EA05238D6824F40054A2
:1023D00044EA0534064DA84204D14D6922F48042F6
:1023E00042EA85124260C36149680164046230BDFB
:1023F0000000014070B5036800249A6822F070055F
:102400004A682A4322F007050A682A439A604A6804
:1024100012F00F0F31D11211082A2ED2DFE802F08C
:102420002E2E2E2E0B2127040B69D1E902210068E4
:10243000FFF72CFF22E00A68052A10D00268136A11
:10244000156A25F00105156202689569096925F08C
:10245000F00545EA01119161006803620EE0012078
:1024600070BD0A698968006800F00AF806E00A6928
:102470008968006800F04CF800E00124204670BD37
:1024800010B5036A046A24F001040462846924F02C
:10249000F00444EA021423F00A020A43846102624F
:1024A00010BD000070B5046A24F001040462846960
:1024B000056A124EB0420ED0B0F1804F0BD0104ED4
:1024C000B04208D00F4EB04205D00F4EB04202D0FD
:1024D0000E4EB04203D124F00304144301E044F053
:1024E00001041A0724F0F00444EA126225F00A03FA
:1024F00001F00A0119438261016270BD00000140D0
:102500000004004000080040000C00400040014072
:1025100010B5036A23F0100303628369046A23F48D
:10252000704343EA023224F0A00343EA01118261BE
:10253000016210BD30B5046A24F01004046284699D
:10254000056A24F4407444EA022222F470444FF6EF
:10255000FF7202EA03322243A02425F0A00304EA1A
:10256000011119438261016230BD10B5806B0021F9
:10257000C185C184FFF750FA10BD01680C3151E8E4
:10258000002F22F4907241E80023002BF5D101685E
:10259000143151E8002F22F0010241E80023002B02
:1025A000F5D1016B012909D101680C3151E8002FE7
:1025B00022F0100241E80023002BF5D1202180F801
:1025C0003E1000210163704708B590F83E102229A3
:1025D00001D0022008BD82684FF480539A4201D195
:1025E000016921B1816A9A421BD04AB10AE00268AE
:1025F000816A5268C2F308020A80816A891C08E075
:10260000026972B10268526802F07F020A70816A40
:10261000491C8162C18D491E0904090CC18503D082
:1026200019E002685268F1E70168CA6822F02002E6
:10263000CA600168CA6822F48072CA6001684A6987
:1026400022F001024A61202180F83E10016B01292D
:1026500003D0FFF7C1FB002008BD00210163016822
:102660000C3151E8002F22F0100241E80023002B2A
:10267000F5D101680A68D20602D50A684968009156
:10268000818DFFF7C8F9E6E770B504460068016977
:10269000E26821F44051114301612169A068E269B7
:1026A00008436169114308432168CA6849F20C6311
:1026B0009A430243CA6020684169A26921F44071CB
:1026C0001143416131492068884202D03049884233
:1026D00002D1FEF7C3FB01E0FEF7B0FBE269002385
:1026E000192164253226B2F5004F626828D0A0FB7C
:1026F0000101930F9200FDF7BDFD0146B0FBF5F01F
:102700006FF01802504301EB800006EB0010B0FBA5
:10271000F5F000F0F002B1FBF5F002EB0012B1FBB6
:10272000F5F06FF01803584301EB800006EB001042
:10273000B0FBF5F000F00F0021681044886070BD18
:10274000A0FB010192185B41FDF794FD0146B0FB2F
:10275000F5F00201B1FBF5F06FF01803584301EBFF
:10276000800006EBC000B0FBF5F000F0F80002EBD3
:102770004002B1FBF5F0584301EB800006EBC000CE
:10278000B0FBF5F000F00700D6E7000000100140B4
:102790000014014081628285C285002101642222E9
:1027A00080F83E2080F83C10016921B10168CA68B8
:1027B00042F48072CA6001684A6942F001024A61CB
:1027C0000068C16841F02001C1600020704700002E
:1027D0000148FFF723B900009C0400200148FFF7DF
:1027E0001DB90000E0040020FEE70907090E0028DB
:1027F00004DB00F1E02080F80014704700F00F00C7
:1028000000F1E02080F8141D7047000094B0FEF73E
:10281000E1F9FFF78FFCFFF711FB3A483849002434
:1028200001603949C0E901144FF48041C0E9034116
:1028300044618461C4610462FEF7CCF808B172B6E9
:10284000FEE7FFF7D1FBFFF76BFB31482F494FF451
:10285000E1350160C0E901540C26C460C0E90446BA
:102860008461C461FFF70EFA08B172B6FEE7FFF7A4
:102870001FFC2748274944300160C0E90154C46067
:10288000C0E904468461C461FFF7FCF908B172B67F
:10289000FEE70122204D540321462846FEF78FF81B
:1028A0004FF47A70FDF766FF1949A1F27C40FFF7FB
:1028B00036FC17494431A1F54670FFF730FC002281
:1028C00021462846FEF77BF8144D02AC48212046ED
:1028D000FDF769FDD5E90001CDE900015022694607
:1028E0000B48FFF789FA0A498831A1F55770FFF7BD
:1028F0001AFC07498831A1F55770FDF7BDFDE5E7E2
:102900000054004070030020801A060000100140AF
:102910009C04002000140140000802402C290008FB
:102920004FF04070E1EE100A70470000FF5AFF0AB6
:10293000010000000000000000000000010203048C
:102940000607080900000000010203046C290008C2
:102950000000002020000000D00100088C290008A1
:1029600020000020B80B0000EC010008000000006F
:102970000000000000000000000000000100000056
:0C29800010000000000000000024F40023
:040000050800019559
:00000001FF
