:020000040800F2
:10000000A01D0020350200089B1E0008BD1B000833
:10001000991E000847040008212500080000000080
:10002000000000000000000000000000A31E000807
:10003000E904000800000000A11E0008A51E000839
:100040004F0200084F0200084F0200084F0200084C
:100050004F0200084F0200084F020008EB0400089E
:100060004F0200084F0200084F0200084F0200082C
:100070004F0200084F0200084F0200084F0200081C
:100080004F0200084F0200084F0200080000000065
:100090000000000000000000000000004F02000807
:1000A0004F0200084F0200084F0200084F020008EC
:1000B000511F00085D1F00084F0200084F02000892
:1000C0004F0200084F0200084F0200084F020008CC
:1000D0004F020008092500084F0200080000000038
:1000E0004F0200084F0200084F0200080000000005
:1000F0000000000000000000000000004F020008A7
:10010000000000004F0200084F0200084F020008E4
:1001100000000000000000000000000000000000DF
:100120004F0200084F0200084F0200084F0200086B
:100130004F02000800000000000000000000000066
:100140000000000000000000000000004F02000856
:100150004F0200084F0200084F0200081525000852
:100160004F0200084F0200080000000000000000DD
:10017000000000000000000000000000000000007F
:10018000000000004F020008000000000000000016
:100190004F02000800F002F800F03CF80AA090E8D6
:1001A000000C82448344AAF10107DA4501D100F032
:1001B00031F8AFF2090EBAE80F0013F0010F18BFC3
:1001C000FB1A43F00103184788790000A879000062
:1001D000103A24BF78C878C1FAD8520724BF30C873
:1001E00030C144BF04680C60704700000023002445
:1001F00000250026103A28BF78C1FBD8520728BF37
:1002000030C148BF0B6070471FB507F0CBFA1FBD68
:1002100010B510BD00F0E2F81146FFF7F5FF05F04C
:1002200009FC00F000F903B4FFF7F2FF03BC00F093
:1002300003F900000948804709480047FEE7FEE748
:10024000FEE7FEE7FEE7FEE7FEE7FEE7FEE7FEE786
:1002500004480549054A064B70470000411F000845
:1002600095010008A0170020A01D0020A019002063
:10027000A019002053EA020C00F069802DE9F04B30
:100280004FF00006002B1FBFB3FA83F503FA05F405
:1002900024FA05F65E4012BF1643B2FA82F502FA5E
:1002A00005F4C5F120051EBF22FA05FC44EA0C0442
:1002B000203556EA044C4FEA144418BF641C4FF032
:1002C00000084FF00009904271EB030C39D300296C
:1002D00019BFB1FA81F701FA07F6B0FA80F700FA10
:1002E00007F6C7F120071EBF20FA07FC46EA0C06F6
:1002F0002037B6FBF4FCA7EB0507103F07F01F0BF8
:10030000CBF120060CFA0BFB2CFA06F644BFB346E1
:100310000026202FA4BF5E464FF0000B5BEA060CC0
:1003200008BF4FF0010B19EB0B09ABFB027C48EB4C
:100330000608C01B06FB02CC0BFB03CC71EB0C01C7
:10034000C1E70B46024641464846BDE8F08B13B56F
:100350004FF000004FF00001AFF30080BDE81C40FB
:1003600070474FF0000200B5134694469646203978
:1003700022BFA0E80C50A0E80C50B1F12001BFF45E
:10038000F7AF090728BFA0E80C5048BF0CC05DF8C4
:1003900004EB890028BF40F8042B08BF704748BF12
:1003A00020F8022B11F0804F18BF00F8012B704786
:1003B00070477047704710B500F008F8006810BD2E
:1003C00010B5044600F002F8046010BD0048704704
:1003D0004017002000487047401700207546FFF77F
:1003E000F9FFAE4605006946534620F007008546F2
:1003F00018B020B5FFF72CFFBDE820404FF00006F5
:100400004FF000074FF000084FF0000B21F00701FC
:10041000AC46ACE8C009ACE8C009ACE8C009ACE83F
:10042000C0098D46704710B50446AFF300802046E2
:10043000BDE81040FFF7F7BE01491820ABBEFEE74C
:10044000260002007047FEE72DE9F0479FED1E0BE6
:100450009FED1F1B1F462DED028B904680ED320B4A
:1004600080ED341B9FED1C1B9FED1D8B80ED361B1B
:1004700080ED380B80ED3A0B8946054680ED3C0B4C
:10048000002400BF09EBC40005EBC40690ED000B8F
:1004900008EBC40086ED0E0B90ED000B07EBC400DB
:1004A00086ED1A0B90ED000B53EC182B51EC100B52
:1004B000383606F081FE641CC6E91801062CE1DB23
:1004C000BDEC028BBDE8F0870000000000000000DA
:1004D00000000000008056C0000000000080664060
:1004E000399D52A246DF913F7047022000F070B85C
:1004F0002DE9F0410446876D00F06CF9064694F84A
:1005000035000025022806D08020606584F834502C
:100510000120BDE8F0812068016821F0160101602A
:100520002068416921F080014161206C08B9A06C0C
:1005300020B12068016821F008010160206801688D
:1005400021F0010101600CE000F044F9801B052856
:1005500007D920206065032084F8350084F83450E2
:10056000D7E720680068C007EED194F85C103F2000
:100570008840B860012084F8350084F834500020A9
:10058000C7E790F83510022903D08021416501208A
:100590007047052180F835100068016821F00101DD
:1005A000016000207047000070B5044600F012F9A9
:1005B0000546601C02D004480078044400F00AF9A3
:1005C000401BA042FAD370BDA80000207047000075
:1005D000044910B50A68024202D00860FFF7F6FF2E
:1005E00010BD0000143C01402DE9F84FDFF8B8A120
:1005F0000022012403254FF00F090AF1040BAAF190
:10060000040E00BF0B6804FA02F63340B34273D104
:100610000F7907F00307012F01D0022F16D1876849
:100620004FEA420805FA08FC27EA0C07D1F80CC08B
:100630000CFA08FC4CEA070CC0F808C04768B7433E
:100640000E79C6F3001696403E4346600E79F64397
:10065000B6070DD0C768560005FA06FC27EA0C0756
:10066000D1F808C00CFA06FC4CEA070CC0F80CC024
:100670000E7906F00306022E10D1D60800EB86088C
:10068000D8F8206057074FEAD76C09FA0CF7BE4339
:100690000F6907FA0CF73743C8F8207006684FEA6D
:1006A000420C05FA0CF7BE430F7907F0030707FA6F
:1006B0000CF7374307604E6816F4403F6DD03B4E51
:1006C000376847F480473760366822F0030706F43E
:1006D00080460096364E07EB060CDCF80868970754
:1006E0003F0F09FA07F826EA0806DFF8C8804045F8
:1006F00003D14FF000081EE04FE0DFF8BC8040451A
:1007000002D14FF0010816E0DFF8B080404502D179
:100710004FF002080FE0DFF8A880404502D14FF00B
:10072000030808E0DFF89C80404502D14FF0040840
:1007300001E04FF0070808FA07F848EA0608CCF885
:100740000888DAF800605746D1F804C09E435FEA93
:10075000CC2C00D51E433E60DBF800605F46D1F82C
:1007600004C09E435FEA8C2C00D51E433E60DEF839
:1007700000607746D1F804C09E435FEA8C3C00D508
:100780001E433E60084F083F3E68D1F804C09E43B8
:100790005FEACC3C00D51E433E60521C102AFFF499
:1007A00031AFBDE8F88F0000083C014044380240FA
:1007B00000300140000002400004024000080240F6
:1007C000000C0240001002400AB181617047090428
:1007D000FBE700000148806870470000A800002087
:1007E00070B5040025D094F83D00002520B984F8A8
:1007F0003C50204600F0B8F8242084F83D002068E2
:10080000016821F0010101602068016841F40041A4
:1008100001602068016821F40041016000F014FAD1
:100820004D4A6168914201D84C4900E04C498842E8
:1008300001D2012070BD4B492368B0FBF1F15E6825
:1008400026F03F060E435E606368934206D94FF47C
:10085000967359434FF47A73B1FBF3F12368491C43
:100860001E6A26F03F06314319626168914210D832
:100870004900401EB0FBF1F2521CC2F30B02042AE5
:1008800001D2042022E0B0FBF1F0401CC0F30B00C9
:100890001CE0A268F2B301EBC10303EB0116431E97
:1008A000B3FBF6F35B1C43F480431B0549D092B3C2
:1008B00001EBC10202EB0111401EB0FBF1F0401C44
:1008C000C0F30B0040F4804040F400402168CA6946
:1008D0004CF6FF739A431043C861D4E907100143F3
:1008E0002068026822F0C00211430160D4E90301CC
:1008F00001432068826848F2FF339A4311438160C4
:10090000D4E9050108432168CA6822F0FF021043B8
:10091000C86001E00EE016E02068016841F00101C6
:1009200001602564202084F83D00256384F83E5052
:10093000002070BD01EB4106431EB3FBF6F35B1CC8
:10094000B3E70120C2E701EB4101401EB0FBF1F02B
:10095000401CC0F30B00B7E7A086010080841E0096
:1009600000093D0040420F0010B586B00446142136
:100970006846FFF7F6FC13492068884220D11248E8
:100980000021026842F002020260006800F00200EA
:100990000590C02000901220CDE9010103200390B2
:1009A0000420049069460948FFF71EFE06481030EF
:1009B000016841F400110160006800F40010059026
:1009C00006B010BD00540040303802400004024020
:1009D000024881680278114481607047A8000020B5
:1009E0000B4810B5016841F400710160016841F4E1
:1009F00080610160016841F480710160032000F0B2
:100A00006FF80F2000F006F800F024F8002010BD69
:100A1000003C024070B50D4D04464FF47A712878C1
:100A2000B1FBF0F00A490968B1FBF0F000F022FBDD
:100A300048B9102C07D200222146501E00F030F891
:100A400000206C6070BD012070BD0000A800002077
:100A5000B40000200A4808B5016841F480410160F3
:100A6000006800F4804000900548001F016841F0D4
:100A700080510160006800F08050009008BD0000C7
:100A800044380240002809DB00F01F020121914098
:100A90004009800000F1E020C0F80011704700001C
:100AA000F0B40E4B1B680C46C3F30223C3F10705D9
:100AB000042D00D90425191D072901D2002300E0C7
:100AC000DB1E012606FA05F1491E214099409E4091
:100AD000761E16403143F0BC01F03BBD0CED00E04A
:100AE000064900F0070208684FF6FF03184040EA85
:100AF0000220034A10430860704700000CED00E03C
:100B00000000FA05704700002DE9F0470E46050089
:100B100065D0DFF81481D8F80000F7B200F00700C4
:100B2000B04207D288F80070D8F8000000F0070043
:100B3000B04254D128683D4C810712D5400703D5F7
:100B4000206840F4E05020602878000703D5206832
:100B500040F4604020602068A96820F0F00008435D
:100B600020602878C0072DD03049686808390128EE
:100B700012D0022813D0032811D009688907002950
:100B80002DDA216821F0030101432160FFF722FEE5
:100B9000814641F2883A0EE009688903EFE7096867
:100BA0008901ECE7FFF716FEA0EB0901514502D9D8
:100BB0000320BDE8F0872068696800F00C00B0EB06
:100BC000810FEFD1D8F80010404601F00701B14283
:100BD00007D90770006800F00700B04201D001207B
:100BE000E7E72878400705D52068E96820F4E05059
:100BF000084320602878000706D52068296920F47A
:100C0000604040EAC100206000F03EF82168084AD8
:100C1000C1F30311515CC8400649086006480068EA
:100C2000FFF7F8FE0020C4E7003C0240083802400D
:100C30009E780008B4000020AC000020014901208B
:100C4000C8647047000047420448054900680968C5
:100C5000044AC1F38221515CC8407047B4000020AF
:100C600008380240AE780008044805490068096861
:100C7000044AC1F34231515CC8407047B4000020BF
:100C800008380240AE780008154810B5006810F02A
:100C90000C02144813D01449042A0FD0082A0ED18C
:100CA0000F4C241F2268236802F03F025B0207D525
:100CB0002068C0F38810A0FB010106E0084610BDC3
:100CC0002168C1F38811A1FB00010023FFF7D2FACC
:100CD0002168C1F30141491C4900B0FBF1F010BD8E
:100CE000083802400024F40040787D01054810B522
:100CF0000068000605D5FFF705FF02498020891C22
:100D0000087010BD0C3802402DE9F84F04006ED079
:100D10002078DFF84C93C007A9F104054AD009F107
:100D200004000168C1F38101012908D00068C0F303
:100D3000810002280AD1D9F80000400206D52868AF
:100D4000800337D560680028E1D033E06068B0F5F3
:100D5000803F10D0B0F5A02F286810D020F480304C
:100D60002860286820F4802028606068A8B1FFF718
:100D700031FD06460DE0286840F48030F4E740F489
:100D800080202860F7E700BFFFF724FD801B642860
:100D900073D828688003F7D50CE0FFF71BFD0646E3
:100DA00005E000BFFFF716FD801B6428F0D8286817
:100DB0008003F7D42078DFF8AC8280074FF0000A78
:100DC0003ED5A748001D016811F00C0F08D000683F
:100DD000C0F3810002280BD1D9F80000400207D4EB
:100DE0002868800716D5E068012800D112E033E1B9
:100DF000E068B8B10120C8F80000FFF7EBFC064638
:100E000005E000BFFFF7E6FC801B0228C0D8286879
:100E10008007F7D52868216920F0F80040EAC10072
:100E200028600DE0C8F800A0FFF7D4FC064604E0F7
:100E3000FFF7D0FC801B02281FD828688007F7D452
:100E40002078000722D5864F87486169703771B1D5
:100E500001210160FFF7BEFC064604E0FFF7BAFC83
:100E6000801B022809D838688007F7D50EE0C0F843
:100E700000A0FFF7AFFC064605E082E0FFF7AAFC02
:100E8000801B02287DD838688007F7D42078400777
:100E900068D5DFF8CCB100270BF13C0BDBF8000084
:100EA000C0000BD4DBF8001041F08051CBF80010EB
:100EB000DBF80000012700F0805000906B4E306896
:100EC000C00510D4306840F480703060FFF782FCB9
:100ED000009005E0FFF77EFC0099401A022850D8E8
:100EE0003068C005F6D55E4EA0686C3601280FD07C
:100EF0000528306810D020F001003060306820F004
:100F000004003060A068B8B1FFF764FC00900FE007
:100F1000306840F00100F4E740F004003060F7E78B
:100F2000FFF758FC0099411A41F28830814266D897
:100F300030688007F4D50EE0FFF74CFC009007E026
:100F4000FFF748FC0099411A41F28830814256D897
:100F500030688007F4D42FB1DBF8001021F0805105
:100F6000CBF80010A069C8B33D49091D0968C1F359
:100F7000810102294AD00228504607D0C8F86000F3
:100F800000E03CE0FFF726FC04463BE04746C8F89B
:100F90006000FFF71FFC064605E000BFFFF71AFCE4
:100FA000801B02282BD828688001F7D4D4E90701D8
:100FB0000843A16A2E4A490802EB0141626A41EAEC
:100FC0008211084394F82C1040EA0161C9F800101E
:100FD00001203866FFF7FEFB044606E03EE000BF56
:100FE000FFF7F8FB001B022809D828688001F7D515
:100FF00034E000BFFFF7EEFB001B022802D90320FC
:10100000BDE8F88F28688001F4D427E00128F7D0E4
:10101000D9F80000E26900F4800191421CD1226AF3
:1010200000F03F01914217D147F6C071626A01405A
:10103000B1EB821F10D1A26A4FF0FF3300F44031B0
:1010400003EB5202B1EB024F06D194F82C1000F0E2
:101050007060B0EB016F01D00120D1E70020CFE735
:101060000438024000004742800E474200700040B2
:101070000000FFFF10B5401EB0F1807F01D30120BA
:1010800010BD4FF0E02460610F21601701F061FA9C
:101090000020A06107202061002010BD704770472C
:1010A00010B590F83C20012A22D0012280F83C2083
:1010B000CA688C6822F4407222434C6822F4806231
:1010C00022430C6822F4006222430C6922F480520D
:1010D00022434C6922F400522243C969002322F4BE
:1010E00080420A4301684A6480F83C30002010BD09
:1010F000022010BD70B590F83C20012A2CD00124AC
:1011000080F83C40022280F83D2003685A689D68C0
:1011100022F070060A6832435A60104B02689A4205
:101120000ED0B2F1804F0BD00D4B9A4208D00D4B30
:101130009A4205D00C4B9A4202D00C4B9A4204D1F1
:10114000496825F080031943916080F83D400021F3
:1011500080F83C10084670BD022070BD00000140C0
:101160000004004000080040000C00400040014026
:1011700010B5040003D094F83D0010B107E0012041
:1011800010BD002084F83C00204600F01FF802202B
:1011900084F83D00211D206800F0E6FE012084F85F
:1011A000460084F83E0084F83F0084F8400084F84C
:1011B000410084F8420084F8430084F8440084F835
:1011C000450084F83D00002010BD000010B586B039
:1011D000044614216846FFF7C4F827482268002116
:1011E00082420AD12548016841F00101016000688E
:1011F00000F00100059006B010BD2048001FB2F1BC
:10120000804F14D01E498A42F5D1016841F0020195
:1012100001600068002200F00200059006211D20F8
:10122000FFF73EFC5FF01D00FFF72CFCE3E70268D0
:1012300042F001020260006800F0010005900F48D2
:101240001438026842F0010202600068022200F0D5
:101250000100059001200090CDE90121CDE90310A6
:1012600069460848FFF7C0F9002205211C20FFF756
:1012700017FC1C20D8E70000000001404438024061
:10128000000400400000024070B5044690F83C00A5
:101290000025012817D0012684F83C60022084F83C
:1012A0003D002068826822F0770222F47F4282604B
:1012B0000868502838D00DDC20284FD005DC90B3CA
:1012C000102811D14AE0022070BD302846D04028B5
:1012D0000AD13BE060282FD070280DD0B0F5805F98
:1012E00003D0B0F5005F12D0012584F83D600020E6
:1012F00084F83C00284670BDCB68D1E90121206804
:1013000000F07EFE2068816841F0770109E0CB683B
:10131000D1E90121206800F073FE2068816841F462
:1013200080418160E1E719E0CA684968206800F0FF
:1013300061FF5021206806E0CA684968206800F013
:10134000A1FF6021206800F065FECEE7CA68496809
:10135000206800F04FFF40212068F4E72268014632
:101360001046F0E770472DE9F041054690F83C0043
:1013700000260C46012810D0012085F83C0072B1EF
:10138000042A1CD0082A2CD00C2A50D00126002078
:1013900085F83C003046BDE8F0810220FBE7D4E947
:1013A0000012E368286800F037FF2868816921F09F
:1013B0000C01816128688169A26811430FE0D4E9BA
:1013C0000012E368286800F06FFF2868816921F443
:1013D0004061816128688169A26841EA02218161D6
:1013E000D5E72868D4E9002C277B016A21F48071B5
:1013F0000162C169036A21F0030141EA0C0121F095
:10140000F00C39074FF420674CEA116123F4206394
:1014100007EA02221A43C16102622868C16921F009
:101420000C01C1612868C169A268114328E02868DD
:10143000D4E90027E168036A23F480530362D0F8FB
:101440001CC0036A2CF4407C4CEA07274FF6FF7C53
:1014500027F470470CEA013139434FF4204723F455
:10146000204307EA02321A43C16102622868C16957
:1014700021F44061C1612868C169A26841EA022182
:10148000C16184E710B5040003D094F83D0010B1A9
:1014900007E0012010BD002084F83C00204600F049
:1014A0001EF8022084F83D00211D206800F05CFD3C
:1014B000012084F8460084F83E0084F83F0084F858
:1014C000400084F8410084F8420084F8430084F826
:1014D000440084F8450084F83D00002010BD7047AA
:1014E00070B50446006801694FF00005C9438907DB
:1014F00015D4C168C943890711D4E91E01610120CF
:101500002077206880698007204602D0FFF72AFFF5
:1015100004E000F0C3F8204600F055F92577206874
:101520000169C943490717D4C168C943490713D49E
:101530006FF004010161022020772068806910F4B7
:10154000407F204602D0FFF70DFF04E000F0A6F830
:10155000204600F038F9257720680169C94309075A
:1015600016D4C168C943090712D46FF0080101619C
:10157000042020772068C0698007204602D0FFF74A
:10158000F1FE04E000F08AF8204600F01CF925770F
:1015900020680169C943C90617D4C168C943C9068F
:1015A00013D46FF010010161082020772068C06912
:1015B00010F4407F204602D0FFF7D4FE04E000F094
:1015C0006DF8204600F0FFF8257720680169C943CF
:1015D000C90708D1C168C943C90704D1891E01617F
:1015E000204600F0F1F820680169C943090609D4D2
:1015F000C168C943090605D46FF080010161204626
:10160000FFF74CFD20680169C943490609D4C16848
:10161000C943490605D46FF040010161204600F03E
:10162000FFF820680169C94389060BD4C168C94322
:10163000890607D46FF0200101612046BDE87040A3
:10164000FFF72DBD70BD000010B586B00446142113
:101650006846FEF786FE0E492068884216D10D487E
:101660000021026842F001020260006800F00100FF
:1016700005904FF4807000900220CDE90101012017
:10168000CDE9031069460448FEF7AEFF06B010BD71
:10169000000001403038024000000240704770B541
:1016A000044690F83C0000260D4601280FD001208A
:1016B00084F83C006AB1042A1DD0082A2FD00C2AD5
:1016C0003FD00126002084F83C00304670BD022047
:1016D00070BD206800F0A6FC2068816941F0080117
:1016E00081612068816921F004018161206881693C
:1016F0002A69114311E0206800F0BCFC2068816970
:1017000041F4006181612068816921F48061816117
:10171000206881692A6941EA02218161D2E7206853
:1017200000F0D4FC2068C16941F00801C161206863
:10173000C16921F00401C1612068C1692A691143AE
:1017400011E0206800F0EEFC2068C16941F40061FE
:10175000C1612068C16921F48061C1612068C169EB
:101760002A6941EA0221C161ACE710B5040003D047
:1017700094F83D0010B107E0012010BD002084F86E
:101780003C00204600F01EF8022084F83D00211D98
:10179000206800F0E9FB012084F8460084F83E0050
:1017A00084F83F0084F8400084F8410084F8420047
:1017B00084F8430084F8440084F8450084F83D0030
:1017C000002010BD70477047704770B5044690F810
:1017D0003C00012812D0012584F83C50022084F8F6
:1017E0003D00204600F0C0FC01004FF0000007D093
:1017F00084F83D5084F83C00012070BD022070BD8B
:101800002168CA6822F04002CA602168CA6822F4CE
:101810008042CA6084F83D5084F83C00002070BDCE
:101820007047704770470000F8B5016804460868C3
:10183000CA684B6910F00F0F4FF0000559D003F044
:10184000010602F49077374365D0C10705D0D10572
:1018500003D5216C41F001012164410705D5D90769
:1018600003D0216C41F002012164810705D5D9071D
:1018700003D0216C41F004012164010707D502F077
:101880002001314303D0216C41F008012164216C17
:1018900000293AD0800604D5900602D5204600F0F3
:1018A0004DFD20684069216CC0F38010090700D409
:1018B00060B3204600F01BFD20684069400621D53A
:1018C0002068143050E8001F21F0400140E8001269
:1018D000002AF5D1A06BA8B16C490165A06BFEF799
:1018E00050FE002811D0A06B016D01B0BDE8F040A2
:1018F000084783060FD593060DD52046BDE8F8406E
:1019000000F01CBD2046FFF78DFFF8BD2046FFF715
:1019100089FF2564F8BD266B2023012E79D1C606E8
:1019200077D5D60675D5086848680090486940069E
:1019300040D5A16B086840680004000CEAD0A28D75
:101940008242E7D9E085C869B0F5807F2DD0206854
:101950000C3050E8001F21F4807140E80012002A8A
:10196000F5D12068143050E8001F21F0010140E853
:101970000012002AF5D12068143050E8001F21F031
:10198000400140E80012002AF5D184F83E3025637A
:1019900020680C3050E8001F21F0100140E80012D0
:1019A000002AF5D1A06BFEF7A3FDA08DE18D401AB2
:1019B00081B229E0A08DE18D401A81B2E08D00282E
:1019C000A8D00029A6D020680C3050E8002F22F4BF
:1019D000907240E80026002EF5D12068143050E8BF
:1019E000002F22F0010240E80026002EF5D184F8F5
:1019F0003E30256320680C3050E8002F22F01002A2
:101A000040E80023002BF5D12046FFF70AFFF8BD80
:101A1000FFE705062BD5150629D594F83D002128AA
:101A2000F5D1A068B0F5805F01D12069B0B1206A1E
:101A3000411C2162216800784860E08C401E00044F
:101A4000000CE084E3D12068C16821F08001C1600E
:101A50002068C16841F04001C160D8E7206A008871
:101A6000C0F308004860206A801C2062E5E7400659
:101A7000CDD55006CBD5CA68204622F04002CA60B8
:101A800084F83D3000F099F8C1E70000DF2200083B
:101A900070B5040004D094F83D00002510B106E0B4
:101AA000012070BD84F83C50204600F023F824202B
:101AB00084F83D002068C16821F40051C1602046CF
:101AC00000F09CFC2068016921F4904101612068CC
:101AD000416921F02A0141612068C16841F4005147
:101AE000C1602564202084F83D0084F83E00002079
:101AF00070BD0000F0B587B0044614216846FEF7BB
:101B000030FC2A49284F26680025284A1439022328
:101B100003242748BE421FD1166846F010061660FF
:101B2000126802F0100205920A6842F001020A608F
:101B3000096801F00101059161028DE82A00072181
:101B4000CDE903416946FEF74FFD0022072125201C
:101B5000FEF7A6FF252022E0164FBE4221D11668CF
:101B600046F020061660126802F0200205920A680C
:101B700042F001020A60096801F0010105914FF489
:101B8000C0518DE82A000821CDE903416946FEF7DE
:101B90002BFD002211464720FEF782FF4720FEF76B
:101BA00071FF07B0F0BD0000001001404438024052
:101BB000000002400014014070477047FEE700003B
:101BC0002DE9F04186B014216846FEF7CAFB314882
:101BD0000024016841F004010160016801F0040182
:101BE0000591016841F080010160016801F0800108
:101BF0000591016841F001010160016801F00101F6
:101C00000591016841F0020101600068224F00F077
:101C100002004FF400560590002231463846FEF788
:101C2000D3FDDFF8788000224FF4C0414046FEF734
:101C3000CBFD01250096CDE9015469463846039451
:101C4000FEF7D2FC022000904FF44410CDE90105CC
:101C500069461348FEF7C8FC0096CDE90154694671
:101C600040460394FEF7C0FCA803CDE9000503201D
:101C7000CDE9024069464046FEF7B6FC00220B2142
:101C80000720FEF70DFF0720FEF7FCFE06B0BDE8BB
:101C9000F081000030380240000802400004024099
:101CA0000000024010B596B000240F9410941194D7
:101CB000129413941C2108A81494FEF752FB2021BF
:101CC0006846FEF74EFB2848264901605421C0E9CA
:101CD00001146421C0E9031444618461FFF748FAE8
:101CE00008B172B6FEE74FF480500F900FA91E485E
:101CF000FFF7CAFA08B172B6FEE71B48FFF735FDD9
:101D000008B172B6FEE7139413A917481494FFF7AD
:101D1000F1F908B172B6FEE76020CDE908040A9433
:101D20000B940C940D94002208A90F480E94FFF711
:101D3000B6FC08B172B6FEE700944FF40050CDE94E
:101D40000440029401940394694607480794FFF7FE
:101D5000A7F908B172B6FEE70348FFF775FC16B0A5
:101D600010BD0000000001406C13002010B590B0C1
:101D7000002409940A940B94142104A80C94FEF7EF
:101D8000F0FA2B4803940094019402940D944FF0C0
:101D900080410E94C0E90014611EC0E90241046153
:101DA0008461FFF7E5F908B172B6FEE74FF48050A1
:101DB000099009A91E48FFF767FA08B172B6FEE755
:101DC0001B48FFF75FFB08B172B6FEE704200490E2
:101DD0005020CDE90504079404A915480894FFF79D
:101DE000F4FC08B172B6FEE70120CDE90040029490
:101DF000002269460E480394FFF7B5FA08B172B69F
:101E0000FEE7022000900190042269460848FFF78F
:101E1000AAFA08B172B6FEE70D940DA904480E9413
:101E2000FFF768F9002801D072B6FEE710B010BDC8
:101E3000B413002010B586B0002416480094019415
:101E400002940394049412490594C0E900145321A8
:101E5000C0E9024104618461FFF78AF908B172B6F2
:101E6000FEE74FF48050009069460A48FFF70CFAED
:101E700008B172B6FEE7049404A906480594FFF77A
:101E800039F9002801D072B6FEE706B010BD000097
:101E900000040040FC130020FEE7FEF727FFFEE7EA
:101EA00070477047FEF794BD30B593B03021684657
:101EB000FEF757FA14210CA8FEF753FA1E48002526
:101EC000016841F080510160006800F0805011907D
:101ED0001A48016821F4404141F400410160006862
:101EE000022400F440401190012000900004019071
:101EF0008001CDE9064019200890A820CDE9090409
:101F000004200B906846FEF7FFFE08B172B6FEE7AC
:101F10000CA90F2081E831004FF480500F901090F1
:101F200002210CA8FEF7F0FD08B172B6FEE7FEF73D
:101F300085FE13B030BD0000403802400070004004
:101F40000248016841F470010160704788ED00E0CB
:101F50000148FFF7C5BA0000B41300200148FFF79D
:101F6000BFBA0000FC130020F0B502681D4B1E4CE8
:101F70009F031E4D1E4E984207D0B84205D0A04286
:101F800003D0A84201D0B04204D122F0700C4A68BC
:101F900042EA0C02984210D0B8420ED0A0420CD0B7
:101FA000A8420AD0B04208D0124CA04205D0124C30
:101FB000A04202D0114CA04203D122F44074CA685E
:101FC00022434C6922F08002224302608A68C26286
:101FD0000A688262984201D1096901630121416165
:101FE000F0BD000000000140000400400008004077
:101FF000000C004000400140004401400048014006
:1020000010B5846842EA032224F47F440A43224341
:10201000826010BD826822F070020A4342F007011C
:102020008160704730B5026A22F001020262026AE2
:102030004368846924F073050C682C4322F0020580
:102040008A682A430A4DA8420BD122F00805CA68C3
:1020500023F440732A434D6922F004021D438B6927
:102060002B434360846149684163026230BD0000D4
:102070000000014030B5026A22F010020262026ADA
:10208000436884690D6824F4E64444EA05248D68B5
:1020900022F0200242EA05120B4DA8420ED1CD6873
:1020A00022F0800242EA05124D6923F4406343EABC
:1020B00085038D6922F0400243EA85034360846111
:1020C00049688163026230BD0000014030B5026A98
:1020D00022F480720262036A4268C46923F40073C6
:1020E00024F073050C682C438D6843EA05230C4DDE
:1020F000A8420ED1CD6823F4006343EA05234D695D
:1021000022F4405242EA05128D6923F4806342EAC8
:1021100005124260C4614968C163036230BD0000BA
:102120000000014030B5026A22F480520262046A63
:102130004268C3690D6823F4E64343EA05238D68CA
:1021400024F4005444EA0534064DA84204D14D69F4
:1021500022F4804242EA85124260C3614968016408
:10216000046230BD0000014070B5036800249A6825
:1021700022F070054A682A4322F007050A682A43BC
:102180009A604A6812F00F0F31D11211082A2ED22C
:10219000DFE802F02E2E2E2E0B2127040B69D1E949
:1021A00002210068FFF72CFF22E00A68052A10D000
:1021B0000268136A156A25F00105156202689569BF
:1021C000096925F0F00545EA011191610068036293
:1021D0000EE0012070BD0A698968006800F00AF805
:1021E00006E00A698968006800F04CF800E0012404
:1021F000204670BD10B5036A046A24F0010404622D
:10220000846924F0F00444EA021423F00A020A4329
:102210008461026210BD000070B5046A24F00104FC
:1022200004628469056A124EB0420ED0B0F1804F4C
:102230000BD0104EB04208D00F4EB04205D00F4E1A
:10224000B04202D00E4EB04203D124F00304144336
:1022500001E044F001041A0724F0F00444EA126299
:1022600025F00A0301F00A0119438261016270BD81
:10227000000001400004004000080040000C004045
:102280000040014010B5036A23F010030362836924
:10229000046A23F4704343EA023224F0A00343EAC1
:1022A00001118261016210BD30B5046A24F010048E
:1022B00004628469056A24F4407444EA022222F428
:1022C00070444FF6FF7202EA03322243A02425F045
:1022D000A00304EA011119438261016230BD10B507
:1022E000806B0021C185C184FFF79CFA10BD016895
:1022F0000C3151E8002F22F4907241E80023002BAA
:10230000F5D10168143151E8002F22F0010241E8B3
:102310000023002BF5D1016B012909D101680C3193
:1023200051E8002F22F0100241E80023002BF5D1E4
:10233000202180F83E1000210163704708B590F815
:102340003E10222901D0022008BD82684FF480533C
:102350009A4201D1016921B1816A9A421BD04AB1E6
:102360000AE00268816A5268C2F308020A80816A40
:10237000891C08E0026972B10268526802F07F02AB
:102380000A70816A491C8162C18D491E0904090CC9
:10239000C18503D019E002685268F1E70168CA6894
:1023A00022F02002CA600168CA6822F48072CA6002
:1023B00001684A6922F001024A61202180F83E103A
:1023C000016B012903D0FFF7F7FB002008BD0021B6
:1023D000016301680C3151E8002F22F0100241E83E
:1023E0000023002BF5D101680A68D20602D50A68DD
:1023F00049680091818DFFF714FAE6E770B504464D
:1024000000680169E26821F44051114301612169CA
:10241000A068E26908436169114308432168CA68FA
:1024200049F20C639A430243CA6020684169A26979
:1024300021F440711143416131492068884202D042
:102440003049884202D1FEF70FFC01E0FEF7FCFBA9
:10245000E2690023192164253226B2F5004F626833
:1024600028D0A0FB0101930F9200FDF703FF014666
:10247000B0FBF5F06FF01802504301EB800006EB63
:102480000010B0FBF5F000F0F002B1FBF5F002EB4C
:102490000012B1FBF5F06FF01803584301EB800018
:1024A00006EB0010B0FBF5F000F00F0021681044BF
:1024B000886070BDA0FB010192185B41FDF7DAFE58
:1024C0000146B0FBF5F00201B1FBF5F06FF0180327
:1024D000584301EB800006EBC000B0FBF5F000F0C4
:1024E000F80002EB4002B1FBF5F0584301EB80002D
:1024F00006EBC000B0FBF5F000F00700D6E70000E7
:1025000000100140001401400148FFF78DB90000A0
:10251000441400200148FFF787B900008814002008
:10252000FEE703B401984100009850EAC12018BFAB
:1025300004204A0D18BF40F0010040F2FF72B2EBD8
:10254000515F08BF40F00200012808BF052002B01B
:1025500070470907090E002804DB00F1E02080F82D
:102560000014704700F00F0000F1E02080F8141D07
:10257000704700000000000010B5B94A2DED020BB5
:102580002DED0C8B82B00F9921F000409FEDB6CB62
:1025900090422CDBA0F140530E9AA3F17F631A43C3
:1025A0000FD0B349884202DC16D10E98A0B19DED40
:1025B0000E0B02B0BDEC0C8B02B0BDE8104001F078
:1025C00023BF0029C1BF9FEDAC0B02B0BDEC0C8B4B
:1025D00002B0C8BF10BD16E00120FDF7F1FE02B049
:1025E000BDEC0C8B02B0BDE8104001F021BFA44A45
:1025F0009FEDA59B9FEDA6AB90425EDAA6499FEDAD
:10260000A8CB814208DBB0EE4C0AF0EE6C0A02B0B7
:10261000BDEC0C8B02B010BD9DED0E0B53EC102BDE
:1026200051EC100B04F0C8FD41EC180B9E4806213C
:10263000B0EE480AF0EE680A784401F0B9FD53ECB8
:10264000182B51EC100B04F0B7FD41EC1B0B974815
:10265000B0EE480AF0EE680A0421784401F0A8FDC3
:1026600053EC182B51EC100B04F0A6FD53EC192B76
:1026700004F0BCFA41EC100B51EC1B0B53EC102B8B
:1026800004F070FB41EC100B53EC102B9DED0E0B86
:1026900051EC100B04F090FD53EC1A2B04F0C0FE2B
:1026A0009DED0E1B53EC112B04F0BAFE53EC1C2BCA
:1026B00004F0B6FE41EC100BA9E79FED7D8B9FED7A
:1026C0007EBB9DED0E0B002953EC192B51EC100B2A
:1026D00052DA04F08BFA53EC182B04F06DFD41EC48
:1026E000180B77480621B0EE480AF0EE680A7844E5
:1026F00001F05EFD53EC182B51EC100B04F05CFD67
:1027000041EC1D0B6F48B0EE480AF0EE680A042158
:10271000784401F04DFD53EC182B51EC100B04F0F4
:102720004BFD53EC192B04F061FA41EC190B51EC01
:10273000180B04F0E7F941EC180B53EC192B51EC92
:102740001D0B04F00FFB53EC182B04F035FD53EC7C
:102750001A2B04F03DFF41EC100B51EC180B53EC1D
:10276000102B04F043FA53EC1B2B04F025FD53EC23
:102770001C2B04F055FE6DE004F052FE53EC182BB8
:1027800004F01AFD41EC180B04F0BCF941EC1A0BF3
:1027900000208DED00AB00909DED000B51EC1A0B6D
:1027A00053EC102B04F022FA9DED000B41EC1C0BB6
:1027B00053EC102B51EC100B04F0FEFC53EC182BD7
:1027C00004F02EFE53EC1C2B04F0CCFA41EC1C0B55
:1027D0003D48B0EE480AF0EE680A0621784401F060
:1027E000E7FC53EC182B51EC100B04F0E5FC41EC2A
:1027F0001D0B3648B0EE480AF0EE680A0421784412
:1028000001F0D6FC53EC182B51EC100B04F0D4FC67
:1028100053EC192B04F0EAF941EC100B51EC1D0BB1
:1028200053EC102B04F09EFA53EC1A2B04F0C4FC6A
:1028300053EC1C2B04F0DAF941EC100B53EC102B89
:102840009DED000B51EC100B04F0D0F953EC1B2B59
:1028500004F0B2FC41EC100BD9E6000000000000CF
:102860000000F03F00000000182D4454FB210940F7
:102870000000F07F000000000000000000000000E9
:102880000000E03F00000000000000000000F03FFA
:10289000075C143326A6913C0000603C0000000059
:1028A000182D4454FB21F93F7C5200008A5200004D
:1028B000000000000000E03F0000000000000040B9
:1028C000C6510000D4510000D8500000E65000006E
:1028D00070B59B482DED020B2DED068B079D25F065
:1028E0000044A04218DC9748844202DC0AD10698D2
:1028F00040B19DED060BBDEC068B02B0BDE870400B
:1029000001F082BD002DCCBF9FED8F0B9FED900B92
:10291000BDEC068B02B070BD8F48A04215DD8F481C
:10292000A042D8BF4FF0FF3458DD9DED060B51ECAF
:10293000100BFFF7F6FD042808BF01F099FD9DED8F
:10294000060BBDEC068B02B070BD9DED060B51EC85
:10295000100B01F0DBFFCDE9060181489FED828B72
:10296000A0423CDD8248A0421FDD00249FED82ABE7
:102970009DED060B53EC1A2B51EC100B04F036F9BD
:102980009DED060B41EC190B53EC1A2B51EC100B7F
:1029900004F012FC53EC182B04F01AFE53EC192B24
:1029A00004F0E0F9CDE9060149E09DED060B0124B4
:1029B00053EC182B51EC100B04F018F99DED060B9D
:1029C00041EC190B53EC182B51EC100B04F000FEEA
:1029D00053EC192B04F0C6F9CDE906012FE0684845
:1029E000A0421FDD02249FED689B9DED060B53EC7A
:1029F000192B51EC100B04F0DFFB53EC182B04F0F7
:102A0000F5F89DED060B41EC180B53EC192B51EC2E
:102A1000100B04F0DDFD53EC182B04F0A3F9CDE905
:102A200006010CE09DED060B032453EC102B9FEDEB
:102A3000580B51EC100B04F095F9CDE906019DED12
:102A4000060B53EC102B51EC100B04F0B5FB41ECD2
:102A5000180B53EC182B04F0AFFB41EC190B4E484C
:102A60000621B0EE490AF0EE690A784401F0A0FBB5
:102A700053EC182B51EC100B04F09EFB41EC180B9F
:102A80004648B0EE490AF0EE690A0521784401F0A3
:102A90008FFB53EC192B51EC100B04F08DFB41EC28
:102AA000100B51EC180B53EC102B002C0EDA04F029
:102AB0009DF89DED061B53EC112B04F07DFB9DED65
:102AC000061B53EC112B04F0ABFC35E004F08EF840
:102AD0009DED061B53EC112B04F06EFB41EC100B2B
:102AE0002F48784400EBC40090ED001B51EC100B14
:102AF00053EC112B04F06CFD9DED061B53EC112BD8
:102B000004F066FD41EC100B2648784400EBC4004D
:102B100090ED001B51EC100B53EC112B04F080FCDA
:102B200041EC100B002DA2BFBDEC068B02B070BDB6
:102B300051EC100B04F04EF841EC100B01E70000D3
:102B4000000010440000F07F182D4454FB21F93F91
:102B5000182D4454FB21F9BF0000DC3F0000203E4B
:102B60000000F33F00000000000000000000F03F04
:102B70000000E63F000000000000000000000040F0
:102B80000080034000000000000000000000F83F4B
:102B9000000000000000F0BF8A4F0000404F00001E
:102BA000CA4E0000824E000070B56F4E2DED040B32
:102BB0002DED048B82B0DDF824C0DDE907235C42F3
:102BC0002CF000411C4341EAD474069D22F00040E1
:102BD000B44205D86C422C4340EAD474B4420BD9B9
:102BE0009DED081B9DED060B02B0BDEC048B04B0FF
:102BF000BDE8704001F012BCACF14054A4F17F6418
:102C00001C430BD0022404EAAC7444EAD27405439A
:102C10009FED578B9FED582B07D015E09DED060BD0
:102C200051EC100B01F034FC42E0002C11BF012CE0
:102C30009DED060B02B0BDEC048B04BF04B070BD6B
:102C4000022C38D0032C3BD00B439FED4D1B9FED46
:102C50004E0B0AD0B14218D1B04209D121F08041C7
:102C600020F08040099107900FE0002A15DA10E06B
:102C7000474B7B44002C08BF93ED000B0DD0012C7B
:102C800010D0022C17D0032C1AD0B0421DD1002A2C
:102C900003DAB0EE410AF0EE610A02B0BDEC048B3B
:102CA00004B070BD93ED000B51EC100B03F092FFDC
:102CB00041EC100BF1E7B0EE480AF0EE680AECE7E1
:102CC000B0EE420AF0EE620AE7E7401A00159FED07
:102CD000329B3C28C8BF8DED000B17DCBCF1000F08
:102CE000BCBF10F13C0F8DED009B0FDB9DED080B81
:102CF00053EC102B9DED060B51EC100B04F032F849
:102D000001F004FE01F0C4FBCDE90001B4B1012CD7
:102D100010D0022C9FED220B53EC102B9DED000BDD
:102D200051EC100B19D004F053FC53EC182B04F0A9
:102D30004FFCBDE7019880F0004001909DED000B35
:102D400053EC192B51EC100B04F064F904BF022072
:102D5000FDF736FB9DED000B9FE704F039FC53ECCB
:102D6000182B04F05DFBA3E70000F07F00000000DB
:102D7000182D4454FB210940182D4454FB2109C04F
:102D8000182D4454FB21F9BF182D4454FB21F93F61
:102D9000E24D000000000000000000000000000004
:102DA000075C143326A6A13C10B52F499FED2C1BC0
:102DB0002DED020B84B0059820F000408842D8BF6A
:102DC0009DED040B2DDD2949884209D1049840B9B5
:102DD0004FF00100FDF7F4FA01F02AFB06B010BD38
:102DE00005DB9DED040B01F00FFB06B010BD68463E
:102DF0009DED040B00F008FF10F0030004BF9DEDF3
:102E0000021B9DED000B0CD001280ED09DED021B86
:102E10009DED000B022817D0012001F045FA06B005
:102E200010BD01F00DF906B010BD9DED021B9DED2A
:102E3000000B012001F038FA51EC100B03F0CAFE30
:102E400006B041EC100B10BD01F0FAF851EC100B7C
:102E500003F0C0FE06B041EC100B10BD00000000F6
:102E60000000000000000000FB21E93F0000F07FAF
:102E70002DE9F04D2DED040B2DED0E8B96B0DDE917
:102E80002550279CDDF890A025F0004624F000484E
:102E9000BAF1000F14BF0121002101EB4502FC49EA
:102EA00053184A1093422AD3002814BF0123002349
:102EB00003EB44030B44F7498B4220D358EA00014B
:102EC0009FEDF59B76D0DFF8D8B35D4503D1BAF11D
:102ED000000F05D188E0BAF1000F08BF002100D033
:102EE000012101EB450111F5001F08D8002814BF8E
:102EF0000121002101EB440111F5001F0BD99DEDCB
:102F0000261B9DED240B16B0BDEC0E8B04B0BDE866
:102F1000F04D01F083BA0027002DBCBFE149884580
:102F200021DAE1498845A8BF02271CDAC3451ADC2B
:102F3000DE4901EB2851142908DDC1F1340220FAE1
:102F400002F101FA02F282420DD108E058B9C1F152
:102F5000140228FA02F101FA02F2424503D101F00B
:102F60000101C1F1020756EA0A0124D1002C22DA3C
:102F7000002D18BF022F01D0012F0AD00220FDF72B
:102F80001FFA16B0BDEC0E8B04B0BDE8F04D01F099
:102F900023BA0220FDF714FA01F01EFA51EC100BCF
:102FA00003F018FE41EC100B16B0BDEC0E8B04B014
:102FB000BDE8F08D18E09FEDBEAB9FEDBF8B002804
:102FC00071D1B848804522D105F1804010F58010BC
:102FD00008BFBAF1000F07D0B3450ADC002CA8BF28
:102FE0009DED260BE0DA0DE0B0EE490AF0EE690A3D
:102FF000DAE7002C06DA9DED260B51EC100B03F0FE
:10300000E9FD6FE0AE48784490ED000BCCE7D84581
:103010004DD1002C48DA2EB186423AD1BAF1000FD8
:1030200042D126E0BAF1000F13D00220FDF7C8F913
:1030300001F00EFA8DED020B9DED240B8DED000BD2
:1030400010EE900A039961F31E0003909DED020BB0
:10305000AAE78DED02AB9DED240B1AEE901A10EE4F
:10306000900A8DED000B61F31E0003909DED020BA5
:103070009AE78DED028B9DED240B18EE901A10EE61
:10308000900A8DED000B61F31E0003909DED020B85
:103090008AE709DA9DED240B51EC190B53EC102B48
:1030A00003F060FE1EE020E09DED240B7CE78642ED
:1030B0001BDAB4F1804F0DD0A4F10050B0F1FF50F5
:1030C00013D1002D11DB9DED240B51EC100B03F0FF
:1030D00019FD07E09DED240B53EC102B51EC100B68
:1030E00000F0C2BC41EC100B5EE79DED240B51ECEF
:1030F000100B01F00BFCBAF1000FCDE90E0142D12B
:103100009FED710B46B3A6F1E040B0F17F600CD0AB
:103110005E4538D1002D00DAA7B3022F0CBF012085
:103120004FF0FF3003F0E1FFDCE7002D01DD002C64
:103130000DDA002D01DD002C1FDB002D16DA002C2E
:1031400014DB012F08BF9FED620B3FF42DAFB0EEF3
:103150004A0AF0EE6A0A27E7022F18BF002D0CD0AA
:10316000012F0AD1002DFFF61FAF06E0002DB8BFDA
:10317000002C08DA012F3FF417AFB0EE480AF0EE4A
:10318000680A11E71BE0012000EBE57050EA070137
:1031900015D0791EB0EE498AF0EE698A084308BF5F
:1031A0009FED4D8B4E480025804570DD4D494E48C2
:1031B000884514DDB0420DDB002C19DB2FE0012027
:1031C000FDF7FEF816B0BDEC0E8B04B0BDE8F04D77
:1031D00001F02EB9B34502DC002C09DC1FE0864269
:1031E00002DA002C1BDA03E05E452BDD002C16DD35
:1031F0000220FDF7E5F801F02BF98DED020B53EC01
:103200001A2B51EC180B03F0D7FFCDE900010399FD
:10321000019861F31E0003909DED020BC4E60220AD
:10322000FDF7CEF801F024F910EE901A18EE900A8E
:103230008DED020B8DED008B61F31E0003909DED73
:10324000020BB1E69DED0E0B53EC192B51EC100B5C
:1032500004F0BEF99FED260BCDE9080153EC102BCD
:103260009DED080B51EC100B03F0A6FF9FED221B08
:1032700053EC112B04F0D4F89DED081B53EC112BEB
:1032800003F09AFF9FED1E1B53EC112B3CE08CE0EA
:10329000FFFF1F00FFFF0F00000000000000F03FD5
:1032A0000000F03F0000F07F0000404301FCFFFF02
:1032B000000000000000F07F00000000000000009F
:1032C0004E4A0000000000000000000000000080E6
:1032D000000000000000F0FF000000000000F0BF50
:1032E0000000E0410000F043FFFFEF3F000000005E
:1032F000000000000000D03F555555555555D53FAD
:10330000000000000000E03F04F08AF89DED080B8B
:1033100041EC1A0B53EC102B51EC100B03F04CFF4B
:1033200053EC1A2B03F048FF41EC1A0B9FEDFE0BF8
:1033300053EC102B9DED080B51EC100B03F03CFFF0
:1033400041EC1B0B9FEDFA0B51EC1A0B53EC102BBD
:1033500003F032FF41EC1A0B9FEDF70B53EC102BEF
:103360009DED080B51EC100B03F026FF53EC1A2BCC
:1033700004F02EF941EC1A0B51EC1B0B53EC1A2BF9
:1033800003F034FC0690CDE906519DED060B53EC9D
:103390001B2B51EC100B04F01BF953EC1A2B04F00F
:1033A0003FF841EC100B00F0A1B90020B6F5801FEA
:1033B0000EDA9FEDE30B53EC102B9DED0E0B51EC51
:1033C000100B03F0F9FECDE90E016FF034000E464C
:1033D00000EB2650A0F2FF37C6F31300DA4940F0A5
:1033E0007F6646F040568842D8BF002408DDD749A2
:1033F0008142C8BF012403DC0024A6F580167F1C8F
:10340000D348784400EBC4000F9690ED00CB9DEDBF
:103410000E0B53EC1C2B51EC100B04F0D9F89DED66
:103420000E0B41EC1B0B53EC1C2B51EC100B03F05F
:10343000DDFB41EC100B51EC190B53EC102B03F09E
:1034400091FC41EC1D0B51EC1B0B53EC1D2B03F0BD
:10345000B3FE41EC1A0BBF488DED10AB78441095CC
:1034600090ED000B4FF0005040EA660000EB844006
:103470008DED080B00F5002009909DED080B53EC35
:103480001C2B51EC100B04F0A3F89DED0E1B53EC1C
:10349000112B03F0C5FF41EC100B53EC102B9DEDED
:1034A000100B51EC100B03F087FE9DED080B41EC67
:1034B0001C0B53EC102B9DED100B51EC100B03F07B
:1034C0007BFE53EC1B2B03F0ABFF53EC1C2B04F0E7
:1034D0007FF853EC1D2B03F06FFE41EC1C0B53ECFB
:1034E0001A2B51EC1A0B03F067FE41EC1B0B9A48A8
:1034F0000621B0EE4B0AF0EE6B0A784400F058FE5D
:10350000B0EE401AF0EE601AB0EE41DAF0EE61DA99
:1035100053EC1B2B51EC1B0B03F04EFE53EC1D2BFD
:1035200003F04AFE9DED100B41EC1B0B53EC1A2BE4
:1035300051EC100B03F05AFB53EC1C2B03F03CFE38
:1035400053EC1B2B03F052FB9DED100B41EC1B0BBE
:1035500053EC102B51EC100B03F02EFE41EC1D0B25
:103560009FED7FEB53EC1E2B03F040FB53EC1B2B2A
:1035700003F03CFB0890CDE908519DED080B53EC9E
:103580001E2B51EC100B04F023F853EC1D2B04F010
:103590001FF853EC1B2B03F043FF9DED080B41EC90
:1035A0001D0B53EC102B9DED100B51EC100B03F089
:1035B00003FE41EC1B0B53EC1A2B51EC1D0B03F0DB
:1035C000FBFD9DED080B41EC1A0B53EC102B51EC5D
:1035D0001C0B03F0F1FD53EC1A2B03F007FB41EC3D
:1035E0001A0B51EC1B0B53EC1A2B03F0FFFA0C9047
:1035F000CDE90C519DED0C0B53EC1B2B51EC100B3A
:1036000003F0E6FF53EC1A2B03F00AFF41EC1B0B0F
:103610009FED550B53EC102B9DED0C0B51EC100B4B
:1036200003F0CAFD41EC1A0B9FED510B51EC1B0B43
:1036300053EC102B03F0C0FD41EC1B0B9FED4E0B28
:1036400053EC102B9DED0C0B51EC100B03F0B4FD63
:1036500053EC1B2B03F0CAFA41EC100B484878449A
:1036600000EBC40090ED001B51EC100B53EC112B40
:1036700003F0BCFA41EC1B0B384603F036FDCDE9F4
:10368000080153EC1B2B51EC1A0B03F0AFFA41EC81
:10369000100B3C48784400EBC40090ED00CB51EC9B
:1036A000100B53EC1C2B03F0A1FA9DED081B53ECFF
:1036B000112B03F09BFA0690CDE906519DED080B06
:1036C00053EC102B9DED060B51EC100B03F080FF1B
:1036D00053EC1C2B03F07CFF53EC1A2B03F078FF08
:1036E00053EC1B2B03F09CFE41EC100B9DED261BB5
:1036F00053EC102B8DED001B00959DED260B51EC2E
:10370000100B03F059FD9DED000B41EC1A0B53EC2F
:10371000102B9DED260B51EC100B03F059FF9DED86
:10372000061B53EC112B2FE0000000604715F73FFC
:10373000FE822B654715F73F44DF5DF80BAE543E24
:1037400000000000000040438E9803007AB60B0092
:1037500002450000F84500003A4400000000000067
:103760000000000000000840000000E009C7EE3F34
:10377000FD033ADC09C7EE3FF5015B14E02F3EBEC6
:10378000C64200008042000003F016FD53EC1A2BE5
:1037900003F02CFA9DED060B41EC1A0B53EC102BA9
:1037A0009DED000B51EC100B03F006FDCDE90C0173
:1037B0009DED0C0B51EC1A0B53EC102B03F016FA89
:1037C000CDE902010C46AA498C422FDB611A08435D
:1037D00018D19DED0C0B53EC102B9DED020B51EC11
:1037E000100B03F0F5FE41EC1B0B9FEDA30B51EC0E
:1037F0001A0B53EC102B03F0F9F953EC1B2B03F0CD
:10380000D9FD2DD20220FCF7DBFD00F021FE10EEE9
:10381000901A18EE900A8DED020B8DED008B61F37E
:103820001E0003909DED020BFFF7BEBB944A24F0EF
:103830000041914214D39349214408437FF4EFACF3
:103840009DED0C0B53EC102B9DED020B51EC100B6E
:1038500003F0BEFE53EC1A2B03F0ACFD7FF6DFAC99
:1038600024F000408849894A002601EB2051824219
:103870002BDA481C4FF4801121FA00F02044844ACE
:10388000C0F30A517A44A1F2FF3192ED000B814A54
:103890008DED080BCA4020EA0202C0F3130040F489
:1038A0008010C1F1140120FA01F60992002CB8BF72
:1038B00076429DED080B53EC102B9DED0C0B51EC5B
:1038C000100B03F085FECDE90C019DED0C0B51ECC6
:1038D0001A0B53EC102B03F089F99FED6F0B089036
:1038E000CDE9085153EC102B9DED080B51EC100B5A
:1038F00003F062FC41EC1B0B9FED690B53EC102BAA
:103900009DED080B51EC100B03F056FC9DED0C0BDC
:1039100041EC1C0B53EC102B9DED080B51EC100BE4
:1039200003F056FE53EC1A2B03F07AFD9FED5E1B5D
:1039300053EC112B03F040FC53EC1C2B03F056F915
:1039400041EC1A0B51EC1B0B53EC1A2B03F04EF904
:10395000CDE902019DED020B53EC1B2B51EC100B3A
:1039600003F036FE53EC1A2B03F05AFD9DED020BCB
:1039700041EC1A0B53EC102B51EC100B03F01CFC18
:10398000CDE908014A489DED080B0521784400F077
:103990000FFC9DED081B51EC100B53EC112B03F0A9
:1039A0000BFC9DED021B53EC112B03F039FDCDE90F
:1039B00006019DED020B53EC1A2B51EC100B03F09A
:1039C000FBFB53EC1A2B03F011F99FED3B0B41EC81
:1039D0001A0B53EC102B9DED060B51EC100B03F062
:1039E000F7FD9DED060B41EC1B0B53EC102B9DEDF1
:1039F000020B51EC100B03F0DFFB53EC1B2B03F01D
:103A0000B1F953EC1A2B03F0E3FD9DED021B53ECCF
:103A1000112B03F0DDFD53EC192B03F001FDCDE973
:103A2000020101EB065001150029C8BF039015DC07
:103A30009DED020B324651EC100B03F0EAFEFEF74F
:103A400070FD042808BF00F013FD32469DED020B07
:103A500051EC100B03F0DDFECDE902019DED020BF0
:103A600051EC180B53EC102B03F0A6FBFFF73ABBFD
:103A70000000904000000000FE822B654715973C37
:103A800000CC904000346F3F01FCFFFF0000E03F9E
:103A9000D0410000FFFF0F0000000000432EE63F72
:103AA000396CA80C615C20BEEF39FAFE422EE63F6D
:103AB000D83F0000000000000000000000000040AF
:103AC00010B52F499FED2C1B2DED020B84B00598EE
:103AD00020F000408842DCBF00209DED040B32DD69
:103AE0002849884209D1049840B94FF00100FCF7F9
:103AF00067FC00F09DFC06B010BD05DB9DED040BDE
:103B000000F082FC06B010BD68469DED040B00F08D
:103B10007BF810F0030011D0012818D09DED021B96
:103B20009DED000B02281AD000F08AFA51EC100B20
:103B300003F050F806B041EC100B10BD9DED021BD8
:103B40009DED000B012000F0AFFB06B010BD9DED18
:103B5000021B9DED000B00F073FA06B010BD0120B2
:103B600000F0A2FB51EC100B03F034F806B041EC6E
:103B7000100B10BD0000000000000000000000005D
:103B8000FB21E93F0000F07F00B52DED048BB0EE86
:103B9000409AF0EE609A83B051EC190B03F04CFCA4
:103BA00041EC180B18EE100A18EE901A8DED008BF0
:103BB000002818BF0120084320F00040C0F17F60BA
:103BC00000F1E040C00F14D019EE101A19EE900A5F
:103BD0008DED009B002918BF0121084320F0004013
:103BE000C0F17F6000F1E040C00F04BF0120FCF78E
:103BF000E7FBB0EE480A03B0F0EE680ABDEC048BB8
:103C000000BD0000000000002DE9F14F04462DED3D
:103C1000020B2DED088B8AB09FEDE70B80ED020BB8
:103C2000139EE74826F0004585420ADC9DED120B05
:103C3000002084ED000B0AB0BDEC088B03B0BDE89A
:103C4000F08FE0489FEDE0AB9FEDE1BBA84247DD80
:103C5000E14F9FEDE39B9FEDE48B9DED120B53EC49
:103C60001A2B51EC100B002E1CDD03F0B1FC41ECC3
:103C7000100BBD4208D053EC1B2B51EC100B03F082
:103C8000A7FCC4E900010BE053EC192B51EC100B1D
:103C900003F09EFC53EC182B03F09AFCC4E90001DE
:103CA0000120C8E702F0A2FF41EC100BBD4208D092
:103CB00053EC1B2B51EC100B02F098FFC4E90001F0
:103CC0000BE053EC192B51EC100B02F08FFF53EC6F
:103CD000182B02F08BFFC4E900014FF0FF30AAE778
:103CE000C348A84279DB9DED120B51EC100B00F09C
:103CF0000DFE41EC180B9FEDC00B53EC102B03F0A5
:103D00005BFA9FEDBF1B53EC112B02F06FFF03F02A
:103D1000BDF9074603F0E9F941EC190B53EC1A2BF6
:103D200003F04AFA53EC182B03F07AFB41EC180B22
:103D300053EC1B2B51EC190B03F03EFADFF8C8A231
:103D400041EC100B4FEA15580125FA4453EC102BA7
:103D500051EC180B03F03CFC032DC4E900013DD0ED
:103D6000C1F30A5005EB4511A8EB0000113981425F
:103D700034DA0AEB051BB0EE48AA9BED000BF0EE1F
:103D800068AA53EC102B51EC190B03F015FA41EC17
:103D90001B0B51EC1A0B53EC1B2B03F019FC41ECE1
:103DA000180B51EC1A0B53EC182B03F011FC53ECCD
:103DB0001B2B03F00DFC9BED020B41EC1A0B53EC9B
:103DC000102B51EC190B03F0F7F953EC1A2B03F0FD
:103DD000FFFB41EC100B6D1CB8E70EE0002EA8BFF6
:103DE0003846BFF628AF94ED000B51EC100B02F0F3
:103DF000F1FEC4E9000178421DE7C6F3130040F468
:103E0000801EC6F30A50A0F2F530471100F01F05DE
:103E1000C5F12000DDF848B008900020069007901A
:103E20000520EC467949002D07EB0002794408BFD4
:103E300051F8221009D051F8223001EB8201AB4039
:103E40004A68089922FA01F11943A1FB0E26A1FB49
:103E50000B131A449A4234BF0123002303EB0608D4
:103E60000CEB8003D3E901A60E448E4234BF01213E
:103E7000002192448A4411B1924502D903E092454F
:103E800001D2012100E00021C3E901A641444CF820
:103E90002010011EA0F10100C4DC029800F10050C6
:103EA000850F0298DDE903678000DDF8148003F0D8
:103EB0001CF941EC1A0B304603F02EF99FED541B10
:103EC00053EC112B03F078F941EC1B0B384603F04F
:103ED00023F99FED511B53EC112B03F06DF941ECCD
:103EE000180B404603F018F99FED4D1B53EC112BB6
:103EF00003F062F941EC190B51EC180B53EC192B40
:103F000002F074FE53EC1B2B02F070FE53EC1A2BE4
:103F100002F06CFECDE90801002008909DED080B31
:103F200053EC1A2B51EC100B03F052FB53EC1B2BF0
:103F300003F04EFB53EC182B03F04AFB53EC192B08
:103F400003F06EFA9FED381B53EC112B03F034F99C
:103F50009FED370B41EC180B53EC102B9DED080B2C
:103F600051EC100B03F028F953EC182B02F03EFE35
:103F70009FED310B41EC180B53EC102B9DED080B12
:103F800051EC100B03F018F953EC182B02F02EFE35
:103F900041EC100B139810F0004F06D06D4251EC1D
:103FA000100B02F017FE41EC100B284684ED000BBD
:103FB00041E60000000000000000000000000000DA
:103FC000FB21E93F7CD9024000004054FB21F93F2E
:103FD0003163621A61B4D03DFB21F93F000000005B
:103FE0000000601A61B4D03D7370032E8A19A33BA0
:103FF000FB2139410000000083C8C96D305FE43FF8
:10400000000000000000E03F123D0000603C0000A6
:10401000000000000000103E000000000000103C06
:10402000000000000000103A182D4454FB21F93D17
:104030003326A611460B113C00000054FB21F93D2C
:1040400010B52DED040B2DED088B82B0B0EE419A2A
:10405000F0EE619A0B9820F000449FED4BABB4F169
:10406000795F11DA9DED0A0B51EC100B03F00EF89D
:10407000002801BFB0EE4A0AF0EE6A0A02B0BDECB9
:10408000088B04BF04B010BD9DED0A0B53EC102B40
:1040900051EC100B03F090F841EC180B3C48062152
:1040A000B0EE480AF0EE680A784400F081F853EC6C
:1040B000182B51EC100B03F07FF89DED0A0B41EC2F
:1040C0001B0B53EC192B51EC100B03F075F841EC62
:1040D000190B53EC1B2B51EC180B03F06DF853EC40
:1040E000192B03F075FA9FED2C0B41EC190B53ECD7
:1040F000102B51EC180B03F05FF841EC100B284823
:10410000844210DA53EC192B51EC100B03F060FAD7
:1041100053EC1A2B03F084F941EC100B02B0BDEC08
:10412000088B04B010BD1F48A042BCBF9FED1E1BF2
:104130008DED001B06DBA4F500100190002000901F
:104140009DED001B51EC100B53EC112B03F040FACA
:104150009DED000B41EC180B53EC102B51EC1A0B9E
:1041600003F036FA41EC1A0B53EC192B51EC180BF7
:1041700003F02EFA53EC1A2B03F052F941EC100B1A
:10418000CCE7000000000000000000000000F03F4D
:104190007C39000000000000000000000000E03F4B
:1041A0003333D33F0000E93F000000000000D23F5E
:1041B00070B504462DED028B4D1E00EBC500B0EE30
:1041C000408AF0EE608A90ED000B35F0060017D0C3
:1041D00053EC182B51EC100B02F0EEFF41EC100BDE
:1041E0006D1E04EBC50090ED001B51EC100B53EC61
:1041F000112B02F0FBFC41EC100B35F00600E7D16F
:10420000022D36D0042D1CD0062D1CBFBDEC028B18
:1042100070BD53EC182B51EC100B02F0CDFF94ED58
:104220000A1B53EC112B02F0E1FC53EC182B02F0AB
:10423000C3FF94ED081B53EC112B02F0D7FC41ECAB
:10424000100B53EC182B51EC100B02F0B5FF94ED52
:10425000061B53EC112B02F0C9FC53EC182B02F097
:10426000ABFF94ED040B53EC102B02F0BFFC41ECC0
:10427000100B53EC182B51EC100B02F09DFF94ED3A
:10428000021B53EC112B02F0B1FC53EC182B02F083
:1042900093FF94ED001B53EC112B02F0A7FCBDEC37
:1042A000028B41EC100B70BD31B504462DED040BB3
:1042B0002DED0A8BB0EE41BAF0EE61BA0B989DED90
:1042C0000A0B20F00040B0F1795F0DDA51EC100BD1
:1042D000FEF727F9042808BF00F0CAF89DED0A0B85
:1042E000BDEC0A8B05B030BD53EC102B51EC100B1C
:1042F00002F062FF41EC180B9DED0A0B53EC182BFA
:1043000051EC100B02F058FF41EC190B2C48B0EEA9
:10431000480AF0EE680A05217844FFF749FF9FED4F
:104320002ACBB0EE40AAF0EE60AA9CB353EC1C2B53
:1043300051EC190B02F040FF41EC1C0B53EC1A2B13
:1043400051EC190B02F038FF9FED210B41EC190BDA
:1043500053EC102B51EC1B0B02F02EFF53EC192BDE
:1043600003F036F953EC182B02F026FF53EC1B2B0D
:1043700003F02EF953EC1C2B03F02AF99DED0A1BD8
:1043800053EC112B03F04CF8BDEC0A8B05B041EC5B
:10439000100B30BDFFE753EC1A2B51EC180B02F059
:1043A0000BFF53EC1C2B02F021FC53EC192B02F0F9
:1043B00003FF9DED0A1B53EC112B02F017FCE3E702
:1043C0000C38000000000000495555555555C5BF33
:1043D000000000000000E03F9FED070B10B553EC1C
:1043E000102B9FED070B51EC100B02F0BBFC41ECC6
:1043F000100B10BD000000000000000000000000D5
:10440000000000000000F03F10B553EC102B51EC01
:10441000100B02F0EBFB41EC100B10BD10B553EC90
:10442000112B51EC100B02F0E1FB41EC100B10BD15
:104430009FED050B10B553EC102B51EC100B02F057
:1044400091FC41EC100B10BD0000000000000000CA
:104450009FED050B10B553EC102B51EC100B02F037
:10446000ABFE41EC100B10BD00000000000000701E
:104470009FED050B10B553EC102B51EC100B02F017
:104480009BFE41EC100B10BD00000000000000106E
:1044900010B541EC100BFEF71BFA51EC100B10BDE0
:1044A00070B500F5AB62044600F5EC712DED048BA0
:1044B000164600F5AC7001F0C3FB04F5BB6215466F
:1044C00004F51671304601F0BBFB04F5CB621646CD
:1044D00004F53671284601F0B3FB04F5DB6215469E
:1044E00004F55671304601F0ABFB04F5EB6216465D
:1044F00004F57671284601F0A3FB04F5FB6215462E
:1045000004F58B61304601F09BFB04F6580204F57C
:104510009B61284601F094FB04F6880414ED060B19
:1045200084ED140B94ED020B84ED160B94ED0A0B45
:1045300084ED180B94ED080B9FED489BB0EE491AE3
:10454000F0EE691AFEF794FCB0EE408AF0EE608A55
:1045500094ED060BB0EE491AF0EE691AFEF788FCEE
:1045600053EC182B51EC100B02F040FB41EC100BFC
:10457000FFF70AFBB0EE408AF0EE608A94ED040B80
:1045800051EC100B02F026FB41EC100BB0EE481A78
:10459000F0EE681AFEF708FB9FED328B51EC100B22
:1045A00053EC182B02F0DEFB41EC100B84ED1C0BDE
:1045B000FEF7FAFB94ED081B53EC102B51EC110B9A
:1045C00002F0D0FB41EC190B94ED1C0BFEF7ECFB59
:1045D00094ED061B53EC102B51EC110B02F0C2FBB7
:1045E00041EC100BB0EE491AF0EE691AFEF7DCFA56
:1045F00053EC182B51EC100B02F0B4FBC4E91A0178
:1046000094ED1C0BFEF7D0FB14ED0C1B53EC102BA0
:1046100051EC110B02F0A6FB41EC190B94ED1C0BB5
:10462000FEF7C2FB14ED041B53EC102B51EC110BE5
:1046300002F098FB41EC100BB0EE491AF0EE691A4B
:10464000FEF7B2FA53EC182B51EC100B02F08AFB78
:10465000C4E91E01BDEC048B70BD00000000000029
:1046600000000040399D52A246DF913F70B500F531
:1046700000642DED068B00F58065B1B3012956D09D
:1046800002292FD195ED3C1B94ED720B53EC112BAD
:1046900051EC100B02F090FD95ED441B94ED740B62
:1046A00041EC180B53EC112B51EC100B02F084FD74
:1046B00041EC190B95ED4C0B94ED761B53EC102B44
:1046C00051EC110B02F078FD41EC1A0B53EC192B55
:1046D00051EC180B02F08AFA53EC1A2B02F086FA0E
:1046E00041EC100BBDEC068B70BDFFE795ED3C0B6C
:1046F00094ED621B53EC102B51EC110B02F05CFD9E
:1047000095ED441B94ED640B41EC180B53EC112B0D
:1047100051EC100B02F050FD95ED4C1B94ED660B27
:1047200041EC190B53EC112B51EC100BCAE795ED32
:104730003C1B94ED6A0B53EC112B51EC100B02F067
:104740003BFD95ED441B94ED6C0B41EC180B53ECC9
:10475000112B51EC100B02F02FFD41EC190B95EDD4
:104760004C0B94ED6E1BA9E710B5044641F23810CE
:10477000204400F013F89FED071B51EC100B53EC95
:10478000112B02F047FC01D1012000E00020207035
:1047900010BD000000000000000000002DE9F05FE7
:1047A00000222DED048B11469FED529B534CA4F536
:1047B00090739FED531B02E000218A4209D102EB66
:1047C000420504EB051505EBC105A04685ED001B70
:1047D0000BE002EB420504EB051505EBC105B0EE5D
:1047E000490AF0EE690A85ED000B02EB420500EB89
:1047F000051606EBC10603EB051505EBC10596EDA5
:10480000000B491C85ED000B0629D6DB521C062A3D
:10481000D2DB002401269B4601E0661C4AE004EB43
:1048200044000BEB001707EBC4095D4699ED000B44
:1048300053EC192B51EC100B02F0ECFB07D1B0EE4E
:10484000490AF0EE690ABDEC048BBDE8F09FAB4667
:1048500006EB46050BEB051A0AEBC40099ED000BBD
:1048600090ED001B53EC102B51EC110B02F07AFA77
:1048700041EC180B08EB051000EBC400254680ED59
:10488000008B14E007EBC50090ED000B51EC180B0A
:1048900053EC102B02F090FC0AEBC50999ED001BBC
:1048A00053EC112B02F0BCFD6D1CC9E90001062D73
:1048B000E8DB761C062EB2DB641C062CADDB124D49
:1048C00000245E4604EB440006EB001000EBC4003D
:1048D00090ED000B53EC102B95ED000B51EC100BF1
:1048E00002F06AFC641C062CC5E90001EADB95EDC8
:1048F000000BA8E7000000000000000020160020C8
:10490000000000000000F03FA000002082B0CDE9D0
:10491000000121F0004001909DED000B02B051EC30
:10492000100B7047F0B500F580652DED108B00F58C
:10493000006704469FB095ED5C0B97ED1CAB53EC04
:10494000102B51EC1A0B02F043FE41EC1B0B04F54B
:10495000406686EDE2BB95ED640B97ED249B53EC2E
:10496000102B51EC190B02F033FE41EC1C0B86EDC1
:10497000E4CB95ED6C0B97ED2C8B53EC102B51EC9D
:10498000180B02F025FE41EC1D0B51EC1A0B86EDC5
:10499000E6DB95ED7C0B53EC102B02F019FE41EC9D
:1049A000100B51EC190B86EDE80B8DED060B8DED20
:1049B000040B95ED840B53EC102B02F009FE41EC37
:1049C000100B51EC180B86EDEA0B8DED020B8DED03
:1049D000000B95ED8C0B53EC102B02F0F9FD41EC24
:1049E000100B51EC1A0B86EDEC0B8DED1C0B95EDBD
:1049F0009C0B53EC102B02F0EBFD41EC100B51EC37
:104A0000190B86EDEE0B8DED1A0B95EDA40B53EC07
:104A1000102B02F0DDFD41EC100B51EC180B86ED74
:104A2000F00B8DED180B95EDAC0B53EC102B02F049
:104A3000CFFD41EC100B51EC1A0B86EDF20B8DED16
:104A4000160B95EDBC0B53EC102B02F0C1FD41ECA5
:104A5000100B51EC190B86EDF40B8DED140B95ED4D
:104A6000C40B53EC102B02F0B3FD41EC100B51ECD6
:104A7000180B86EDF60B8DED120B95EDCC0B53EC70
:104A8000102B02F0A5FD41EC100B51EC1A0B86ED3A
:104A9000F80B8DED100B95EDDC0B53EC102B02F0A9
:104AA00097FD41EC100B51EC190B86EDFA0B8DEDD7
:104AB0000E0B95EDE40B53EC102B02F089FD41EC4D
:104AC000100B51EC180B86EDFC0B8DED0C0B95EDDE
:104AD000EC0B53EC102B02F07BFD41EC100B51EC76
:104AE0001A0B86EDFE0B8DED0A0B95EDFC0B53ECCE
:104AF000102B02F06DFD41EC1A0B04F5805651ECC1
:104B0000190B86ED00AB97ED040B183653EC102B08
:104B100002F05EFD41EC100B51EC180B06ED040B9E
:104B20008DED080B97ED0C0B53EC102B02F050FDA4
:104B300041EC180B53EC1C2B06ED028B95ED6AFB38
:104B400051EC1F0B02F038FB95ED62EB41EC190BB9
:104B500053EC1D2B51EC1E0B02F02EFB53EC192BCA
:104B600002F036FDC6E9000195ED5A9B53EC1D2B72
:104B700051EC190B02F020FB41EC1D0B53EC1B2BED
:104B800051EC1F0B02F018FB53EC1D2B02F020FD23
:104B9000C6E9020153EC1B2B51EC1E0B02F00CFB7F
:104BA00041EC1B0B53EC1C2B51EC190B02F004FBDA
:104BB00053EC1B2B02F00CFDC6E9040195ED8A9B1A
:104BC0009DED000B51EC190B53EC102B02F0F4FA95
:104BD00095ED82CB9DED1C0B41EC1B0B53EC102B88
:104BE00051EC1C0B02F0E8FA53EC1B2B02F0F0FC2A
:104BF000C6E9060195ED7ABB9DED1C0B51EC1B0B34
:104C000053EC102B02F0D8FA9DED040B41EC1D0B78
:104C100053EC102B51EC190B02F0CEFA53EC1D2B78
:104C200002F0D6FCC6E908019DED060B51EC1C0B09
:104C300053EC102B02F0C0FA9DED020B41EC190B66
:104C400053EC102B51EC1B0B02F0B6FA53EC192B62
:104C500002F0BEFCC6E90A0195EDAABB9DED180B5A
:104C600051EC1B0B53EC102B02F0A6FA95EDA2CBE6
:104C70009DED160B41EC190B53EC102B51EC1C0B5A
:104C800002F09AFA53EC192B02F0A2FCC6E90C01CF
:104C900095ED9A9B9DED160B51EC190B53EC102BD7
:104CA00002F08AFA9DED1A0B41EC1D0B53EC102B10
:104CB00051EC1B0B02F080FA53EC1D2B02F088FC28
:104CC000C6E90E019DED1A0B51EC1C0B53EC102B99
:104CD00002F072FA9DED180B41EC1B0B53EC102BFC
:104CE00051EC190B02F068FA53EC1B2B02F070FC2C
:104CF000C6E9100195EDCA9B9DED120B51EC190B05
:104D000053EC102B02F058FA95EDC2BB9DED100B41
:104D100041EC1C0B53EC102B51EC1B0B02F04CFA2A
:104D200053EC1C2B02F054FCC6E9120195EDBACBF2
:104D30009DED100B51EC1C0B53EC102B02F03CFAC8
:104D40009DED140B41EC1D0B53EC102B51EC190B8A
:104D500002F032FA53EC1D2B02F03AFCC6E91401C2
:104D60009DED140B51EC1B0B53EC102B02F024FAAD
:104D70009DED120B41EC190B53EC102B51EC1C0B5D
:104D800002F01AFA53EC192B02F022FCC6E91601C4
:104D900095EDEABB9DED0C0B51EC1B0B53EC102B6E
:104DA00002F00AFA95EDE2CB9DED0A0B41EC190BEE
:104DB00053EC102B51EC1C0B02F0FEF953EC192BA9
:104DC00002F006FCC6E9180195EDDA9B9DED0A0B91
:104DD00051EC190B53EC102B02F0EEF99DED0E0B7C
:104DE00041EC1D0B53EC102B51EC1B0B02F0E4F9C2
:104DF00053EC1D2B02F0ECFBC6E91A019DED0E0BE6
:104E000051EC1C0B53EC102B02F0D6F99DED0C0B62
:104E100041EC1B0B53EC102B51EC190B02F0CCF9AD
:104E200053EC1B2B02F0D4FBC6E91C0197ED0ABB27
:104E30009DED080B51EC1B0B53EC102B02F0BCF951
:104E400097ED02CB41EC190B53EC182B51EC1C0BDA
:104E500002F0B2F953EC192B02F0BAFBC6E91E01BD
:104E600095EDFA9B53EC182B51EC190B02F0A4F9B9
:104E700041EC180B53EC1A2B51EC1B0B02F09CF974
:104E800053EC182B02F0A4FBC6E9200153EC1A2BBB
:104E900051EC1C0B02F090F99DED080B41EC180B46
:104EA00053EC102B51EC190B02F086F953EC182B34
:104EB00002F08EFBC6E92201002001E0032822DA7D
:104EC00004EBC00101F5805100EB400204EB02123B
:104ED00091ED060B02F5805282ED4E0B91ED0C0B1D
:104EE00082ED500B91ED120B82ED520B91ED180BF0
:104EF00082ED540B91ED1E0B82ED560B91ED240BC0
:104F000082ED580B21E004EB401202F5806200EBC9
:104F1000400104EB011192ED420B01F5805181ED4E
:104F20004E0B92ED620B81ED500B92ED820B81EDF9
:104F3000520B92EDA20B81ED540B92EDC20B81ED61
:104F4000560B92EDE20B81ED580B401C0628B5DBA9
:104F50001FB0BDEC108BF0BD70B504462DED0A8B73
:104F60009FEDFE9B80ED569B9FEDFE8B80ED588B59
:104F700080ED5A8B80ED5C8B80ED5E8B80ED609BCD
:104F800080ED628B80ED648B80ED668B80ED688BAD
:104F900080ED6A9B80ED6C8B80ED6E8B84ED708B69
:104FA00084ED728B84ED749B94ED020B04F5CC744C
:104FB000FDF7FAFE84ED100B14ED400BFDF7F4FE47
:104FC000B0EE40AAF0EE60AA14ED640BFEF778FD97
:104FD00051EC100B01F0FEFD53EC1A2B02F0ECF833
:104FE000C4E9120114ED400BFEF76AFDB0EE40AAD1
:104FF000F0EE60AA14ED640BFEF762FDB0EE401A0D
:10500000F0EE601A53EC1A2B51EC110B02F0D4F8AD
:10501000C4E9140114ED640BFDF7C6FE14ED4C1B3E
:1050200051EC100B53EC112B02F0C6F8C4E9160139
:1050300014ED640BFEF744FD84ED180B14ED400BEA
:10504000FDF7B2FEB0EE40AAF0EE60AA14ED640BDC
:10505000FDF7AAFEB0EE401AF0EE601A53EC1A2BE0
:1050600051EC110B02F0A8F8C4E91A0114ED400B41
:10507000FEF726FDB0EE40AAF0EE60AA14ED640B38
:10508000FDF792FE51EC100B01F0A4FD53EC1A2B2E
:1050900002F092F8C4E91C0114ED640BFEF710FD58
:1050A00014ED4C1B51EC100B53EC112B02F084F857
:1050B000C4E91E0184ED208B14ED400BFEF700FDCA
:1050C00084ED220B14ED400BFDF76EFE84ED240BF6
:1050D00014ED580B84ED260B84ED288B84ED2A8B80
:1050E00084ED2C8B84ED2E9B14ED620BFDF75CFEA2
:1050F00084ED300B14ED3E0BFDF756FEB0EE40AAEA
:10510000F0EE60AA14ED620BFEF7DAFC51EC100B26
:1051100001F060FD53EC1A2B02F04EF8C4E93201A5
:1051200014ED3E0BFEF7CCFCB0EE40AAF0EE60AA08
:1051300014ED620BFEF7C4FCB0EE401AF0EE601AFC
:1051400053EC1A2B51EC110B02F036F8C4E9340180
:1051500014ED620BFDF728FE14ED4A1B51EC100B09
:1051600053EC112B02F028F8C4E9360114ED620B60
:10517000FEF7A6FC84ED380B14ED3E0BFDF714FE94
:10518000B0EE40AAF0EE60AA14ED620BFDF70CFE43
:10519000B0EE401AF0EE601A53EC1A2B51EC110BE2
:1051A00002F00AF8C4E93A0114ED3E0BFEF788FC60
:1051B000B0EE40AAF0EE60AA14ED620BFDF7F4FD2C
:1051C00051EC100B01F006FD53EC1A2B01F0F4FF2B
:1051D000C4E93C0114ED620BFEF772FC14ED4A1BAE
:1051E00051EC100B53EC112B01F0E6FFC4E93E012A
:1051F00084ED408B14ED3E0BFEF762FC84ED420B18
:1052000014ED3E0BFDF7D0FD84ED440B14ED560B71
:1052100084ED460B84ED488B84ED4A8B84ED4C8BFA
:1052200084ED4E9B14ED600BFDF7BEFD84ED500B3D
:1052300014ED3C0BFDF7B8FDB0EE40AAF0EE60AA0D
:1052400014ED600BFEF73CFC51EC100B01F0C2FCBE
:1052500053EC1A2B01F0B0FFC4E9520114ED3C0BE2
:10526000FEF72EFCB0EE40AAF0EE60AA14ED600B43
:10527000FEF726FCB0EE401AF0EE601A53EC1A2B43
:1052800051EC110B01F098FFC4E9540114ED600BCF
:10529000FDF78AFD14ED481B51EC100B53EC112B5C
:1052A00001F08AFFC4E9560114ED600BFEF708FC1B
:1052B00084ED580B14ED3C0BFDF776FDB0EE40AAE3
:1052C000F0EE60AA14ED600BFDF76EFDB0EE401A33
:1052D000F0EE601A53EC1A2B51EC110B01F06CFF3D
:1052E000C4E95A0114ED3C0BFEF7EAFBB0EE40AA0C
:1052F000F0EE60AA14ED600BFDF756FD51EC100BBB
:1053000001F068FC53EC1A2B01F056FFC4E95C0174
:1053100014ED600BFEF7D4FB14ED481B51EC100BA1
:1053200053EC112B01F048FFC4E95E0184ED608B62
:1053300014ED3C0BFEF7C4FB84ED620B14ED3C0B4B
:10534000FDF732FD84ED640B14ED540B84ED660B18
:1053500084ED688B84ED6A8B08E00000000000009B
:105360000000F03F000000000000000084ED6C8BA6
:1053700084ED6E9B14ED5E0BFDF716FD84ED700B56
:1053800014ED3A0BFDF710FDB0EE40AAF0EE60AA66
:1053900014ED5E0BFEF794FB51EC100B01F01AFCC0
:1053A00053EC1A2B01F008FFC4E9720114ED3A0B1B
:1053B000FEF786FBB0EE40AAF0EE60AA14ED5E0B9D
:1053C000FEF77EFBB0EE401AF0EE601A53EC1A2B9B
:1053D00051EC110B01F0F0FEC4E9740114ED5E0B09
:1053E000FDF7E2FC14ED461B51EC100B53EC112BB6
:1053F00001F0E2FEC4E9760114ED5E0BFEF760FBFE
:1054000084ED780B14ED3A0BFDF7CEFCB0EE401AAC
:10541000F0EE601AB0EE41AAF0EE61AA14ED5E0B58
:10542000FDF7C2FC53EC1A2B51EC100B01F0C4FE3B
:10543000C4E97A0114ED3A0BFEF742FBB0EE40AA44
:10544000F0EE60AA14ED5E0BFDF7AEFC51EC100B14
:1054500001F0C0FB53EC1A2B01F0AEFEC4E97C0155
:1054600014ED5E0BFEF72CFB14ED461B51EC100BFC
:1054700053EC112B01F0A0FEC4E97E0184ED808B7A
:1054800014ED3A0BFEF71CFB84ED820B14ED3A0B86
:10549000FDF78AFC84ED840B14ED520B84ED860B32
:1054A00084ED888B84ED8A8B84ED8C8B84ED8E9BD0
:1054B00014ED5C0BFDF778FC84ED900B14ED380BCC
:1054C000FDF772FCB0EE40AAF0EE60AA14ED5C0BA2
:1054D000FEF7F6FA51EC100B01F07CFB53EC1A2BA3
:1054E00001F06AFEC4E9920114ED380BFEF7E8FA08
:1054F000B0EE40AAF0EE60AA14ED5C0BFEF7E0FA05
:10550000B0EE401AF0EE601A53EC1A2B51EC110B6E
:1055100001F052FEC4E9940114ED5C0BFDF744FC6C
:1055200014ED441B51EC100B53EC112B01F044FE15
:10553000C4E9960114ED5C0BFEF7C2FA84ED980BFA
:1055400014ED380BFDF730FCB0EE40AAF0EE60AA87
:1055500014ED5C0BA4F5CC74FDF726FCB0EE401AFC
:10556000F0EE601A53EC1A2B51EC110B01F024FEF3
:1055700004F58065E5E82C0194ED2E0BFEF7A0FA0A
:10558000B0EE40AAF0EE60AA94ED0A0BFDF70CFC19
:1055900051EC100B01F01EFB53EC1A2B01F00CFE2A
:1055A00045E92A0194ED0A0BFEF78AFA94ED221BD5
:1055B00051EC100B53EC112B01F0FEFD45E92801D5
:1055C00005ED268B94ED2E0BFEF77AFA05ED240BF4
:1055D00094ED2E0BFDF7E8FB05ED220B94ED160B79
:1055E00005ED200B05ED1E8B05ED1C8B05ED1A8BD3
:1055F00005ED189B94ED0C0BFDF7D6FB05ED160B96
:1056000094ED300BFDF7D0FBB0EE40AAF0EE60AAAF
:1056100094ED0C0BFEF754FA51EC100B01F0DAFA92
:1056200053EC1A2B01F0C8FD45E9140194ED300B41
:10563000FEF746FAB0EE401AF0EE601AB0EE41AA5C
:10564000F0EE61AA94ED0C0BFEF73AFA53EC1A2B2C
:1056500051EC100B01F0B0FD45E9120194ED0C0B7B
:10566000FDF7A2FB94ED241B51EC100B53EC112B16
:1056700001F0A2FD45E9100194ED0C0BFEF720FAB4
:1056800005ED0E0B94ED300BFDF78EFBB0EE401ADE
:10569000F0EE601AB0EE41AAF0EE61AA94ED0C0BA8
:1056A000FDF782FB53EC1A2B51EC100B01F084FD3B
:1056B00045E90C0194ED300BFEF702FAB0EE40AA7A
:1056C000F0EE60AA94ED0C0BFDF76EFB51EC100BA5
:1056D00001F080FA53EC1A2B01F06EFD45E90A0146
:1056E00094ED0C0BFEF7ECF994ED241B51EC100B30
:1056F00053EC112B01F060FD45E9080105ED068B27
:1057000094ED300BFEF7DCF905ED040B94ED300B56
:10571000FDF74AFB05ED020B94ED180B85ED000B30
:1057200085ED028B85ED048B85ED068B85ED089B61
:1057300094ED460BFDF738FBB0EE40AAF0EE60AA00
:1057400094ED480BFDF730FBB0EE401AF0EE601A16
:1057500053EC1A2B51EC110B01F02EFDC5E90A0197
:1057600094ED440BFDF720FBB0EE40AAF0EE60AAEA
:1057700094ED480BFEF7A4F9B0EE401AF0EE601A73
:1057800053EC1A2B51EC110B01F016FD41EC1A0BE6
:1057900094ED440BFEF794F9B0EE40BAF0EE60BA27
:1057A00094ED460BFEF78CF9B0EE40CAF0EE60CAFD
:1057B00094ED480BFDF7F8FAB0EE401AF0EE601ADF
:1057C00053EC1C2B51EC110B01F0F6FC53EC1B2B92
:1057D00001F0F2FC53EC1A2B01F0FAFEC5E90C01C2
:1057E00094ED440BFEF76CF9B0EE401AF0EE601A3F
:1057F000B0EE41AAF0EE61AA94ED480BFEF760F915
:1058000053EC1A2B51EC100B01F0D6FC41EC1A0BA7
:1058100094ED440BFDF7C8FAB0EE40BAF0EE60BA72
:1058200094ED460BFEF74CF9B0EE40CAF0EE60CABC
:1058300094ED480BFDF7B8FAB0EE401AF0EE601A9E
:1058400053EC1C2B51EC110B01F0B6FC53EC1B2B51
:1058500001F0B2FC53EC1A2B01F0C8F9C5E90E01B6
:1058600094ED3E0B85ED100B94ED460BFDF79CFA85
:10587000B0EE40AAF0EE60AA94ED480BFEF720F9D6
:10588000B0EE401AF0EE601A53EC1A2B51EC110BEB
:1058900001F092FCC5E9120194ED440BFDF784FA86
:1058A000B0EE401AF0EE601AB0EE41AAF0EE61AA36
:1058B00094ED480BFDF778FA53EC1A2B51EC100BD2
:1058C00001F07AFC41EC1A0B94ED440BFEF7F8F86A
:1058D000B0EE40BAF0EE60BA94ED460BFEF7F0F889
:1058E000B0EE401AF0EE601AB0EE41CAF0EE61CAB6
:1058F00094ED480BFEF7E4F853EC1C2B51EC100B25
:1059000001F05AFC53EC1B2B01F056FC53EC1A2B04
:1059100001F06CF9C5E9140194ED440BFEF7D0F8E1
:10592000B0EE401AF0EE601AB0EE41AAF0EE61AAB5
:1059300094ED480BFDF738FA53EC1A2B51EC100B91
:1059400001F03AFC41EC1A0B94ED440BFDF72CFAF4
:10595000B0EE40BAF0EE60BA94ED460BFEF7B0F848
:10596000B0EE40CAF0EE60CA94ED480BFEF7A8F81E
:10597000B0EE401AF0EE601A53EC1C2B51EC110BF8
:1059800001F01AFC53EC1B2B01F016FC53EC1A2B04
:1059900001F01EFEC5E9160194ED400B85ED180BD4
:1059A00094ED460BFEF78CF851EC100B01F012F958
:1059B000C5E91A0194ED440BFEF782F8B0EE401AE7
:1059C000F0EE601AB0EE41AAF0EE61AA94ED460B3B
:1059D000FDF7EAF953EC1A2B51EC100B01F0ECFB3C
:1059E000C5E91C0194ED440BFDF7DEF9B0EE40AAC9
:1059F000F0EE60AA94ED460BFDF7D6F9B0EE401A32
:105A0000F0EE601A53EC1A2B51EC110B01F0D4FBA1
:105A1000C5E91E0194ED420B85ED200B85ED228B2F
:105A200085ED248B85ED268B85ED289BBDEC0A8BBF
:105A300070BD00002DED028BFAF7D2FFFCF734FAAF
:105A4000FCF7BEF850484F49002401604F49C0E9B7
:105A500001144FF48041C0E9034144618461C46191
:105A60000462FAF7BDFE08B172B6FEE7FCF77EF9F4
:105A7000FCF718F9474846494FF4E1350160C0E9A1
:105A800001540C26C460C0E904468461C461FBF77C
:105A9000FFFF08B172B6FEE7FCF7CCF93D483E497E
:105AA00044300160C0E90154C460C0E90446846127
:105AB000C461FBF7EDFF08B172B6FEE70122374D76
:105AC000540321462846FAF77FFE4FF47A70FAF71E
:105AD0006BFD334B3348A3F13002A2F13001FAF7EA
