:020000040800F2
:10000000B01B002035020008F71B0008D9190008B2
:10001000F51B000847040008392100080000000013
:10002000000000000000000000000000FF1B0008AE
:10003000E904000800000000FD1B0008011C000886
:100040004F0200084F0200084F0200084F0200084C
:100050004F0200084F020008EB040008F1040008FA
:100060004F0200084F0200084F0200084F0200082C
:100070004F0200084F0200084F0200084F0200081C
:100080004F0200084F0200084F0200080000000065
:100090000000000000000000000000004F02000807
:1000A0004F0200084F0200084F0200084F020008EC
:1000B000AD1C0008B91C00084F0200084F020008E0
:1000C0004F0200084F0200084F0200084F020008CC
:1000D0004F020008212100082D2100080000000027
:1000E0004F0200084F0200084F0200080000000005
:1000F0000000000000000000000000004F020008A7
:10010000000000004F0200084F0200084F020008E4
:1001100000000000000000000000000000000000DF
:100120004F0200084F0200084F0200084F0200086B
:100130004F02000800000000000000000000000066
:100140000000000000000000000000004F02000856
:100150004F0200084F0200084F0200084F0200083B
:100160004F0200084F0200080000000000000000DD
:10017000000000000000000000000000000000007F
:10018000000000004F020008000000000000000016
:100190004F02000800F002F800F03CF80AA090E8D6
:1001A000000C82448344AAF10107DA4501D100F032
:1001B00031F8AFF2090EBAE80F0013F0010F18BFC3
:1001C000FB1A43F001031847D8770000F8770000C6
:1001D000103A24BF78C878C1FAD8520724BF30C873
:1001E00030C144BF04680C60704700000023002445
:1001F00000250026103A28BF78C1FBD8520728BF37
:1002000030C148BF0B6070471FB507F0F1F91FBD43
:1002100010B510BD00F0E2F81146FFF7F5FF05F04C
:10022000F3FA00F000F903B4FFF7F2FF03BC00F0AB
:1002300003F900000948804709480047FEE7FEE748
:10024000FEE7FEE7FEE7FEE7FEE7FEE7FEE7FEE786
:1002500004480549054A064B704700009D1C0008EC
:1002600095010008B0150020B01B0020B017002039
:10027000B017002053EA020C00F069802DE9F04B22
:100280004FF00006002B1FBFB3FA83F503FA05F405
:1002900024FA05F65E4012BF1643B2FA82F502FA5E
:1002A00005F4C5F120051EBF22FA05FC44EA0C0442
:1002B000203556EA044C4FEA144418BF641C4FF032
:1002C00000084FF00009904271EB030C39D300296C
:1002D00019BFB1FA81F701FA07F6B0FA80F700FA10
:1002E00007F6C7F120071EBF20FA07FC46EA0C06F6
:1002F0002037B6FBF4FCA7EB0507103F07F01F0BF8
:10030000CBF120060CFA0BFB2CFA06F644BFB346E1
:100310000026202FA4BF5E464FF0000B5BEA060CC0
:1003200008BF4FF0010B19EB0B09ABFB027C48EB4C
:100330000608C01B06FB02CC0BFB03CC71EB0C01C7
:10034000C1E70B46024641464846BDE8F08B13B56F
:100350004FF000004FF00001AFF30080BDE81C40FB
:1003600070474FF0000200B5134694469646203978
:1003700022BFA0E80C50A0E80C50B1F12001BFF45E
:10038000F7AF090728BFA0E80C5048BF0CC05DF8C4
:1003900004EB890028BF40F8042B08BF704748BF12
:1003A00020F8022B11F0804F18BF00F8012B704786
:1003B00070477047704710B500F008F8006810BD2E
:1003C00010B5044600F002F8046010BD0048704704
:1003D0005015002000487047501500207546FFF763
:1003E000F9FFAE4605006946534620F007008546F2
:1003F00018B020B5FFF72CFFBDE820404FF00006F5
:100400004FF000074FF000084FF0000B21F00701FC
:10041000AC46ACE8C009ACE8C009ACE8C009ACE83F
:10042000C0098D46704710B50446AFF300802046E2
:10043000BDE81040FFF7F7BE01491820ABBEFEE74C
:10044000260002007047FEE72DE9F0479FED1E0BE6
:100450009FED1F1B1F462DED028B904680ED320B4A
:1004600080ED341B9FED1C1B9FED1D8B80ED361B1B
:1004700080ED380B80ED3A0B8946054680ED3C0B4C
:10048000002400BF09EBC40005EBC40690ED000B8F
:1004900008EBC40086ED0E0B90ED000B07EBC400DB
:1004A00086ED1A0B90ED000B53EC182B51EC100B52
:1004B000383606F0A7FD641CC6E91801062CE1DBFE
:1004C000BDEC028BBDE8F0870000000000000000DA
:1004D00000000000008056C0000000000080664060
:1004E000399D52A246DF913F7047012000F072B85B
:1004F000022000F06FB82DE9F0410446876D00F04E
:100500006BF9064694F835000025022806D08020B5
:10051000606584F834500120BDE8F08120680168EE
:1005200021F0160101602068416921F080014161DC
:10053000206C08B9A06C20B12068016821F0080186
:1005400001602068016821F0010101600CE000F009
:1005500043F9801B052807D920206065032084F813
:10056000350084F83450D7E720680068C007EED122
:1005700094F85C103F208840B860012084F8350072
:1005800084F834500020C7E790F83510022903D0D2
:100590008021416501207047052180F835100068F1
:1005A000016821F0010101600020704770B5044628
:1005B00000F012F90546601C02D00448007804449B
:1005C00000F00AF9401BA042FAD370BDF8000020E9
:1005D00070470000044910B50A68024202D0086062
:1005E000FFF7F6FF10BD0000143C01402DE9F84F65
:1005F000DFF8B8A10022012403254FF00F090AF10A
:10060000040BAAF1040E00BF0B6804FA02F6334093
:10061000B34273D10F7907F00307012F01D0022FE6
:1006200016D187684FEA420805FA08FC27EA0C074A
:10063000D1F80CC00CFA08FC4CEA070CC0F808C052
:100640004768B7430E79C6F3001696403E434660AE
:100650000E79F643B6070DD0C768560005FA06FCBA
:1006600027EA0C07D1F808C00CFA06FC4CEA070C84
:10067000C0F80CC00E7906F00306022E10D1D60881
:1006800000EB8608D8F8206057074FEAD76C09FAC4
:100690000CF7BE430F6907FA0CF73743C8F8207010
:1006A00006684FEA420C05FA0CF7BE430F7907F0D3
:1006B000030707FA0CF7374307604E6816F4403F0C
:1006C0006DD03B4E376847F480473760366822F07C
:1006D000030706F480460096364E07EB060CDCF85E
:1006E000086897073F0F09FA07F826EA0806DFF8B7
:1006F000C880404503D14FF000081EE04FE0DFF80E
:10070000BC80404502D14FF0010816E0DFF8B08010
:10071000404502D14FF002080FE0DFF8A8804045C5
:1007200002D14FF0030808E0DFF89C80404502D179
:100730004FF0040801E04FF0070808FA07F848EA0C
:100740000608CCF80888DAF800605746D1F804C0EB
:100750009E435FEACC2C00D51E433E60DBF8006070
:100760005F46D1F804C09E435FEA8C2C00D51E433F
:100770003E60DEF800607746D1F804C09E435FEA31
:100780008C3C00D51E433E60084F083F3E68D1F8C0
:1007900004C09E435FEACC3C00D51E433E60521C21
:1007A000102AFFF431AFBDE8F88F0000083C01408B
:1007B0004438024000300140000002400004024082
:1007C00000080240000C0240001002400AB18161A2
:1007D00070470904FBE7000001488068704700008B
:1007E000F800002070B5040025D094F83D000025E5
:1007F00020B984F83C50204600F0B8F8242084F852
:100800003D002068016821F0010101602068016855
:1008100041F4004101602068016821F40041016059
:1008200000F016FA4D4A6168914201D84C4900E047
:100830004C49884201D2012070BD4B492368B0FB6E
:10084000F1F15E6826F03F060E435E6063689342F6
:1008500006D94FF4967359434FF47A73B1FBF3F111
:100860002368491C1E6A26F03F06314319626168FD
:10087000914210D84900401EB0FBF1F2521CC2F365
:100880000B02042A01D2042022E0B0FBF1F0401C4C
:10089000C0F30B001CE0A268F2B301EBC10303EB51
:1008A0000116431EB3FBF6F35B1C43F480431B05A8
:1008B00049D092B301EBC10202EB0111401EB0FB23
:1008C000F1F0401CC0F30B0040F4804040F40040C5
:1008D0002168CA694CF6FF739A431043C861D4E992
:1008E000071001432068026822F0C0021143016032
:1008F000D4E9030101432068826848F2FF339A4338
:1009000011438160D4E9050108432168CA6822F0D7
:10091000FF021043C86001E00EE016E020680168A5
:1009200041F0010101602564202084F83D00256329
:1009300084F83E50002070BD01EB4106431EB3FB1E
:10094000F6F35B1CB3E70120C2E701EB4101401E57
:10095000B0FBF1F0401CC0F30B00B7E7A08601002C
:1009600080841E0000093D0040420F0010B586B093
:10097000044614216846FFF7F4FC144920688842B5
:1009800021D113480021026842F00202026000688F
:1009900000F0020005904FF4407000901220CDE965
:1009A0000101032003900420049069460948FFF7E1
:1009B0001DFE07481030016841F400110160006815
:1009C00000F40010059006B010BD00000054004077
:1009D0003038024000040240024881680278114425
:1009E00081607047F80000200B4810B5016841F4A1
:1009F00000710160016841F480610160016841F4A7
:100A000080710160032000F06FF80F2000F006F8FD
:100A100000F024F8002010BD003C024070B50D4DE0
:100A200004464FF47A712878B1FBF0F00A4909685E
:100A3000B1FBF0F000F022FB48B9102C07D20022E5
:100A40002146501E00F030F800206C6070BD01207F
:100A500070BD0000F8000020040100200A4808B51D
:100A6000016841F480410160006800F4804000901A
:100A70000548001F016841F080510160006800F0E6
:100A80008050009008BD000044380240002809DB77
:100A900000F01F02012191404009800000F1E02098
:100AA000C0F8001170470000F0B40E4B1B680C46F4
:100AB000C3F30223C3F10705042D00D90425191D32
:100AC000072901D2002300E0DB1E012606FA05F10A
:100AD000491E214099409E40761E16403143F0BC8D
:100AE00001F043BB0CED00E0064900F00702086886
:100AF0004FF6FF03184040EA0220034A1043086003
:100B0000704700000CED00E00000FA05704700009F
:100B10002DE9F0470E46050065D0DFF81481D8F8BE
:100B20000000F7B200F00700B04207D288F800706A
:100B3000D8F8000000F00700B04254D128683D4CBE
:100B4000810712D5400703D5206840F4E0502060AB
:100B50002878000703D5206840F4604020602068B2
:100B6000A96820F0F000084320602878C0072DD045
:100B7000304968680839012812D0022813D00328A8
:100B800011D00968890700292DDA216821F00301B5
:100B900001432160FFF720FE814641F2883A0EE0D2
:100BA00009688903EFE709688901ECE7FFF714FE9C
:100BB000A0EB0901514502D90320BDE8F087206868
:100BC000696800F00C00B0EB810FEFD1D8F800108D
:100BD000404601F00701B14207D90770006800F0F4
:100BE0000700B04201D00120E7E72878400705D58B
:100BF0002068E96820F4E050084320602878000766
:100C000006D52068296920F4604040EAC1002060D0
:100C100000F03EF82168084AC1F30311515CC84056
:100C20000649086006480068FFF7F8FE0020C4E7A0
:100C3000003C024008380240EA7600080401002027
:100C4000FC00002001490120C864704700004742B1
:100C50000448054900680968044AC1F38221515CCF
:100C6000C84070470401002008380240FA760008A6
:100C70000448054900680968044AC1F34231515CDF
:100C8000C84070470401002008380240FA76000886
:100C9000154810B5006810F00C02144813D0144920
:100CA000042A0FD0082A0ED10F4C241F2268236873
:100CB00002F03F025B0207D52068C0F38810A0FB5A
:100CC000010106E0084610BD2168C1F38811A1FBAF
:100CD00000010023FFF7CEFA2168C1F30141491C4E
:100CE0004900B0FBF1F010BD083802400024F400C8
:100CF00040787D01054810B50068000605D5FFF76E
:100D000005FF02498020891C087010BD0C38024084
:100D10002DE9F84F04006ED02078DFF84C93C0071F
:100D2000A9F104054AD009F104000168C1F3810169
:100D3000012908D00068C0F3810002280AD1D9F83F
:100D40000000400206D52868800337D56068002877
:100D5000E1D033E06068B0F5803F10D0B0F5A02F4F
:100D6000286810D020F480302860286820F4802083
:100D700028606068A8B1FFF72FFD06460DE02868DF
:100D800040F48030F4E740F480202860F7E700BFAB
:100D9000FFF722FD801B642873D828688003F7D5ED
:100DA0000CE0FFF719FD064605E000BFFFF714FD54
:100DB000801B6428F0D828688003F7D42078DFF8F7
:100DC000AC8280074FF0000A3ED5A748001D01689D
:100DD00011F00C0F08D00068C0F3810002280BD17D
:100DE000D9F80000400207D42868800716D5E068CB
:100DF000012800D112E033E1E068B8B10120C8F861
:100E00000000FFF7E9FC064605E000BFFFF7E4FC41
:100E1000801B0228C0D828688007F7D52868216978
:100E200020F0F80040EAC10028600DE0C8F800A0FA
:100E3000FFF7D2FC064604E0FFF7CEFC801B022839
:100E40001FD828688007F7D42078000722D5864F5E
:100E500087486169703771B101210160FFF7BCFCFF
:100E6000064604E0FFF7B8FC801B022809D8386862
:100E70008007F7D50EE0C0F800A0FFF7ADFC0646EE
:100E800005E082E0FFF7A8FC801B02287DD83868C7
:100E90008007F7D42078400768D5DFF8CCB1002769
:100EA0000BF13C0BDBF80000C0000BD4DBF80010AA
:100EB00041F08051CBF80010DBF80000012700F072
:100EC000805000906B4E3068C00510D4306840F4FC
:100ED00080703060FFF780FC009005E0FFF77CFC3D
:100EE0000099401A022850D83068C005F6D55E4EE9
:100EF000A0686C3601280FD00528306810D020F08B
:100F000001003060306820F004003060A068B8B1A3
:100F1000FFF762FC00900FE0306840F00100F4E75A
:100F200040F004003060F7E7FFF756FC0099411AE3
:100F300041F28830814266D830688007F4D50EE0EF
:100F4000FFF74AFC009007E0FFF746FC0099411AC2
:100F500041F28830814256D830688007F4D42FB1EE
:100F6000DBF8001021F08051CBF80010A069C8B365
:100F70003D49091D0968C1F3810102294AD00228AF
:100F8000504607D0C8F8600000E03CE0FFF724FCC2
:100F900004463BE04746C8F86000FFF71DFC0646E4
:100FA00005E000BFFFF718FC801B02282BD828683B
:100FB0008001F7D4D4E907010843A16A2E4A490801
:100FC00002EB0141626A41EA8211084394F82C1055
:100FD00040EA0161C9F8001001203866FFF7FCFB08
:100FE000044606E03EE000BFFFF7F6FB001B0228C8
:100FF00009D828688001F7D534E000BFFFF7ECFB83
:10100000001B022802D90320BDE8F88F2868800160
:10101000F4D427E00128F7D0D9F80000E26900F401
:10102000800191421CD1226A00F03F01914217D108
:1010300047F6C071626A0140B1EB821F10D1A26A0B
:101040004FF0FF3300F4403103EB5202B1EB024F9B
:1010500006D194F82C1000F07060B0EB016F01D055
:101060000120D1E70020CFE70438024000004742CA
:10107000800E4742007000400000FFFF10B5401E88
:10108000B0F1807F01D3012010BD4FF0E0246061FA
:101090000F21601701F069F80020A061072020618E
:1010A000002010BD7047704770B590F83C20012AB1
:1010B0002CD0012480F83C40022280F83D200368B7
:1010C0005A689D6822F070060A6832435A60104BD5
:1010D00002689A420ED0B2F1804F0BD00D4B9A426B
:1010E00008D00D4B9A4205D00C4B9A4202D00C4BC3
:1010F0009A4204D1496825F080031943916080F831
:101100003D40002180F83C10084670BD022070BDB3
:10111000000001400004004000080040000C0040B6
:101120000040014010B5040003D094F83D0010B118
:1011300007E0012010BD002084F83C00204600F0AC
:101140001FF8022084F83D00211D206800F0BAFD40
:10115000012084F8460084F83E0084F83F0084F8BB
:10116000400084F8410084F8420084F8430084F889
:10117000440084F8450084F83D00002010BD0000C4
:1011800010B586B0044614216846FFF7EAF82268D5
:1011900000211F48B2F1804F14D01E498A420FD15E
:1011A000016841F0020101600068002200F00200C5
:1011B000059011461D20FFF777FC1D20FFF766FC08
:1011C00006B010BD026842F001020260006800F043
:1011D000010005900E481038026842F001020260DA
:1011E000006800F001000590202000900220CDE969
:1011F00001010120CDE9031069460748FFF7F6F920
:10120000002205211C20FFF74FFC1C20D6E7000020
:1012100040380240000400400000024070B504461F
:1012200090F83C000025012817D0012684F83C6086
:10123000022084F83D002068826822F0770222F4C0
:101240007F4282600868502838D00DDC20284FD0BB
:1012500005DC90B3102811D14AE0022070BD30287F
:1012600046D040280AD13BE060282FD070280DD00E
:10127000B0F5805F03D0B0F5005F12D0012584F88F
:101280003D60002084F83C00284670BDCB68D1E961
:101290000121206800F062FD2068816841F077013B
:1012A00009E0CB68D1E90121206800F057FD2068F2
:1012B000816841F480418160E1E719E0CA684968CA
:1012C000206800F0A3FD5021206806E0CA68496844
:1012D000206800F0E3FD6021206800F049FDCEE7C2
:1012E000CA684968206800F091FD40212068F4E751
:1012F000226801461046F0E770472DE9F0410546A7
:1013000090F83C0000260C46012810D0012085F8FA
:101310003C0072B1042A1CD0082A2CD00C2A50D0D0
:101320000126002085F83C003046BDE8F08102200F
:10133000FBE7D4E90012E368286800F079FD28682B
:10134000816921F00C01816128688169A2681143DB
:101350000FE0D4E90012E368286800F0B1FD2868C6
:10136000816921F44061816128688169A26841EA4C
:1013700002218161D5E72868D4E9002C277B016A26
:1013800021F480710162C169036A21F0030141EA1D
:101390000C0121F0F00C39074FF420674CEA116181
:1013A00023F4206307EA02221A43C161026228681B
:1013B000C16921F00C01C1612868C169A2681143AB
:1013C00028E02868D4E90027E168036A23F4805301
:1013D0000362D0F81CC0036A2CF4407C4CEA072757
:1013E0004FF6FF7C27F470470CEA013139434FF484
:1013F000204723F4204307EA02321A43C161026204
:101400002868C16921F44061C1612868C169A26886
:1014100041EA0221C16184E710B5040003D094F8C9
:101420003D0010B107E0012010BD002084F83C0011
:10143000204600F01EF8022084F83D00211D20689F
:1014400000F040FC012084F8460084F83E0084F857
:101450003F0084F8400084F8410084F8420084F89A
:10146000430084F8440084F8450084F83D000020DF
:1014700010BD704770B50446006801694FF0000563
:10148000C943890715D4C168C943890711D4E91E26
:10149000016101202077206880698007204602D002
:1014A000FFF72AFF04E000F098F8204600F096F8D5
:1014B000257720680169C943490717D4C168C94322
:1014C000490713D46FF004010161022020772068DE
:1014D000806910F4407F204602D0FFF70DFF04E042
:1014E00000F07BF8204600F079F825772068016944
:1014F000C943090716D4C168C943090712D46FF05C
:1015000008010161042020772068C0698007204617
:1015100002D0FFF7F1FE04E000F05FF8204600F093
:101520005DF8257720680169C943C90617D4C168E9
:10153000C943C90613D46FF0100101610820207758
:101540002068C06910F4407F204602D0FFF7D4FE27
:1015500004E000F042F8204600F040F825772068CB
:101560000169C943C90708D1C168C943C90704D182
:10157000891E0161204600F032F820680169C943E4
:10158000090609D4C168C943090605D46FF0800172
:1015900001612046FFF786FD20680169C9434906BD
:1015A00009D4C168C943490605D46FF040010161FF
:1015B000204600F040F820680169C94389060BD431
:1015C000C168C943890607D46FF020010161204634
:1015D000BDE87040FFF767BD70BD7047704770474A
:1015E00070B5044690F83C00012812D0012584F81B
:1015F0003C50022084F83D00204600F0C1FB010071
:101600004FF0000007D084F83D5084F83C000120E2
:1016100070BD022070BD2168CA6822F04002CA6015
:101620002168CA6822F48042CA6084F83D5084F878
:101630003C00002070BD704770477047F8B50168E6
:1016400004460868CA684B6910F00F0F4FF0000598
:1016500059D003F0010602F49077374365D0C107F3
:1016600005D0D10503D5216C41F00101216441076A
:1016700005D5D90703D0216C41F00201216481070F
:1016800005D5D90703D0216C41F00401216401077D
:1016900007D502F02001314303D0216C41F008014D
:1016A0002164216C00293AD0800604D5900602D529
:1016B000204600F04FFC20684069216CC0F3801088
:1016C000090700D460B3204600F01DFC2068406983
:1016D000400621D52068143050E8001F21F0400159
:1016E00040E80012002AF5D1A06BA8B16C49016551
:1016F000A06BFEF749FF002811D0A06B016D01B06F
:10170000BDE8F040084783060FD593060DD5204667
:10171000BDE8F84000F01EBC2046FFF78EFFF8BD84
:101720002046FFF78AFF2564F8BD266B2023012E93
:1017300079D1C60677D5D60675D508684868009071
:101740004869400640D5A16B086840680004000C59
:10175000EAD0A28D8242E7D9E085C869B0F5807FE2
:101760002DD020680C3050E8001F21F4807140E833
:101770000012002AF5D12068143050E8001F21F033
:10178000010140E80012002AF5D12068143050E829
:10179000001F21F0400140E80012002AF5D184F832
:1017A0003E30256320680C3050E8001F21F0100106
:1017B00040E80012002AF5D1A06BFEF79CFEA08D38
:1017C000E18D401A81B229E0A08DE18D401A81B2ED
:1017D000E08D0028A8D00029A6D020680C3050E861
:1017E000002F22F4907240E80026002EF5D12068E8
:1017F000143050E8002F22F0010240E80026002EAD
:10180000F5D184F83E30256320680C3050E8002F75
:1018100022F0100240E80023002BF5D12046FFF70C
:101820000BFFF8BDFFE705062BD5150629D594F863
:101830003D002128F5D1A068B0F5805F01D1206975
:10184000B0B1206A411C2162216800784860E08CB8
:10185000401E0004000CE084E3D12068C16821F040
:101860008001C1602068C16841F04001C160D8E7D3
:10187000206A0088C0F308004860206A801C20624B
:10188000E5E74006CDD55006CBD5CA68204622F004
:101890004002CA6084F83D3000F09DF8C1E70000C6
:1018A000F71E000870B5040004D094F83D00002530
:1018B00010B106E0012070BD84F83C50204600F0D5
:1018C00023F8242084F83D002068C16821F40051E9
:1018D000C160204600F09EFB2068016921F4904120
:1018E00001612068416921F02A0141612068C168D5
:1018F00041F40051C1602564202084F83D0084F843
:101900003E00002070BD000070B586B00446142172
:101910006846FEF726FD2A4E226800212948022348
:1019200003240725B24222D1264A1432166846F013
:1019300010061660126802F010020592026842F06A
:1019400002020260006802AA00F00200059082E82C
:101950003200C020CDE9000369461B48FEF746FE71
:10196000002207212520FFF79FF8252024E0174EAD
:10197000B24223D1134A1032166846F4003616607C
:10198000126802F400320592026842F0010202601D
:10199000006802AA00F00100059082E832000C20E5
:1019A000CDE9000369460A48FEF720FE002208211F
:1019B0002620FFF779F82620FFF768F806B070BDFB
:1019C0000010014030380240000402400044004052
:1019D0000000024070477047FEE70000F0B587B096
:1019E00014216846FEF7BDFC34480024016841F02C
:1019F00004010160016801F004010591016841F0F2
:101A000080010160016801F080010591016841F0E9
:101A100001010160016801F001010591016841F0D7
:101A2000020101600068264E00F002004FF40055EC
:101A30000590002229463046FEF7C8FE214F0022BD
:101A40004FF460613846FEF7C1FE00950125CDE9EF
:101A50000154694630460394FEF7C8FD03264FF44F
:101A600044100096CDE9010569463846FEF7BEFDF3
:101A70004FF420600090CDE9015469463846039444
:101A8000FEF7B4FDA802CDE90005CDE9024669469E
:101A90003846FEF7ABFD002211460620FFF704F89A
:101AA0000620FEF7F3FF002211460720FEF7FCFF99
:101AB0000720FEF7EBFF07B0F0BD00003038024012
:101AC000000802400000024010B590B000240994C4
:101AD0000A940B94142104A80C94FEF742FC2B48A2
:101AE00003940094019402940D944FF080410E945D
:101AF000C0E90014611EC0E9024104618461FFF77E
:101B000011FB08B172B6FEE74FF48050099009A9A5
:101B10001E48FFF783FB08B172B6FEE71B48FFF7CC
:101B20007BFC08B172B6FEE7042004905020CDE99A
:101B30000504079404A915480894FFF751FD08B15E
:101B400072B6FEE70120CDE900400294002269460A
:101B50000E480394FFF7D1FB08B172B6FEE70220EE
:101B600000900190042269460848FFF7C6FB08B1BF
:101B700072B6FEE70D940DA904480E94FFF794FA8F
:101B8000002801D072B6FEE710B010BDD4130020BB
:101B900010B586B000241648009401940294039472
:101BA000049412490594C0E9001442F2CF01C0E93F
:101BB000024104618461FFF7B5FA08B172B6FEE72D
:101BC0004FF48050009069460948FFF727FB08B1A1
:101BD00072B6FEE7049404A905480594FFF764FA79
:101BE000002801D072B6FEE706B010BD0004004028
:101BF0001C140020FEE7FFF77DF8FEE770477047F2
:101C0000FEF7EABE30B593B030216846FEF7A9FB77
:101C100014210CA8FEF7A5FB1E480025016841F021
:101C200080510160006800F0805011901A480168EE
:101C300021F4404141F4004101600068022400F4B5
:101C40004040119001200090000401908001CDE9F6
:101C5000064019200890A820CDE9090404200B9023
:101C60006846FFF755F808B172B6FEE70CA90F20D9
:101C700081E831004FF480500F90109002210CA8A1
:101C8000FEF746FF08B172B6FEE7FEF7DBFF13B0C2
:101C900030BD00004038024000700040024801683A
:101CA00041F470010160704788ED00E00148FFF7E2
:101CB000E1BB0000D41300200148FFF7DBBB0000AC
:101CC0001C140020F0B502681D4B1E4C9F031E4DD6
:101CD0001E4E984207D0B84205D0A04203D0A84279
:101CE00001D0B04204D122F0700C4A6842EA0C02E2
:101CF000984210D0B8420ED0A0420CD0A8420AD0D0
:101D0000B04208D0124CA04205D0124CA04202D0E2
:101D1000114CA04203D122F44074CA6822434C699A
:101D200022F08002224302608A68C2620A688262EC
:101D3000984201D10969016301214161F0BD0000B0
:101D4000000001400004004000080040000C00407A
:101D500000400140004401400048014010B5846843
:101D600042EA032224F47F440A432243826010BDE6
:101D7000826822F070020A4342F0070181607047D6
:101D800070B5036800249A6822F070054A682A43F7
:101D900022F007050A682A439A604A6812F00F0F7A
:101DA00031D11211082A2ED2DFE802F02E2E2E2E6B
:101DB0000B2127040B69D1E902210068FFF7CEFF50
:101DC00022E00A68052A10D00268136A156A25F015
:101DD0000105156202689569096925F0F00545EA73
:101DE00001119161006803620EE0012070BD0A6973
:101DF0008968006800F00AF806E00A6989680068E6
:101E000000F04CF800E00124204670BD10B5036AD4
:101E1000046A24F001040462846924F0F00444EAB2
:101E2000021423F00A020A438461026210BD00001A
:101E300070B5046A24F0010404628469056A124ED4
:101E4000B0420ED0B0F1804F0BD0104EB04208D04F
:101E50000F4EB04205D00F4EB04202D00E4EB042EF
:101E600003D124F00304144301E044F001041A07F1
:101E700024F0F00444EA126225F00A0301F00A019A
:101E800019438261016270BD0000014000040040FE
:101E900000080040000C00400040014010B5036AFB
:101EA00023F0100303628369046A23F4704343EA56
:101EB000023224F0A00343EA01118261016210BDE5
:101EC00030B5046A24F0100404628469056A24F4BD
:101ED000407444EA022222F470444FF6FF7202EA90
:101EE00003322243A02425F0A00304EA0111194380
:101EF0008261016230BD10B5806B0021C185C18453
:101F0000FFF79BFB10BD01680C3151E8002F22F454
:101F1000907241E80023002BF5D10168143151E89B
:101F2000002F22F0010241E80023002BF5D1016BC4
:101F3000012909D101680C3151E8002F22F010026B
:101F400041E80023002BF5D1202180F83E1000212C
:101F50000163704708B590F83E10222901D0022095
:101F600008BD82684FF480539A4201D1016921B1C2
:101F7000816A9A421BD04AB10AE00268816A5268BB
:101F8000C2F308020A80816A891C08E0026972B102
:101F90000268526802F07F020A70816A491C8162FD
:101FA000C18D491E0904090CC18503D019E00268DE
:101FB0005268F1E70168CA6822F02002CA6001682D
:101FC000CA6822F48072CA6001684A6922F001027C
:101FD0004A61202180F83E10016B012903D0FFF7F0
:101FE000F9FC002008BD0021016301680C3151E8B3
:101FF000002F22F0100241E80023002BF5D10168E8
:102000000A68D20602D50A6849680091818DFFF7F7
:1020100013FBE6E770B5044600680169E26821F445
:102020004051114301612169A068E2690843616977
:10203000114308432168CA6849F20C639A4302437A
:10204000CA6020684169A26921F44071114341616D
:1020500031492068884202D03049884202D1FEF7D7
:1020600007FE01E0FEF7F4FDE26900231921642573
:102070003226B2F5004F626828D0A0FB0101930F11
:102080009200FEF7F7F80146B0FBF5F06FF018028A
:10209000504301EB800006EB0010B0FBF5F000F0C0
:1020A000F002B1FBF5F002EB0012B1FBF5F06FF0BE
:1020B0001803584301EB800006EB0010B0FBF5F06D
:1020C00000F00F0021681044886070BDA0FB010182
:1020D00092185B41FEF7CEF80146B0FBF5F0020125
:1020E000B1FBF5F06FF01803584301EB800006EBED
:1020F000C000B0FBF5F000F0F80002EB4002B1FBCD
:10210000F5F0584301EB800006EBC000B0FBF5F0A2
:1021100000F00700D6E70000001001400014014065
:102120000148FFF78BBA0000641400200148FFF754
:1021300085BA0000A8140020FEE703B4019841000E
:10214000009850EAC12018BF04204A0D18BF40F083
:10215000010040F2FF72B2EB515F08BF40F0020095
:10216000012808BF052002B070470907090E0028A2
:1021700004DB00F1E02080F80014704700F00F004D
:1021800000F1E02080F8141D7047000000000000FE
:1021900010B5B94A2DED020B2DED0C8B82B00F99C5
:1021A00021F000409FEDB6CB90422CDBA0F14053D4
:1021B0000E9AA3F17F631A430FD0B349884202DC21
:1021C00016D10E98A0B19DED0E0B02B0BDEC0C8B9C
:1021D00002B0BDE8104001F023BF0029C1BF9FED50
:1021E000AC0B02B0BDEC0C8B02B0C8BF10BD16E04A
:1021F0000120FEF7E5F802B0BDEC0C8B02B0BDE8A3
:10220000104001F021BFA44A9FEDA59B9FEDA6AB16
:1022100090425EDAA6499FEDA8CB814208DBB0EE82
:102220004C0AF0EE6C0A02B0BDEC0C8B02B010BD93
:102230009DED0E0B53EC102B51EC100B04F0E2FE55
:1022400041EC180B9E480621B0EE480AF0EE680AF1
:10225000784401F0B9FD53EC182B51EC100B04F04D
:10226000D1FE41EC1B0B9748B0EE480AF0EE680A2D
:102270000421784401F0A8FD53EC182B51EC100B0D
:1022800004F0C0FE53EC192B04F0D6FB41EC100B0C
:1022900051EC1B0B53EC102B04F08AFC41EC100B9F
:1022A00053EC102B9DED0E0B51EC100B04F0AAFE1D
:1022B00053EC1A2B04F0DAFF9DED0E1B53EC112B9F
:1022C00004F0D4FF53EC1C2B04F0D0FF41EC100BB6
:1022D000A9E79FED7D8B9FED7EBB9DED0E0B002949
:1022E00053EC192B51EC100B52DA04F0A5FB53EC14
:1022F000182B04F087FE41EC180B77480621B0EE4E
:10230000480AF0EE680A784401F05EFD53EC182BA1
:1023100051EC100B04F076FE41EC1D0B6F48B0EE53
:10232000480AF0EE680A0421784401F04DFD53ECB0
:10233000182B51EC100B04F065FE53EC192B04F034
:102340007BFB41EC190B51EC180B04F001FB41EC49
:10235000180B53EC192B51EC1D0B04F029FC53EC1A
:10236000182B04F04FFE53EC1A2B05F057F841ECF4
:10237000100B51EC180B53EC102B04F05DFB53ECDD
:102380001B2B04F03FFE53EC1C2B04F06FFF6DE0A1
:1023900004F06CFF53EC182B04F034FE41EC180BE6
:1023A00004F0D6FA41EC1A0B00208DED00AB009042
:1023B0009DED000B51EC1A0B53EC102B04F03CFB81
:1023C0009DED000B41EC1C0B53EC102B51EC100B52
:1023D00004F018FE53EC182B04F048FF53EC1C2BB0
:1023E00004F0E6FB41EC1C0B3D48B0EE480AF0EE71
:1023F000680A0621784401F0E7FC53EC182B51ECF5
:10240000100B04F0FFFD41EC1D0B3648B0EE480AFE
:10241000F0EE680A0421784401F0D6FC53EC182B46
:1024200051EC100B04F0EEFD53EC192B04F004FBFF
:1024300041EC100B51EC1D0B53EC102B04F0B8FBCE
:1024400053EC1A2B04F0DEFD53EC1C2B04F0F4FAD1
:1024500041EC100B53EC102B9DED000B51EC100BCD
:1024600004F0EAFA53EC1B2B04F0CCFD41EC100B0A
:10247000D9E60000000000000000F03F000000006E
:10248000182D4454FB2109400000F07F000000009B
:1024900000000000000000000000E03F000000001D
:1024A000000000000000F03F075C143326A6913CBA
:1024B0000000603C00000000182D4454FB21F93F4F
:1024C000B4540000C2540000000000000000E03FCF
:1024D0000000000000000040FE5300000C5400000B
:1024E000105300001E53000070B59B482DED020BE9
:1024F0002DED068B079D25F00044A04218DC97487F
:10250000844202DC0AD1069840B19DED060BBDEC79
:10251000068B02B0BDE8704001F082BD002DCCBF3B
:102520009FED8F0B9FED900BBDEC068B02B070BD45
:102530008F48A04215DD8F48A042D8BF4FF0FF342E
:1025400058DD9DED060B51EC100BFFF7F6FD04284E
:1025500008BF01F099FD9DED060BBDEC068B02B0A6
:1025600070BD9DED060B51EC100B01F0EFFFCDE9B6
:10257000060181489FED828BA0423CDD8248A0424B
:102580001FDD00249FED82AB9DED060B53EC1A2B53
:1025900051EC100B04F050FA9DED060B41EC190BB9
:1025A00053EC1A2B51EC100B04F02CFD53EC182BB0
:1025B00004F034FF53EC192B04F0FAFACDE90601CC
:1025C00049E09DED060B012453EC182B51EC100B48
:1025D00004F032FA9DED060B41EC190B53EC182B6D
:1025E00051EC100B04F01AFF53EC192B04F0E0FA35
:1025F000CDE906012FE06848A0421FDD02249FEDCF
:10260000689B9DED060B53EC192B51EC100B04F05D
:10261000F9FC53EC182B04F00FFA9DED060B41EC7E
:10262000180B53EC192B51EC100B04F0F7FE53EC84
:10263000182B04F0BDFACDE906010CE09DED060B68
:10264000032453EC102B9FED580B51EC100B04F0AE
:10265000AFFACDE906019DED060B53EC102B51ECC2
:10266000100B04F0CFFC41EC180B53EC182B04F0CA
:10267000C9FC41EC190B4E480621B0EE490AF0EEB8
:10268000690A784401F0A0FB53EC182B51EC100BB5
:1026900004F0B8FC41EC180B4648B0EE490AF0EEE5
:1026A000690A0521784401F08FFB53EC192B51EC9A
:1026B000100B04F0A7FC41EC100B51EC180B53EC81
:1026C000102B002C0EDA04F0B7F99DED061B53EC2D
:1026D000112B04F097FC9DED061B53EC112B04F01D
:1026E000C5FD35E004F0A8F99DED061B53EC112B58
:1026F00004F088FC41EC100B2F48784400EBC40038
:1027000090ED001B51EC100B53EC112B04F086FEE6
:102710009DED061B53EC112B04F080FE41EC100BD9
:102720002648784400EBC40090ED001B51EC100BE0
:1027300053EC112B04F09AFD41EC100B002DA2BFBD
:10274000BDEC068B02B070BD51EC100B04F068F9C3
:1027500041EC100B01E70000000010440000F07F86
:10276000182D4454FB21F93F182D4454FB21F9BF87
:102770000000DC3F0000203E0000F33F00000000AE
:10278000000000000000F03F0000E63F00000000F5
:102790000000000000000040008003400000000036
:1027A000000000000000F83F000000000000F0BF43
:1027B000C25100007851000002510000BA500000E0
:1027C00070B56F4E2DED040B2DED048B82B0DDF84E
:1027D00024C0DDE907235C422CF000411C4341EAA0
:1027E000D474069D22F00040B44205D86C422C43BC
:1027F00040EAD474B4420BD99DED081B9DED060B45
:1028000002B0BDEC048B04B0BDE8704001F012BC16
:10281000ACF14054A4F17F641C430BD0022404EAC1
:10282000AC7444EAD27405439FED578B9FED582B4F
:1028300007D015E09DED060B51EC100B01F034FCB8
:1028400042E0002C11BF012C9DED060B02B0BDEC47
:10285000048B04BF04B070BD022C38D0032C3BD0D5
:102860000B439FED4D1B9FED4E0B0AD0B14218D18B
:10287000B04209D121F0804120F0804009910790B9
:102880000FE0002A15DA10E0474B7B44002C08BF0C
:1028900093ED000B0DD0012C10D0022C17D0032C7F
:1028A0001AD0B0421DD1002A03DAB0EE410AF0EE90
:1028B000610A02B0BDEC048B04B070BD93ED000B57
:1028C00051EC100B04F0ACF841EC100BF1E7B0EE5A
:1028D000480AF0EE680AECE7B0EE420AF0EE620A4F
:1028E000E7E7401A00159FED329B3C28C8BF8DEDED
:1028F000000B17DCBCF1000FBCBF10F13C0F8DEDDD
:10290000009B0FDB9DED080B53EC102B9DED060B90
:1029100051EC100B04F04CF901F018FE01F0C4FB6F
:10292000CDE90001B4B1012C10D0022C9FED220B97
:1029300053EC102B9DED000B51EC100B19D004F053
:102940006DFD53EC182B04F069FDBDE7019880F094
:10295000004001909DED000B53EC192B51EC100B36
:1029600004F07EFA04BF0220FDF72AFD9DED000B66
:102970009FE704F053FD53EC182B04F077FCA3E71A
:102980000000F07F00000000182D4454FB21094096
:10299000182D4454FB2109C0182D4454FB21F9BFC4
:1029A000182D4454FB21F93F1A500000000000008C
:1029B0000000000000000000075C143326A6A13CC4
:1029C00010B52F499FED2C1B2DED020B84B00598FF
:1029D00020F000408842D8BF9DED040B2DDD294931
:1029E000884209D1049840B94FF00100FDF7E8FC96
:1029F00001F02AFB06B010BD05DB9DED040B01F0D4
:102A00000FFB06B010BD68469DED040B00F008FFFB
:102A100010F0030004BF9DED021B9DED000B0CD0D8
:102A200001280ED09DED021B9DED000B022817D052
:102A3000012001F045FA06B010BD01F00DF906B015
:102A400010BD9DED021B9DED000B012001F038FA39
:102A500051EC100B03F0E4FF06B041EC100B10BD7D
:102A600001F0FAF851EC100B03F0DAFF06B041EC7C
:102A7000100B10BD0000000000000000000000006E
:102A8000FB21E93F0000F07F2DE9F04D2DED040B17
:102A90002DED0E8B96B0DDE92550279CDDF890A03A
:102AA00025F0004624F00048BAF1000F14BF0121C0
:102AB000002101EB4502FC4953184A1093422AD3E6
:102AC000002814BF0123002303EB44030B44F74900
:102AD0008B4220D358EA00019FEDF59B76D0DFF8BA
:102AE000D8B35D4503D1BAF1000F05D188E0BAF142
:102AF000000F08BF002100D0012101EB450111F5B5
:102B0000001F08D8002814BF0121002101EB440157
:102B100011F5001F0BD99DED261B9DED240B16B062
:102B2000BDEC0E8B04B0BDE8F04D01F083BA002778
:102B3000002DBCBFE149884521DAE1498845A8BF9D
:102B400002271CDAC3451ADCDE4901EB285114299F
:102B500008DDC1F1340220FA02F101FA02F28242E8
:102B60000DD108E058B9C1F1140228FA02F101FAB6
:102B700002F2424503D101F00101C1F1020756EA18
:102B80000A0124D1002C22DA002D18BF022F01D017
:102B9000012F0AD00220FDF713FC16B0BDEC0E8BFE
:102BA00004B0BDE8F04D01F023BA0220FDF708FCA7
:102BB00001F01EFA51EC100B03F032FF41EC100B48
:102BC00016B0BDEC0E8B04B0BDE8F08D18E09FEDA3
:102BD000BEAB9FEDBF8B002871D1B848804522D194
:102BE00005F1804010F5801008BFBAF1000F07D042
:102BF000B3450ADC002CA8BF9DED260BE0DA0DE002
:102C0000B0EE490AF0EE690ADAE7002C06DA9DED2B
:102C1000260B51EC100B03F003FF6FE0AE48784435
:102C200090ED000BCCE7D8454DD1002C48DA2EB101
:102C300086423AD1BAF1000F42D126E0BAF1000F34
:102C400013D00220FDF7BCFB01F00EFA8DED020B54
:102C50009DED240B8DED000B10EE900A039961F3AE
:102C60001E0003909DED020BAAE78DED02AB9DEDDA
:102C7000240B1AEE901A10EE900A8DED000B61F302
:102C80001E0003909DED020B9AE78DED028B9DEDEA
:102C9000240B18EE901A10EE900A8DED000B61F3E4
:102CA0001E0003909DED020B8AE709DA9DED240BCF
:102CB00051EC190B53EC102B03F07AFF1EE020E0CF
:102CC0009DED240B7CE786421BDAB4F1804F0DD0DA
:102CD000A4F10050B0F1FF5013D1002D11DB9DED98
:102CE000240B51EC100B03F033FE07E09DED240B99
:102CF00053EC102B51EC100B00F0C2BC41EC100B4C
:102D00005EE79DED240B51EC100B01F01FFCBAF1B6
:102D1000000FCDE90E0142D19FED710B46B3A6F134
:102D2000E040B0F17F600CD05E4538D1002D00DA74
:102D3000A7B3022F0CBF01204FF0FF3004F0FBF8C7
:102D4000DCE7002D01DD002C0DDA002D01DD002C6B
:102D50001FDB002D16DA002C14DB012F08BF9FEDBE
:102D6000620B3FF42DAFB0EE4A0AF0EE6A0A27E795
:102D7000022F18BF002D0CD0012F0AD1002DFFF615
:102D80001FAF06E0002DB8BF002C08DA012F3FF47A
:102D900017AFB0EE480AF0EE680A11E71BE0012019
:102DA00000EBE57050EA070115D0791EB0EE498AB4
:102DB000F0EE698A084308BF9FED4D8B4E48002511
:102DC000804570DD4D494E48884514DDB0420DDB2D
:102DD000002C19DB2FE00120FDF7F2FA16B0BDEC54
:102DE0000E8B04B0BDE8F04D01F02EB9B34502DC06
:102DF000002C09DC1FE0864202DA002C1BDA03E01B
:102E00005E452BDD002C16DD0220FDF7D9FA01F01E
:102E10002BF98DED020B53EC1A2B51EC180B04F02F
:102E2000F1F8CDE900010399019861F31E000390C8
:102E30009DED020BC4E60220FDF7C2FA01F024F971
:102E400010EE901A18EE900A8DED020B8DED008BAE
:102E500061F31E0003909DED020BB1E69DED0E0B9C
:102E600053EC192B51EC100B04F0D8FA9FED260B04
:102E7000CDE9080153EC102B9DED080B51EC100B24
:102E800004F0C0F89FED221B53EC112B04F0EEF977
:102E90009DED081B53EC112B04F0B4F89FED1E1BA5
:102EA00053EC112B3CE08CE0FFFF1F00FFFF0F00F5
:102EB000000000000000F03F0000F03F0000F07F45
:102EC0000000404301FCFFFF000000000000F07F15
:102ED0000000000000000000864C00000000000020
:102EE0000000000000000080000000000000F0FF73
:102EF000000000000000F0BF0000E0410000F043CF
:102F0000FFFFEF3F00000000000000000000D03F86
:102F1000555555555555D53F000000000000E03F80
:102F200004F0A4F99DED080B41EC1A0B53EC102BA7
:102F300051EC100B04F066F853EC1A2B04F062F815
:102F400041EC1A0B9FEDFE0B53EC102B9DED080B83
:102F500051EC100B04F056F841EC1B0B9FEDFA0BF3
:102F600051EC1A0B53EC102B04F04CF841EC1A0BFB
:102F70009FEDF70B53EC102B9DED080B51EC100B54
:102F800004F040F853EC1A2B04F048FA41EC1A0B09
:102F900051EC1B0B53EC1A2B03F04EFD0690CDE9C0
:102FA00006519DED060B53EC1B2B51EC100B04F05E
:102FB00035FA53EC1A2B04F059F941EC100B00F0E0
:102FC000A1B90020B6F5801F0EDA9FEDE30B53EC9C
:102FD000102B9DED0E0B51EC100B04F013F8CDE906
:102FE0000E016FF034000E4600EB2650A0F2FF37C2
:102FF000C6F31300DA4940F07F6646F04056884237
:10300000D8BF002408DDD7498142C8BF012403DCB2
:103010000024A6F580167F1CD348784400EBC4003A
:103020000F9690ED00CB9DED0E0B53EC1C2B51EC4D
:10303000100B04F0F3F99DED0E0B41EC1B0B53EC60
:103040001C2B51EC100B03F0F7FC41EC100B51EC76
:10305000190B53EC102B03F0ABFD41EC1D0B51ECA5
:103060001B0B53EC1D2B03F0CDFF41EC1A0BBF489B
:103070008DED10AB7844109590ED000B4FF00050A3
:1030800040EA660000EB84408DED080B00F500205F
:1030900009909DED080B53EC1C2B51EC100B04F028
:1030A000BDF99DED0E1B53EC112B04F0DFF841EC44
:1030B000100B53EC102B9DED100B51EC100B03F08B
:1030C000A1FF9DED080B41EC1C0B53EC102B9DED6B
:1030D000100B51EC100B03F095FF53EC1B2B04F07D
:1030E000C5F853EC1C2B04F099F953EC1D2B03F09D
:1030F00089FF41EC1C0B53EC1A2B51EC1A0B03F01B
:1031000081FF41EC1B0B9A480621B0EE4B0AF0EE12
:103110006B0A784400F058FEB0EE401AF0EE601AE8
:10312000B0EE41DAF0EE61DA53EC1B2B51EC1B0BE5
:1031300003F068FF53EC1D2B03F064FF9DED100BB3
:1031400041EC1B0B53EC1A2B51EC100B03F074FCED
:1031500053EC1C2B03F056FF53EC1B2B03F06CFCC1
:103160009DED100B41EC1B0B53EC102B51EC100B95
:1031700003F048FF41EC1D0B9FED7FEB53EC1E2B42
:1031800003F05AFC53EC1B2B03F056FC0890CDE9DE
:1031900008519DED080B53EC1E2B51EC100B04F065
:1031A0003DF953EC1D2B04F039F953EC1B2B04F0C3
:1031B0005DF89DED080B41EC1D0B53EC102B9DEDC4
:1031C000100B51EC100B03F01DFF41EC1B0B53ECEB
:1031D0001A2B51EC1D0B03F015FF9DED080B41EC74
:1031E0001A0B53EC102B51EC1C0B03F00BFF53ECA0
:1031F0001A2B03F021FC41EC1A0B51EC1B0B53EC86
:103200001A2B03F019FC0C90CDE90C519DED0C0B21
:1032100053EC1B2B51EC100B04F000F953EC1A2B60
:1032200004F024F841EC1B0B9FED550B53EC102BD5
:103230009DED0C0B51EC100B03F0E4FE41EC1A0B6E
:103240009FED510B51EC1B0B53EC102B03F0DAFEEE
:1032500041EC1B0B9FED4E0B53EC102B9DED0C0B1B
:1032600051EC100B03F0CEFE53EC1B2B03F0E4FBF0
:1032700041EC100B4848784400EBC40090ED001B73
:1032800051EC100B53EC112B03F0D6FB41EC1B0B54
:10329000384603F050FECDE9080153EC1B2B51ECEE
:1032A0001A0B03F0C9FB41EC100B3C48784400EBCF
:1032B000C40090ED00CB51EC100B53EC1C2B03F031
:1032C000BBFB9DED081B53EC112B03F0B5FB0690E7
:1032D000CDE906519DED080B53EC102B9DED060B2F
:1032E00051EC100B04F09AF853EC1C2B04F096F8F8
:1032F00053EC1A2B04F092F853EC1B2B03F0B6FF9F
:1033000041EC100B9DED261B53EC102B8DED001B9B
:1033100000959DED260B51EC100B03F073FE9DED17
:10332000000B41EC1A0B53EC102B9DED260B51ECCE
:10333000100B04F073F89DED061B53EC112B2FE0DE
:10334000000000604715F73FFE822B654715F73FE9
:1033500044DF5DF80BAE543E000000000000404327
:103360008E9803007AB60B003A4700003048000000
:10337000724600000000000000000000000008404D
:10338000000000E009C7EE3FFD033ADC09C7EE3F4D
:10339000F5015B14E02F3EBEFE440000B84400007F
:1033A00003F030FE53EC1A2B03F046FB9DED060BA9
:1033B00041EC1A0B53EC102B9DED000B51EC100B54
:1033C00003F020FECDE90C019DED0C0B51EC1A0B26
:1033D00053EC102B03F030FBCDE902010C46AA4957
:1033E0008C422FDB611A084318D19DED0C0B53EC76
:1033F000102B9DED020B51EC100B04F00FF841EC7B
:103400001B0B9FEDA30B51EC1A0B53EC102B03F08D
:1034100013FB53EC1B2B03F0F3FE2DD20220FCF721
:10342000CFFF00F021FE10EE901A18EE900A8DEDFD
:10343000020B8DED008B61F31E0003909DED020BDE
:10344000FFF7BEBB944A24F00041914214D3934944
:10345000214408437FF4EFAC9DED0C0B53EC102B93
:103460009DED020B51EC100B03F0D8FF53EC1A2B1F
:1034700003F0C6FE7FF6DFAC24F000408849894A9D
:10348000002601EB205182422BDA481C4FF48011B8
:1034900021FA00F02044844AC0F30A517A44A1F290
:1034A000FF3192ED000B814A8DED080BCA4020EAF6
:1034B0000202C0F3130040F48010C1F1140120FA9D
:1034C00001F60992002CB8BF76429DED080B53EC33
:1034D000102B9DED0C0B51EC100B03F09FFFCDE971
:1034E0000C019DED0C0B51EC1A0B53EC102B03F05F
:1034F000A3FA9FED6F0B0890CDE9085153EC102B08
:103500009DED080B51EC100B03F07CFD41EC1B0B07
:103510009FED690B53EC102B9DED080B51EC100B3C
:1035200003F070FD9DED0C0B41EC1C0B53EC102BCC
:103530009DED080B51EC100B03F070FF53EC1A2BB0
:1035400003F094FE9FED5E1B53EC112B03F05AFD2C
:1035500053EC1C2B03F070FA41EC1A0B51EC1B0BD3
:1035600053EC1A2B03F068FACDE902019DED020B32
:1035700053EC1B2B51EC100B03F050FF53EC1A2BA8
:1035800003F074FE9DED020B41EC1A0B53EC102B73
:1035900051EC100B03F036FDCDE908014A489DEDD2
:1035A000080B0521784400F00FFC9DED081B51EC41
:1035B000100B53EC112B03F025FD9DED021B53EC7A
:1035C000112B03F053FECDE906019DED020B53ECE8
:1035D0001A2B51EC100B03F015FD53EC1A2B03F0D2
:1035E0002BFA9FED3B0B41EC1A0B53EC102B9DED8E
:1035F000060B51EC100B03F011FF9DED060B41EC97
:103600001B0B53EC102B9DED020B51EC100B03F038
:10361000F9FC53EC1B2B03F0CBFA53EC1A2B03F001
:10362000FDFE9DED021B53EC112B03F0F7FE53EC56
:10363000192B03F01BFECDE9020101EB0650011529
:103640000029C8BF039015DC9DED020B324651ECFA
:10365000100B04F004F8FEF770FD042808BF00F01A
:1036600013FD32469DED020B51EC100B03F0F7FFFA
:10367000CDE902019DED020B51EC180B53EC102B20
:1036800003F0C0FCFFF73ABB0000904000000000D0
:10369000FE822B654715973C00CC904000346F3F6D
:1036A00001FCFFFF0000E03F08440000FFFF0F00A7
:1036B00000000000432EE63F396CA80C615C20BE80
:1036C000EF39FAFE422EE63F1042000000000000F3
:1036D000000000000000004010B52F499FED2C1B9A
:1036E0002DED020B84B0059820F000408842DCBF2D
:1036F00000209DED040B32DD2849884209D1049851
:1037000040B94FF00100FCF75BFE00F09DFC06B0F5
:1037100010BD05DB9DED040B00F082FC06B010BD72
:1037200068469DED040B00F07BF810F0030011D00B
:10373000012818D09DED021B9DED000B02281AD028
:1037400000F08AFA51EC100B03F06AF906B041EC74
:10375000100B10BD9DED021B9DED000B012000F034
:10376000AFFB06B010BD9DED021B9DED000B00F000
:1037700073FA06B010BD012000F0A2FB51EC100B53
:1037800003F04EF906B041EC100B10BD0000000034
:103790000000000000000000FB21E93F0000F07F76
:1037A00000B52DED048BB0EE409AF0EE609A83B038
:1037B00051EC190B03F066FD41EC180B18EE100AE2
:1037C00018EE901A8DED008B002818BF01200843D9
:1037D00020F00040C0F17F6000F1E040C00F14D045
:1037E00019EE101A19EE900A8DED009B002918BFF2
:1037F0000121084320F00040C0F17F6000F1E0406B
:10380000C00F04BF0120FCF7DBFDB0EE480A03B097
:10381000F0EE680ABDEC048B00BD00000000000063
:103820002DE9F14F04462DED020B2DED088B8AB0EA
:103830009FEDE70B80ED020B139EE74826F0004555
:1038400085420ADC9DED120B002084ED000B0AB0CE
:10385000BDEC088B03B0BDE8F08FE0489FEDE0AB16
:103860009FEDE1BBA84247DDE14F9FEDE39B9FED5C
:10387000E48B9DED120B53EC1A2B51EC100B002E28
:103880001CDD03F0CBFD41EC100BBD4208D053EC26
:103890001B2B51EC100B03F0C1FDC4E900010BE040
:1038A00053EC192B51EC100B03F0B8FD53EC182B13
:1038B00003F0B4FDC4E900010120C8E703F0BCF83F
:1038C00041EC100BBD4208D053EC1B2B51EC100BFC
:1038D00003F0B2F8C4E900010BE053EC192B51ECF2
:1038E000100B03F0A9F853EC182B03F0A5F8C4E96A
:1038F00000014FF0FF30AAE7C348A84279DB9DEDF5
:10390000120B51EC100B00F021FE41EC180B9FED57
:10391000C00B53EC102B03F075FB9FEDBF1B53EC5A
:10392000112B03F089F803F0D7FA074603F003FBE5
:1039300041EC190B53EC1A2B03F064FB53EC182BDE
:1039400003F094FC41EC180B53EC1B2B51EC190BBE
:1039500003F058FBDFF8C8A241EC100B4FEA1558F2
:103960000125FA4453EC102B51EC180B03F056FDD3
:10397000032DC4E900013DD0C1F30A5005EB451108
:10398000A8EB00001139814234DA0AEB051BB0EED6
:1039900048AA9BED000BF0EE68AA53EC102B51ECFB
:1039A000190B03F02FFB41EC1B0B51EC1A0B53ECE2
:1039B0001B2B03F033FD41EC180B51EC1A0B53ECAD
:1039C000182B03F02BFD53EC1B2B03F027FD9BED75
:1039D000020B41EC1A0B53EC102B51EC190B03F0BA
:1039E00011FB53EC1A2B03F019FD41EC100B6D1C6D
:1039F000B8E70EE0002EA8BF3846BFF628AF94ED1A
:103A0000000B51EC100B03F00BF8C4E900017842F5
:103A10001DE7C6F3130040F4801EC6F30A50A0F25F
:103A2000F530471100F01F05C5F12000DDF848B062
:103A300008900020069007900520EC467949002D5B
:103A400007EB0002794408BF51F8221009D051F861
:103A5000223001EB8201AB404A68089922FA01F159
:103A60001943A1FB0E26A1FB0B131A449A4234BF43
:103A70000123002303EB06080CEB8003D3E901A626
:103A80000E448E4234BF0121002192448A4411B178
:103A9000924502D903E0924501D2012100E00021C4
:103AA000C3E901A641444CF82010011EA0F1010019
:103AB000C4DC029800F10050850F0298DDE903672D
:103AC0008000DDF8148003F036FA41EC1A0B304622
:103AD00003F048FA9FED541B53EC112B03F092FABC
:103AE00041EC1B0B384603F03DFA9FED511B53ECA4
:103AF000112B03F087FA41EC180B404603F032FA21
:103B00009FED4D1B53EC112B03F07CFA41EC190B8C
:103B100051EC180B53EC192B02F08EFF53EC1B2BBE
:103B200002F08AFF53EC1A2B02F086FFCDE9080160
:103B3000002008909DED080B53EC1A2B51EC100B54
:103B400003F06CFC53EC1B2B03F068FC53EC182BBC
:103B500003F064FC53EC192B03F088FB9FED381B3A
:103B600053EC112B03F04EFA9FED370B41EC180B81
:103B700053EC102B9DED080B51EC100B03F042FAA7
:103B800053EC182B02F058FF9FED310B41EC180B52
:103B900053EC102B9DED080B51EC100B03F032FA97
:103BA00053EC182B02F048FF41EC100B139810F067
:103BB000004F06D06D4251EC100B02F031FF41EC8A
:103BC000100B284684ED000B41E6000000000000C9
:103BD0000000000000000000FB21E93F7CD902400A
:103BE00000004054FB21F93F3163621A61B4D03DBB
:103BF000FB21F93F000000000000601A61B4D03DD5
:103C00007370032E8A19A33BFB2139410000000089
:103C100083C8C96D305FE43F000000000000E03F52
:103C20004A3F0000983E0000000000000000103EE7
:103C3000000000000000103C000000000000103AEE
:103C4000182D4454FB21F93D3326A611460B113C97
:103C500000000054FB21F93D10B52DED040B2DEDB6
:103C6000088B82B0B0EE419AF0EE619A0B9820F08A
:103C700000449FED4BABB4F1795F11DA9DED0A0B77
:103C800051EC100B03F028F9002801BFB0EE4A0AEE
:103C9000F0EE6A0A02B0BDEC088B04BF04B010BDA0
:103CA0009DED0A0B53EC102B51EC100B03F0AAF90D
:103CB00041EC180B3C480621B0EE480AF0EE680AC9
:103CC000784400F081F853EC182B51EC100B03F002
:103CD00099F99DED0A0B41EC1B0B53EC192B51ECA0
:103CE000100B03F08FF941EC190B53EC1B2B51EC2B
:103CF000180B03F087F953EC192B03F08FFB9FEDA2
:103D00002C0B41EC190B53EC102B51EC180B03F05E
:103D100079F941EC100B2848844210DA53EC192B46
:103D200051EC100B03F07AFB53EC1A2B03F09EFAC4
:103D300041EC100B02B0BDEC088B04B010BD1F4865
:103D4000A042BCBF9FED1E1B8DED001B06DBA4F542
:103D500000100190002000909DED001B51EC100B15
:103D600053EC112B03F05AFB9DED000B41EC180BAB
:103D700053EC102B51EC1A0B03F050FB41EC1A0BD7
:103D800053EC192B51EC180B03F048FB53EC1A2B96
:103D900003F06CFA41EC100BCCE7000000000000CF
:103DA000000000000000F03FB43B000000000000F5
:103DB000000000000000E03F3333D33F0000E93F44
:103DC000000000000000D23F70B504462DED028BCC
:103DD0004D1E00EBC500B0EE408AF0EE608A90ED1B
:103DE000000B35F0060017D053EC182B51EC100BDC
:103DF00003F008F941EC100B6D1E04EBC50090EDCB
:103E0000001B51EC100B53EC112B02F015FE41EC92
:103E1000100B35F00600E7D1022D36D0042D1CD052
:103E2000062D1CBFBDEC028B70BD53EC182B51EC62
:103E3000100B03F0E7F894ED0A1B53EC112B02F082
:103E4000FBFD53EC182B03F0DDF894ED081B53EC4D
:103E5000112B02F0F1FD41EC100B53EC182B51EC3F
:103E6000100B03F0CFF894ED061B53EC112B02F06E
:103E7000E3FD53EC182B03F0C5F894ED040B53EC61
:103E8000102B02F0D9FD41EC100B53EC182B51EC28
:103E9000100B03F0B7F894ED021B53EC112B02F05A
:103EA000CBFD53EC182B03F0ADF894ED001B53EC55
:103EB000112B02F0C1FDBDEC028B41EC100B70BD6B
:103EC00031B504462DED040B2DED0A8BB0EE41BA51
:103ED000F0EE61BA0B989DED0A0B20F00040B0F1B6
:103EE000795F0DDA51EC100BFEF727F9042808BFB3
:103EF00000F0CAF89DED0A0BBDEC0A8B05B030BD91
:103F000053EC102B51EC100B03F07CF841EC180B28
:103F10009DED0A0B53EC182B51EC100B03F072F8CB
:103F200041EC190B2C48B0EE480AF0EE680A052166
:103F30007844FFF749FF9FED2ACBB0EE40AAF0EEA0
:103F400060AA9CB353EC1C2B51EC190B03F05AF8EC
:103F500041EC1C0B53EC1A2B51EC190B03F052F8EB
:103F60009FED210B41EC190B53EC102B51EC1B0B6B
:103F700003F048F853EC192B03F050FA53EC182BCC
:103F800003F040F853EC1B2B03F048FA53EC1C2BC6
:103F900003F044FA9DED0A1B53EC112B03F066F974
:103FA000BDEC0A8B05B041EC100B30BDFFE753ECC4
:103FB0001A2B51EC180B03F025F853EC1C2B02F0D4
:103FC0003BFD53EC192B03F01DF89DED0A1B53EC40
:103FD000112B02F031FDE3E7443A0000000000003D
:103FE000495555555555C5BF000000000000E03F3C
:103FF0009FED070B10B553EC102B9FED070B51EC09
:10400000100B02F0D5FD41EC100B10BD00000000BC
:104010000000000000000000000000000000F03F71
:1040200010B553EC102B51EC100B02F005FD41ECD8
:10403000100B10BD10B553EC112B51EC100B02F00E
:10404000FBFC41EC100B10BD9FED050B10B553ECC4
:10405000102B51EC100B02F0ABFD41EC100B10BD1E
:1040600000000000000000009FED050B10B553ECB0
:10407000102B51EC100B02F0C5FF41EC100B10BDE2
:1040800000000000000000709FED050B10B553EC20
:10409000102B51EC100B02F0B5FF41EC100B10BDD2
:1040A000000000000000001010B541EC100BFEF7FE
:1040B0001BFA51EC100B10BD70B500F5AB62044655
:1040C00000F5EC712DED048B164600F5AC7001F097
:1040D000BDFC04F5BB62154604F51671304601F0CF
:1040E000B5FC04F5CB62164604F53671284601F09E
:1040F000ADFC04F5DB62154604F55671304601F05F
:10410000A5FC04F5EB62164604F57671284601F02D
:104110009DFC04F5FB62154604F58B61304601F009
:1041200095FC04F6580204F59B61284601F08EFCCC
:1041300004F50A6414ED0C0B84ED0E0B14ED040B66
:1041400084ED100B94ED040B84ED120B94ED020B37
:104150009FED4E9BB0EE491AF0EE691AFEF794FC03
:10416000B0EE408AF0EE608A94ED000BB0EE491A92
:10417000F0EE691AFEF788FC53EC182B51EC100B8B
:1041800002F05AFC41EC100BFFF70AFBB0EE408A3C
:10419000F0EE608A14ED020B51EC100B02F040FCC3
:1041A00041EC100BB0EE481AF0EE681AFEF708FB6F
:1041B00084ED160BFEF704FC94ED021B53EC102B60
:1041C00051EC110B02F0F4FC41EC180B94ED160BC2
:1041D000FEF7F6FB94ED001B53EC102B51EC110B8A
:1041E00002F0E6FC41EC100BB0EE481AF0EE681A53
:1041F000FEF7E6FA84ED140B94ED160BFEF7E0FBE8
:1042000014ED121B53EC102B51EC110B02F0D0FCEF
:1042100041EC180B94ED160BFEF7D2FB14ED0A1BC4
:1042200053EC102B51EC110B02F0C2FC41EC100BC3
:10423000B0EE481AF0EE681AFEF7C2FA84ED180BD9
:10424000B0EE409AF0EE609A94ED140B9FED118B56
:1042500051EC100B53EC182B02F0AAFCC4E91A0124
:1042600094ED160B53EC182B51EC100B02F0A0FC44
:10427000C4E91C0153EC182B51EC190B02F098FC0B
:10428000C4E91E01BDEC048B70BD000000000000FD
:1042900000000040399D52A246DF913F70B500F505
:1042A00000642DED068B00F58065B1B3012956D071
:1042B00002292FD195ED3C1B94ED780B53EC112B7B
:1042C00051EC100B02F09EFE95ED441B94ED7A0B21
:1042D00041EC180B53EC112B51EC100B02F092FE39
:1042E00041EC190B95ED4C0B94ED7C1B53EC102B12
:1042F00051EC110B02F086FE41EC1A0B53EC192B1A
:1043000051EC180B02F098FB53EC1A2B02F094FBC3
:1043100041EC100BBDEC068B70BDFFE795ED3C0B3F
:1043200094ED681B53EC102B51EC110B02F06AFE5C
:1043300095ED441B94ED6A0B41EC180B53EC112BDB
:1043400051EC100B02F05EFE95ED4C1B94ED6C0BE6
:1043500041EC190B53EC112B51EC100BCAE795ED06
:104360003C1B94ED700B53EC112B51EC100B02F035
:1043700049FE95ED441B94ED720B41EC180B53EC88
:10438000112B51EC100B02F03DFE41EC190B95ED99
:104390004C0B94ED741BA9E710B5044641F2501084
:1043A000204400F017F804F580509FED081B80EDC5
:1043B0009C0B53EC112B51EC100B02F051FD01D171
:1043C000012000E00020207010BD0000000000006F
:1043D000000000002DE9F04F2DED068BADF5117DAD
:1043E0009FED568B002211469FED569B48AC6B46C5
:1043F00002E000218A420DD102EB420504EB0515D3
:1044000005EBC105B0EE480AF0EE680A85ED000B39
:10441000A0460CE002EB420508EB051505EBC105D3
:10442000B0EE490AF0EE690A444685ED000B02EB56
:10443000420500EB051606EBC10603EB051505EB7F
:10444000C10596ED000B491C85ED000B0629D1DB5B
:10445000521C062ACDDB002401269B4601E0661C87
:104460004CE004EB44000BEB001707EBC4095D467E
:1044700099ED000B53EC192B51EC100B02F0F0FCF2
:1044800009D1B0EE490AF0EE690A0DF5117DBDECD7
:10449000068BBDE8F08FAB4606EB46050BEB051A25
:1044A0000AEBC40099ED000B90ED001B53EC102BB0
:1044B00051EC110B02F07CFB41EC1A0B08EB0510E0
:1044C00000EBC400254680ED00AB14E007EBC5000F
:1044D00090ED000B51EC1A0B53EC102B02F092FDF7
:1044E0000AEBC50999ED001B53EC112B02F0BEFE3F
:1044F0006D1CC9E90001062DE8DB761C062EB0DB39
:10450000641C062CABDB00244FEA0B0504EB4400D3
:1045100005EB001000EBC40090ED000B51EC180B04
:1045200053EC102B02F06EFD41EC180B641C062CB2
:10453000ECDBB0EE480AF0EE680AA6E700000000E7
:104540000000F03F000000000000000082B0CDE954
:10455000000121F0004001909DED000B02B051ECF4
:10456000100B7047F0B500F580652DED108B00F550
:1045700000670446B5B095ED5C0B97ED1CAB53ECB2
:10458000102B51EC1A0B02F049FF41EC1B0B04F508
:10459000406686EDE8BB95ED640B97ED249B53ECEC
:1045A000102B51EC190B02F039FF41EC1C0B86ED7E
:1045B000EACB95ED6C0B97ED2C8B53EC102B51EC5B
:1045C000180B02F02BFF41EC1D0B51EC1A0B86ED82
:1045D000ECDB95ED7C0B53EC102B02F01FFF41EC54
:1045E000100B51EC190B86EDEE0B8DED000B8DEDE4
:1045F000020B95ED840B53EC102B02F00FFF41ECF6
:10460000100B51EC180B86EDF00B8DED080B8DEDBA
:10461000060B95ED8C0B53EC102B02F0FFFE41ECDA
:10462000100B51EC1A0B86EDF20B8DED160B95ED80
:104630009C0B53EC102B02F0F1FE41EC100B51ECF3
:10464000190B86EDF40B8DED140B95EDA40B53ECCB
:10465000102B02F0E3FE41EC100B51EC180B86ED31
:10466000F60B8DED220B95EDAC0B53EC102B02F0FD
:10467000D5FE41EC100B51EC1A0B86EDF80B8DEDCD
:10468000120B95EDBC0B53EC102B02F0C7FE41EC66
:10469000100B51EC190B86EDFA0B8DED200B95EDFF
:1046A000C40B53EC102B02F0B9FE41EC100B51EC93
:1046B000180B86EDFC0B8DED100B95EDCC0B53EC30
:1046C000102B02F0ABFE41EC100B51EC1A0B86EDF7
:1046D000FE0B8DED1E0B95EDDC0B53EC102B02F059
:1046E0009DFE41EC100B04F5805651EC190B86ED44
:1046F000000B8DED0E0B95EDE40B303653EC102BCB
:1047000002F08CFE41EC100B51EC180B06ED0A0B7D
:104710008DED1C0B95EDEC0B53EC102B02F07EFE97
:1047200041EC100B51EC1A0B06ED080B8DED1A0B3A
:1047300095EDFC0B53EC102B02F070FE41EC1A0BC4
:1047400051EC190B06ED06AB97ED040B53EC102B57
:1047500002F064FE41EC100B51EC180B06ED040B5B
:104760008DED2A0B97ED0C0B53EC102B02F056FE3F
:1047700041EC180B53EC1C2B06ED028B95ED6AFBFC
:1047800051EC1F0B02F03EFC95ED62EB41EC190B76
:1047900053EC1D2B51EC1E0B02F034FC53EC192B87
:1047A00002F03CFEC6E9000195ED5A9B53EC1D2B2F
:1047B00051EC190B02F026FC41EC1D0B53EC1B2BAA
:1047C00051EC1F0B02F01EFC53EC1D2B02F026FED9
:1047D000C6E9020153EC1B2B51EC1E0B02F012FC3C
:1047E00041EC1B0B53EC1C2B51EC190B02F00AFC97
:1047F00053EC1B2B02F012FEC6E9040195ED8ACBA7
:104800009DED060B51EC1C0B53EC102B02F0FAFB48
:1048100095ED829B9DED160B41EC1B0B53EC102B81
:1048200051EC190B02F0EEFB53EC1B2B02F0F6FDE2
:10483000C6E9060195ED7ABB9DED160B51EC1B0BFD
:1048400053EC102B02F0DEFB9DED020B41EC1D0B37
:1048500053EC102B51EC1C0B02F0D4FB53EC1D2B32
:1048600002F0DCFDC6E908019DED000B51EC190BCF
:1048700053EC102B02F0C6FB9DED080B41EC190B1D
:1048800053EC102B51EC1B0B02F0BCFB53EC192B1F
:1048900002F0C4FDC6E90A0195EDAABB9DED220B0D
:1048A00051EC1B0B53EC102B02F0ACFB95EDA2CBA3
:1048B0009DED120B41EC190B53EC102B51EC1C0B22
:1048C00002F0A0FB53EC192B02F0A8FDC6E90C0185
:1048D00095ED9A9B9DED120B51EC190B53EC102B9F
:1048E00002F090FB9DED140B41EC1D0B53EC102BD3
:1048F00051EC1B0B02F086FB53EC1D2B02F08EFDDE
:10490000C6E90E019DED140B51EC1C0B53EC102B62
:1049100002F078FB9DED220B41EC1B0B53EC102BAE
:1049200051EC190B02F06EFB53EC1B2B02F076FDE1
:10493000C6E9100195EDCACB9DED100B51EC1C0B97
:1049400053EC102B02F05EFB95EDC29B9DED1E0B10
:1049500041EC1B0B53EC102B51EC190B02F052FBEA
:1049600053EC1B2B02F05AFDC6E9120195EDBABBC0
:104970009DED1E0B51EC1B0B53EC102B02F042FB78
:104980009DED200B41EC1D0B53EC102B51EC1C0B3F
:1049900002F038FB53EC1D2B02F040FDC6E9140178
:1049A0009DED200B51EC190B53EC102B02F02AFB60
:1049B0009DED100B41EC190B53EC102B51EC1B0B24
:1049C00002F020FB53EC192B02F028FDC6E916017A
:1049D00095EDEABB9DED1C0B51EC1B0B53EC102B22
:1049E00002F010FB95EDE2CB9DED1A0B41EC190B9B
:1049F00053EC102B51EC1C0B02F004FB53EC192B65
:104A000002F00CFDC6E9180195EDDA9B9DED1A0B3D
:104A100051EC190B53EC102B02F0F4FA9DED0E0B38
:104A200041EC1D0B53EC102B51EC1B0B02F0EAFA7E
:104A300053EC1D2B02F0F2FCC6E91A019DED0E0BA2
:104A400051EC1C0B53EC102B02F0DCFA9DED1C0B0F
:104A500041EC1B0B53EC102B51EC190B02F0D2FA6A
:104A600053EC1B2B02F0DAFCC6E91C0197ED0ABBE4
:104A70009DED2A0B51EC1B0B53EC102B02F0C2FAEC
:104A800097ED02CB41EC190B53EC182B51EC1C0B9E
:104A900002F0B8FA53EC192B02F0C0FCC6E91E0173
:104AA00095EDFA9B53EC182B51EC190B02F0AAFA76
:104AB00041EC180B53EC1A2B51EC1B0B02F0A2FA31
:104AC00053EC182B02F0AAFCC6E9200153EC1A2B78
:104AD00051EC1C0B02F096FA9DED2A0B41EC180BE1
:104AE00053EC102B51EC190B02F08CFA53EC182BF1
:104AF00002F094FCC6E92201002001E0032822DA3A
:104B000004EBC00101F5805100EB400204EB0212FE
:104B100091ED0C0B02F5805282ED540B91ED120BCE
:104B200082ED560B91ED180B82ED580B91ED1E0B9B
:104B300082ED5A0B91ED240B82ED5C0B91ED2A0B6B
:104B400082ED5E0B21E004EB401202F5806200EB87
:104B5000400104EB011192ED420B01F5805181ED12
:104B6000540B92ED620B81ED560B92ED820B81EDB1
:104B7000580B92EDA20B81ED5A0B92EDC20B81ED19
:104B80005C0B92EDE20B81ED5E0B401C0628B5DB61
:104B900035B0BDEC108BF0BD70B504462DED0A8B21
:104BA0009FEDFE9B80ED569B9FEDFE8B80ED588B1D
:104BB00080ED5A8B80ED5C8B80ED5E8B80ED609B91
:104BC00080ED628B80ED648B80ED668B80ED688B71
:104BD00080ED6A9B80ED6C8B80ED6E8B84ED708B2D
:104BE00084ED728B84ED749B94ED020BFDF7E8FE6F
:104BF00001F08EFE84ED760B94ED260BFDF7E0FEC2
:104C0000B0EE40AAF0EE60AA94ED020BFEF764FD50
:104C100051EC100B01F004FF53EC1A2B02F0F2F9E7
:104C200041EC100B01F074FE84ED780B94ED260B33
:104C3000FEF752FDB0EE40AAF0EE60AA94ED020B32
:104C4000FEF74AFDB0EE401AF0EE601A53EC1A2B54
:104C500051EC110B02F0D6F941EC100B01F058FEAB
:104C600084ED7A0B94ED020BFDF7AAFE94ED1A1B6E
:104C700051EC100B53EC112B02F0C4F941EC100B6A
:104C800001F046FE84ED7C0B94ED020BFEF724FD53
:104C900001F03EFE84ED7E0B94ED260BFDF790FEB9
:104CA000B0EE40AAF0EE60AA94ED020BFDF788FE8C
:104CB000B0EE401AF0EE601A53EC1A2B51EC110BC7
:104CC00002F0A0F941EC100B01F022FE84ED800B04
:104CD00094ED260BFEF700FDB0EE40AAF0EE60AAC0
:104CE00094ED020BFDF76CFE51EC100B01F098FEF9
:104CF00053EC1A2B02F086F941EC100B01F008FE80
:104D000084ED820B94ED020BFEF7E6FC94ED1A1B8A
:104D100051EC100B53EC112B02F074F941EC100B19
:104D200001F0F6FD84ED840B84ED868B94ED260B6B
:104D3000FEF7D2FC01F0ECFD84ED880B94ED260B20
:104D4000FDF73EFE01F0E4FD84ED8A0B94ED0E0BC1
:104D500001F0DEFD84ED8C0B84ED8E8B84ED908B69
:104D600084ED928B84ED949B94ED040BFDF728FE6B
:104D700001F0CEFD84ED960B94ED280BFDF720FE9F
:104D8000B0EE40AAF0EE60AA94ED040BFEF7A4FC8E
:104D900051EC100B01F044FE53EC1A2B02F032F9E7
:104DA00041EC100B01F0B4FD84ED980B94ED280B51
:104DB000FEF792FCB0EE40AAF0EE60AA94ED040B70
:104DC000FEF78AFCB0EE401AF0EE601A53EC1A2B94
:104DD00051EC110B02F016F941EC100B01F098FDAB
:104DE00084ED9A0B94ED040BFDF7EAFD94ED1C1B8A
:104DF00051EC100B53EC112B02F004F941EC100BA9
:104E000001F086FD84ED9C0B94ED040BFEF764FC31
:104E100001F07EFD84ED9E0B94ED280BFDF7D0FD97
:104E2000B0EE401AF0EE601AB0EE41AAF0EE61AAC0
:104E300094ED040BFDF7C4FD53EC1A2B51EC100B51
:104E400002F0E0F841EC100B01F062FD84EDA00BE4
:104E500094ED280BFEF740FCB0EE40AAF0EE60AAFD
:104E600094ED040BFDF7ACFD51EC100B01F0D8FDF7
:104E700053EC1A2B02F0C6F841EC100B01F048FD80
:104E800084EDA20B94ED040BFEF726FC94ED1C1BA5
:104E900051EC100B53EC112B02F0B4F841EC100B59
:104EA00001F036FD84EDA40B84EDA68B94ED280B68
:104EB000FEF712FC01F02CFD84EDA80B94ED280BFD
:104EC000FDF77EFD01F024FD84EDAA0B94ED100B9F
:104ED00001F01EFD84EDAC0B84EDAE8B84EDB08B48
:104EE00084EDB28B84EDB49B94ED060BFDF768FD69
:104EF00001F00EFD84EDB60B94ED2A0BFDF760FD7D
:104F0000B0EE40AAF0EE60AA94ED060BFEF7E4FBCB
:104F100051EC100B01F084FD53EC1A2B02F072F8E7
:104F200041EC100B01F0F4FC84EDB80B94ED2A0B6E
:104F3000FEF7D2FBB0EE40AAF0EE60AA94ED060BAD
:104F4000FEF7CAFB53EC1A2B51EC100B02F05AF887
:104F500041EC100B01F0DCFC84EDBA0B94ED060B78
:104F6000FDF72EFD94ED1E1B51EC100B53EC112B95
:104F700002F048F841EC100B01F0CAFC84EDBC0BC8
:104F800094ED060BFEF7A8FB01F0C2FC84EDBE0B0E
:104F900094ED2A0BFDF714FD08E00000000000006E
:104FA0000000F03F0000000000000000B0EE40AA4A
:104FB000F0EE60AA94ED060BFDF702FDB0EE401A8C
:104FC000F0EE601A53EC1A2B51EC110B02F01AF8A8
:104FD00041EC100B01F09CFC84EDC00B94ED2A0B0E
:104FE000FEF77AFBB0EE40AAF0EE60AA94ED060B55
:104FF000FDF7E6FC51EC100B01F012FD53EC1A2BFF
:1050000002F000F841EC100B01F082FC84EDC20BC1
:1050100094ED060BFEF760FB94ED1E1B51EC100B9C
:1050200053EC112B01F0EEFF41EC100B01F070FC82
:1050300084EDC40B84EDC68B94ED2A0BFEF74CFB7C
:1050400001F066FC84EDC80B94ED2A0BFDF7B8FC6B
:1050500001F05EFC84EDCA0B94ED120B01F058FCDC
:1050600084EDCC0B84EDCE8B84EDD08B84EDD28B94
:1050700084EDD49B94ED080BFDF7A2FC01F048FCF5
:1050800084EDD60B94ED2C0BFDF79AFCB0EE40AA04
:10509000F0EE60AA94ED080BFEF71EFB51EC100B2E
:1050A00001F0BEFC53EC1A2B01F0ACFF41EC100BED
:1050B00001F02EFC84EDD80B94ED2C0BFEF70CFBCD
:1050C000B0EE40AAF0EE60AA94ED080BFEF704FBE8
:1050D00053EC1A2B51EC100B01F094FF41EC100B28
:1050E00001F016FC84EDDA0B94ED080BFDF768FC7B
:1050F00094ED201B51EC100B53EC112B01F082FFAF
:1051000041EC100B01F004FC84EDDC0B94ED080B7A
:10511000FEF7E2FA01F0FCFB84EDDE0B94ED2C0BC4
:10512000FDF74EFCB0EE40AAF0EE60AA94ED080B3D
:10513000FDF746FC53EC1A2B51EC100B01F062FF0B
:1051400041EC100B01F0E4FB84EDE00B94ED2C0B33
:10515000FEF7C2FAB0EE40AAF0EE60AA94ED080B9A
:10516000FDF72EFC51EC100B01F05AFC53EC1A2BFE
:1051700001F048FF41EC100B01F0CAFB84EDE20B9B
:1051800094ED080BFEF7A8FA94ED201B51EC100BE0
:1051900053EC112B01F036FF41EC100B01F0B8FB82
:1051A00084EDE40B84EDE68B94ED2C0BFEF794FA82
:1051B00001F0AEFB84EDE80B94ED2C0BFDF700FC49
:1051C00001F0A6FB84EDEA0B94ED140B01F0A0FBBB
:1051D00084EDEC0B84EDEE8B84EDF08B84EDF28BA3
:1051E00084EDF49B94ED0A0BFDF7EAFB01F090FBD4
:1051F00084EDF60B94ED2E0BFDF7E2FBB0EE40AA2A
:10520000F0EE60AA94ED0A0BFEF766FA51EC100B73
:1052100001F006FC53EC1A2B01F0F4FE41EC100BEC
:1052200001F076FB84EDF80B94ED2E0BFEF754FAAB
:10523000B0EE40AAF0EE60AA94ED0A0BFEF74CFA2D
:10524000B0EE401AF0EE601A53EC1A2B51EC110B31
:1052500001F0D8FE41EC100B01F05AFB84EDFA0B83
:1052600094ED0A0BFDF7ACFB94ED221B51EC100BF7
:1052700053EC112B01F0C6FE41EC100B01F048FB82
:1052800084EDFC0B94ED0A0BFEF726FA01F040FBCF
:1052900084EDFE0B94ED2E0BFDF792FBB0EE40AAD1
:1052A000F0EE60AA94ED0A0BFDF78AFBB0EE401A0F
:1052B000F0EE601A53EC1A2B51EC110B01F0A2FE28
:1052C00041EC100B01F024FB04F5806585ED000B2B
:1052D00094ED2E0BFEF700FAB0EE40AAF0EE60AAB5
:1052E00094ED0A0BFDF76CFB51EC100B01F098FBF1
:1052F00053EC1A2B01F086FE41EC100B01F008FB79
:1053000085ED020B94ED0A0BFEF7E6F994ED221BF6
:1053100051EC100B53EC112B01F074FE41EC100B0F
:1053200001F0F6FA85ED040B85ED068B94ED2E0B5E
:10533000FEF7D2F901F0ECFA85ED080B94ED2E0B97
:10534000FDF73EFB01F0E4FA85ED0A0B94ED160B38
:1053500001F0DEFA85ED0C0B85ED0E8B85ED108BE3
:1053600085ED128B85ED149B94ED0C0BFDF728FB5E
:1053700001F0CEFA85ED160B94ED300BFDF720FB16
:10538000B0EE40AAF0EE60AA94ED0C0BFEF7A4F983
:1053900051EC100B01F044FB53EC1A2B01F032FEE0
:1053A00041EC100B01F0B4FA85ED180B94ED300BC5
:1053B000FEF792F9B0EE40AAF0EE60AA94ED0C0B65
:1053C000FEF78AF9B0EE401AF0EE601A53EC1A2B91
:1053D00051EC110B01F016FE41EC100B01F098FAA4
:1053E00085ED1A0B94ED0C0BFDF7EAFA94ED241BF6
:1053F00051EC100B53EC112B01F004FE41EC100B9F
:1054000001F086FA85ED1C0B94ED0C0BFEF764F9A8
:1054100001F07EFA85ED1E0B94ED300BFDF7D0FA0E
:10542000B0EE40AAF0EE60AA94ED0C0BFDF7C8FABE
:1054300053EC1A2B51EC100B01F0E4FD41EC100B76
:1054400001F066FA85ED200B94ED300BFEF744F980
:10545000B0EE40AAF0EE60AA94ED0C0BFDF7B0FAA6
:1054600051EC100B01F0DCFA53EC1A2B01F0CAFDE1
:1054700041EC100B01F04CFA85ED220B94ED0C0B76
:10548000FEF72AF994ED241B51EC100B53EC112B71
:1054900001F0B8FD41EC100B01F03AFA85ED240B58
:1054A00085ED268B94ED300BFEF716F901F030FAFE
:1054B00085ED280B94ED300BFDF782FA01F028FA08
:1054C00085ED2A0B94ED180B01F022FA85ED2C0BDB
:1054D00085ED2E8B85ED308B85ED328B85ED349B04
:1054E00094ED460BFDF76CFAB0EE40AAF0EE60AA20
:1054F00094ED480BFDF764FA53EC1A2B51EC100BAA
:1055000001F080FD41EC100B01F002FA85ED360B45
:1055100094ED440BFDF754FAB0EE40AAF0EE60AA09
:1055200094ED480BFEF7D8F853EC1A2B51EC100B06
:1055300001F068FD41EC1A0B94ED440BFEF7CCF83A
:10554000B0EE40BAF0EE60BA94ED460BFEF7C4F848
:10555000B0EE40CAF0EE60CA94ED480BFDF730FAA9
:10556000B0EE401AF0EE601A53EC1C2B51EC110B0C
:1055700001F048FD53EC1B2B01F044FD53EC1A2BBA
:1055800001F04CFF41EC100B01F0C2F985ED380B36
:1055900094ED440BFEF7A0F8B0EE40AAF0EE60AA3E
:1055A00094ED480BFEF798F853EC1A2B51EC100BC6
:1055B00001F028FD41EC1A0B94ED440BFDF700FAC5
:1055C000B0EE40BAF0EE60BA94ED460BFEF784F808
:1055D000B0EE40CAF0EE60CA94ED480BFDF7F0F96A
:1055E000B0EE401AF0EE601A53EC1C2B51EC110B8C
:1055F00001F008FD53EC1B2B01F004FD53EC1A2BBA
:1056000001F01AFA41EC100B01F082F985ED3A0B2A
:1056100094ED3E0B01F07CF985ED3C0B94ED460BCF
:10562000FDF7CEF9B0EE401AF0EE601AB0EE41AAE6
:10563000F0EE61AA94ED480BFEF74EF853EC1A2BEE
:1056400051EC100B01F0DEFC41EC100B01F060F9A5
:1056500085ED3E0B94ED440BFDF7B2F9B0EE40AA98
:10566000F0EE60AA94ED480BFDF7AAF953EC1A2B63
:1056700051EC100B01F0C6FC41EC1A0B94ED440BFD
:10568000FEF72AF8B0EE40BAF0EE60BA94ED460BA1
:10569000FEF722F8B0EE401AF0EE601AB0EE41CA02
:1056A000F0EE61CA94ED480BFEF716F853EC1C2B94
:1056B00051EC100B01F0A6FC53EC1B2B01F0A2FCEB
:1056C00053EC1A2B01F0B8F941EC100B01F020F962
:1056D00085ED400B94ED440BFDF7FEFFB0EE40AAC4
:1056E000F0EE60AA94ED480BFDF76AF953EC1A2B23
:1056F00051EC100B01F086FC41EC1A0B94ED440BBD
:10570000FDF75EF9B0EE40BAF0EE60BA94ED460BEC
:10571000FDF7E2FFB0EE40CAF0EE60CA94ED480B30
:10572000FDF7DAFFB0EE401AF0EE601A53EC1C2BD6
:1057300051EC110B01F066FC53EC1B2B01F062FCE9
:1057400053EC1A2B01F06AFE41EC100B01F0E0F86B
:1057500085ED420B94ED400B01F0DAF885ED440B3A
:1057600094ED460BFDF7B8FF51EC100B01F058F922
:1057700041EC100B01F0CCF885ED460B94ED440B99
:10578000FDF7AAFFB0EE40AAF0EE60AA94ED460B3A
:10579000FDF716F953EC1A2B51EC100B01F032FC0B
:1057A00041EC100B01F0B4F885ED480B94ED440B7F
:1057B000FDF706F9B0EE40AAF0EE60AA94ED460BB4
:1057C000FDF7FEF8B0EE401AF0EE601A53EC1A2B1B
:1057D00051EC110B01F016FC41EC100B01F098F8A4
:1057E00085ED4A0B94ED420B01F092F885ED4C0BE0
:1057F00085ED4E8B85ED508B85ED528B85ED549B61
:10580000BDEC0A8B70BD00002DED0C8BFBF7ECF8A6
:10581000FCF7F8F9FCF7E2F854485349002401601A
:105820005349C0E901144FF48041C0E90341446188
:105830008461C4610462FAF7D5FF08B172B6FEE76D
:10584000FCF742F949484B49E4304FF4E135016037
:10585000C0E901540C26C460C0E904468461C461F7
:10586000FCF720F808B172B6FEE7FCF791F943485F
:1058700041490160C0E90154C460C0E90446846143
:10588000C461FCF70FF808B172B6FEE701223C4D87
:10589000540321462846FAF799FF4FF47A70FAF735
:1058A00085FE002221462846FAF790FF354B364800
:1058B000A3F13002A2F13001FAF7C6FD9FED338B60
:1058C0003148B0EE480AF0EE680AB0EE405AF0EE09
:1058D000605AB0EE404AF0EE604AB0EE403AF0EE68
:1058E000603AB0EE402AF0EE602AB0EE401AF0EED8
:1058F000601A01F065F82448FFF74EF92248FEF7D8
:10590000DBFB214C1D4D9FED23AB9FED24BB9FED99
:1059100025CB9FED269B9FED27DB04F54066783570
:1059200004F5006485ED008B85ED089B85ED0ADBB1
:1059300005F10800114980EC06AB783186EDCE9B6D
:10594000114800F0C7F804F1D8010F4891EC060B9C
:10595000303191EC063B00F0F1F80B48FEF702FE07
:105960000948FEF719FDDDE70054004080130020D0
:10597000801A06000010014000440040A8140020D6
:1059800000080240C80000200801002000000000BC
:10599000000000006666666666E63340CDCCCCCC7F
:1059A000CC4C34409A9999999999C9BF000000004C
:1059B000000044C0333333333333D3BF2DE9F74FC3
:1059C00093462DED028B8A469FED1E8B002707EB39
:1059D00047000299002501EBC0080BEBC00900BF8E
:1059E00009EBC506B0EE480AF0EE680A86ED000B3A
:1059F0005FF0000404EB44010AEBC10000EBC500BA
:105A000090ED001B08EBC40053EC112B90ED000B44
:105A100051EC100B01F0F6FA96ED001B53EC112B34
:105A200001F00AF8641C032CC6E90001E2DB6D1CDE
:105A3000032DD5DB7F1C032FC9DBBDEC028BBDE83A
:105A4000FE8F000000000000000000002DE9F74F6D
:105A500093462DED028B8A469FED1C8B0026029803
:105A6000002500EB46180BEB461900BF09EBC507F4
:105A7000B0EE480AF0EE680A87ED000B5FF0000414
:105A80000AEB441000EBC50090ED000B08EBC400DE
:105A900053EC102B90ED001B51EC110B01F0B2FAFE
:105AA00097ED001B53EC112B00F0C6FF641C042C77
:105AB000C7E90001E4DB6D1C042DD7DB761C042E46
:105AC000CDDBBDEC028BBDE8FE8F000000000000C6
:105AD000000000002DE9F0410E462DED028B074637
