:020000040800F2
:1000000060520020F50200083B220008F11E0008A3
:10001000392200082B060008C9290008000000004A
:100020000000000000000000000000003502000891
:100030002D0600080000000091020008D5220008EB
:100040000F0300080F0300080F0300080F03000848
:100050000F0300080F0300080F0300082F06000815
:100060000F0300080F0300080F0300080F03000828
:100070000F0300080F0300080F0300080F03000818
:100080000F0300080F0300080F0300080000000022
:100090000000000000000000000000000F03000846
:1000A0000F030008992300080F0300080F0300083E
:1000B000A5230008B1230008BD2300080F03000892
:1000C0000F0300080F0300080F0300080F030008C8
:1000D0000F030008B1290008BD2900080000000036
:1000E0000F0300080F0300080F03000800000000C2
:1000F0000000000000000000000000000F030008E6
:10010000000000000F030008C92300080F030008C7
:1001100000000000000000000000000000000000DF
:100120000F0300080F0300080F0300080F03000867
:100130000F030008000000000000000000000000A5
:100140000000000000000000000000000F03000895
:100150000F0300080F0300080F0300080F03000837
:100160000F0300080F03000800000000000000005B
:10017000000000000000000000000000000000007F
:10018000000000000F030008000000000000000055
:100190000F03000800F002F800F03CF80AA090E815
:1001A000000C82448344AAF10107DA4501D100F032
:1001B00031F8AFF2090EBAE80F0013F0010F18BFC3
:1001C000FB1A43F0010318478C420000AC420000C8
:1001D000103A24BF78C878C1FAD8520724BF30C873
:1001E00030C144BF04680C60704700000023002445
:1001F00000250026103A28BF78C1FBD8520728BF37
:1002000030C148BF0B6070471FB504F0B7F81FBD81
:1002100010B510BD00F0D4F91146FFF7F5FF02F05C
:10022000E5FB00F0F2F903B4FFF7F2FF03BC00F0C6
:10023000F5F900002C4B19680868B0E8F04F80F31E
:100240000988BFF36F8F4FF0000080F3118870476B
:100250000000000008480068006880F308884FF03C
:10026000000080F3148862B661B6BFF34F8FBFF30E
:100270006F8F00DF00BF00BF08ED00E0DFF80C006B
:10028000016841F470010160704700BF88ED00E033
:10029000EFF30980BFF36F8F134B1A681EF0100F36
:1002A00008BF20ED108A20E9F04F106009B44FF02C
:1002B000500080F31188BFF34F8FBFF36F8F03F0AF
:1002C0000FFB4FF0000080F3118809BC1968086823
:1002D000B0E8F04F1EF0100F08BFB0EC108A80F3AA
:1002E0000988BFF36F8F704734000020EFF305805B
:1002F000704700000948804709480047FEE7FEE7CD
:10030000FEE7FEE7FEE7FEE7FEE7FEE7FEE7FEE7C5
:1003100004480549054A064B704700008923000838
:1003200095010008604C002060520020604E0020C3
:10033000604E002053EA020C00F069802DE9F04B7A
:100340004FF00006002B1FBFB3FA83F503FA05F444
:1003500024FA05F65E4012BF1643B2FA82F502FA9D
:1003600005F4C5F120051EBF22FA05FC44EA0C0481
:10037000203556EA044C4FEA144418BF641C4FF071
:1003800000084FF00009904271EB030C39D30029AB
:1003900019BFB1FA81F701FA07F6B0FA80F700FA4F
:1003A00007F6C7F120071EBF20FA07FC46EA0C0635
:1003B0002037B6FBF4FCA7EB0507103F07F01F0B37
:1003C000CBF120060CFA0BFB2CFA06F644BFB34621
:1003D0000026202FA4BF5E464FF0000B5BEA060C00
:1003E00008BF4FF0010B19EB0B09ABFB027C48EB8C
:1003F0000608C01B06FB02CC0BFB03CC71EB0C0107
:10040000C1E70B46024641464846BDE8F08B13B5AE
:100410004FF000004FF00001AFF30080BDE81C403A
:100420007047032A40F2308010F0030C00F0158072
:1004300011F8013BBCF1020F624498BF11F801CBE7
:1004400000F8013B38BF11F8013BA2F1040298BF4C
:1004500000F801CB38BF00F8013B11F0030300F0B6
:100460005780083AC0F0088051F8043B083A51F828
:1004700004CBA0E80810F5E7121D5CBF51F8043B5F
:1004800040F8043BAFF30080D20724BF11F8013BD2
:1004900011F801CB48BF11F8012B24BF00F8013B34
:1004A00000F801CB48BF00F8012B704702F0FF03B2
:1004B00043EA032242EA024200F05EB84FF0000233
:1004C00000B5134694469646203922BFA0E80C504A
:1004D000A0E80C50B1F12001BFF4F7AF090728BF25
:1004E000A0E80C5048BF0CC05DF804EB890028BFA1
:1004F00040F8042B08BF704748BF20F8022B11F0CA
:10050000804F18BF00F8012B704770477047704745
:1005100010B5203AC0F00B80B1E81850203AA0E89E
:100520001850B1E81850A0E81850BFF4F5AF5FEAD2
:10053000027C24BFB1E81850A0E8185044BF18C985
:1005400018C0BDE810405FEA827C24BF51F8043B2C
:1005500040F8043B08BF7047D20728BF31F8023B80
:1005600048BF11F8012B28BF20F8023B48BF00F814
:10057000012B70474FF000020429C0F0128010F0E8
:10058000030C3FF49DAFCCF1040CBCF1020F18BF7B
:1005900000F8012BA8BF20F8022BA1EB0C01FFF7FC
:1005A0008FBF5FEAC17C24BF00F8012B00F8012B4C
:1005B00048BF00F8012B704700487047FC4B0020F3
:1005C0007546FFF7F9FFAE4605006946534620F031
:1005D0000700854618B020B5FFF79AFEBDE8204019
:1005E0004FF000064FF000074FF000084FF0000BEF
:1005F00021F00701AC46ACE8C009ACE8C009ACE8A2
:10060000C009ACE8C0098D46704710B50446AFF389
:1006100000802046BDE81040FFF705BE01491820C4
:10062000ABBEFEE7260002007047FEE770470220DF
:1006300000F070B82DE9F0410446876D00F06CF9C8
:10064000064694F835000025022806D08020606513
:1006500084F834500120BDE8F0812068016821F061
:10066000160101602068416921F080014161206C20
:1006700008B9A06C20B12068016821F00801016070
:100680002068016821F0010101600CE000F044F9EC
:10069000801B052807D920206065032084F83500D9
:1006A00084F83450D7E720680068C007EED194F88A
:1006B0005C103F208840B860012084F8350084F841
:1006C00034500020C7E790F83510022903D080216C
:1006D000416501207047052180F8351000680168E8
:1006E00021F00101016000207047000070B5044650
:1006F00000F012F90546601C02D00448007804445A
:1007000000F00AF9401BA042FAD370BD240000207B
:1007100070470000044910B50A68024202D0086020
:10072000FFF7F6FF10BD0000143C01402DE9F84F23
:10073000DFF8B8A10022012403254FF00F090AF1C8
:10074000040BAAF1040E00BF0B6804FA02F6334052
:10075000B34273D10F7907F00307012F01D0022FA5
:1007600016D187684FEA420805FA08FC27EA0C0709
:10077000D1F80CC00CFA08FC4CEA070CC0F808C011
:100780004768B7430E79C6F3001696403E4346606D
:100790000E79F643B6070DD0C768560005FA06FC79
:1007A00027EA0C07D1F808C00CFA06FC4CEA070C43
:1007B000C0F80CC00E7906F00306022E10D1D60840
:1007C00000EB8608D8F8206057074FEAD76C09FA83
:1007D0000CF7BE430F6907FA0CF73743C8F82070CF
:1007E00006684FEA420C05FA0CF7BE430F7907F092
:1007F000030707FA0CF7374307604E6816F4403FCB
:100800006DD03B4E376847F480473760366822F03A
:10081000030706F480460096364E07EB060CDCF81C
:10082000086897073F0F09FA07F826EA0806DFF875
:10083000C880404503D14FF000081EE04FE0DFF8CC
:10084000BC80404502D14FF0010816E0DFF8B080CF
:10085000404502D14FF002080FE0DFF8A880404584
:1008600002D14FF0030808E0DFF89C80404502D138
:100870004FF0040801E04FF0070808FA07F848EACB
:100880000608CCF80888DAF800605746D1F804C0AA
:100890009E435FEACC2C00D51E433E60DBF800602F
:1008A0005F46D1F804C09E435FEA8C2C00D51E43FE
:1008B0003E60DEF800607746D1F804C09E435FEAF0
:1008C0008C3C00D51E433E60084F083F3E68D1F87F
:1008D00004C09E435FEACC3C00D51E433E60521CE0
:1008E000102AFFF431AFBDE8F88F0000083C01404A
:1008F0004438024000300140000002400004024041
:1009000000080240000C0240001002400AB1816160
:1009100070470904FBE70000014880687047000049
:100920002400002070B5040025D094F83D00002577
:1009300020B984F83C50204600F0B8F8242084F810
:100940003D002068016821F0010101602068016814
:1009500041F4004101602068016821F40041016018
:1009600000F064FA4D4A6168914201D84C4900E0B8
:100970004C49884201D2012070BD4B492368B0FB2D
:10098000F1F15E6826F03F060E435E6063689342B5
:1009900006D94FF4967359434FF47A73B1FBF3F1D0
:1009A0002368491C1E6A26F03F06314319626168BC
:1009B000914210D84900401EB0FBF1F2521CC2F324
:1009C0000B02042A01D2042022E0B0FBF1F0401C0B
:1009D000C0F30B001CE0A268F2B301EBC10303EB10
:1009E0000116431EB3FBF6F35B1C43F480431B0567
:1009F00049D092B301EBC10202EB0111401EB0FBE2
:100A0000F1F0401CC0F30B0040F4804040F4004083
:100A10002168CA694CF6FF739A431043C861D4E950
:100A2000071001432068026822F0C00211430160F0
:100A3000D4E9030101432068826848F2FF339A43F6
:100A400011438160D4E9050108432168CA6822F096
:100A5000FF021043C86001E00EE016E02068016864
:100A600041F0010101602564202084F83D002563E8
:100A700084F83E50002070BD01EB4106431EB3FBDD
:100A8000F6F35B1CB3E70120C2E701EB4101401E16
:100A9000B0FBF1F0401CC0F30B00B7E7A0860100EB
:100AA00080841E0000093D0040420F0010B586B052
:100AB000044614216846FFF701FD13492068884267
:100AC00020D112480021026842F002020260006850
:100AD00000F002000590C02000901220CDE9010135
:100AE000032003900420049069460948FFF71EFE86
:100AF00006481030016841F400110160006800F4FC
:100B00000010059006B010BD00540040303802407F
:100B100000040240024881680278114481607047F5
:100B2000240000200B4810B5016841F400710160F9
:100B3000016841F480610160016841F480710160E5
:100B4000032000F09FF80F2000F006F800F050F8A6
:100B5000002010BD003C024030B505461F4887B05C
:100B60000024016841F008010160006806A900F056
:100B70000800009001A800F039F90498A8B100F02D
:100B800055F940001649174AB0FBF1F11648491EC5
:100B9000026040F2E732C0E90324C0E90114846135
:100BA00000F0C4FB040003D015E000F03FF9E9E7D2
:100BB0000D4800F05DFC04000DD1322000F034F847
:100BC000102D07D200222946322000F03BF80748BA
:100BD000056000E0012407B0204630BD40380240E7
:100BE00040420F00000C0040E002002028000020DE
:100BF0000C4882B0016841F480410160006800F453
:100C0000804000900748001F016841F0805101605A
:100C10000068002200F0805000900F21901E02B06A
:100C200000F010B844380240002809DB00F01F0231
:100C3000012191404009800000F1E020C0F800113E
:100C400070470000F0B40E4B1B680C46C3F3022340
:100C5000C3F10705042D00D90425191D072901D268
:100C6000002300E0DB1E012606FA05F1491E2140A3
:100C700099409E40761E16403143F0BC01F0A5BE5F
:100C80000CED00E0064900F0070208684FF6FF038C
:100C9000184040EA0220034A1043086070470000F1
:100CA0000CED00E00000FA05704700002DE9F04768
:100CB0000E46050065D0DFF81481D8F80000F7B2C1
:100CC00000F00700B04207D288F80070D8F80000A2
:100CD00000F00700B04254D128683D4C810712D57E
:100CE000400703D5206840F4E050206028780007D2
:100CF00003D5206840F4604020602068A96820F097
:100D0000F000084320602878C0072DD0304968687B
:100D10000839012812D0022813D0032811D00968FD
:100D2000890700292DDA216821F0030101432160A0
:100D3000FFF7F2FD814641F2883A0EE00968890327
:100D4000EFE709688901ECE7FFF7E6FDA0EB090191
:100D5000514502D90320BDE8F0872068696800F09A
:100D60000C00B0EB810FEFD1D8F80010404601F035
:100D70000701B14207D90770006800F00700B042D0
:100D800001D00120E7E72878400705D52068E96809
:100D900020F4E050084320602878000706D520683A
:100DA000296920F4604040EAC100206000F05EF84C
:100DB0002168084AC1F30311515CC8400649086024
:100DC00006480068FFF7C8FE0020C4E7003C024068
:100DD000083802400C4400083000002028000020A1
:100DE00001490120C8647047000047420F22026099
:100DF0000C4A136803F003034360136803F0F00325
:100E00008360136803F4E053C36012684FF4E05347
:100E100003EAD20202610448006800F0070008609B
:100E20007047000008380240003C02400448054971
:100E300000680968044AC1F38221515CC8407047C8
:100E400030000020083802401C44000804480549CE
:100E500000680968044AC1F34231515CC8407047D8
:100E600030000020083802401C440008154810B526
:100E7000006810F00C02144813D01449042A0FD053
:100E8000082A0ED10F4C241F2268236802F03F026B
:100E90005B0207D52068C0F38810A0FB010106E0C3
:100EA000084610BD2168C1F38811A1FB0001002391
:100EB000FFF740FA2168C1F30141491C4900B0FB2A
:100EC000F1F010BD083802400024F40040787D01A4
:100ED000054810B50068000605D5FFF7E5FE024994
:100EE0008020891C087010BD0C3802402DE9F84F95
:100EF00004006ED02078DFF84C93C007A9F10405F8
:100F00004AD009F104000168C1F38101012908D028
:100F10000068C0F3810002280AD1D9F8000040021D
:100F200006D52868800337D560680028E1D033E013
:100F30006068B0F5803F10D0B0F5A02F286810D0C1
:100F400020F480302860286820F4802028606068C1
:100F5000A8B1FFF7E1FC06460DE0286840F48030B8
:100F6000F4E740F480202860F7E700BFFFF7D4FCE7
:100F7000801B642873D828688003F7D50CE0FFF73E
:100F8000CBFC064605E000BFFFF7C6FC801B6428CB
:100F9000F0D828688003F7D42078DFF8AC82800787
:100FA0004FF0000A3ED5A748001D016811F00C0F54
:100FB00008D00068C0F3810002280BD1D9F80000E6
:100FC000400207D42868800716D5E068012800D1C0
:100FD00012E033E1E068B8B10120C8F80000FFF783
:100FE0009BFC064605E000BFFFF796FC801B02282D
:100FF000C0D828688007F7D52868216920F0F80054
:1010000040EAC10028600DE0C8F800A0FFF784FCAA
:10101000064604E0FFF780FC801B02281FD82868E2
:101020008007F7D42078000722D5864F874861696A
:10103000703771B101210160FFF76EFC064604E0D4
:10104000FFF76AFC801B022809D838688007F7D5AB
:101050000EE0C0F800A0FFF75FFC064605E082E066
:10106000FFF75AFC801B02287DD838688007F7D428
:101070002078400768D5DFF8CCB100270BF13C0B96
:10108000DBF80000C0000BD4DBF8001041F0805109
:10109000CBF80010DBF80000012700F08050009032
:1010A0006B4E3068C00510D4306840F480703060FA
:1010B000FFF732FC009005E0FFF72EFC0099401A84
:1010C000022850D83068C005F6D55E4EA0686C3650
:1010D00001280FD00528306810D020F001003060C2
:1010E000306820F004003060A068B8B1FFF714FC4D
:1010F00000900FE0306840F00100F4E740F0040099
:101100003060F7E7FFF708FC0099411A41F2883098
:10111000814266D830688007F4D50EE0FFF7FCFB0B
:10112000009007E0FFF7F8FB0099411A41F2883080
:10113000814256D830688007F4D42FB1DBF8001014
:1011400021F08051CBF80010A069C8B33D49091DBA
:101150000968C1F3810102294AD00228504607D00C
:10116000C8F8600000E03CE0FFF7D6FB04463BE037
:101170004746C8F86000FFF7CFFB064605E000BF12
:10118000FFF7CAFB801B02282BD828688001F7D400
:10119000D4E907010843A16A2E4A490802EB01413C
:1011A000626A41EA8211084394F82C1040EA016116
:1011B000C9F8001001203866FFF7AEFB044606E0D0
:1011C0003EE000BFFFF7A8FB001B022809D82868F3
:1011D0008001F7D534E000BFFFF79EFB001B02281B
:1011E00002D90320BDE8F88F28688001F4D427E0F5
:1011F0000128F7D0D9F80000E26900F4800191429B
:101200001CD1226A00F03F01914217D147F6C0710C
:10121000626A0140B1EB821F10D1A26A4FF0FF3326
:1012200000F4403103EB5202B1EB024F06D194F8C7
:101230002C1000F07060B0EB016F01D00120D1E7FD
:101240000020CFE70438024000004742800E4742AA
:10125000007000400000FFFF7047704710B590F825
:101260003C20012A22D0012280F83C20CA688C68E8
:1012700022F4407222434C6822F4806222430C68BC
:1012800022F4006222430C6922F4805222434C690A
:1012900022F400522243C969002322F480420A4307
:1012A00001684A6480F83C30002010BD022010BD67
:1012B00070B590F83C20012A2CD0012480F83C40E5
:1012C000022280F83D2003685A689D6822F070066B
:1012D0000A6832435A60104B02689A420ED0B2F14B
:1012E000804F0BD00D4B9A4208D00D4B9A4205D03F
:1012F0000C4B9A4202D00C4B9A4204D1496825F01B
:1013000080031943916080F83D40002180F83C1033
:10131000084670BD022070BD00000140000400407E
:1013200000080040000C00400040014010B50400DF
:1013300003D094F83D0010B107E0012010BD00205B
:1013400084F83C00204600F01FF8022084F83D009D
:10135000211D206801F03EF8012084F8460084F841
:101360003E0084F83F0084F8400084F8410084F88F
:10137000420084F8430084F8440084F8450084F86F
:101380003D00002010BD000010B586B004461421B9
:101390006846FFF793F831482168002281420ED158
:1013A0002F48016841F0010101600068052100F04B
:1013B000010005901920FFF745FC192038E0284866
:1013C000001FB1F1804F11D0264A914234D10168FB
:1013D00041F0020101600068002200F00200059067
:1013E00006211D20FFF72EFC1D2021E0016841F0A1
:1013F00001010160006800F00100059018481438F0
:10140000016841F0010101600068022100F0010063
:10141000059001208DE80700CDE9032069461248B8
:10142000FFF784F9002205211C20FFF70BFC1C208C
:10143000FFF7FAFB06B010BD0C4A9142FAD10168E1
:1014400041F0040101600068002200F004000590F2
:1014500007211E20FFF7F6FB1E20E9E700000140F0
:1014600044380240000400400000024000080040F0
:1014700090F83D10012901D001207047022180F829
:101480003D100168CA6842F00102CA6000680E4956
:1014900088420ED0B0F1804F0BD00C49884208D062
:1014A0000B49884205D00B49884202D00A4988423C
:1014B00004D1816801F00701062903D0016841F0D9
:1014C000010101600020704700000140000400405D
:1014D00000080040000C00400040014070B5044688
:1014E00090F83C000025012817D0012684F83C60C4
:1014F000022084F83D002068826822F0770222F4FE
:101500007F4282600868502838D00DDC20284FD0F8
:1015100005DC90B3102811D14AE0022070BD3028BC
:1015200046D040280AD13BE060282FD070280DD04B
:10153000B0F5805F03D0B0F5005F12D0012584F8CC
:101540003D60002084F83C00284670BDCB68D1E99E
:101550000121206800F08AFF2068816841F077014E
:1015600009E0CB68D1E90121206800F07FFF206805
:10157000816841F480418160E1E719E0CA68496807
:10158000206801F06DF85021206806E0CA684968BB
:10159000206801F0ADF86021206800F071FFCEE70F
:1015A000CA684968206801F05BF840212068F4E7C8
:1015B000226801461046F0E770472DE9F0410546E4
:1015C00090F83C0000260C46012810D0012085F838
:1015D0003C0072B1042A1CD0082A2CD00C2A50D00E
:1015E0000126002085F83C003046BDE8F08102204D
:1015F000FBE7D4E90012E368286801F043F82868A3
:10160000816921F00C01816128688169A268114318
:101610000FE0D4E90012E368286801F07BF828683D
:10162000816921F44061816128688169A26841EA89
:1016300002218161D5E72868D4E9002C277B016A63
:1016400021F480710162C169036A21F0030141EA5A
:101650000C0121F0F00C39074FF420674CEA1161BE
:1016600023F4206307EA02221A43C1610262286858
:10167000C16921F00C01C1612868C169A2681143E8
:1016800028E02868D4E90027E168036A23F480533E
:101690000362D0F81CC0036A2CF4407C4CEA072794
:1016A0004FF6FF7C27F470470CEA013139434FF4C1
:1016B000204723F4204307EA02321A43C161026241
:1016C0002868C16921F44061C1612868C169A268C4
:1016D00041EA0221C16184E710B5040003D094F807
:1016E0003D0010B107E0012010BD002084F83C004F
:1016F000204600F01EF8022084F83D00211D2068DD
:1017000000F068FE012084F8460084F83E0084F86A
:101710003F0084F8400084F8410084F8420084F8D7
:10172000430084F8440084F8450084F83D0000201C
:1017300010BD704770B50446006801694FF00005A0
:10174000C943890715D4C168C943890711D4E91E63
:10175000016101202077206880698007204602D03F
:10176000FFF72AFF04E000F0C3F8204600F055F927
:10177000257720680169C943490717D4C168C9435F
:10178000490713D46FF0040101610220207720681B
:10179000806910F4407F204602D0FFF70DFF04E07F
:1017A00000F0A6F8204600F038F925772068016996
:1017B000C943090716D4C168C943090712D46FF099
:1017C00008010161042020772068C0698007204655
:1017D00002D0FFF7F1FE04E000F08AF8204600F0A6
:1017E0001CF9257720680169C943C90617D4C16867
:1017F000C943C90613D46FF0100101610820207796
:101800002068C06910F4407F204602D0FFF7D4FE64
:1018100004E000F06DF8204600F0FFF8257720681E
:101820000169C943C90708D1C168C943C90704D1BF
:10183000891E0161204600F0F1F820680169C94362
:10184000090609D4C168C943090605D46FF08001AF
:1018500001612046FFF700FD20680169C943490680
:1018600009D4C168C943490605D46FF0400101613C
:10187000204600F03AF920680169C94389060BD473
:10188000C168C943890607D46FF020010161204671
:10189000BDE87040FFF7E1BC70BD000010B586B038
:1018A000044614216846FEF709FE0E492068884266
:1018B00016D10D480021026842F001020260006862
:1018C00000F0010005904FF4807000900220CDE9F7
:1018D00001010120CDE9031069460448FEF726FF07
:1018E00006B010BD00000140303802400000024048
:1018F000704770B5044690F83C0000260D4601285C
:101900000FD0012084F83C006AB1042A1DD0082AB7
:101910002FD00C2A3FD00126002084F83C0030460E
:1019200070BD022070BD206800F0B2FD20688169A2
:1019300041F0080181612068816921F00401816121
:10194000206881692A69114311E0206800F0C8FD10
:101950002068816941F4006181612068816921F416
:1019600080618161206881692A6941EA022181617F
:10197000D2E7206800F0E0FD2068C16941F008016D
:10198000C1612068C16921F00401C1612068C16999
:101990002A69114311E0206800F0FAFD2068C1694E
:1019A00041F40061C1612068C16921F48061C161B5
:1019B0002068C1692A6941EA0221C161ACE710B51A
:1019C000040003D094F83D0010B107E0012010BDE1
:1019D000002084F83C00204600F01EF8022084F825
:1019E0003D00211D206800F0F5FC012084F8460030
:1019F00084F83E0084F83F0084F8400084F84100F9
:101A000084F8420084F8430084F8440084F84500D8
:101A100084F83D00002010BD7047704770B5044643
:101A20000068174988421CD116480914164B0268F1
:101A3000521C0260192A01D2012204E0A2F1190508
:101A40004A2D04D200221846FEF760FF0FE0632AF9
:101A50000DD10C4918310A68521C0A60002101603E
:101A600005E00A49884202D1C820FEF73FFE084936
:101A70002068884203D1BDE87040FFF74BB870BDC5
:101A800000040040B00200200004024000080040B2
:101A9000000C004070B5044690F83C00012812D0BC
:101AA000012584F83C50022084F83D00204600F0D7
:101AB00091FD01004FF0000007D084F83D5084F8FC
:101AC0003C00012070BD022070BD2168CA6822F070
:101AD0004002CA602168CA6822F48042CA6084F861
:101AE0003D5084F83C00002070BD7047704770473F
:101AF000F8B5016804460868CA684B6910F00F0F12
:101B00004FF0000559D003F0010602F490773743F7
:101B100065D0C10705D0D10503D5216C41F0010185
:101B20002164410705D5D90703D0216C41F002019A
:101B30002164810705D5D90703D0216C41F0040148
:101B40002164010707D502F02001314303D0216C45
:101B500041F008012164216C00293AD0800604D5A7
:101B6000900602D5204600F01FFE20684069216CD7
:101B7000C0F38010090700D460B3204600F0EDFDEB
:101B800020684069400621D52068143050E8001FC5
:101B900021F0400140E80012002AF5D1A06BA8B165
:101BA0006C490165A06BFEF78EFD002811D0A06B7B
:101BB000016D01B0BDE8F040084783060FD59306DC
:101BC0000DD52046BDE8F84000F0EEBD2046FFF7F9
:101BD0008EFFF8BD2046FFF78AFF2564F8BD266B0F
:101BE0002023012E79D1C60677D5D60675D508688B
:101BF000486800904869400640D5A16B0868406875
:101C00000004000CEAD0A28D8242E7D9E085C869C1
:101C1000B0F5807F2DD020680C3050E8001F21F4F3
:101C2000807140E80012002AF5D12068143050E895
:101C3000001F21F0010140E80012002AF5D12068C0
:101C4000143050E8001F21F0400140E80012002A43
:101C5000F5D184F83E30256320680C3050E8001F31
:101C600021F0100140E80012002AF5D1A06BFEF728
:101C7000E1FCA08DE18D401A81B229E0A08DE18DBB
:101C8000401A81B2E08D0028A8D00029A6D0206893
:101C90000C3050E8002F22F4907240E80026002E0D
:101CA000F5D12068143050E8002F22F0010240E8FE
:101CB0000026002EF5D184F83E30256320680C30D4
:101CC00050E8002F22F0100240E80023002BF5D14D
:101CD0002046FFF70BFFF8BDFFE705062BD51506DD
:101CE00029D594F83D002128F5D1A068B0F5805F92
:101CF00001D12069B0B1206A411C216221680078BD
:101D00004860E08C401E0004000CE084E3D12068B1
:101D1000C16821F08001C1602068C16841F04001C4
:101D2000C160D8E7206A0088C0F308004860206AD4
:101D3000801C2062E5E74006CDD55006CBD5CA68A9
:101D4000204622F04002CA6084F83D3000F0CFF80F
:101D5000C1E700004B27000870B5040004D094F8D8
:101D60003D00002510B106E0012070BD84F83C5014
:101D7000204600F023F8242084F83D002068C16844
:101D800021F40051C160204600F06EFD2068016919
:101D900021F4904101612068416921F02A014161EB
:101DA0002068C16841F40051C1602564202084F896
:101DB0003D0084F83E00002070BD0000F0B587B003
:101DC000044614216846FEF779FB2A4F2368002257
:101DD00029490224032507262848BB4221D1264B46
:101DE00014331F6847F010071F601B6803F01003CF
:101DF00005930B6843F001030B60096802AB01F027
:101E0000010105916902CDE9001483E86400694687
:101E1000FEF78CFC002209212520FEF713FF252068
:101E200023E0174FBB4222D1134B10331F6847F4F6
:101E300000371F601B6803F4003305930B6843F001
:101E400001030B60096802AB01F0010105910C214F
:101E5000CDE9001483E864006946FEF767FC0022C0
:101E60000A212620FEF7EEFE2620FEF7DDFE07B053
:101E7000F0BD000000100140303802400000024078
:101E80000044004090F83E30202B0ED159B152B1A1
:101E900090F83C30012B08D0012380F83C3000231F
:101EA000036300F067BD0120704702207047704750
:101EB00090F83D30202B18D1A9B1A2B190F83C3058
:101EC000012B12D001628284C2840021016421228C
:101ED00080F83D2080F83C100068C16841F0800126
:101EE000C160002070470120704702207047704792
:101EF000FEE700002DE9F04186B014216846FEF7A8
:101F0000DDFA31480024016841F0040101600168F4
:101F100001F004010591016841F080010160016850
:101F200001F080010591016841F001010160016843
:101F300001F001010591016841F0020101600068B2
:101F4000224F00F002004FF4005605900022314667
:101F50003846FEF7DBFCDFF8788000224FF4C04102
:101F60004046FEF7D3FC01250096CDE901546946B1
:101F700038460394FEF7DAFB022000904FF4441039
:101F8000CDE9010569461348FEF7D0FB0096CDE97F
:101F90000154694640460394FEF7C8FBA803CDE907
:101FA00000050320CDE9024069464046FEF7BEFB2E
:101FB00000220B210720FEF745FE0720FEF734FE26
:101FC00006B0BDE8F0810000303802400008024051
:101FD000000402400000024010B596B000240F94A7
:101FE00010941194129413941C2108A81494FEF7D1
:101FF00065FA20216846FEF761FA28482649016003
:102000005421C0E901146421C0E9031444618461CE
:10201000FFF78CF908B172B6FEE74FF480500F90CD
:102020000FA91E48FFF75AFA08B172B6FEE71B481F
:10203000FFF7C5FC08B172B6FEE7139413A9174861
:102040001494FFF735F908B172B6FEE76020CDE9C8
:1020500008040A940B940C940D94002208A90F48CC
:102060000E94FFF746FC08B172B6FEE700944FF4F9
:102070000050CDE904400294019403946946074856
:102080000794FFF7EBF808B172B6FEE70348FFF7D5
:1020900005FC16B010BD0000000001400801002042
:1020A00030B58FB0002409940A940B94142104A82D
:1020B0000C94FEF703FA2C480394009401940294C4
:1020C0000D944FF080410E94C0E90014611EC0E9E8
:1020D000024104618461FFF729F908B172B6FEE795
:1020E0004FF48050099009A91F48FFF7F7F908B18C
:1020F00072B6FEE71C48FFF7EFFA08B172B6FEE7CA
:10210000042004905020CDE90504062504A91648B2
:10211000CDE90745FFF7BEFC08B172B6FEE7012026
:10212000CDE90040002269460F48CDE90245FFF79E
:1021300044FA08B172B6FEE7022000900190042232
:1021400069460948FFF739FA08B172B6FEE70D94FF
:102150000DA905480E94FFF7ABF8002801D072B620
:10216000FEE70FB030BD00005001002010B586B072
:102170000024164800940194029403940494124994
:102180000594C0E900145321C0E90241046184614F
:10219000FFF7CCF808B172B6FEE74FF4805000901C
:1021A00069460A48FFF79AF908B172B6FEE7049447
:1021B00004A906480594FFF77BF8002801D072B601
:1021C000FEE706B010BD00000004004098010020AA
:1021D00010B586B00024174800940194029403942B
:1021E00004941349059401600D21C0E901144EF6D1
:1021F0005F21C0E903148461FFF798F808B172B653
:10220000FEE74FF48050009069460A48FFF766F9F0
:1022100008B172B6FEE7049404A906480594FFF7D6
:1022200047F8002801D072B6FEE706B010BD0000E6
:1022300000080040E0010020FEE7FEF749FEFEE74F
:10224000104F0026A7F11D047D1F607840B10020CB
:10225000C0F10401795C2954401C0528F8D366704C
:10226000FEF75AFB6169401A642806D9607820B9E4
:102270002E602E71FEF750FB6061012000F04CFCD7
:10228000E3E700001D000020052204490448FFF791
:10229000F9FD012000F040FCF6E700001D000020E1
:1022A0006C0200201CB5074C07A1D1E90001CDE963
:1022B000000120780028F7D0052269460448FFF77E
:1022C000F7FDF1E700000020010203040500000013
:1022D0002802002010B54FF0E020006901F098FEC0
:1022E000012803D0BDE8104001F0A6BB10BD0000DE
:1022F00030B593B030216846FEF7E0F814210CA801
:10230000FEF7DCF81E480025016841F080510160AD
:10231000006800F0805011901A48016821F4404193
:1023200041F4004101600068022400F44040119033
:1023300001200090000401908001CDE906401920A1
:102340000890A820CDE9090404200B906846FEF708
:10235000CDFD08B172B6FEE70CA90F2081E831006F
:102360004FF480500F90109002210CA8FEF79EFCB5
:1023700008B172B6FEE7FEF733FD13B030BD0000C2
:1023800040380240007000400248016841F470018A
:102390000160704788ED00E00148FFF7CBB900000D
:1023A000080100200148FFF7C5B9000050010020D6
:1023B0000148FFF7BFB90000980100200148FFF76E
:1023C000B9B90000E00100200148FFF7B3B90000EF
:1023D000E0020020F0B502681D4B1E4C9F031E4D0D
:1023E0001E4E984207D0B84205D0A04203D0A84262
:1023F00001D0B04204D122F0700C4A6842EA0C02CB
:10240000984210D0B8420ED0A0420CD0A8420AD0B8
:10241000B04208D0124CA04205D0124CA04202D0CB
:10242000114CA04203D122F44074CA6822434C6983
:1024300022F08002224302608A68C2620A688262D5
:10244000984201D10969016301214161F0BD000099
:10245000000001400004004000080040000C004063
:1024600000400140004401400048014010B584682C
:1024700042EA032224F47F440A432243826010BDCF
:10248000826822F070020A4342F0070181607047BF
:1024900030B5026A22F001020262026A436884696E
:1024A00024F073050C682C4322F002058A682A4345
:1024B0000A4DA8420BD122F00805CA6823F44073E4
:1024C0002A434D6922F004021D438B692B4343606C
:1024D000846149684163026230BD00000000014030
:1024E00030B5026A22F010020262026A436884690F
:1024F0000D6824F4E64444EA05248D6822F02002A5
:1025000042EA05120B4DA8420ED1CD6822F080029E
:1025100042EA05124D6923F4406343EA85038D695D
:1025200022F0400243EA8503436084614968816385
:10253000026230BD0000014030B5026A22F48072B0
:102540000262036A4268C46923F4007324F07305CD
:102550000C682C438D6843EA05230C4DA8420ED12C
:10256000CD6823F4006343EA05234D6922F4405209
:1025700042EA05128D6923F4806342EA0512426043
:10258000C4614968C163036230BD000000000140BE
:1025900030B5026A22F480520262046A4268C3695A
:1025A0000D6823F4E64343EA05238D6824F40054C0
:1025B00044EA0534064DA84204D14D6922F4804214
:1025C00042EA85124260C36149680164046230BD19
:1025D0000000014070B5036800249A6822F070057D
:1025E0004A682A4322F007050A682A439A604A6823
:1025F00012F00F0F31D11211082A2ED2DFE802F0AB
:102600002E2E2E2E0B2127040B69D1E90221006802
:10261000FFF72CFF22E00A68052A10D00268136A2F
:10262000156A25F00105156202689569096925F0AA
:10263000F00545EA01119161006803620EE0012096
:1026400070BD0A698968006800F00AF806E00A6946
:102650008968006800F04CF800E00124204670BD55
:1026600010B5036A046A24F001040462846924F04A
:10267000F00444EA021423F00A020A43846102626D
:1026800010BD000070B5046A24F00104046284697E
:10269000056A124EB0420ED0B0F1804F0BD0104EF2
:1026A000B04208D00F4EB04205D00F4EB04202D01B
:1026B0000E4EB04203D124F00304144301E044F071
:1026C00001041A0724F0F00444EA126225F00A0318
:1026D00001F00A0119438261016270BD00000140EE
:1026E0000004004000080040000C00400040014091
:1026F00010B5036A23F0100303628369046A23F4AC
:10270000704343EA023224F0A00343EA01118261DC
:10271000016210BD30B5046A24F0100404628469BB
:10272000056A24F4407444EA022222F470444FF60D
:10273000FF7202EA03322243A02425F0A00304EA38
:10274000011119438261016230BD10B5806B002117
:10275000C185C184FFF7CBF910BD01680C3151E888
:10276000002F22F4907241E80023002BF5D101687C
:10277000143151E8002F22F0010241E80023002B20
:10278000F5D1016B012909D101680C3151E8002F05
:1027900022F0100241E80023002BF5D1202180F81F
:1027A0003E1000210163704708B590F83E102229C1
:1027B00001D0022008BD82684FF480539A4201D1B3
:1027C000016921B1816A9A421BD04AB10AE00268CC
:1027D000816A5268C2F308020A80816A891C08E093
:1027E000026972B10268526802F07F020A70816A5F
:1027F000491C8162C18D491E0904090CC18503D0A1
:1028000019E002685268F1E70168CA6822F0200204
:10281000CA600168CA6822F48072CA6001684A69A5
:1028200022F001024A61202180F83E10016B01294B
:1028300003D0FFF73CFB002008BD002101630168C5
:102840000C3151E8002F22F0100241E80023002B48
:10285000F5D101680A68D20602D50A684968009174
:10286000818DFFF743F9E6E770B50446006801691A
:10287000E26821F44051114301612169A068E269D5
:1028800008436169114308432168CA6849F20C632F
:102890009A430243CA6020684169A26921F44071E9
:1028A0001143416131492068884202D03049884251
:1028B00002D1FEF7CBFA01E0FEF7B8FAE269002395
:1028C000192164253226B2F5004F626828D0A0FB9A
:1028D0000101930F9200FDF72DFD0146B0FBF5F0CD
:1028E0006FF01802504301EB800006EB0010B0FBC4
:1028F000F5F000F0F002B1FBF5F002EB0012B1FBD5
:10290000F5F06FF01803584301EB800006EB001060
:10291000B0FBF5F000F00F0021681044886070BD36
:10292000A0FB010192185B41FDF704FD0146B0FBDD
:10293000F5F00201B1FBF5F06FF01803584301EB1D
:10294000800006EBC000B0FBF5F000F0F80002EBF1
:102950004002B1FBF5F0584301EB800006EBC000EC
:10296000B0FBF5F000F00700D6E7000000100140D2
:102970000014014081628285C28500210164222207
:1029800080F83E2080F83C10016921B10168CA68D6
:1029900042F48072CA6001684A6942F001024A61E9
:1029A0000068C16841F02001C1600020704700004C
:1029B0000148FFF79DB80000280200200148FFF7FA
:1029C00097B800006C020020FEE70907090E0028F6
:1029D00004DB00F1E02080F80014704700F00F00E5
:1029E00000F1E02080F8141D70470000FEF79AF80F
:1029F000FFF77EFCFFF77EFA3C483B49002401606C
:102A00003B49C0E901144FF48041C0E903414461EE
:102A10008461C4610462FDF785FF08B172B6FEE708
:102A2000FFF73EFBFFF7D8FA334832494FF4E13560
:102A30000160C0E901540C26C460C0E90446846109
:102A4000C461FFF789F908B172B6FEE7FFF78EFBA4
:102A5000FFF7BEFB2848294944300160C0E9015412
:102A6000C460C0E904468461C461FFF775F908B128
:102A700072B6FEE70122224D540321462846FDF797
:102A800045FF4FF47A70FDF731FE1B489038FEF792
:102A9000EFFC19484838FEF7EBFC00222146284697
:102AA000FDF734FF00F046F8164A0121052000F03A
:102AB0006FF8154C134A002120616C3A134800F05E
:102AC00093F8104A6060483A0021114800F08CF8F1
:102AD0000C4AA060243A00210E4800F085F8E0601E
:102AE00000F03AF8FEE7000000540040B400002077
:102AF000801A060000100140280200200044004017
:102B000000080240F44300080000002041220008B1
:102B1000A52200088922000810B5EFF3058111B144
:102B20006FF0050403E0002408B100F025FE204604
:102B300010BD0000EFF3058010B16FF00500704785
:102B40000448016811B14FF0FF3070470121016066
:102B5000002070478400002010B5EFF3058010B10D
:102B60006FF0050010BD08480168012902D04FF040
:102B7000FF3010BD054A002182F8141D02210160BA
:102B800000F062FE002010BD840000200BE000E099
:102B9000F8B514464FF00005EFF3058212BB08B3F9
:102BA00001B3A4B1D4E9023263B1502A1AD3226925
:102BB000C2B1676900FB01F6B74213D3009500F07C
:102BC00072FF07E072B9226962B9626952B90022E4
:102BD00000F048FF050005D00CB1216800E000219D
:102BE00000F094FD2846F8BD2DE9FF414FEA0103AE
:102BF0004FF00005EFF30581039549BB40B38027F3
:102C0000182100244AB3166806B1344696691EB1ED
:102C10003146761E382E02D21679F60703D00020F0
:102C200004B0BDE8F081566906B1B708D2F808C013
:102C3000BCF1000F0DD0D5685C2D18D312693AB1E4
:102C400036B18DE806103A46214601F0B6F90390F8
:102C50000DE0D6685EB912694AB903AACDE900123F
:102C6000BAB2214601F07CF9012800D003950398FF
:102C7000D6E700002DE9F041134C0F460546E66803
:102C80002068001D00F044FC681C07D137B12168A2
:102C9000BDE8F0410D48091D00F08ABC20683544AC
:102CA000B5424560216805D2A06BBDE8F041091D21
:102CB00000F066BC606B091D00F062FCA06A8542F2
:102CC00000D2A562BDE8F081340000201808002081
:102CD0002DE9F041054600F077FC2D4CA068401C22
:102CE000A06020682B4F10B1606930B32BE02560E5
:102CF000A068012827D1002606EB860007EB80009C
:102D000000F030FC761C382EF6D3234800F02AFC65
:102D10002148143000F026FC1F48283000F022FC27
:102D20001D483C3000F01EFC1B48503000F01AFCDF
:102D3000194860631430A06305E02068E96AC06A3E
:102D4000884200D82560606A401C60626864E86A56
:102D50002169884200D9206100EB800007EB8000E8
:102D6000291D00F025FC00F04FFC606900280CD004
:102D70002068E96AC06A884207D208494FF080504B
:102D80000860BFF34F8FBFF36F8FBDE8F081000085
:102D90003400002068030020C807002004ED00E094
:102DA00038B500F011FC104C2068C8B90F4800F08D
:102DB000D9FB0E48143000F0D5FB0C48E06014300D
:102DC00020610A4B0020F03B009003F150021021DB
:102DD0000A2000F068FE206010B105A100F096FC0A
:102DE000BDE8384000F010BC700000201C09002035
:102DF000546D72510000000030B4026C0B46002A82
:102E00000BD0C1681144C1608468A14201D301683C
:102E1000C16030BC1846FDF704BB30BC70472DE9DB
:102E2000F041856B174604460026026C82B1C7B19B
:102E3000E068FDF7F6FAE168206C091AE1602268A3
:102E4000914202D2A168081AE060022F16D017E062
:102E50002068A8B9A06801F053F906460020A060D8
:102E60000EE06068FDF7DDFA216C60680844606080
:102E7000A168884204D32068606001E005B16D1E3E
:102E80006D1CA5633046BDE8F08110B5044690F88E
:102E9000590058B101280CD002280FD0502080F3DF
:102EA0001188BFF34F8FBFF36F8FFEE7206B00F0E9
:102EB000BFFB2046BDE8104000F0BABB10BD0000CB
:102EC00010484FF47051420706D0C01D0D4920F044
:102ED0000700411AC1F570510B4A00230144C2E9B1
:102EE00000030839183A21F0070111604B600B60AC
:102EF0000B1AC0E9001393604FF00040536050611B
:102F000070470000FC0F0020A0000020144E154C5C
:102F1000A6F29C474FF08058DFF84C9012E000BFBB
:102F200000F052FBF068C568281D00F0F1FAA068B7
:102F3000401EA0606068401E606000F065FB28468F
:102F4000FFF7A3FF60680028EAD138680128F9D9A3
:102F5000C9F80080BFF34F8FBFF36F8FF2E7000017
:102F6000040800203400002004ED00E070B51D4688
:102F7000049C51B1C4F80020C4E90F01012120468E
:102F800000F0C4FD84F84C5070BD2460F4E70000EC
:102F90002DE9F05F8846DDE90B94154683469100E4
:102FA0009A460A9EA522206BFDF780FA6FF0030176
:102FB000206B01EB8501084420F00707780707D054
:102FC000502080F31188BFF34F8FBFF36F8FFEE760
:102FD0000025B8F1000F0FD05FF00000221818F89C
:102FE000001082F8341018F8001011B1401C10289D
:102FF000F4D384F8435001E084F83450382E00D3E1
:103000003726E662C4E91365201D00F0B6FA04F124
:10301000180000F0B2FA2461C6F138006462A061C1
:10302000656584F8585052465946384600F05AFAB9
:103030002060B9F1000F01D0C9F80040BDE8F09F51
:1030400030B5114900E011460A688242FBD34B6853
:103050005C18844203D140681844486008464368BD
:103060001C18944209D1084C183C2468A24209D08B
:1030700052681A4442600A6812680260814200D0B5
:10308000086030BD0460F9E7A000002070B500249E
:1030900041600B4D0061914206D8D11A826991427C
:1030A00006D2011D286907E09A4203D2994201D352
:1030B000012403E0011DE86800F062FA204670BDBB
:1030C0007000002010B5044600F07EFAA06B28B115
:1030D0005FF0000400F098FA204610BD0124F9E7E3
:1030E00030B589B03C4D6EE00498002806DADDE981
:1030F0000601059A90470498002864DB069C6069E5
:1031000010B1201D00F004FA03A800F0D7F8024621
:1031100004980A2857D2DFE800F00505052D334A48
:1031200005052D3394F8280040F0010084F82800AC
:103130000599A069059B01442046FFF7A7FF68B3E6
:10314000216A2046884794F8280040073BD5002094
:1031500000900598A169002342181946204601F005
:10316000D9F8D8B9502080F31188BFF34F8FBFF33F
:103170006F8FFEE714F8280F20F00100207022E086
:1031800094F8280040F0010084F828000598A06118
:1031900028B1811813462046FFF778FF13E050202E
:1031A00080F31188BFF34F8FBFF36F8FFEE794F862
:1031B0002800810703D4204600F03AFA03E020F00B
:1031C000010084F82800002204A9286800F0F2FD1C
:1031D000002889D109B030BD700000202DE9FC41E4
:1031E0000F46054600F074FB01A800F067F804469E
:1031F000019818B100F0FCFFBDE8FC81254EAFB18D
:1032000030690068D0B30027291B3A46306800F0C7
:1032100091FA00F0EDFF0028EED11F494FF08050E9
:103220000860BFF34F8FBFF36F8FE5E7A542EBD880
:1032300000F0DEFFF0682746C068C468201D00F07B
:1032400067F994F82800410719D5A0692B46411960
:103250003A462046FFF71AFFA8B100200346014670
:1032600000902A46204601F055F860B9502080F3BE
:103270001188BFF34F8FBFF36F8FFEE707E020F099
:10328000010084F82800216A20468847B4E7012716
:10329000BAE700007000002004ED00E00648416B32
:1032A000096829B1416BC968C9684968816270477A
:1032B0004FF0FF31FAE700003400002070B50546FA
:1032C00000F0B4FE064E0446B068844203D200F01B
:1032D00009F8012000E0002028602046B46070BD9D
:1032E00070000020F8B5194D20E0C068C468066879
:1032F000201D00F00DF9216A2046884794F8280027
:10330000400713D5A0693044B04206D924616060FB
:10331000211DE86800F034F908E00020034601466A
:1033200000903246204600F0F5FF38B1E8680168A9
:103330000029DAD12969C5E90310F8BD502080F3CE
:103340001188BFF34F8FBFF36F8FFEE7700000202F
:1033500008484068401C4FF0500080F3118804D0AA
:10336000BFF34F8FBFF36F8FFEE7BFF34F8FBFF3F6
:103370006F8FFEE7A8000020074CE068016841B1AC
:10338000C0680021D0F80000FFF728FFFFF7A8FE73
:10339000F3E701210020F7E7700000202DE9F0415C
:1033A000044600F011F994F9455004F1240609E0AF
:1033B000606A48B1304600F0E3FE08B100F00AFA56
:1033C0006D1E6DB2002DF3DC4FF0FF3684F84560C2
:1033D00000F01AF900F0F8F894F9445004F11007DD
:1033E00009E0206948B1384600F0CAFE08B100F093
:1033F000F1F96D1E6DB2002DF3DC84F84460BDE878
:10340000F04100F001B900002DE9F0410546002728
:1034100000F05EFA324E306808B9FFF751FD70696E
:1034200005424ED1C5B3083568070ED005F0070038
:10343000C0F108000544680707D0502080F31188C8
:10344000BFF34F8FBFF36F8FFEE72DB370688542D8
:1034500037D82348183001460C6801E020460C4656
:103460006168A94202D221680029F7D131688C42F3
:1034700027D007682168016060680837411B102960
:103480000FD96019420708D0502080F31188BFF38C
:103490004F8FBFF36F8FFEE713E041606560FFF76A
:1034A000CFFD61687068401A7060B268904200D2C7
:1034B000B060706901430020C4E90001F068401C5D
:1034C000F06000F095FE780707D0502080F3118857
:1034D000BFF34F8FBFF36F8FFEE73846BDE8F08133
:1034E0008800002010B5031F4FF080741C601B1F64
:1034F00021F001011960191F044B0B6014390A6097
:10350000091F6FF0020244380A6010BD51330008F1
:10351000D0E9013201699A60D0E901235A604A6812
:10352000824201D182684A60002202610868401E1E
:103530000860086870470000034B036003F15C00FB
:10354000086080201060704744090020044B03602D
:1035500003F15C0008604FF4807010607047000059
:10356000A00B002000F108014FF0FF32C0E901126A
:10357000C160016100210160704700210161704755
:1035800030B50B685A1C02D000F1080202E0026953
:1035900004E02246546825689D42FAD953684B607E
:1035A00099608A60516008610168491C016030BD02
:1035B00042684A6093688B609368596091600861C3
:1035C0000168491C01607047502080F31188BFF3E7
:1035D0004F8FBFF36F8F0A494868401C486001282D
:1035E0000CD10848006810F0FF0F07D0502080F37E
:1035F0001188BFF34F8FBFF36F8FFEE77047000056
:10360000A800002004ED00E00849486828B1401EE9
:10361000486001D180F311887047502080F31188F1
:10362000BFF34F8FBFF36F8FFEE70000A8000020AD
:1036300070B500282AD0164DA0F1080460686969A9
:10364000084207D1502080F31188BFF34F8FBFF39A
:103650006F8FFEE722683AB1502080F31188BFF3E4
:103660004F8FBFF36F8FFEE78843606000F030F943
:1036700060686968084468602046FFF7E1FC2869D3
:10368000401C2861BDE8704000F0B2BD70BD000074
:10369000880000204FF0E020002101618161054990
:1036A0004FF47A720968B1FBF2F1491E41610721BA
:1036B000016170473000002010B5FCF717FE11497A
:1036C00010280ED300F1E02090F8F0030A78904221
:1036D00007D2502080F31188BFF34F8FBFF36F8F55
:1036E000FEE709480068896800F4E060884207D96D
:1036F000502080F31188BFF34F8FBFF36F8FFEE729
:1037000010BD0000A80000200CED00E010B5084B33
:10371000002200BF53F832401CB1521C082AF9D3D2
:1037200010BD43F8321003EBC201486010BD000029
:103730002803002070B515460E460446FFF744FFE7
:1037400094F944100020491C01D184F8440094F9F4
:103750004510491C01D184F84500FFF755FFA06BC7
:1037600028B92A46314604F1240000F051F82046D9
:10377000BDE87040FFF712BE10B5020014D00F482C
:10378000006B38B1502080F31188BFF34F8FBFF327
:103790006F8FFEE700F09CF800211046FFF76AFAF1
:1037A00000F026FD002807D105494FF08050086041
:1037B000BFF34F8FBFF36F8F10BD000034000020A8
:1037C00004ED00E002490A6A0260C968416070477E
:1037D0003400002001490120C861704734000020F6
:1037E00010B50C4650B1094909681831FFF7C8FEF9
:1037F0002046BDE810400121FFF73CBA502080F37D
:103800001188BFF34F8FBFF36F8FFEE734000020A6
:1038100070B514460D4668B10A4909681831FFF7BA
:10382000C7FE0CB14FF0FF3521462846BDE8704079
:10383000FFF720BA502080F31188BFF34F8FBFF3FA
:103840006F8FFEE73400002030B587B0002403946A
:1038500005AA04A903A80494FFF76EFEDDE903019D
:103860000094CDE90110002315A11748059A00F036
:10387000A4FB164D0028E8621FD000F01BFD0128B4
:1038800009D0401C19D1502080F31188BFF34F8F0D
:10389000BFF36F8FFEE7502080F31188BFF34F8F87
:1038A000BFF36F8F4FF0FF30A86201206861EC60BA
:1038B00007B0BDE8304000F045B807B030BD0000AB
:1038C00049444C45000000000D2F00083400002042
:1038D0000248016B491C016370470000340000205E
:1038E000164810B5016B11B10121C16110BD002155
:1038F000C1610169124A01E0B9B1491E01EB8103BE
:1039000052F82330002BF7D001EB810302EB830246
:1039100002F1080453685B685360A34201D15B68FD
:103920005360DA680260016110BD502080F3118895
:10393000BFF34F8FBFF36F8FFEE70000340000200E
:10394000680300201CB537480168374A914207D107
:10395000502080F31188BFF34F8FBFF36F8FFEE7C6
:1039600000683149491E884207D1502080F31188F0
:10397000BFF34F8FBFF36F8FFEE72C49087801909C
:10398000FF20087008788DF800009DF800009DF871
:10399000002000F0F000904207D0502080F3118802
:1039A000BFF34F8FBFF36F8FFEE79DF80000204CF1
:1039B00000F0500020700720A06005E09DF8002076
:1039C00052008DF80020401E9DF800201206F5D40C
:1039D000A060032807D0502080F31188BFF34F8FD9
:1039E000BFF36F8FFEE74FF44070A060019808703E
:1039F0000C482030016841F470010160016841F019
:103A000070410160FFF746FE00206060FCF736FC65
:103A10000848016841F040410160FCF71BFC0020B0
:103A20001CBD000000ED00E071C20F4100E400E0A9
:103A3000A800002034EF00E010B5502080F311887A
:103A4000BFF34F8FBFF36F8F00F0F6FA18B1044940
:103A50004FF080500860002080F3118810BD0000F6
:103A600004ED00E0F8B517460E46050013D005FB3F
:103A700006F05030FFF7C8FC04000AD0002084F89C
:103A8000460004F150023B46314628460094FFF7B9
:103A90006DFA2046F8BD502080F31188BFF34F8F98
:103AA000BFF36F8FFEE738B5049D18B153B1CAB1AB
:103AB00081B120E0502080F31188BFF34F8FBFF316
:103AC0006F8FFEE7502080F31188BFF34F8FBFF355
:103AD0006F8FFEE7502080F31188BFF34F8FBFF345
:103AE0006F8FFEE739B1502080F31188BFF34F8FFD
:103AF000BFF36F8FFEE750241C46012384F8463045
:103B00002B460094FFF732FA204638BD70B50D46BB
:103B1000040025D0FFF758FDD4E90F20216802FBEF
:103B20000011A1600021A163216861600A46D4E907
:103B30000F01401E00FB0121E16021464FF0FF30E4
:103B400001F8440F487004F110008DB1FFF70AFD31
:103B500004F12400FFF706FDFFF756FD012070BDBC
:103B6000502080F31188BFF34F8FBFF36F8FFEE7B4
:103B700021690029F0D000F003FB0028ECD00449B3
:103B80004FF080500860BFF34F8FBFF36F8FE3E7B4
:103B900004ED00E02DE9FF4782B01D468A464FF054
:103BA0000008040003D0BAF1000F08D011E0502043
:103BB00080F31188BFF34F8FBFF36F8FFEE7206C48
:103BC00038B1502080F31188BFF34F8FBFF36F8F50
:103BD000FEE7022D0AD1E06B012807D0502080F3C8
:103BE0001188BFF34F8FBFF36F8FFEE700F010FA1D
:103BF0003F4F4FF000094FF0805648B9049838B154
:103C0000502080F31188BFF34F8FBFF36F8FFEE713
:103C1000FFF7DAFCA06BE16B884207D3022D05D0D9
:103C20000498D0B1B8F1000F1AD01EE02A465146D0
:103C30002046FFF7F4F8616A19B104F1240000F09E
:103C40009FFA20B13E60BFF34F8FBFF36F8FFFF736
:103C5000DBFC012006B0BDE8F087FFF7D5FC22E0D1
:103C60006846FFF7AFFD4FF00108FFF7CDFCFFF707
:103C70002FFEFFF7A9FC94F94400401C01D184F801
:103C8000449094F94500401C01D184F84590FFF719
:103C9000BBFC04A9684600F029F930B12046FFF7C3
:103CA0007DFB00F0A5FA0020D4E7FFF78DFCA06BA8
:103CB000E16B884213D1FFF7A7FC04F110000499CF
:103CC000FFF78EFD2046FFF769FB00F091FA002810
:103CD0009ED13E60BFF34F8FBFF36F8F98E7FFF722
:103CE00093FC2046FFF75AFB00F082FA90E70000B1
:103CF00004ED00E02DE9F0471F4690468946040098
:103D000003D0B9F1000F08D011E0502080F31188E2
:103D1000BFF34F8FBFF36F8FFEE7206C38B1502099
:103D200080F31188BFF34F8FBFF36F8FFEE7022F31
:103D30000AD1E06B012807D0502080F31188BFF32F
:103D40004F8FBFF36F8FFEE7FFF7B6FC5020EFF306
:103D5000118680F31188BFF34F8FBFF36F8FA06B75
:103D6000E16B884206D3022F04D0002086F311882D
:103D7000BDE8F08794F94550A06B3A464946204685
:103D8000FFF74DF8681C04D06D1C84F845500120E5
:103D9000ECE7606A0028FAD004F1240000F0F0F9A2
:103DA0000028F4D0B8F1000FF1D00121C8F80010BC
:103DB000EDE700002DE9F747002683B08A460400AE
:103DC00003D0BAF1000F08D011E0502080F3118821
:103DD000BFF34F8FBFF36F8FFEE7206C38B15020D9
:103DE00080F31188BFF34F8FBFF36F8FFEE700F0B2
:103DF0000FF9DFF8F4804FF000094FF0805748B911
:103E0000059838B1502080F31188BFF34F8FBFF36E
:103E10006F8FFEE7FFF7D8FBA56BC5B15146204673
:103E2000FEF7EAFF6D1EA563206950B104F1100092
:103E300000F0A6F928B1C8F80070BFF34F8FBFF3A8
:103E40006F8FFFF7E1FB012006B0BDE8F087059812
:103E500008B11EB106E0FFF7D7FB27E06846FFF781
:103E6000B1FC0126FFF7D0FBFFF732FDFFF7ACFBFB
:103E700094F94400401C01D184F8449094F9450021
:103E8000401C01D184F84590FFF7BEFB05A96846A8
:103E900000F02CF8002820460AD0FFF77FFA00F047
:103EA000A7F92046FFF70EF90028B3D00020CBE792
:103EB000FFF708F990B104F124000599FFF790FC91
:103EC0002046FFF76BFA00F093F90028A2D1C8F85A
:103ED0000070BFF34F8FBFF36F8F9BE72046FFF754
:103EE0005DFA00F085F995E704ED00E02DE9F04179
:103EF0000C46050011D0C4B1FFF766FB174BDA681A
:103F00006E682068911B471C17D02F681B6A9F4260
:103F100019D0964217D8012410E0502080F3118860
:103F2000BFF34F8FBFF36F8FFEE7502080F31188F0
:103F3000BFF34F8FBFF36F8FFEE70024FFF764FBE3
:103F40002046BDE8F081884205D9401A2060284605
:103F5000FFF738FCF1E700202060DCE734000020A8
:103F60002DE9FF5F8346DDE90E87994616468A46AE
:103F70009000FFF749FA05001CD05C20FFF744FAD7
:103F8000040014D00020256384F85900CDE90240D4
:103F9000CDE900874B46324651465846FEF7F8FFBA
:103FA0002046FEF795FE012004B0BDE8F09F2846AC
:103FB000FFF73EFB4FF0FF30F6E7F0B585B0DDE9E7
:103FC0000B640A9DA6B1DCB15C270097266302262C
:103FD00084F85960002604AFCDE90246CDE90057C8
:103FE000FEF7D6FF2046FEF773FE049805B0F0BD3D
:103FF000502080F31188BFF34F8FBFF36F8FFEE720
:10400000502080F31188BFF34F8FBFF36F8FFEE70F
:104010000548416919B1006B18B1002070470120B3
:104020007047022070470000340000200148C0683B
:1040300070470000340000202DE9F0412E4C00278D
:10404000206B28B1A069401CA0613846BDE8F08112
:10405000E668761CE66013D1606B006838B15020CA
:1040600080F31188BFF34F8FBFF36F8FFEE7606B54
:10407000A16B6163A063206A401C2062FFF70EF908
:10408000A06ADFF87880864209D3606B0068A0B12F
:10409000606BC068C5686868864211D2A0622068FB
:1040A000C06A00EB800158F82100012800D90127DF
:1040B000E0690028C9D00127C7E74FF0FF30EDE7DE
:1040C000281DFFF725FAA86A18B105F11800FFF7B7
:1040D0001FFAE86A2169884200D9206100EB80015B
:1040E00008EB8100291DFFF763FAE86A2168C96AB5
:1040F0008842CAD30127C8E73400002068030020A3
:1041000070B504004FF0000133D01B4D2868844285
:1041100007D0502080F31188BFF34F8FBFF36F8F0C
:10412000FEE7206D38B1401E2065E36CE26A9A42DA
:104130001FD040B11DE0502080F31188BFF34F8F96
:10414000BFF36F8FFEE7201DFFF7E2F9E06CE0623E
:10415000C0F13800A061E06A2969884200D928616D
:10416000064900EB800001EB8000211DFFF720FADB
:104170000121084670BD00003400002068030020C3
:1041800070B5C068C46854B104F118000646FFF762
:10419000BFF9144D286B50B13146134815E050203B
:1041A00080F31188BFF34F8FBFF36F8FFEE7201DA1
:1041B000FFF7AEF9E06A2969884200D928610B4906
:1041C00000EB800001EB8000211DFFF7F1F9E06AB0
:1041D0002968C96A884202D90120E86170BD0020BF
:1041E00070BD000034000020F007002068030020AC
:1041F0002DE9F0472C4D00242746286B38B1FFF7F6
:10420000E3F9286B401E2863286B40B146E050203C
:1042100080F31188BFF34F8FBFF36F8FFEE7A9685C
:10422000224E0120D1B3A6F5916980463068E0B1F5
:10423000F068C46804F11800FFF76AF9201DFFF761
:1042400067F9E06A2969884200D9286100EB80019A
:1042500009EB8100211DFFF7ABF9E06A2968C96A03
:104260008842E3D3C5F81C80E0E70CB1FFF716F8ED
:10427000AC694CB14FEA0806FFF7DEFE00B1EE6113
:10428000641EF9D10020A861E86938B10849012706
:1042900038070860BFF34F8FBFF36F8FFFF7B4F994
:1042A0003846BDE8F087000034000020F007002009
:1042B00004ED00E010B586B0FEF772FD114C2068E9
:1042C000B8B100200390049005AA04A903A8FFF741
:1042D0003DF9DDE9032102208DE8070000230AA152
:1042E0000B48059AFFF769FE606010B106B0012027
:1042F00010BD502080F31188BFF34F8FBFF36F8F35
:10430000FEE7000070000020546D722053766300B9
:10431000793300082DE9FF411E46134602000A9D2D
:104320004FF0000016D0144C2768002F0FD0CDE9B5
:1043300000130292062917DAFFF76AFE02284FF0EF
:1043400000030FD0002269462068FFF723FC04B069
:10435000BDE8F081502080F31188BFF34F8FBFF389
:104360006F8FFEE72A46EEE700233246694638465D
:10437000FFF7C0FCEBE70000700000204FF040703A
:10438000E1EE100A704700004844000800000000F9
:104390000000000000000000000000000008000015
:1043A0001800000000000000000000003044000879
:1043B00000000000000000000000000000000000FD
:1043C00000020000100000000000000000000000DB
:1043D000244400080000000000000000000000006D
:1043E00000000000000200002000000000000000AB
:1043F0000000000040440008000000000000000031
:1044000000000000000000000000000000000000AC
:104410000000000001020304060708090000000074
:104420000102030452656365697665446174610045
:104430005472616E736D69744461746100000000B0
:1044400072784275666600006D61696E5461736BC7
:10445000000000007444000800000020B4000000C8
:10446000D001000828450008B4000020AC5100002D
:10447000EC01000800000000000000000000000047
:10448000000000000000000000000000000000002C
:10449000000000000000000001000000100000000B
:1044A000000000000024F4000000000000000000F4
:1044B00000000000000000000000000000000000FC
:1044C00000000000000000000000000000000000EC
:1044D00000000000000000000000000000000000DC
:1044E00000000000000000000000000000000000CC
:1044F00000000000000000000000000000000000BC
:1045000000000000000000000000000000000000AB
:10451000000000000000000000000000000000009B
:08452000AAAAAAAA00000000EB
:040000050800019559
:00000001FF
