:020000040800F2
:1000000080090020890100084B19000865150008C7
:100010004919000891020008ED1A000800000000CC
:10002000000000000000000000000000531900085C
:10003000C502000800000000511900085519000809
:10004000A3010008A3010008A3010008A301000800
:10005000A3010008A3010008A3010008A3010008F0
:10006000A3010008A3010008A3010008A3010008E0
:10007000A3010008A301000895020008A1020008DE
:10008000AD020008B9020008A3010008A30100089E
:10009000A3010008A3010008A3010008A3010008B0
:1000A000A3010008A3010008A3010008BD1900086E
:1000B000A3010008A3010008A3010008A301000890
:1000C000A3010008A3010008A3010008A301000880
:1000D000A3010008A3010008A3010008A301000870
:1000E000A3010008A3010008A301000800F002F822
:1000F00000F03AF80AA090E8000C82448344AAF188
:100100000107DA4501D100F02FF8AFF2090EBAE885
:100110000F0013F0010F18BFFB1A43F0010318473B
:10012000781C0000981C0000103A24BF78C878C1E1
:10013000FAD8520724BF30C830C144BF04680C60ED
:10014000704700000023002400250026103A28BF35
:1001500078C1FBD8520728BF30C148BF0B60704739
:100160001FB51FBD10B510BD00F05DF81146FFF7BB
:10017000F7FF01F0F5FC00F07BF803B4FFF7F2FFA6
:1001800003BC00F07FF80000094880470948004799
:10019000FEE7FEE7FEE7FEE7FEE7FEE7FEE7FEE737
:1001A000FEE7FEE704480549054A064B7047000094
:1001B000B9190008ED000008800300208009002024
:1001C00080050020800500204FF0000200B5134696
:1001D00094469646203922BFA0E80C50A0E80C5067
:1001E000B1F12001BFF4F7AF090728BFA0E80C5018
:1001F00048BF0CC05DF804EB890028BF40F8042B11
:1002000008BF704748BF20F8022B11F0804F18BF7D
:1002100000F8012B704770477047704700487047DF
:100220002003002070477546FFF7F8FFAE46050033
:100230006946534620F00700854618B020B5FFF701
:10024000B1FFBDE820404FF000064FF000074FF02F
:1002500000084FF0000B21F00701AC46ACE8C009E4
:10026000ACE8C009ACE8C009ACE8C0098D467047ED
:1002700010B50446AFF300802046BDE81040FFF7FC
:100280007CBF000001491820ABBEFEE7260002003B
:10029000FEE70000014800F02FB8000054020020E3
:1002A000014800F029B8000010020020014800F0C9
:1002B00023B8000098020020014800F01DB800009B
:1002C000DC020020704788608B7140204AB18300B7
:1002D000012A09D0022A0BD0032A08D1C2000A80C1
:1002E00004E00880102001E00B802020C8707047D7
:1002F0000B80FBE772B6FEE72DE9F05FC16B0C687F
:1003000001680B68D0F840C0042202FA0CF2494D93
:10031000DFF824A1494E4A4FDFF828B1DFF828E181
:1003200022422CD05A072AD50A68920603D40A68BA
:1003300022F004020A600168A94201D1042219E0F6
:10034000514501D1402215E0B14202D14FF4806203
:1003500010E0B94202D14FF480420BE0594502D17E
:100360004FF4802206E0714502D14FF4800201E093
:100370004FF080622F4908394A60C16A3BE04FF074
:10038000020808FA0CF818EA040F4FF000094FF0C1
:10039000010235D05FEA837832D50B689B0605D41D
:1003A0000B6823F00A030B6080F821200168A94242
:1003B00001D1022219E0514501D1202215E0B142BC
:1003C00002D14FF4007210E0B94202D14FF4005252
:1003D0000BE0594502D14FF4003206E0714502D1DD
:1003E0004FF4001201E04FF00072124908394A60E0
:1003F00080F82090816A00291AD0BDE8F05F084794
:10040000082505FA0CF5254212D01B0710D50B68FC
:1004100023F00E030B6090F84010C36B02FA01F159
:100420005960826380F8212080F82090016BE2E718
:10043000BDE8F09F080002401C000240300002406E
:1004400044000240580002406C00024030B528B31E
:1004500008C8134914221944B1FBF2F18900C163A1
:1004600010498163022141771A6843F6F0718A438B
:10047000D0E900142143D0E902452C43214304690B
:1004800021434469214384692143114319600021B8
:100490004163012242770177084630BD012030BD1B
:1004A000F8FFFDBF0000024070B5044600F004F9FB
:1004B0000546601C02D004480078044400F0FCF8B3
:1004C000401BA042FAD370BD400000202DE9F84F38
:1004D000DFF8B8910024A9F1040B23460F2709F196
:1004E000040AABF1040EC9E00125A5402A40AA4246
:1004F0007DD1674ED1F804C0ACEB0608B44532D0CC
:1005000014DCBCF1030F3AD009DCBCF1000F2AD097
:10051000BCF1010F1CD0BCF1020F31D11DE0BCF1C8
:10052000110F17D0BCF1120F2AD119E0B8F5881FAE
:1005300019D006DCB8F5803F15D0B8F5801F1FD163
:1005400011E0B8F5001F0ED0B8F5041F18D10AE06D
:10055000CB6815E0CB681B1D12E0CB6808330FE0B9
:10056000CB680C330CE08B682BB1012B4FF00803E8
:1005700003D0456104E0042302E0056100E00023AC
:10058000FF2A01D8064601E000F104064FEA84057F
:1005900001D9A5F12005D6F8008007FA05FC28EA64
:1005A0000C0803FA05F548EA0508C6F800804D680E
:1005B000ED0062D5374DAE6946F00106AE61AD691A
:1005C00024F0030605F001050095334D06EB050CFC
:1005D000DCF80850A607360F07FA06F825EA0805E2
:1005E000DFF8B880404503D14FF0000817E044E041
:1005F000DFF8AC80404502D14FF001080FE0DFF892
:10060000A480404502D14FF0020808E0DFF898804E
:10061000404502D14FF0030801E04FF0040808FA0A
:1006200006F848EA0508CCF808804D68D9F800605B
:10063000ED024D4601D5164300E096432E604D680D
:10064000DAF80060AD02554601D5164300E0964346
:100650002E604D68DBF80060AD035D4601D51643A2
:1006600000E096432E604D68DEF80060ED037546AD
:1006700001D5164300E096432E60641C0D682A469F
:10068000E5407FF431AFBDE8F88F00000804014079
:10069000000011100010024000000140000801405D
:1006A000000C014000100140001401400AB101613A
:1006B00070470904FBE700000148806870470000AC
:1006C0004000002070B5040025D094F83D000025BE
:1006D00020B984F83C50204600F04EF9242084F8DC
:1006E0003D002068016821F0010101602068016877
:1006F00041F4004101602068016821F4004101607B
:1007000000F0BCFA4D4A6168914201D84C4900E0C2
:100710004C49884201D2012070BD4B492368B0FB8F
:10072000F1F15E6826F03F060E435E606368934217
:1007300006D94FF4967359434FF47A73B1FBF3F132
:100740002368491C1E6A26F03F063143196261681E
:10075000914210D84900401EB0FBF1F2521CC2F386
:100760000B02042A01D2042022E0B0FBF1F0401C6D
:10077000C0F30B001CE0A268F2B301EBC10303EB72
:100780000116431EB3FBF6F35B1C43F480431B05C9
:1007900049D092B301EBC10202EB0111401EB0FB44
:1007A000F1F0401CC0F30B0040F4804040F40040E6
:1007B0002168CA694CF6FF739A431043C861D4E9B3
:1007C000071001432068026822F0C0021143016053
:1007D000D4E9030101432068826848F2FF339A4359
:1007E00011438160D4E9050108432168CA6822F0F9
:1007F000FF021043C86001E00EE016E020680168C7
:1008000041F0010101602564202084F83D0025634A
:1008100084F83E50002070BD01EB4106431EB3FB3F
:10082000F6F35B1CB3E70120C2E701EB4101401E78
:10083000B0FBF1F0401CC0F30B00B7E7A08601004D
:1008400080841E0000093D0040420F002DE9F84F52
:100850001F4690468A460446DDF82890FFF72CFF95
:10086000054694F83D0020287FD1192301224049F4
:100870002046009500F008FF002876D194F83C004F
:10088000012872D0012084F83C0020680168C90763
:1008900003D1016841F0010101602068016821F481
:1008A00000610160212084F83D00102084F83E00A2
:1008B00000262664C4F824806785608D20852D4835
:1008C000E0622B464A465146204600F063FE90B94E
:1008D000206841698069009036E02A4649462046F2
:1008E00000F078FF50B1206C042804D12068016822
:1008F00041F4007101600120BDE8F88F606A216851
:1009000000780861606A401C6062618D491E6185E3
:10091000218D491E89B2218522685369DB435B071B
:100920000BD451B100781061606A401C6062608D28
:10093000401E6085208D401E20852A46494620465F
:1009400000F076FE0028CED1208D0028C5D154F8C5
:100950003D0B016841F400710160202004F81E097C
:10096000E67766770020C7E7FFE70220C4E70000CC
:10097000020010000000FFFF30B585B0002100919B
:10098000019102910391214D0368214C1221032210
:100990002048AB421DD1A36943F00803A361A369BA
:1009A000039203F0080304931302CDE90031694672
:1009B000FFF78CFD1848416841F0E06141F0020109
:1009C0004160E06940F40010E061E06900F400106B
:1009D00019E0124DAB4217D1A36943F00803A3619C
:1009E000A369039203F0080304934FF44063CDE935
:1009F00000316946FFF76AFDE06940F48000E0617C
:100A0000E06900F48000049005B030BD005400405F
:100A100000100240000C014000000140005800405E
:100A200002488168027811448160704740000020CC
:100A3000074810B5016841F010010160032000F083
:100A40006DF80F2000F006F800F024F8002010BD2B
:100A50000020024070B50D4D04464FF47A7128789D
:100A6000B1FBF0F00A490968B1FBF0F000F0E8FAD8
:100A700048B9102C07D200222146501E00F02EF853
:100A800000206C6070BD012070BD0000400000209F
:100A90004C000020094808B5816941F001018161DD
:100AA000816901F001010091C16941F08051C1618A
:100AB000C06900F08050009008BD000000100240A6
:100AC000002809DB00F01F0201219140400980004D
:100AD00000F1E020C0F8001170470000F0B40E4BA8
:100AE0001B680C46C3F30223C3F10705042D00D98C
:100AF0000425191D072901D2002300E0DB1E012671
:100B000006FA05F1491E214099409E40761E164086
:100B10003143F0BC00F0EBBF0CED00E0064900F003
:100B2000070208684FF6FF03184040EA0220034A14
:100B300010430860704700000CED00E00000FA056B
:100B4000704700002DE9F0470F46050061D0434E85
:100B5000306800F00700B84209D2306820F0070082
:100B600038433060306800F00700B84251D128683F
:100B70003B4C810712D5400703D5606840F4E06024
:100B800060602878000703D5606840F460506060BA
:100B90006068A96820F0F000084360602878C0070A
:100BA00028D06868012810D02168022810D0890751
:100BB00000292EDA616821F0030101436160FFF72B
:100BC0007BFD804641F288390DE021688903EFE71B
:100BD0008901EDE7FFF770FDA0EB0801494502D957
:100BE0000320BDE8F0876068696800F00C00B0EB96
:100BF000810FEFD1306800F00700B8420BD93068A0
:100C000020F0070038433060306800F00700B84239
:100C100001D00120E5E72878400705D56068E9683C
:100C200020F4E060084360602878000706D560681B
:100C3000296920F4605040EAC100606000F03EF88D
:100C40006168084AC1F30311515CC8400649086055
:100C500006480068FFF7FEFE0020C2E700200240C1
:100C6000001002407E1D00084C00002044000020BF
:100C700001490120C8647047000042420448054908
:100C800000684968044AC1F30221515CC8407047BA
:100C90004C000020001002408E1D00080448054949
:100CA00000684968044AC1F3C221515CC8407047DA
:100CB0004C000020001002408E1D00080E4A5168B2
:100CC0000E4801F00C03042B11D0082B0FD10C4857
:100CD000C1F38343C903C05C0AD55168084AC1F314
:100CE0004041921E515C054A5043B0FBF1F0704701
:100CF00004494843704700000010024000127A0087
:100D00006E1D000800093D0010B5044CA0680006E7
:100D100003D5FFF715FF8020A07210BD0010024020
:100D20002DE9F84F040070D02078C04DC00749D09D
:100D30006868C0F38100012807D06868C0F38100AB
:100D4000022809D16868C00306D52868800339D510
:100D500060680028E7D035E06068B0F5803F0BD0D0
:100D600010B1B0F5A02F11D0286820F48030286091
:100D7000286820F4802002E0286840F48030286051
:100D8000606890B1FFF798FC06460AE0286840F4D6
:100D900080202860F0E700BFFFF78EFC801B6428EE
:100DA00073D828688003F7D50CE0FFF785FC06466A
:100DB00005E000BFFFF780FC801B6428F0D828689E
:100DC0008003F7D420789A4E80074FF001094FF046
:100DD000000839D5686810F00C0F07D06868C0F3B8
:100DE0008100022809D16868C00306D428688007FA
:100DF00014D52069012808D110E02069B0B1C6F8E7
:100E00000090FFF759FC074605E00AE1FFF754FCA4
:100E1000C01B0228C4D828688007F7D528686169F4
:100E200020F0F80040EAC10028600DE0C6F800801C
:100E3000FFF742FC074604E0FFF73EFCC01B022818
:100E400023D828688007F7D4207800072CD5794864
:100E5000A169D9B1C0F80090FFF72EFC074604E065
:100E6000FFF72AFCC01B02280FD8686A8007F7D555
:100E700071484FF4FA510068B0FBF1F0009000BFE8
:100E80000098411E0091FAD20EE080E0C0F8008088
:100E9000FFF712FC074604E0FFF70EFCC01B022818
:100EA00075D8686A8007F7D42078400760D5E8696C
:100EB0000027C00008D4E86940F08050E861E86984
:100EC000012700F0805000905C480168C90513D4E8
:100ED0000168834641F480710160FFF7EDFB8246B3
:100EE00006E000BFFFF7E8FBA0EB0A0064284ED83D
:100EF000DBF80000C005F5D5E06801280AD008B18C
:100F0000052813D0286A20F001002862286A20F002
:100F1000040002E0286A40F001002862E06841F223
:100F2000883B98B1FFF7C8FB82460BE0286A40F087
:100F300004002862EEE700BFFFF7BEFBA0EB0A014A
:100F400059455AD8286A8007F6D50CE0FFF7B4FB5C
:100F5000824605E0FFF7B0FBA0EB0A0159454CD8EB
:100F6000286A8007F6D41FB1E86920F08050E86154
:100F7000E06988B36968C1F38101022944D002287D
:100F8000C6F8608004D0FFF797FB044638E034E0F1
:100F9000FFF792FB074604E0FFF78EFBC01B022819
:100FA0002BD828688001F7D4206AB0F5803F05D19E
:100FB0006868A16820F4003008436860D4E908013B
:100FC0000843696821F4741108436860C6F86090AA
:100FD000FFF772FB044606E025E000BFFFF76CFB5D
:100FE000001B022809D828688001F7D51BE000BF44
:100FF000FFF762FB001B022802D90320BDE8F88F2F
:1010000028688001F4D40EE00128F7D06868226ACD
:1010100000F48031914204D1616A00F4701088427A
:1010200001D00120EAE70020E8E7000000100240BC
:1010300000004242800442424C0000200070004008
:1010400010B5401EB0F1807F01D3012010BD4FF0DC
:10105000E02460610F21601700F049FD0020A061CD
:1010600007202061002010BD7047704770B590F8D0
:101070003C20012A26D0012480F83C40022280F83E
:101080003D2003685A689D6822F070060A68324362
:101090005A600D4B02689A4208D0B2F1804F05D0D9
:1010A0000A4B9A4202D00A4B9A4204D1496825F071
:1010B00080031943916080F83D40002180F83C1086
:1010C000084670BD022070BD002C014000040040A5
:1010D000000800402DE9F0410D46040003D094F8CB
:1010E0003D0018B108E00120BDE8F081002084F83F
:1010F0003C00204600F040F8022084F83D002068C3
:10110000816844F2070291438160211D206800F04C
:101110005BFC226890689169166A2B68AF6903438B
:1011200040F20330814341EA0721A868EF69084390
:101130004FF6FC418843E96840EA072001432869EB
:101140002F6A000140EA0730084369686D6926F09C
:10115000220646EA0515294393602268906154F8F7
:10116000460B0162012004F81F09E0752076E07645
:101170002077A0750020B7E700B585B00021009169
:1011800001910291039100681349884221D11348CB
:10119000816941F400618161816901F40061049118
:1011A000816941F0040181618069694600F00400B1
:1011B00004904FF440700090022002900848FFF71E
:1011C00085F9002211461B20FFF788FC1B20FFF742
:1011D00077FC05B000BD0000002C0140001002406B
:1011E000000801400068406A03494FF6FA724861FE
:1011F00050434880704700000000002070B504464E
:10120000006801694FF00005C943890715D4C1681A
:10121000C943890711D4E91E0161012020772068A4
:1012200080698007204602D0FFF7DCFF04E000F071
:1012300098F8204600F096F8257720680169C943A0
:10124000490717D4C168C943490713D46FF0040193
:101250000161022020772068806910F4407F2046D9
:1012600002D0FFF7BFFF04E000F07BF8204600F05B
:1012700079F8257720680169C943090716D4C16840
:10128000C943090712D46FF00801016104202077D7
:101290002068C0698007204602D0FFF7A3FF04E062
:1012A00000F05FF8204600F05DF8257720680169BE
:1012B000C943C90617D4C168C943C90613D46FF01E
:1012C00010010161082020772068C06910F4407F78
:1012D000204602D0FFF786FF04E000F042F82046E7
:1012E00000F040F8257720680169C943C90708D193
:1012F000C168C943C90704D1891E0161204600F0B5
:1013000032F820680169C943090609D4C168C94394
:10131000090605D46FF0800101612046FFF7A4FEA5
:1013200020680169C943490609D4C168C94349060F
:1013300005D46FF040010161204600F015F82068E7
:101340000169C94389060BD4C168C943890607D41A
:101350006FF0200101612046BDE87040FFF785BEB7
:1013600070BD704770477047704770B5040004D077
:1013700094F84100002510B106E0012070BD84F80A
:101380004050204600F024F8242084F841002068D2
:10139000C16821F40051C160204600F04BFB206879
:1013A000016921F4904101612068416921F02A011D
:1013B00041612068C16841F40051C160656420202A
:1013C00084F8410084F842006563002070BD00008D
:1013D0002DE9F04F85B00025009501950295039504
:1013E0000446554F036855480221032280264FF0DA
:1013F000100B4FF0200ABB4252D1836943F4804363
:101400008361836903F480430493836943F0080391
:1014100083618069DFF8288100F008000490402093
:10142000CDE90001039269464046FFF74FF8CDE948
:101430000065B1463746694640460295FFF746F8D3
:101440004048416841F0E06141F0040141603F4E95
:101450003D48C6E90005C6E902573561C6E9055AA7
:1014600057463046F561FEF7F1FF08B1FEF742FF3F
:10147000E6637462364E3448C6E902593561C6E9FE
:1014800005571438F561C6E9000B3046FEF7DEFF5C
:1014900008B1FEF72FFFA663746205B0BDE8F08FB8
:1014A0002C4FBB42F9D1C36943F40033C361C36914
:1014B00003F400330493836943F004038361806978
:1014C000254F00F0040004900420CDE900010392B0
:1014D00069463846FEF7FAFF0820CDE9000569465F
:1014E00038460295FEF7F2FF17481C4F1430D046DD
:1014F000C7E90005C7E902563D61C7E9055A384604
:10150000FD61FEF7A3FF08B1FEF7F4FEE7637C621E
:10151000134F0D48C7E902563D61C7E90558283009
:10152000FD61C7E9000B3846FEF790FF08B1FEF7F2
:10153000E1FEA7637C62B0E7003801400010024082
:10154000000C014000000140580002401002002041
:10155000540200200044004000080140980200208E
:10156000DC020020FEE701684A69D24352050FD42D
:101570006FF480624A61002140F8301F20224273DC
:101580008173026942F00402026101730120704715
:1015900000207047F8B50446C06A1E460D4617463F
:1015A000082807D0012805D010F5803F02D0206B15
:1015B000122804D12068016841F48071016013464B
:1015C00000224FF001112046009600F05DF840B176
:1015D00020680068C00502D54FF400702064032025
:1015E000F8BD2069B0F5804F0ED00620216800EAD2
:1015F000D51040F0F000086133463A460B492046CA
:1016000000F08AF878B902E005F0FE0000E0E8B2E8
:1016100021680861054933463A46891F204600F093
:101620007BF80028DCD00120F8BD00000800010094
:1016300070B516460D4604461EE02046FFF793FFA0
:1016400008B1012070BD681C16D0FFF735F8801B6B
:10165000A84200D885B920684069C04340070BD52F
:10166000002044F8300F20216173A073216941F0FC
:10167000200121612073E4E720684069C0434007EE
:10168000DBD4002070BD00002DE9F04798461746D6
:101690000D460446C1F30746DDF820902AE000BF5E
:1016A000B8F1FF3F26D0FFF707F8A0EB090141454D
:1016B00002D8B8F1000F1DD12068012E16D0806924
:1016C00025EA00000004000C12D00020B84211D11D
:1016D000002044F8300F20216173A073216941F08C
:1016E0002001216120730120BDE8F0874069E7E710
:1016F0000120EBE72068012E0AD0806925EA00006E
:101700000004000C06D00020B842C9D00020EBE74E
:101710004069F3E70120F7E72DE9F04798461646C0
:101720000D4604464FF000094FF0200AC1F3074769
:1017300023E020684069C043400515D42068016853
:1017400041F40071016021686FF480604861C4F861
:10175000309084F83DA084F83E90216C41F0040163
:10176000216484F83C9021E0701C06D0FEF7A4FFB1
:10177000A0EB0800B04203D816B1012F1FD021E022
:101780002068012F15D0806925EA00000004000CB4
:1017900018D000BF44F8309F84F80DA084F80E9054
:1017A000216941F02001216184F80C900120BDE8FD
:1017B000F087406925EA00000004000CEAD12068A7
:1017C000406901E02068806925EA00000004000CFF
:1017D000AFD1ECE770B516460D4604461EE0204634
:1017E000FFF7C1FE08B1012070BD681C16D0FEF7DE
:1017F00063FF801BA84200D885B920684069C043B8
:1018000000060BD5002044F8300F20216173A0732F
:10181000216941F0200121612073E4E720684069DB
:10182000C0430006DBD4002070BD00002DE9F0416C
:1018300086B00024254800940194029403948169A1
:1018400041F010018161816901F010010491816909
:1018500041F020018161816901F0200104918169D9
:1018600041F004018161816901F004010491816901
:1018700041F0080181618069154F00F008004FF4C4
:1018800000550490002229463846FEF70FFFDFF886
:1018900044804FF4E056002231464046FEF706FFF2
:1018A0000220CDE9024000950125694601953846A0
:1018B000FEF70CFE0320CDE90240CDE90065694644
:1018C0004046FEF703FE06B0BDE8F081001002407E
:1018D000001001400008014010B58CB0242168467A
:1018E000FEF772FC00241748099415490A94C0E9D0
:1018F00000144FF6FF71C0E9024104614461846144
:101900000320CDE90004012005210222CDE90204D3
:10191000CDE904120690CDE9074169460948FFF771
:10192000D9FB08B172B6FEE7099409A905480A94E3
:10193000FFF79CFB002801D072B6FEE70CB010BD8B
:10194000002C014004010020FEE7FFF7DDF9FEE76F
:1019500070477047FFF764B830B58FB028216846EC
:10196000FEF732FC14210AA8FEF72EFC0121080420
:10197000CDE900100024029402250491CDE907501E
:101980004FF4E01009906846FFF7CAF908B172B643
:10199000FEE70F20CDE90A054FF48060CDE90C4049
:1019A00002210AA80E94FFF7CDF808B172B6FEE73F
:1019B000FFF75EF90FB030BD704700000148FFF738
:1019C0001DBC000004010020F0B50268164B174C46
:1019D000174D4FF08047984205D0B84203D0A0423F
:1019E00001D0A84203D122F070064A6832439842DF
:1019F00005D0B84203D0A04201D0A84203D122F4BE
:101A00004074CA6822434C6922F08002224302607B
:101A10008A68C2620A688262984201D109690163D8
:101A200001214161F0BD0000002C01400004004094
:101A30000008004070B5044600680169E26821F4BE
:101A40004051114301612169A0680843616908435D
:101A50002168CA6841F20C639A430243CA60206855
:101A60004169A26921F44071114341611E49206816
:101A7000884202D1FFF712F901E0FFF7FFF800EB0F
:101A8000C00101EB0012606864218000B2FBF0F33A
:101A9000B3FBF1F36FF018067343B2FBF0F5B2FB42
:101AA000F0F605EB8305322303EB0515B5FBF1F5E5
:101AB000B6FBF1F605F0F00505EB0615B2FBF0F606
:101AC000B2FBF0F0B0FBF1F06FF01802504306EB00
:101AD000800003EB0010B0FBF1F0216800F00F0074
:101AE0002844886070BD000000380140FEE7090707
:101AF000090E002804DB00F1E02080F80014704794
:101B000000F00F0000F1E02080F8141D7047000085
:101B1000124910B50860202000F006F90A20FEF7EF
:101B2000C3FC282000F000F90120FEF7BDFC0820CE
:101B300000F0FAF80120FEF7B7FC012000F0F4F8FD
:101B40000220FEF7B1FC062000F0EEF80120FEF7BF
:101B5000ABFCBDE810400C2000F0E6B838000020D7
:101B600008B5FEF765FFFFF7F7FEFFF75FFE614878
:101B7000416941F0010141614069002200F001002A
:101B8000009011460E20FEF7A9FF0E20FEF798FFE9
:101B9000002211460F20FEF7A1FF0F20FEF790FF55
:101BA000002211461020FEF799FF1020FEF788FF53
:101BB000002211461120FEF791FF1120FEF780FF51
:101BC0004E484D494FF4164600240160C0E90164B7
:101BD0000C25C460C0E904458461C461FFF7C5FBFE
:101BE00008B172B6FEE74548454948300160C0E992
:101BF0000164C460C0E904458461C461FFF7B5FBBA
:101C000008B172B6FEE73D483E49F0384FF48045D2
:101C100001603D49C0E90114C0E9034544618461A4
:101C2000C4610462FEF74EFD08B172B6FEE73348A8
:101C300036499C3801603649C0E90114C0E90345C2
:101C400044618461C4610462FEF73CFD08B172B670
:101C5000FEE7FFF741FE2949A023FC39032201F1E9
:101C60000C00FEF730FB25489C38FFF751FF294850
:101C70002249D0E90823AC31C1E90023D0E90A2385
:101C8000C1E90223D0E90C20C1E90420012251035B
:101C90002148FEF70BFDDFF88490214E214D5A2795
:101CA0004FF480684FF0E024012241464846FEF799
:101CB000FDFCA0693168B1FBF5F2B1FBF5F17A43A7
:101CC000A2EB5101A269821A8A42FBD3002241464B
:101CD0004846FEF7EBFCA0693168B1FBF5F2B1FBB9
:101CE000F5F17A43A2EB5101A269821A8A42FBD331
:101CF000DAE7000000100240003801404C010020EB
:101D00000044004000540040801A06000058004083
:101D1000A0860100000000200010014000080140E2
:101D20004C00002040420F0008B500F0F0020E49C0
:101D300042F00C0342F008020B704A70000140F0C0
:101D40000C028A7040F00800C87064200A460090B7
:101D5000101F04234E210068FEF778FD08B1022011
:101D600008BD012008BD00003C0000200102020364
:101D70000405060708090A0B0C0D0E0F10100000D1
:101D8000000000000000010203040607080900002B
:101D90000000010203040000B81D0008000000203C
:101DA0005000000028010008081E00085000002014
:101DB000300900004401000800000000000000009D
:101DC0000000000000000000000000000000000013
:101DD000CDCCCCCCCCCCFC3FC3F5285C8F822E4044
:101DE000000000000000C03F0000000000105E4046
:101DF00000000000000000000100000010000000D2
:081E0000000000000024F400C2
:04000005080000ED02
:00000001FF
