:020000040800F2
:10000000E80A0020890100084F1D0008C3170008F6
:100010004D1D0008F50200080D2300080000000037
:10002000000000000000000000000000F91E0008B1
:100030002F03000800000000551D0008DD1F000808
:10004000A3010008A3010008A3010008A301000800
:10005000A3010008A3010008A3010008A3010008F0
:10006000A3010008A3010008A3010008A3010008E0
:10007000A3010008A3010008A3010008F902000879
:10008000A3010008A3010008A3010008A3010008C0
:10009000A3010008A3010008A3010008A3010008B0
:1000A000A3010008A3010008A3010008A3010008A0
:1000B000A3010008A3010008A3010008A301000890
:1000C000A3010008A3010008A3010008A301000880
:1000D000A3010008A3010008A3010008A301000870
:1000E000A3010008A3010008A301000800F002F822
:1000F00000F03AF80AA090E8000C82448344AAF188
:100100000107DA4501D100F02FF8AFF2090EBAE885
:100110000F0013F0010F18BFFB1A43F0010318473B
:10012000C4240000E4240000103A24BF78C878C139
:10013000FAD8520724BF30C830C144BF04680C60ED
:10014000704700000023002400250026103A28BF35
:1001500078C1FBD8520728BF30C148BF0B60704739
:100160001FB51FBD10B510BD00F08FF81146FFF789
:10017000F7FF02F0E9F800F0ADF803B4FFF7F2FF83
:1001800003BC00F0B1F80000094880470948004767
:10019000FEE7FEE7FEE7FEE7FEE7FEE7FEE7FEE737
:1001A000FEE7FEE704480549054A064B7047000094
:1001B0003D200008ED000008E8040020E80A0020C7
:1001C000E8060020E806002010B5203AC0F00B80B9
:1001D000B1E81850203AA0E81850B1E81850A0E84B
:1001E0001850BFF4F5AF5FEA027C24BFB1E81850A5
:1001F000A0E8185044BF18C918C0BDE810405FEA15
:10020000827C24BF51F8043B40F8043B08BF704790
:10021000D20728BF31F8023B48BF11F8012B28BF95
:1002200020F8023B48BF00F8012B70474FF0000256
:1002300000B5134694469646203922BFA0E80C50DC
:10024000A0E80C50B1F12001BFF4F7AF090728BFB7
:10025000A0E80C5048BF0CC05DF804EB890028BF33
:1002600040F8042B08BF704748BF20F8022B11F05C
:10027000804F18BF00F8012B7047704770477047D8
:10028000004870478804002070477546FFF7F8FF64
:10029000AE4605006946534620F00700854618B073
:1002A00020B5FFF77FFFBDE820404FF000064FF07C
:1002B00000074FF000084FF0000B21F00701AC469B
:1002C000ACE8C009ACE8C009ACE8C009ACE8C009BA
:1002D0008D46704710B50446AFF300802046BDE858
:1002E0001040FFF74ABF000001491820ABBEFEE7EF
:1002F00026000200FEE70000014800F015B90000EA
:10030000F803002030B590F840500124AC40C56B94
:100310006C60046863604368102B036803D09960C5
:100320000068C26030BD9A600068C16030BD70472F
:100330000A46018CC369012A00D00022184600F049
:1003400005BB3EB50D4604460698A17942EA8512E2
:10035000CDE900306425029541F0010192B21023ED
:10036000A06800F0C3FB10B1022060713EBD012007
:10037000FBE73FB50B46044683B0A17942EA8312FE
:1003800006AD0A9864230095CDE9010341F001010F
:1003900092B21023A06800F0D1FC18B10220607165
:1003A00007B030BD0120FAE788608B7140204AB168
:1003B0008300012A09D0022A0BD0032A08D1C200E7
:1003C0000A8004E00880102001E00B802020887063
:1003D00070470B80FBE73EB50D4604460698A179B1
:1003E00042EA8512CDE900306425029541F0010111
:1003F00092B21023A06800F079FB10B10220607166
:100400003EBD0120FBE73EB50D4604460698A179A6
:1004100042EA8512CDE900306425029541F00101E0
:1004200092B21023A06800F089FC10B10220607124
:100430003EBD0120FBE772B6FEE70022AFF300806D
:1004400030B50E4B054601205C7A012C15D8587A40
:1004500000241C54587A03EB800045605D7A03F158
:1004600008002A54587A421C5A72303008703A20D8
:1004700048702F208870CC70002030BD7C04002094
:10048000F0B400210125264B02265A5CFF2A3DD1FB
:100490005C186278FF2A39D1A278012A12D0022A88
:1004A00013D0032A14D0042A12D0052A10D0062A09
:1004B0000ED0082A0CD0092A0AD00A2A0BD00B2AFF
:1004C00017D023E080F8925020E080F892601DE081
:1004D00080F892201AE00A2280F89220E278022A1C
:1004E00001D180F89A60E278012A0FD180F89A5001
:1004F0000CE00B2280F89220E278012A01D180F8EA
:100500009B50E278022A01D180F89B60491C402967
:10051000BBD30448402202490068F0BC01F032B964
:100520003C040020540000202DE9F05FC16B0C68F2
:1005300001680B68D0F840C0042202FA0CF2494D61
:10054000DFF824A1494E4A4FDFF828B1DFF828E14F
:1005500022422CD05A072AD50A68920603D40A6888
:1005600022F004020A600168A94201D1042219E0C4
:10057000514501D1402215E0B14202D14FF48062D1
:1005800010E0B94202D14FF480420BE0594502D14C
:100590004FF4802206E0714502D14FF4800201E061
:1005A0004FF080622F4908394A60C16A3BE04FF042
:1005B000020808FA0CF818EA040F4FF000094FF08F
:1005C000010235D05FEA837832D50B689B0605D4EB
:1005D0000B6823F00A030B6080F821200168A94210
:1005E00001D1022219E0514501D1202215E0B1428A
:1005F00002D14FF4007210E0B94202D14FF4005220
:100600000BE0594502D14FF4003206E0714502D1AA
:100610004FF4001201E04FF00072124908394A60AD
:1006200080F82090816A00291AD0BDE8F05F084761
:10063000082505FA0CF5254212D01B0710D50B68CA
:1006400023F00E030B6090F84010C36B02FA01F127
:100650005960826380F8212080F82090016BE2E7E6
:10066000BDE8F09F080002401C000240300002403C
:1006700044000240580002406C00024030B528B3EC
:1006800008C8134914221944B1FBF2F18900C1636F
:1006900010498163022141771A6843F6F0718A4359
:1006A000D0E900142143D0E902452C4321430469D9
:1006B0002143446921438469214311431960002186
:1006C0004163012242770177084630BD012030BDE9
:1006D000F8FFFDBF0000024070B5044690F820000E
:1006E000002501280CD0012084F8200094F8216016
:1006F0000020012E06D084F820000225284670BD77
:10070000022070BD022684F82160A063206806687C
:1007100026F0010606602046FFF7F4FDE06A002897
:100720002068016802D041F00E0106E021F00401CA
:1007300001602068016841F00A01016020680168D9
:1007400041F001010160D9E770B5044600F004F9F9
:100750000546601C02D004480078044400F0FCF810
:10076000401BA042FAD370BD580000202DE9F84F7D
:10077000DFF8B8910024A9F1040B23460F2709F1F3
:10078000040AABF1040EC9E00125A5402A40AA42A3
:100790007DD1674ED1F804C0ACEB0608B44532D029
:1007A00014DCBCF1030F3AD009DCBCF1000F2AD0F5
:1007B000BCF1010F1CD0BCF1020F31D11DE0BCF126
:1007C000110F17D0BCF1120F2AD119E0B8F5881F0C
:1007D00019D006DCB8F5803F15D0B8F5801F1FD1C1
:1007E00011E0B8F5001F0ED0B8F5041F18D10AE0CB
:1007F000CB6815E0CB681B1D12E0CB6808330FE017
:10080000CB680C330CE08B682BB1012B4FF0080345
:1008100003D0456104E0042302E0056100E0002309
:10082000FF2A01D8064601E000F104064FEA8405DC
:1008300001D9A5F12005D6F8008007FA05FC28EAC1
:100840000C0803FA05F548EA0508C6F800804D686B
:10085000ED0062D5374DAE6946F00106AE61AD6977
:1008600024F0030605F001050095334D06EB050C59
:10087000DCF80850A607360F07FA06F825EA08053F
:10088000DFF8B880404503D14FF0000817E044E09E
:10089000DFF8AC80404502D14FF001080FE0DFF8EF
:1008A000A480404502D14FF0020808E0DFF89880AC
:1008B000404502D14FF0030801E04FF0040808FA68
:1008C00006F848EA0508CCF808804D68D9F80060B9
:1008D000ED024D4601D5164300E096432E604D686B
:1008E000DAF80060AD02554601D5164300E09643A4
:1008F0002E604D68DBF80060AD035D4601D5164300
:1009000000E096432E604D68DEF80060ED0375460A
:1009100001D5164300E096432E60641C0D682A46FC
:10092000E5407FF431AFBDE8F88F000008040140D6
:1009300000001110001002400000014000080140BA
:10094000000C014000100140001401400AB1016197
:1009500070470904FBE70000014880687047000009
:100960005800002070B5040025D094F83D00002503
:1009700020B984F83C50204600F078FA242084F80E
:100980003D002068016821F00101016020680168D4
:1009900041F4004101602068016821F400410160D8
:1009A00000F0D2FB4D4A6168914201D84C4900E009
:1009B0004C49884201D2012070BD4B492368B0FBED
:1009C000F1F15E6826F03F060E435E606368934275
:1009D00006D94FF4967359434FF47A73B1FBF3F190
:1009E0002368491C1E6A26F03F063143196261687C
:1009F000914210D84900401EB0FBF1F2521CC2F3E4
:100A00000B02042A01D2042022E0B0FBF1F0401CCA
:100A1000C0F30B001CE0A268F2B301EBC10303EBCF
:100A20000116431EB3FBF6F35B1C43F480431B0526
:100A300049D092B301EBC10202EB0111401EB0FBA1
:100A4000F1F0401CC0F30B0040F4804040F4004043
:100A50002168CA694CF6FF739A431043C861D4E910
:100A6000071001432068026822F0C00211430160B0
:100A7000D4E9030101432068826848F2FF339A43B6
:100A800011438160D4E9050108432168CA6822F056
:100A9000FF021043C86001E00EE016E02068016824
:100AA00041F0010101602564202084F83D002563A8
:100AB00084F83E50002070BD01EB4106431EB3FB9D
:100AC000F6F35B1CB3E70120C2E701EB4101401ED6
:100AD000B0FBF1F0401CC0F30B00B7E7A0860100AB
:100AE00080841E0000093D0040420F002DE9FF4FA9
:100AF00083B00025DDE910799A4693460446DDF877
:100B000048800095FFF728FF064694F83D0020280E
:100B10007CD11923012285492046009600F068FF08
:100B20000028F5D194F83C0001286FD0012084F80A
:100B30003C0020680168C90703D1016841F0010148
:100B400001602068016821F400610160222084F8BE
:100B50003D00402084F83E0025646762A4F82A9096
:100B6000608D20857248E062CDE9008653465A4682
:100B70002046049900F03EFE00287DD1208DDFF84C
:100B8000B491202768B1012814D002282068016898
:100B90001ED041F480610160206841698069009045
:100BA000B6E02068416981690091016841F40071F3
:100BB0000160ADE02068016821F48061016072B6D7
:100BC0002068416981690091016841F400710AE07F
:100BD00041F40061016072B6206841698169009149
:100BE000016821F48061016062B691E0032868D851
:100BF00001280CD0022843464FF000024946204607
:100C000000960FD000F0F4FEB0BB10E08BE032464F
:100C10004146204600F092FF70BB20680069616A7F
:100C200008706CE000F0E4FE30BB72B634E020687F
:100C3000016821F48061016072B620680069616A10
:100C40000870606A401C6062208D401E2085608DA7
:100C5000401E6085384846F2A8110068B0FBF1F0EC
:100C6000C0EBC00000EB80000090401E009008D058
:100C700020684069C04300E029E040070CD5009897
:100C8000F3E744F8305F6773A573206940F02000F4
:100C9000206162B625731AE02068016841F4007192
:100CA000016020680069616A0870606A401C6062C7
:100CB000218D491E2185618D491E618562B621689D
:100CC0001BE032464146204600F038FF18B10120B3
:100CD00007B0BDE8F08F20680069616A0870606A3B
:100CE000401C6062218D491E2185618D491E6185F0
:100CF00021684A69D24352070AD409690170606ABF
:100D0000401C6062208D401E2085608D401E6085E5
:100D1000208D00287FF46AAF84F83D7084F83E503F
:100D200084F83C50D4E70220D2E700000200100013
:100D30000000FFFF04000100640000202DE9FF4FC8
:100D400083B09A46DDE9119793460446DDF840806A
:100D5000FFF702FE054694F83D0020287FD11923B5
:100D6000012240492046009500F042FE002876D13D
:100D700094F83C00012872D0012084F83C002068DF
:100D80000168C90703D1016841F0010101602068D1
:100D9000016821F400610160212084F83D004020B9
:100DA00084F83E0000262664C4F82480A4F82A9023
:100DB000608D20852C48E062CDE9007553465A4687
:100DC0002046049900F094FD70B930E02A46394677
:100DD000204600F0EBFE58B1206C042804D12068B6
:100DE000016841F400710160012007B0BDE8F08F97
:100DF000606A216800780861606A401C6062218D29
:100E0000491E89B22185628D521E6285226853690E
:100E1000DB435B070BD469B100781061606A401C4A
:100E20006062208D401E2085608D401E6085208D73
:100E30000028CBD12A463946204600F0ADFD0028D7
:100E4000CAD154F83D0B016841F4007101602020C3
:100E500004F81E09E67766770020C6E7FFE7022060
:100E6000C3E70000020010000000FFFF10B586B0CD
:100E70000021009101910291039100681349884279
:100E800022D1134CA06940F00800A061A069694616
:100E900000F0080004904FF4407000901220019080
:100EA000032003900B48FFF761FC0B48416841F0B9
:100EB000E06141F002014160E06940F40010E0614E
:100EC000E06900F40010049006B010BD005400402A
:100ED00000100240000C01400000014002488168FF
:100EE000027811448160704758000020074810B50F
:100EF000016841F010010160032000F075F80F2037
:100F000000F006F800F024F8002010BD0020024098
:100F100070B50D4D04464FF47A712878B1FBF0F0AE
:100F20000A490968B1FBF0F000F082FB48B9102CC7
:100F300007D200222146501E00F036F800206C60D7
:100F400070BD012070BD000058000020640000202A
:100F50000C4808B5816941F001018161816901F0A6
:100F600001010091C16941F08051C161C06900F087
:100F7000805000900448416821F0E06141F0007128
:100F8000416008BD0010024000000140002809DB5C
:100F900000F01F02012191404009800000F1E02093
:100FA000C0F8001170470000F0B40E4B1B680C46EF
:100FB000C3F30223C3F10705042D00D90425191D2D
:100FC000072901D2002300E0DB1E012606FA05F105
:100FD000491E214099409E40761E16403143F0BC88
:100FE00001F095B90CED00E0064900F00702086831
:100FF0004FF6FF03184040EA0220034A10430860FE
:10100000704700000CED00E00000FA05704700009A
:101010002DE9F0470F46050061D0434E306800F0DF
:101020000700B84209D2306820F00700384330602A
:10103000306800F00700B84251D128683B4C810766
:1010400012D5400703D5606840F4E06060602878FE
:10105000000703D5606840F4605060606068A9686C
:1010600020F0F000084360602878C00728D0686846
:10107000012810D02168022810D0890700292EDA13
:10108000616821F0030101436160FFF765FC804660
:1010900041F288390DE021688903EFE78901EDE726
:1010A000FFF75AFCA0EB0801494502D90320BDE82F
:1010B000F0876068696800F00C00B0EB810FEFD139
:1010C000306800F00700B8420BD9306820F0070004
:1010D00038433060306800F00700B84201D001208A
:1010E000E5E72878400705D56068E96820F4E06006
:1010F000084360602878000706D56068296920F4F5
:10110000605040EAC100606000F03EF86168084A43
:10111000C1F30311515CC8400649086006480068E5
:10112000FFF7F6FE0020C2E7002002400010024058
:10113000CA250008640000205C000020014901204D
:10114000C864704700004242044805490068496885
:10115000044AC1F30221515CC8407047640000207A
:1011600000100240DA250008044805490068496873
:10117000044AC1F3C221515CC8407047640000209A
:1011800000100240DA2500080E4A51680E4801F0AE
:101190000C03042B11D0082B0FD10C48C1F383434F
:1011A000C903C05C0AD55168084AC1F34041921E88
:1011B000515C054A5043B0FBF1F070470449484385
:1011C000704700000010024000127A00BA250008A3
:1011D00000093D0010B5044CA068000603D5FFF7D8
:1011E00015FF8020A07210BD001002402DE9F84FBD
:1011F000040070D02078C04DC00749D06868C0F3A3
:101200008100012807D06868C0F38100022809D155
:101210006868C00306D52868800339D5606800284F
:10122000E7D035E06068B0F5803F0BD010B1B0F585
:10123000A02F11D0286820F480302860286820F47E
:10124000802002E0286840F480302860606890B117
:10125000FFF782FB06460AE0286840F480202860F9
:10126000F0E700BFFFF778FB801B642873D828687D
:101270008003F7D50CE0FFF76FFB064605E000BFE3
:10128000FFF76AFB801B6428F0D828688003F7D436
:1012900020789A4E80074FF001094FF0000839D5A9
:1012A000686810F00C0F07D06868C0F3810002284E
:1012B00009D16868C00306D42868800714D520695E
:1012C000012808D110E02069B0B1C6F80090FFF7FE
:1012D00043FB074605E00AE1FFF73EFBC01B02287F
:1012E000C4D828688007F7D52868616920F0F8001D
:1012F00040EAC10028600DE0C6F80080FFF72CFB33
:10130000074604E0FFF728FBC01B022823D8286803
:101310008007F7D4207800072CD57948A169D9B186
:10132000C0F80090FFF718FB074604E0FFF714FB36
:10133000C01B02280FD8686A8007F7D571484FF4A0
:10134000FA510068B0FBF1F0009000BF0098411E18
:101350000091FAD20EE080E0C0F80080FFF7FCFABE
:10136000074604E0FFF7F8FAC01B022875D8686A40
:101370008007F7D42078400760D5E8690027C000CF
:1013800008D4E86940F08050E861E869012700F07E
:10139000805000905C480168C90513D401688346F9
:1013A00041F480710160FFF7D7FA824606E000BF82
:1013B000FFF7D2FAA0EB0A0064284ED8DBF8000051
:1013C000C005F5D5E06801280AD008B1052813D07A
:1013D000286A20F001002862286A20F0040002E058
:1013E000286A40F001002862E06841F2883B98B129
:1013F000FFF7B2FA82460BE0286A40F00400286248
:10140000EEE700BFFFF7A8FAA0EB0A0159455AD84A
:10141000286A8007F6D50CE0FFF79EFA824605E0C1
:10142000FFF79AFAA0EB0A0159454CD8286A8007C1
:10143000F6D41FB1E86920F08050E861E06988B314
:101440006968C1F38101022944D00228C6F860808E
:1014500004D0FFF781FA044638E034E0FFF77CFA65
:10146000074604E0FFF778FAC01B02282BD828684B
:101470008001F7D4206AB0F5803F05D16868A16883
:1014800020F4003008436860D4E908010843696823
:1014900021F4741108436860C6F86090FFF75CFAA5
:1014A000044606E025E000BFFFF756FA001B0228BD
:1014B00009D828688001F7D51BE000BFFFF74CFA78
:1014C000001B022802D90320BDE8F88F286880019C
:1014D000F4D40EE00128F7D06868226A00F4803165
:1014E000914204D1616A00F47010884201D0012059
:1014F000EAE70020E8E70000001002400000424256
:1015000080044242640000200070004070B5040076
:1015100009D0606A002540B125616561A56294F833
:10152000510040B10CE0012070BD6068B0F5827FD1
:10153000F4D0E561F2E784F85050204600F040F81E
:10154000022084F851002068016821F04001016008
:10155000A088218900F4827001F404410843A18924
:1015600001F400610843217C01F002010843217D60
:1015700001F001010843218B01F400710843217F30
:1015800001F03801084394F8201001F0800108436D
:10159000218D01F40051084321680860A0690421ED
:1015A00001EA1040216848602068C16921F40061A7
:1015B000C1616565012084F85100002070BD000004
:1015C00030B585B00024009401940294039400681F
:1015D0001449884223D11448816941F480518161C2
:1015E000816901F480510491816941F004018161B4
:1015F00080690E4D00F004000490A02000900220AD
:1016000001900320039069462846FFF7AFF8402079
:10161000CDE90004694628460294FFF7A7F805B013
:1016200030BD0000003001400010024000080140C1
:1016300010B5401EB0F1807F01D3012010BD4FF0E6
:10164000E02460610F21601700F061FE0020A061BE
:1016500007202061002010BD70477047406C704724
:1016600010F8411F40780843704770B5040004D05B
:1016700094F84100002510B106E0012070BD84F807
:101680004050204600F024F8242084F841002068CF
:10169000C16821F40051C160204600F07DFD206842
:1016A000016921F4904101612068416921F02A011A
:1016B00041612068C16841F40051C1606564202027
:1016C00084F8410084F842006563002070BD00008A
:1016D000F0B585B000250646009501950295039565
:1016E0000068224988423ED12148816941F4804105
:1016F0008161816901F480410491816941F00801AF
:10170000816180691B4C00F008000490402000902B
:10171000022001900320039069462046FFF726F837
:101720008027CDE90075694620460295FFF71EF82F
:101730001148416841F0E06141F004014160104C02
:101740000E48C4E90005C4E9025720202561C4E918
:1017500005500002E0612046FEF790FF08B1FEF759
:101760006AFEF463666205B0F0BD00000038014017
:1017700000100240000C01400000014058000240EF
:10178000F803002090F84230202B01D0022070474F
:1017900021B11AB10023036300F05ABD0120704744
:1017A00010B50548FEF76CFE00F0C8FD034C606004
:1017B00000F0BEFDA06010BD9800002000000020D9
:1017C0007047FEE701684A69D24352050FD46FF4AF
:1017D00080624A61002140F8301F202242738173E9
:1017E000026942F004020261017301207047002087
:1017F000704700002DE9F84F0446006889460B9DAC
:1018000001689846174641F48061016020680168CC
:1018100041F48071016000954FF0011B0022594690
:1018200020460A9B00F0E4F84FF4007A40B12068AB
:101830000068C00501D5C4F840A00320BDE8F88FBA
:10184000216809F0FE0008612B46284920460A9AC3
:1018500000F016F9F0BB20684169806900902A46C3
:1018600020460A9900F0A2F940B1206C04283AD130
:101870002068016841F40071016034E0FEB2B8F103
:10188000010F09D02168380A08612A4620460A99C2
:1018900000F08CF90028E8D1206806612A4620462D
:1018A0000A9900F083F90028DFD12068016841F42B
:1018B0008071016000950022594620460A9B00F085
:1018C00097F80028B3D1216809F0FF0040F001002B
:1018D000086100E007E02B46044920460A9A00F020
:1018E000CFF80028AAD00120A8E7000002000100DC
:1018F0002DE9F843044600680D46DDE908970168C4
:101900009846164641F4807101604B4600224FF024
:1019100001112046009700F06BF848B1206800687C
:10192000C00502D54FF4007020640320BDE8F883A1
:10193000216805F0FE0008613B464A4615492046ED
:1019400000F09EF888B920684169806900903A46A5
:101950004946204600F02AF948B1206C042804D1F9
:101960002068016841F4007101600120DEE7F5B2F2
:10197000B8F1010F09D02168300A08613A4649469A
:10198000204600F013F90028E7D120680561002007
:10199000CCE700000200010070B516460D46044673
:1019A0001EE02046FFF70EFF08B1012070BD681C45
:1019B00016D0FEF7D1FF801BA84200D885B9206859
:1019C0004069C04340070BD5002044F8300F202168
:1019D0006173A073216941F0200121612073E4E764
:1019E00020684069C0434007DBD4002070BD000080
:1019F0002DE9F047984617460D460446C1F30746C1
:101A0000DDF820902AE000BFB8F1FF3F26D0FEF7B6
:101A1000A3FFA0EB0901414502D8B8F1000F1DD189
:101A20002068012E16D0806925EA00000004000C11
:101A300012D00020B84211D1002044F8300F2021EC
:101A40006173A073216941F020012161207301209D
:101A5000BDE8F0874069E7E70120EBE72068012E49
:101A60000AD0806925EA00000004000C06D000209E
:101A7000B842C9D00020EBE74069F3E70120F7E75F
:101A80002DE9F047984616460D4604464FF00009EA
:101A90004FF0200AC1F3074723E020684069C043A4
:101AA000400515D42068016841F400710160216887
:101AB0006FF480604861C4F8309084F83DA084F8E9
:101AC0003E90216C41F00401216484F83C9021E0B7
:101AD000701C06D0FEF740FFA0EB0800B04203D810
:101AE00016B1012F1FD021E02068012F15D0806989
:101AF00025EA00000004000C18D000BF44F8309F15
:101B000084F80DA084F80E90216941F02001216134
:101B100084F80C900120BDE8F087406925EA0000B8
:101B20000004000CEAD12068406901E02068806967
:101B300025EA00000004000CAFD1ECE72DE9F041EC
:101B4000002590460E460446202728E04069C04301
:101B5000C0060CD454F8301B6FF01000486144F8F4
:101B600010596777A577206A2062257714E0FEF781
:101B7000F3FEA0EB0800B04200D886B920684069A7
:101B8000C04340060BD544F8305F6773A5732069E6
:101B900040F02000206125730120BDE8F08120681D
:101BA0004169C9434906D1D40020F6E770B516460D
:101BB0000D4604461EE02046FFF704FE08B1012052
:101BC00070BD681C16D0FEF7C7FE801BA84200D867
:101BD00085B920684069C04300060BD5002044F851
:101BE000300F20216173A073216941F02001216130
:101BF0002073E4E720684069C0430006DBD400207E
:101C000070BD000010B504490448FEF716FC0249F7
:101C1000491E087010BD0000810000206C000020EB
:101C20002DE9F04786B000243348009401940294D3
:101C30000394816941F010018161816901F0100113
:101C40000491816941F020018161816901F02001E5
:101C50000491816941F004018161816901F004010D
:101C60000491816941F0080181618069DFF88C90FD
:101C700000F0080049F610760490002231464846EC
:101C8000FEF764FEDFF878A04FF6300800224146E8
:101C90005046FEF75BFE1B4D4FF4C040CDE90005FA
:101CA000694602941848FEF761FD00960227012656
:101CB0000397CDE9016469464846FEF757FDB00237
:101CC000CDE90005694602945046FEF74FFDCDF878
:101CD00000800397CDE9016469465046FEF746FD52
:101CE000082000900320019069465046FEF73EFD13
:101CF00006B0BDE8F0870000001002400008014077
:101D0000000C014000001110001001400E4810B5F9
:101D10000C4901604FF48271416000218160C16013
:101D20004FF400720161C0E90512C16101624162B4
:101D300081620A21C162FFF7E9FB002801D072B677
:101D4000FEE710BD0030014064020020FEE7FFF70F
:101D500041FAFEE770470000014908607047000043
:101D6000540000202DE9F8431446B0F5007F01D35C
:101D700040F2FF100022314D1646AE54521C182A74
:101D8000FBDB002205E004EBC20C0026CCE9006678
:101D9000521C9A42F7D33022009240F48070274BB5
:101DA0000A460146A3F55070FEF715FB24490020B2
:101DB00001F1080201F1100301F1180601F12007F9
:101DC00001F1280915F800C001F800C005EB000C6E
:101DD0009CF8088002F800809CF8108003F80080CE
:101DE0009CF8188006F800809CF8208007F8008096
:101DF0009CF8288009F80080401C0828E2DB104885
:101E00002438D0E90912C4E90012D0E90B12C4E960
:101E10000212D0E90D12C4E90412D0E90F12C4E98C
:101E20000612D0E91112C4E90812D0E91310C4E96E
:101E30000A10BDE8F8430A20FEF786BCC80300205C
:101E40002400002008B5012100910146054B3022F5
:101E50000548FEF776FA03480249491E00780870E3
:101E600008BD00000100002088000020F8B51546DC
:101E70000A46FF2800D9FF2000211D4C0E4666545B
:101E8000491C1829FBDB002105E005EBC10C0026ED
:101E9000CCE90066491C9942F7D31821144B0091F4
:101EA0000146A3F53E70FEF796FA124A002002F1B1
:101EB000080302F11006215C115421180F7A1F54F7
:101EC000097C3154401C0828F5DB0A480C38D0E95D
:101ED0000312C5E90012D0E90512C5E90212D0E9E2
:101EE0000710C5E90410BDE8F8400A20FEF72CBC35
:101EF000800300200C00002070470000F8B5154654
:101F0000B0F5007F01D340F2FF100022114C1646BD
:101F1000A654521C182AFBDB002208E005EBC20C79
:101F200004EBC206DCE9007CC6E9007C521C9A4244
:101F3000F4D33022009240F48070064B0A460146EA
:101F4000A3F54470FEF75FFABDE8F8400A20FEF7FB
:101F5000FBBB00009803002008B501220B4600924D
:101F6000014630220148FEF704FA08BD880000202F
:101F7000F8B514460D46FF2800D9FF200021114A6C
:101F80000E465654491C1829FBDB002109E000BF0E
:101F900004EBC10C02EBC106DCE9007CC6E9007C65
:101FA000491C9942F4D31821064B009101462A4658
:101FB000A3F53870FEF727FABDE8F8400A20FEF7CF
:101FC000C3BB0000680300200348402201490068A9
:101FD000FFF7D8BB3C04002054000020FEF77EBF72
:101FE00030B58FB028216846FEF720F914210AA8E1
:101FF000FEF71CF90121080400240491CDE900102A
:10200000CDE908040294022507956846FFF7EEF82B
:1020100008B172B6FEE70F20CDE90A054FF48060E3
:10202000CDE90C4000210AA80E94FEF7F1FF08B19B
:1020300072B6FEE7FFF782F80FB030BD704770B59B
:10204000446A2068406994F84110C0F3C01000252C
:10205000212904D118B1E584204600F08EF82068CB
:10206000406994F84210C0F38010222904D118B1BD
:10207000E585204600F05AF8606C40F0100060647E
:102080002046FFF7EAFA70BD10B50146406A0968BC
:1020900009684FF0000289062ED4C28501680C3110
:1020A00051E8003F23F4807341E80034002CF5D15F
:1020B0000168143151E8003F23F0010341E8003486
:1020C000002CF5D10168143151E8003F23F04003A2
:1020D00041E80034002CF5D1202180F84210016B3A
:1020E000012909D101680C3151E8003F23F01003A8
:1020F00041E80034002CF5D14263016B012902D084
:10210000FFF74EFB10BD818DFFF7A6FA10BD10B58D
:10211000406A01214163016B012902D0FFF750FBA6
:1021200010BD818D4908FFF797FA10BD01680C3189
:1021300051E8002F22F4907241E80023002BF5D1E2
:102140000168143151E8002F22F0010241E8002318
:10215000002BF5D1016B012909D101680C3151E83F
:10216000002F22F0100241E80023002BF5D120219E
:1021700080F8421000210163704701680C3151E87A
:10218000002F22F0C00241E80023002BF5D12021CE
:1021900080F841107047000070B50446006801697E
:1021A000E26821F44051114301612169A0680843AC
:1021B000616908432168CA6841F20C639A4302438B
:1021C000CA6020684169A26921F4407111434161EC
:1021D0001E492068884202D1FEF7C6FF01E0FEF7E3
:1021E000B3FF00EBC00101EB0012606864218000C6
:1021F000B2FBF0F3B3FBF1F36FF018067343B2FBDD
:10220000F0F5B2FBF0F605EB8305322303EB051581
:10221000B5FBF1F5B6FBF1F605F0F00505EB06159B
:10222000B2FBF0F6B2FBF0F0B0FBF1F06FF0180289
:10223000504306EB800003EB0010B0FBF1F0216887
:1022400000F00F002844886070BD00000038014095
:1022500038B58162044682850020134660642222DC
:1022600084F84220E56B1B4AAA62E56B1A4AEA62CF
:10227000E56B1A4A2A63E26B50630A462168E06BF9
:10228000091DFEF729FA206801684068009020695E
:1022900048B120680C3050E8001F41F4807140E8DC
:1022A0000012002AF5D12068143050E8001F41F0D8
:1022B000010140E80012002AF5D12068143050E8EE
:1022C000001F41F0400140E80012002AF5D1002033
:1022D00038BD0000892000080F2100083F200008B9
:1022E000024801210170007870470000680000205A
:1022F00001207047002070470248012101700078DA
:10230000704700006800002000207047FEE70907C2
:10231000090E002804DB00F1E02080F8001470476B
:1023200000F00F0000F1E02080F8141D704700005D
:1023300001480068FFF792B9540000200148006886
:10234000FFF78EB954000020784C79489AB04FF4CA
:1023500080494461A0F818906114C46001824D1056
:10236000C4610584C82646800021FDF7E1FF70485E
:10237000704F2430A115476101834FF40048C460B9
:10238000A0F81080C461058446800021FDF7D0FFCD
:10239000674821154830476101834910C7600182B1
:1023A000C461058446800021FDF7C2FF6048E11446
:1023B0006C3047610583C7600182C4610584468033
:1023C0000021FDF7B5FF5A48082190304461018390
:1023D000C760A0F81080C461058446800021FDF725
:1023E000A7FF53482021B430446101831021C46009
:1023F0000182C461058446800021FDF799FFFEF744
:1024000075FDFFF7EDFDFFF70BFC4B48416941F00F
:10241000010141614069002200F00100189011465D
:102420000F20FEF7C1FD0F20FEF7B0FD44484349E1
:10243000002401604FF41641C0E901140C21C4606E
:10244000C0E904418461C461FFF70FF908B172B6B5
:10245000FEE73B483B49AC3801603B49C0E9011409
:10246000C0E9034944618461C4610462FEF77AFAF9
:1024700008B172B6FEE7FFF749FCFFF7C3FB2C4932
:10248000A023B039032201F5C470FDF78DFF2C485D
:10249000FFF762FCFFF798FD2548A038FDF7F0FF35
:1024A00018222A490CA8FDF78FFE28491822183156
:1024B00012A8FDF789FE2549302230316846FDF724
:1024C00083FE002118230CAA0846FFF751FD1823AC
:1024D00012AA19460020FFF74BFD002130236A465F
:1024E0000846FFF70BFD01210020FFF735FD4FF4F3
:1024F000FA70FEF729F9124A002118234C320846D7
:10250000FFF7B4FC0E4A1823643219460020FFF787
:10251000ADFC0B4A002130237C320846FFF722FC39
:102520000B4801780020FFF78DFCFEE7000C01400E
:10253000380100200008014000100240003801402E
:10254000BC02002000540040801A060058250008F4
:1025500000000020000000007B14AE47E17A44C078
:10256000CDCCCCCCCC4C2840F6285C8FC2B542C038
:10257000F6285C8FC2F534C0333333333333014034
:10258000F6285C8FC2B542C03333333333A3514096
:102590000000000000C046C085EB51B81EA55640A3
:1025A0006666666666CE6240F6285C8FC2954B40D2
:1025B000713D0AD7A35866400102020304050607CD
:1025C00008090A0B0C0D0E0F10100000000000008F
:1025D00000000102030406070809000000000102D0
:1025E000030400000426000800000020880000000A
:1025F000280100088C26000888000020600A0000DE
:10260000440100080000000000000000000000007D
:1026100000000000000000000000000000000000BA
:1026200000000000000000000000000000000000AA
:10263000000000000000000000000000000000009A
:10264000000000000000000000000000000000008A
:102650000000000000000000000000000100000079
:1026600010000000000000000024F4000100000041
:10267000E1220008F9220008F522000809230008D9
:0C268000F1220008000000000000000033
:04000005080000ED02
:00000001FF
