:020000040800F2
:10000000A0110020F5010008AB4800085540000889
:10001000A948000825250008AD4E00080000000092
:10002000000000000000000000000000DD480008A3
:100030002725000800000000B1480008854A000894
:100040000F0200080F0200080F0200080F0200084C
:100050000F0200080F0200080F0200080F0200083C
:100060000F0200080F0200080F0200080F0200082C
:100070000F0200080F0200080F0200080F0200081C
:100080000F0200080F0200080F0200080F0200080C
:100090000F0200080F0200080F0200080F020008FC
:1000A0000F0200080F0200080F0200080F020008EC
:1000B000ED4A0008F94A00080F0200080F02000884
:1000C0000F0200080F0200080F0200080F020008CC
:1000D0000F020008ED4D00080F0200080F02000893
:1000E000F12500080F0200080F02000800F002F8D6
:1000F00000F070F80AA090E8000C82448344AAF152
:100100000107DA4501D100F065F8AFF2090EBAE84F
:100110000F0013F0010F18BFFB1A43F0010318473B
:10012000F0750000107600000A444FF0000C10F843
:10013000013B13F0070408BF10F8014B1D1108BF65
:1001400010F8015B641E05D010F8016B641E01F805
:10015000016BF9D113F0080F1EBF10F8014BAD1C55
:100160000C1B09D16D1E58BF01F801CBFAD505E073
:1001700014F8016B01F8016B6D1EF9D59142D6D3CD
:10018000704700000023002400250026103A28BFF5
:1001900078C1FBD8520728BF30C148BF0B607047F9
:1001A000662907F0AB81642900F072800020704757
:1001B0001FB500F0A7FF04000020002106F07EFE1E
:1001C000401C60600020002106F062FEE0601FBD60
:1001D00010B510BD01F0A5FA1146FFF7E9FF05F0D3
:1001E0004DF801F007FD03B4FFF7F2FF03BC01F087
:1001F0004BFD00000948804709480047FEE7FEE73D
:10020000FEE7FEE7FEE7FEE7FEE7FEE7FEE7FEE7C6
:1002100004480549054A064B70470000E94A0008B2
:10022000ED000008A00B0020A0110020A00D002070
:10023000A00D00200FB41CB5074B06AA7B446946ED
:100240000090059800F015FC0020694600F024FCA1
:100250001CBC5DF814FB0000590800000FB41CB56D
:100260000C0007AA009001D02044401E074B7B449D
:1002700069460190069800F0FCFB002C03D069460B
:10028000002000F009FC1CBC5DF814FB31080000E4
:100290002DE9F0410646002410687529314616A55F
:1002A00010D0AFF30080002802DA404213A507E027
:1002B00031688A0701D512A502E0490704D511A5C6
:1002C000012401E0AFF3008000210A2206F1240797
:1002D00009E0B0FBF2FCB0FBF2F302FB1C00303093
:1002E00078541846491C0028F3D123462A46304644
:1002F000BDE8F04100F050B9000000002D00000002
:100300002B000000200000002DE9F0474FF0000A0C
:1003100089460446C0F820A02046E16888470028A6
:1003200076D0252806D0D4E901219047206A401CC8
:100330002062F1E7E168204600258847C4F81CA048
:1003400006460027C4F818A02A2E09D0304604F02B
:1003500052FE38B304EB8708303EC8F8186019E045
:1003600059F8041B204604EB87029161E168884735
:10037000012F064618D1E069002820DA25F0200573
:100380001DE0D8F8180000EB800006EB4000303884
:10039000C8F818002046E1688847064604F02BFE9E
:1003A0000028EED1012F0AD02E2E08D12046E16878
:1003B00088477F1C0646022F45F02005C4DBA06954
:1003C000002803DA404245F00105A061E80701D0AA
:1003D00025F01005B6B1A6F14100192802D8203643
:1003E00045F400654A463146204625604D46FFF7F4
:1003F000D7FE58B1012806D0ED1D25F0070000F109
:10040000080989E704E005F1040985E730468AE731
:10041000206ABDE8F08700000FB400B58DB010A9C8
:10042000099000910B904FF0FF300A9000200C9043
:10043000064878440690064878446A4607900F9923
:1004400009A800F0B9FD0DB05DF814FBA30B000086
:10045000BB0B000070B5064600F09AF8046805462C
:1004600030460A22002100F0D7FD2C6070BD032A1F
:1004700040F2308010F0030C00F0158011F8013BC1
:10048000BCF1020F624498BF11F801CB00F8013BA8
:1004900038BF11F8013BA2F1040298BF00F801CB6C
:1004A00038BF00F8013B11F0030300F0ED85083A76
:1004B000C0F0088051F8043B083A51F804CBA0E89A
:1004C0000810F5E7121D5CBF51F8043B40F8043BEF
:1004D000AFF30080D20724BF11F8013B11F801CB24
:1004E00048BF11F8012B24BF00F8013B00F801CBF5
:1004F00048BF00F8012B70474FF000020429C0F0FC
:10050000128010F0030C00F01B80CCF1040CBCF145
:10051000020F18BF00F8012BA8BF20F8022BA1EB97
:100520000C0100F00DB85FEAC17C24BF00F8012B7C
:1005300000F8012B48BF00F8012B70474FF0000274
:1005400000B5134694469646203922BFA0E80C50C9
:10055000A0E80C50B1F12001BFF4F7AF090728BFA4
:10056000A0E80C5048BF0CC05DF804EB890028BF20
:1005700040F8042B08BF704748BF20F8022B11F049
:10058000804F18BF00F8012B7047704770477047C5
:1005900000487047400B00202DE9F0470D46994672
:1005A0009246044600F124080168880604D5E069F3
:1005B00021F01001216000E00120A84201DD471B6D
:1005C00000E00027A1697A1902EB0900081AA0616E
:1005D0002078C00602D42046AFF30080002608E051
:1005E000D4E901211AF806009047206A401C761CC5
:1005F00020624E45F4DB2078C0060AD52046AFF3D2
:10060000008006E0D4E9012130209047206A401C98
:100610002062381EA7F10107F4DC07E0D4E90121CC
:1006200018F805009047206A401C2062281EA5F19A
:100630000105F3DC2046AFF300802078000602D5E8
:100640000220BDE8F0870120FBE770472DE9FF4F4E
:100650000C461E464FF0FF378BB0D2E90001DDF8A3
:1006600060800A908A46C1F30A5505B93D460021CB
:1006700008464FF00000BAF1000F00F4400005DA20
:1006800000EB80004FF4400101EA50004FEA90591E
:10069000B9F1010F00DDB9460A9850EA4A000ED0C0
:1006A00044F61050A5F2FF3545432F14B8F1000F62
:1006B0001ED07542291E1EDDC9F100021CE0B8F1F2
:1006C000010F4FF0000001D0302103E0F24305E0BC
:1006D0002154401CB042FBDB304600220021215453
:1006E0000B99C1F80880C1E900200FB0BDE8F08F78
:1006F000BD1B6D1CDEE74A4600DA694206A800F021
:100700009DFF06AB93E8070003AB83E80700504664
:100710000A9901F0D2FA8DE80700A0F500501F38C1
:1007200000900398002D0ADD42F21F014A4608445A
:10073000002303A90390684601F07EFD09E0A0F5BF
:1007400000504A461F38002303A90390684601F071
:100750009DFD8DE807000004000C03D04FF0FF3032
:10076000410800E01046B8F1000F03D000220092CB
:1007700015461EE0751E05D400F0C8FC30326255E7
:100780006D1EF9D5B3460122084302D000227F1C1A
:1007900004E02078302801D100227F1E002A09972A
:1007A00084D01DE0112D07DA00F0B0FC3032625524
:1007B0006D1C50EA0102F5D1084302D00098C8B17F
:1007C0000EE00021681E05E0235C625C6354225445
:1007D000401E491C8142F7DBAB46A81B401E099016
:1007E000002004F80B000B98099AC0F80880C0E9B3
:1007F000002B7AE711264FF0000857E72DE9F04F5C
:1008000088460446D21D22F0070191B0D1E90001CB
:10081000CDE90A0104F04BFB02460B98C00F01D052
:100820002D2007E02068810701D52B2002E0202140
:1008300001EAC000032A099001D0072A05DB03461C
:100840004146204600F0B0FC0BE12078800601D53F
:10085000E06900E00620B8F1650F814606D0B8F1E6
:10086000660F18D0B8F1670F70D131E00020B9F1F0
:10087000110F009001DB112301E009F101030AAA25
:1008800001A90CA8FFF7E2FEDDE90C70002609F1D2
:100890000105834647E001204B4600904FF000479A
:1008A0000AAA01A90CA8FFF7D1FEDDE90DB00C9949
:1008B0005D46002610B909F101000D18B9EB0500DD
:1008C00003D4C0F1FF3609F10105A5EB09002BE0C7
:1008D000B9F1010F01DA4FF001090020B9F1110F50
:1008E0000090484601DD112300E003460AAA01A951
:1008F0000CA8FFF7ABFEDDE90C704D4600268346E1
:10090000207800070AD4AB4500DA5D4601A8012D26
:1009100004DD411911F8011C302907D04F4502DAD6
:1009200017F1040F04DA012082460FE06D1EEEE796
:10093000002F02DCED1B3E4403E0781CA84200DDE2
:100940007D1CB81B00F1010A4FF00047207800071A
:1009500003D4AA4501DB4FF0FF3A0021B7F1004F65
:100960000DF143088DF8431024D002202B23002FD3
:1009700001DA7F422D230A21021EA0F1010000DCD2
:100980005FB197FBF1FC97FBF1F201FB1C7C174672
:100990000CF1300C08F801CDEEE7A8F1010003706E
:1009A0002188090501D5452100E06521A0F1010854
:1009B00000F8011C09980FA9A1EB0807FF1D00B161
:1009C0000120411901EBEA70A1693844081A401E60
:1009D000A0612078C00602D42046AFF300800998B9
:1009E00028B1D4E901219047206A401C2062207878
:1009F000C00622D52046AFF300801EE0002E04DBA7
:100A0000B34502DD01A8805D00E03020D4E901217A
:100A10009047206A401C2062761CAAF101005FEA20
:100A2000000A0AD100F06EFBC0680168405CD4E99E
:100A300001219047206A401C2062281EA5F1010573
:100A4000DCDC07E0D4E9012118F8010B9047206AAB
:100A5000401C2062381EA7F10107F3DC2046AFF3EB
:100A60000080032011B041E601694A1C0261087848
:100A7000704700B58FB0CDE90131002105910549DE
:100A80007944CDE9031011466846FFF73DFC0FB0ED
:100A900000BD0000E5FFFFFF0A6802F8010B0A60D5
:100AA0007047D1E900239A4202D2531C0B601070A8
:100AB000704700002DE9FF4F06468BB00878FF28ED
:100AC00006D0491C2D2805D000244FF0000908E06D
:100AD00000200CE00124F8E709EB8903491C00EB36
:100AE00043090878FF28F7D114B1C9F10000814605
:100AF000107800252C46AA4629462D2801D02B28FF
:100B000004D1521C2D2813D0002082468B46107829
:100B1000FF280FD04FF0000C0A21521CA5FB0178D2
:100B200004FB018105FB0C11C5194BEB0104EEE739
:100B30000120EAE7002108464FF00000BAF1000F5B
:100B400002D000EB80004008C0F38157012F01DD87
:100B50004FF0FF370E9955EA040009EB01080BD05E
:100B60004FF0020918F5FA7F16DA4FEACA70002F23
:100B7000706008DD012007E04FEACA70C6E900B0E6
:100B80000FB0BDE8F08F00203060FFF701FDC0F826
:100B900000901821084616E0B8F5FA7F18DD002FFE
:100BA00002DAF748784401E0F6487844D0E90010CA
:100BB000C6E9001040EACA707060FFF7E9FCC0F8AF
:100BC0000090142108460FB0BDE8F04F06F093BC2A
:100BD000002108464FF00000B8F10001099002DA48
:100BE000C7F1000200E03A4601DAC8F1000106A8A8
:100BF00000F024FD06AB93E8070003AB83E8070091
:100C000044F23E005BEA04010090584604D144F2ED
:100C10001E012C465D460091210C0904014306D1BA
:100C20000099240444EA15442D041039009104F07D
:100C30007F41014306D10099240244EA15642D0244
:100C40000839009104F07041014306D10099240154
:100C500044EA15742D01091F009104F0404101433D
:100C600006D10099A40044EA9574AD00891E009154
:100C700004F00041084304D100986D196441401EFE
:100C800000904FF001033A466846B8F1000FCDE9F5
:100C9000014503A902DD01F00EFB01E001F0E1FADC
:100CA000BAF1000F04460D4601D084F00044002143
:100CB00008464FF00000099940F2FF77484010F0D5
:100CC0000C0F07D124F00040284303D0C4F30A508E
:100CD000B84212D1FFF75CFCC0F80090C4F30A5090
:100CE000B8420AD1A8487844D0E90010C6E90010FB
:100CF00004F000410843706042E7C6E900543FE752
:100D00002DE9FF4F1F464FF0000A4FF0FF384546D0
:100D100091B0D7E90146CDF83CA000F0F3F9C068E6
:100D20000168405C1090B96912986D1C8847396A57
:100D3000814688470028F6D1B9F1FF3F0AD0002E3E
:100D400024F4D06411DDB9F12B0F08D0B9F12D0FC7
:100D50000BD102E0404615B013E744F48064B96952
:100D600012986D1C8847761E8146600504A901D53E
:100D70002D2000E02B20002E01F1010B0DF1300899
:100D80008DF810003FDDB9F1690F08D0B9F1490FB6
:100D900005D0B9F16E0F02D0B9F14E0F1CD13B4610
:100DA00001A8009580E85002DDE912126FF0020000
:100DB00006F00AFCC11CCED10EE0B96912986D1C78
:100DC000884781461398761E44F4007405600F9896
:100DD000401C002E0F9016DDB9F1300FEDD0B9F1A7
:100DE000780F02D0B9F1580F0DD10F9801280AD110
:100DF0003B46CDE90054DDE91212001F029606F0D1
:100E0000E1FBC11CA7D1109989453ED144F0800473
:100E100006E01399681CAAF1010A44F40074086002
:100E2000B9696D1C1298761E884730288146F0D02B
:100E30002BE01099894505D1200603D4761E44F095
:100E4000800418E0484604F0D6F808B3761E0DF189
:100E500023018B4544F4007408D2A9F130000BF84B
:100E6000010B200607D5AAF1010003E0200602D4F9
:100E70000AF101008246A00502D51399681C08609A
:100E8000B96912986D1C88478146002ED1DC53E069
:100E9000002E51DDB9F1650F02D0B9F1450F4BD1EC
:100EA000A00549D5B9696D1C1298761E24F44074CA
:100EB0008847002E81460CDD2B2804D0B9F12D0F78
:100EC00007D144F48074B96912986D1C8847761E66
:100ED0008146E00501D52D2100E02B2108F8011BFA
:100EE000CDF8008021E0761E0DF13901884544F4EB
:100EF00000740CD2A9F1300010F0FF0088F8000057
:100F000002D10099884509D908F1010806E0E005F9
:100F100001D51E4801E042F20F708246B96912986D
:100F20006D1C8847814613980560002E04DD4846F5
:100F300004F061F80028D6D1F96912988847FF209B
:100F400053468BF8000088F8000000200A900B90B0
:100F500004AA0CA90AA8FFF7ADFDA00502D46FF002
:100F60000100F8E614F0240F12D0E0071CD1386815
:100F7000DDE90A12031D3B600068C0E9001213E0BE
:100F8000906B0000826B0000466A0000F1D8FFFF02
:100F90000AA9684603F0BEFFE00705D13868009A49
:100FA000011D3960006802602846D4E602681144D9
:100FB0001378016018467047D16005497944516142
:100FC00004497944116200211161114600F02CB9E5
:100FD000EDFFFFFFD1010000426842B1016811F846
:100FE000013B23B1521EC0E900121846704701218F
:100FF000C160881E704742685AB1C368016843B92E
:1010000083688B4205D0491E521CC0E900120020A3
:1010100070474FF0FF3070472DE9F04791460F467B
:1010200080460446002614F8015B2DB100F062F8FA
:101030000068405DC007F6D12B2D02D02D2D18D0B1
:10104000641E4A463946204600F0A8FA27B139689E
:10105000A14201D1C7F800804FF0020471050BD501
:101060004042002803DDFFF793FA0460A007BDE8C3
:10107000F08746F48066E4E70028F8DAFFF788FA9C
:1010800004606FF00040F2E710B5203AC0F00B802A
:10109000B1E81850203AA0E81850B1E81850A0E87C
:1010A0001850BFF4F5AF5FEA027C24BFB1E81850D6
:1010B000A0E8185044BF18C918C0BDE810405FEA46
:1010C000827C24BF51F8043B40F8043B08BF7047C2
:1010D000D20728BF31F8023B48BF11F8012B28BFC7
:1010E00020F8023B48BF00F8012B704700487047CA
:1010F000400B002010B500F005F8001D10BD00BF2A
:10110000BD5D000000487047600B002030B5B0F1B5
:101110000A024FEA900E71F100034EEA817EB0EBB5
:101120000E0061EB91014FEA101E4EEA017E10EBBA
:101130000E0041EB11114FEA102E4EEA016E10EB3A
:101140000E0041EB11214FEA104E4EEA014E10EB1A
:101150000E0041EB1141401841F100014FEAD0006F
:1011600040EA41704FEAD10110EB80054FEA81045B
:1011700044EA907444EB01046D1944EB0404521BDF
:10118000A3414FF0000348BF0A3200D530BD401CD8
:1011900041F1000130BD10B50446FFF7ABFF006818
:1011A000005D00F0010010BD2DE9F0411F4604462E
:1011B00003260168072A01F4006004DB08B116A5C4
:1011C00005E016A503E008B115A500E015A521F07E
:1011D00010002060A069C01EA0610FB1401EA06178
:1011E0002046AFF300804FB1D4E901213846904743
:1011F000206A401C2062C01C206206E0206AFAE7D8
:10120000D4E9012115F8010B9047761EF8D220464B
:10121000AFF30080BDE8F0814E414E006E616E007C
:10122000494E4600696E66002DE9F34F4FF0000A03
:101230000C4656468DB001200C9001F10C000B902D
:1012400062690B9801219047051E2DD0252D2CD0C9
:10125000216A8847C0B162690B9801219047216AD1
:1012600088470028F7D16269411E0B98904700E03B
:10127000761CA1690D988847216A88470028F7D114
:10128000E1690D988847DBE7A1690D988847A84276
:10129000074601D1761CD3E7E1690D9888477F1C8A
:1012A00002D1BAF1000F6FD06CE162690B98002790
:1012B0003D46394690472A2804D162690B9801219E
:1012C00090470125DFF8D08262690B980121904791
:1012D000A0F130010A290AD24745E5DC07EB870176
:1012E00000EB4107303FDFD445F01005ECE7E9069D
:1012F00001D46FF000476C280AD04C2814D068281D
:1013000015D06A280DD074281CD07A281AD01DE078
:1013100062690B98012190476C2802D045F00405C2
:1013200014E045F002050DE045F020050AE0626991
:101330000B9801219047682802D045F0080505E088
:1013400045F4006562690B9801219047C4E9015793
:1013500065283DD019DC58287AD00CDC452837D0D8
:1013600004DC252826D041289ED131E046282FD004
:10137000472899D12CE05B2877D0612828D06328B2
:101380007CD0642823D15AE0F7E06F2848D008DCED
:1013900066281DD067281BD0692821D06E2816D159
:1013A00027E0702845D0732868D0752847D0782862
:1013B0000DD14DE0A1690D988847252805463FF4D9
:1013C00069AFE1690D9888476D1C3FF46AAFD9E0B9
:1013D0000D9923466A466FF0010006F0F1F8C6E069
:1013E00045F0400023464FF000026060A80736D465
:1013F0003EE0E8077FF447AF2068011D21600068E8
:10140000290501D506701BE7290701D5068017E7D6
:10141000A90703D5F117C0E9006111E706600FE7DE
:1014200045F0400023464FF008026060A80716D43C
:101430001EE040F60E0125EA0100606016E045F06E
:10144000400023464FF00A026060A80707D40FE06F
:1014500045F040006060A80708D5234610220D998A
:101460006FF00100AFF3008081E007E01022234617
:101470000D996FF00100AFF3008078E04FF00009A4
:1014800063284F46C8464B46CB4602D05B2807D060
:1014900039E02079C00601D40120A060012732E0A4
:1014A0006269D4F80CB00B98012190475E2807D1EF
:1014B0004FF0010949466269D4F80CB00B98904787
:1014C000216939B900210A4603AB43F82120491CA0
:1014D0000829FADBD8B3216949B308F10108626928
:1014E0000B98012190475D28F4D1B9F1000F09D084
:1014F000002003A951F82020D24341F82020401CAD
:101500000828F7DB03AB2069002820794FEA4070F8
:101510001ED05B462246CDF80080CDE901970D999B
:1015200000286FF0010020DAAFF300801FE0C11740
:1015300003AA00EBD1614B1121F01F0102EB8302E2
:10154000411A13680120884003431360C7E719E07C
:101550000D99224600286FF00100009702DAAFF3E0
:10156000008004E0AFF3008001E0AFF300800028CA
:101570000ADA401C06D10C9820B14FF0FF300FB0B2
:10158000BDE8F08F5046FAE7E90701D10AF1010AF8
:10159000064400200C9053E6CCCCCC0C2DE9F05F37
:1015A000824615468B4600270AF10104B9460078A9
:1015B000302801D09DB113E014F8010B01277828E1
:1015C00003D0582801D045B10AE00DB1102D07D144
:1015D000002714F8010B102502E0082500E00A2579
:1015E0000026B0460EE005FB080005FB06F10127CA
:1015F0001FFA80F801EB1046B6F5803F00D3B946DC
:1016000014F8010B294600F0BCF80028EBDABBF116
:10161000000F05D00FB1641E00E05446CBF8004027
:10162000B9F1000F06D0FEF7B3FF02210160C81E1A
:10163000BDE8F09F48EA0640FAE700002DE9F047D0
:10164000814616468AB0354878440DC88DE80D00AD
:1016500032487844801C03AC0DC884E80D0041F684
:101660009B300844372190FBF1F290FBF1F5A5F196
:10167000800501FB12041B3C02D56442012000E0FE
:101680000020DFF898A080460027FA44AAF1BE0A9D
:101690000EE0E0070AD03246684607EB4701012317
:1016A0000AEB810100F0F2FD8DE8070064107F1C59
:1016B000002CEED1194F7F44AE3F19E0E80715D05A
:1016C00007EB04100DF1180A90E80E008AE80E00EE
:1016D000C068F04201D1981908903246012306A94A
:1016E00003A800F0D3FD03AB83E807006D10641C72
:1016F000002DE3D14FF0010332466946B8F1000FE7
:1017000003A802D000F098FD01E000F0BFFDC9E998
:101710000001C9F808200AB0BDE8F087AC600000FD
:1017200070477546FFF7E2FCAE4605006946534632
:1017300020F00700854618B020B5FEF769FDBDE82A
:1017400020404FF000064FF000074FF000084FF028
:10175000000B21F00701AC46ACE8C009ACE8C009B9
:10176000ACE8C009ACE8C0098D46704710B5FEF77B
:101770000FFF006810BD10B50446FEF709FF0460B6
:1017800010BD3A2800D2303820F02002412A01D37F
:10179000A2F13700884201D34FF0FF3070470000BC
:1017A0002DE9FF4F1F464FF03C0987B04FF0004234
:1017B000DDE9141001F10108DDF858A002EA4050FB
:1017C0000390002005908346054604460490B969BD
:1017D000461E08988847AAF1010A0290BAF1000F44
:1017E0003BDD02982E2815D01021FFF7CAFF0028F4
:1017F0002EDB4FF0010B0599014317D0B9F1000F13
:101800000BDB4A46C11700F045FA05430C43A9F12A
:10181000040905E0012004900BE008B145F0010542
:1018200001200590049820B9361D02E0049800B10B
:10183000361FB969089808F101088847BBF1000F05
:10184000AAF1010A0290C9D00999C1F80080C5E740
:101850000298702808D0502806D0F969089888475F
:10186000BBF1000F14D04FE0002002900120BBF12B
:10187000000F049009D0B969089808F10108884759
:10188000AAF10109B9F1000F07DCF9690898884746
:101890006FF001000BB0BDE8F08F2B2804D02D288D
:1018A0000CD14FF0FF300490B969089808F1010895
:1018B0008847A9F10109B9F1000FE6DD411CE4D028
:1018C0000A21FFF75EFF0028DFDB029908F101081B
:1018D00001EB810100EB41000290B969089888474B
:1018E0000A21FFF74EFF099AA9F10109B9F1000F8A
:1018F000C2F8008001DD0028E7DAF9690898884716
:101900000499029800FB016655EA040004D004F033
:101910004041090002D006E0039898E0A40044EAA0
:101920009574AD00B61E04F00041080002D16D1997
:101930006441761E159810F0240F03D04FF00B0968
:101940005C4803E04FF028096FF07D008246564561
:1019500007DAAAEB06018944B9F1410F01DD4FF026
:10196000410901200021A9F1010200F093F902468A
:1019700028400B462140084301D0012100E000210E
:10198000501E029143F1FF3128402140084301D00D
:10199000012000E000200299834651EA0B014FD05C
:1019A000002108464FF00000039900F4400039B1CF
:1019B00000EB80004FF4400100EBD07001EA6000C2
:1019C0008015012802DD4FF0FF3000E013D0401CED
:1019D00036D0029860B3BBF1000F0CD14A4601200B
:1019E000002100F057F928402140084301D0012090
:1019F00000E00020E0B101204A46002100F04AF951
:101A0000034640190A4661412D1A8C4111D3B9F1A0
:101A1000400F09DD159810F0240F02D0AAF134060A
:101A200003E0AAF1170600E0761C00254FF0004401
:101A300006E05B1E42F1FF3220EA030521EA0204C0
:101A4000CAF10100B04206DA1B490398084301902D
:101A5000002000900EE0039AC4F3D321E80A0A4361
:101A6000164940EA44500A433146CDE9000268462F
:101A700003F0B6FA159810F0240F0BD01598C00794
:101A800015D13868DDE90012031D3B600068C0E92C
:101A900000120CE002A8694603F03CFA1598C00752
:101AA00005D13868029A011D39600068026040461D
:101AB000F0E6000002FCFFFF0000F07F0000F03FB6
:101AC0002DE9FF4F92461D4685B04FF00041DDE9FC
:101AD000124BDDE914727F1E01EA4B50414940F080
:101AE000FF4940EA0108002122F020004928049122
:101AF00002D04E2828D04CE03BA0012607C88DE834
:101B00000700A9690698641C88477F1E014606D411
:101B10001DF8060018B121F0200181420BD0E969BF
:101B200006988847032E34D0082E32D06FF001007B
:101B300009B0BDE8F08F761C032E01D0082EE0D14D
:101B4000601CCAF80000DCE7A9690698641C884795
:101B50007F1E2AD420F02000412826D1A9690698AA
:101B6000641C88477F1E20D420F020004E281CD102
:101B7000A9690698641C88477F1E48F4002849F428
:101B80008009CAF8004001D4282806D0E9690698DF
:101B900088475FEACB7012D022E0A9690698641CDE
:101BA00088477F1E01D4002803DAE9690698884730
:101BB000BCE72928F1D1641CCAF80040E9E71BF012
:101BC000240F07D028680499031D2B600068C0E922
:101BD000001805E02868021D2A600068C0F800901F
:101BE0002046A5E70000F07F494E46494E4954592A
:101BF0000000000010B50446AFF300802046BDE8A9
:101C00001040FEF7F0BA00004FF0013C50F8042BF2
:101C100051F8043B9A4221D1A2EB0C03934313EAFF
:101C2000CC1317D150F8042B51F8043B9A4215D12C
:101C3000A2EB0C03934313EACC130BD150F8042B03
:101C400051F8043B9A4209D1A2EB0C03934313EAE7
:101C5000CC13DBD04FF00000704700BFD01A01BAA0
:101C6000B1FA81F101F0180122FA01F0CB40C1F183
:101C70002001DBB2C0B2C01A2CFA01F3D11A914391
:101C800011EAC311E6D1704701491820ABBEFEE747
:101C900026000200B2F120030AD5C2F1200301FAA6
:101CA00002F120FA03F300FA02F041EA030170475F
:101CB00000FA03F14FF0000070475FEA400C08BFE4
:101CC00091F0000F4FEA8C234FEAC12243EA5151B1
:101CD0004FEA1C5018BF00F5F0404FEA300018BF23
:101CE00041F000415FEA6C5C00F02980BCF1FF3FED
:101CF00008BF40F080407047130C06BF12044FF03D
:101D0000100C4FF0000C130E04BF12020CF1080C63
:101D1000130F04BF12010CF1040C930F04BF9200C7
:101D20000CF1020CD30F04BF52000CF1010C114650
:101D30004FF00002A0F11F00A0EB0C00704711F063
:101D4000004F08BF704731F000413FF4D5AF0B0C96
:101D500006BF09044FF0100C4FF0000C0B0E04BF2F
:101D600009020CF1080C0B0F04BF09010CF1040C63
:101D70008B0F04BF89000CF1020CCB0F04BF49008C
:101D80000CF1010CCCF12003A0EB0C0022FA03F3C0
:101D900002FA0CF241EA030100F10100704720F061
:101DA0007F4C80EA030023F07F47ACEB070303F589
:101DB0007C5300F0004003F1FF032DE980494FEA16
:101DC000154B09B44FEA144325EA0B4E24EA0348A5
:101DD0000FF2042606EB132749083E785FEA320229
:101DE00003FB0667C7F5000707FB06F64FEA543703
:101DF0004FEAD64606F1020607FB066CCCF1005C02
:101E00004FEA1C472CEA074C07FB06F40CFB06F5CF
:101E100004EB15464FEA961634BF00204FF0004001
:101E20004FEAD13706FB07FC4FEA1C4C0CFB0BF7C3
:101E3000D21B03FB0CF761EB07010CFB0EF7B0EBB9
:101E4000074072EB17420CFB08F734BFA2EB0742C6
:101E5000B2EB074261EB17414FEA0C444FEA91079E
:101E600006FB07FC4FEA1C4C0CFB0BF7B0EBC74022
:101E700072EB573203FB0CF734BFA2EBC742B2EB55
:101E8000C74261EB57310CFB0EF7B0EBC70072EBAA
:101E900057720CFB08F734BFA2EBC702B2EBC702C4
:101EA00061EB5771039F4FEA816141EA921104EBA4
:101EB000CC044FEAD1374FEA826206FB07FC42EAC4
:101EC00090124FEA80604FEA1C4C0CFB0BF7D21BC0
:101ED00003FB0CF761EB07010CFB0EF7B0EB0740BF
:101EE00072EB17420CFB08F734BFA2EB0742B2EBD0
:101EF000074261EB17414FEA8C554FEA910704EB1B
:101F00009C2406FB07FC4FEA1C4C0CFB0BF7B0EBC8
:101F1000C74072EB573203FB0CF734BFA2EBC7424A
:101F2000B2EBC74261EB57310CFB0EF7B0EBC700C9
:101F300072EB57720CFB08F734BFA2EBC702B2EB8F
:101F4000C70261EB577115EB4C254FEA816141EAFD
:101F500092114FEA82624FEAD13742EA901206FBB1
:101F600007FC44F100044FEA80604FEA1C4C0CFB74
:101F70000BF7D21B03FB0CF761EB07010CFB0EF711
:101F8000B0EB074072EB17420CFB08F734BFA2EB33
:101F90000742B2EB074261EB174115EB1C154FEA04
:101FA000813141EA92414FEA823242EA90424FEA5D
:101FB00080304FEA0C7644F1000448EA03434EEACD
:101FC0000B484FF0000EB2EB080C71EB030724BF77
:101FD000624639464EEB0E0E4FF0000B0018524190
:101FE00049414BEB0B0BB2EB080C71EB03077BF198
:101FF000000B24BF624639464EEB0E0E4FF0000B2D
:102000000018524149414BEB0B0BB2EB080C71EB42
:1020100003077BF1000B24BF624639464EEB0E0EE0
:1020200051EA020718BF46F0010616EB0E7655F18D
:10203000000254F1000103D5BDE88901BDE8008824
:10204000BDE88901BDE80048B619524141EB0101E4
:10205000A3F10103704780807F7E7D7C7B7A797855
:10206000777676757473727171706F6E6E6D6C6C5D
:102070006B6A6A69686867666665646463636261FF
:102080006160605F5F5E5E5D5D5C5C5B5B5A5A5980
:1020900059585857575656555555545453535252EC
:1020A0005251515050504F4F4F4E4E4D4D4D4C4C44
:1020B0004C4B4B4B4A4A4A4949494848484747478D
:1020C00047464646454545444444444343434342CA
:1020D000424242414141000046EA0646A3F57053A0
:1020E0004FEA164646EA42564FEAD22242EA4152A7
:1020F00010B54FEAD121A3F1010300F02FF820F031
:10210000004000F1020C00F0004701EB00501146C6
:10211000BCF5006F40EA070000D210BDBAF1000F15
:102120000AD01CB503B44FF004004FF004014FF087
:1021300000000FBCBDE810404FF00001BBF1010FE3
:10214000B9BF04484FF0FF310348002140EA0700BF
:1021500010BD00BFFFFFEF7F0000F07F002B9C460B
:1021600030D477002BD01CB54FEA370703B44FF0BB
:1021700010004FF01001BAF1000F06D0BCF1000FB3
:10218000DCBF40F0080040F008014FF000000FBC39
:10219000BDE810400BF1010BBBF1010F08BF5FEA76
:1021A000170722BF12F1010211F101014FF00041A6
:1021B00043F1000300F0004043EA00007047F9D308
:1021C0005708D0E746EA064613F1400F4FEA164695
:1021D0001FDD13F1200FDFBF16430A460021203315
:1021E0005B42BED0C3F1200746EA064602FA07F773
:1021F0004FEA164646EA0706C3F1200722FA03F221
:1022000001FA07F721FA03F14FF0000342EA07024F
:10221000A7E746EA020646EA06464FEA164646EAB7
:102220000106BCBF46EA0646360C4FF000034FF0ED
:1022300000024FF0000194E72DE9804C9A46934646
:1022400070B491E8380007C831EA400C48BF34EA5E
:10225000430C03D5FFF7A3FDFFF780FFF0BCBDE8FB
:10226000008C2DE9804C9A46934670B491E8380072
:1022700007C831EA400C48BF34EA430C03D5FFF7E6
:102280008EFDFFF729FFF0BCBDE8008C2DE9804CE6
:102290009A46934670B491E8380007C810F0804F12
:1022A00008BF13F0804F03D100F01AF8FFF756FF74
:1022B000F0BCBDE8008C2DE9804C9A46934670B482
:1022C00091E8380007C810F0804F08BF13F0804F26
:1022D00003D100F005F8FFF7FFFEF0BCBDE8008C6D
:1022E00020F07F4780EA030023F07F4C07EB0C03CC
:1022F000A3F57C5300F00040A3F1FE0392F0000F21
:1023000000F0B38095F0000F00F077802DE90149CF
:102310004FEA11404FEA144621EA004800FB06FC50
:1023200024EA064708FB06F607FB08F800FB07F758
:1023300018EB06484CEB164C4FEA124B18EB0748CB
:102340004FEA15464CEB174022EA0B4E0BFB06FCFE
:1023500025EA06470EFB06F607FB0EFE0BFB07F70A
:102360001EEB064E4CEB164C4FF000061EEB074ED4
:102370004CEB174B18EB0B0840F1000018EB0E0B61
:1023800058EB000840F100008F1A4FF000013CBFED
:10239000C943661B14BFB5EB040C00213CBFC94305
:1023A000F61B4FEA17444EEA8E0E27EA04454FEA21
:1023B0001C4704FB07622CEA074C05FB07F70CFBE4
:1023C00005F604FB0CFC16EB074642EB174216EB36
:1023D0000C4642EB1C421BEB060658EB0202414145
:1023E00046EA9E0601D5BDE80189B619524141EB86
:1023F0000101A3F10103BDE801894FEA14454FEA49
:10240000114724EA054621EA074C05FB07F406FBC1
:1024100007F70CFB06F105FB0CFC11EB074144EB45
:1024200017444FEA124711EB0C4144EB1C4422EADB
:10243000074C05FB07F206FB07F70CFB06F605FB4E
:102440000CFC16EB074642EB174216EB0C4642EB30
:102450001C456A1854F1000148BF7047B619524133
:1024600041EB0101A3F10103704795F0000F37D054
:102470004FEA11424FEA144721EA024624EA074C88
:1024800002FB07F106FB07F70CFB06F402FB0CFC52
:1024900014EB074441EB17414FEA154714EB0C448A
:1024A00041EB1C4125EA074C02FB07F506FB07F749
:1024B0000CFB06F602FB0CFC16EB074645EB17453A
:1024C00016EB0C4645EB1C42121951F1000148BFB6
:1024D0007047B619524141EB0101A3F10103704766
:1024E0004FEA14454FEA114724EA054621EA074C12
:1024F00005FB07F106FB07F70CFB06F24FF00006A1
:1025000005FB0CFC12EB074241EB174112EB0C42AE
:1025100051EB1C4148BF7047921841EB0101A3F1F8
:1025200001037047FEE770473EB50D460446069826
:10253000A17942EA8512CDE900306425029541F087
:10254000010192B21023606900F070FC10B102200A
:10255000A0703EBD0120FBE748618B71402062B155
:102560008300012A0CD0022A0ED0C300032A0BD00C
:10257000042A08D10B80802004E00880102001E0AC
:102580000B802020C87070470B80FBE73EB50D46DE
:1025900004460698A17942EA8512CDE90030642507
:1025A000029541F0010192B21023606900F03EFCF7
:1025B00010B10220A0703EBD0120FBE73EB50D46E4
:1025C00004460698A17942EA8512CDE900306425D7
:1025D000029592B21023606900F050FD01004FF0A7
:1025E000010003D00221A170A0703EBDA070FBE7E6
:1025F0004FF4004000F0B4B92DE9F04F864995B092
:1026000049074FF002044FF0010502D080F84F4116
:1026100001E080F84F51804B1978FF297ED159781D
:102620005A297BD19978FF2978D190F84F11012947
:1026300074D1D978012915D0022916D01A4604265A
:102640001279042914D0052969D0062967D00729F1
:1026500028D008297ED009297DD00A297CD00B29D1
:102660005DD0CDE080F84051CAE080F84041C7E03D
:1026700080F8406180F84121597980F842119979B8
:1026800080F84311D97980F84411002101AA5C181F
:10269000247A5454491C0829F9DBDDE90112C0E908
:1026A0001812ADE0072180F8401100210FAF0DF1A5
:1026B00004090DF10C0A0DF1440B0DF1140E5A181A
:1026C00092F804C007F801C092F80C8009F8018064
:1026D00092F814800AF8018092F81C800BF80180AF
:1026E00092F824800EF801800DF11C0C92F82C80D9
:1026F0000CF801800DF1240C92F834800CF8018064
:102700000DF12C0C92F83C800CF8018092F844C03A
:102710000DAA02F801C0491C082901E075E06DE02E
:10272000CDDB7A0700F1800105D15FEA497202D161
:102730005FEA4A7215D080F85051DDE90F24C0E9F4
:102740002024DDE90124C1E90224DDE90324C1E9F3
:10275000042402E040E045E04AE05FEA4B7203D027
:1027600011E080F85041F4E75FEA4E720BD107AAFE
:10277000520708D109AA520705D10BAA520702D164
:102780000DAA520725D0032280F85021DDE911243B
:10279000C0E93224DDE90524C1E91424DDE9072478
:1027A000C1E91624DDE90924C1E91824DDE90B2477
:1027B000C1E91A24DDE90D24C1E91C2413F84D1FD9
:1027C00080F85310597880F84711997880F85410A0
:1027D00016E080F85061F1E7082180F8401180F898
:1027E0004B210DE0092180F8401180F84C2107E0D1
:1027F0000A2180F8401180F84E2101E080F8401154
:1028000050220549801CFDF732FE15B05021BDE86D
:10281000F04F0148FDF770BEF00A002010B590F8A7
:1028200021100022022905D00421816380F8202094
:10283000012010BD01680B6823F00E030B600168D6
:102840000B6823F001030B6090F84030C46B01214A
:1028500001FA03F3636080F8211080F8202010460D
:1028600010BD000010B590F821100024022903D0FB
:102870000421816301243DE001680A6822F00E0210
:102880000A6001680A6822F001020A601A4A0168B7
:10289000914201D1012121E0174A1432914201D124
:1028A00010211BE0144A2832914201D1891515E00C
:1028B000114A3C32914201D189140FE00E4A503244
:1028C000914202D14FF4803108E00B4A64329142C8
:1028D00002D14FF4801101E04FF08071064A083AAE
:1028E0005160012180F82110002180F82010416BF7
:1028F00001B18847204610BD0800024070B504466B
:1029000000F034F90546601C02D004480078044405
:1029100000F02CF9401BA042FAD370BD2401002026
:1029200010B54FF40041884214D10B4C204600F002
:1029300013F938B1002209484FF4804142721AB1AC
:10294000002202E00122F6E701222046BDE8104005
:1029500000F007B910BD0000001001400000002089
:10296000044910B50A68024202D00860FFF7D8FF98
:1029700010BD0000140401402DE9F84FDFF8B891B4
:102980000024A9F1040B23460F2709F1040AABF137
:10299000040EC9E00125A5402A40AA427DD1674E18
:1029A000D1F804C0ACEB0608B44532D014DCBCF15D
:1029B000030F3AD009DCBCF1000F2AD0BCF1010FA3
:1029C0001CD0BCF1020F31D11DE0BCF1110F17D0AA
:1029D000BCF1120F2AD119E0B8F5881F19D006DC16
:1029E000B8F5803F15D0B8F5801F1FD111E0B8F5BC
:1029F000001F0ED0B8F5041F18D10AE0CB6815E00F
:102A0000CB681B1D12E0CB6808330FE0CB680C339A
:102A10000CE08B682BB1012B4FF0080303D045610C
:102A200004E0042302E0056100E00023FF2A01D84E
:102A3000064601E000F104064FEA840501D9A5F13C
:102A40002005D6F8008007FA05FC28EA0C0803FAEE
:102A500005F548EA0508C6F800804D68ED0062D526
:102A6000374DAE6946F00106AE61AD6924F003064C
:102A700005F001050095334D06EB050CDCF8085018
:102A8000A607360F07FA06F825EA0805DFF8B8802A
:102A9000404503D14FF0000817E044E0DFF8AC8078
:102AA000404502D14FF001080FE0DFF8A480404517
:102AB00002D14FF0020808E0DFF89880404502D1CB
:102AC0004FF0030801E04FF0040808FA06F848EA5E
:102AD0000508CCF808804D68D9F80060ED024D4635
:102AE00001D5164300E096432E604D68DAF8006089
:102AF000AD02554601D5164300E096432E604D6861
:102B0000DBF80060AD035D4601D5164300E0964357
:102B10002E604D68DEF80060ED03754601D5164362
:102B200000E096432E60641C0D682A46E5407FF461
:102B300031AFBDE8F88F000008040140000011101B
:102B4000001002400000014000080140000C01405C
:102B500000100140001401408068084000D00120AE
:102B600070470AB1016170470904FBE701488068BA
:102B7000704700002401002070B5040025D094F8AF
:102B80003D00002520B984F83C50204600F00EFBA3
:102B9000242084F83D002068016821F001010160D3
:102BA0002068016841F4004101602068016821F457
:102BB0000041016000F07CFC4D4A6168914201D8FF
:102BC0004C4900E04C49884201D2012070BD4B497C
:102BD0002368B0FBF1F15E6826F03F060E435E60AD
:102BE0006368934206D94FF4967359434FF47A734E
:102BF000B1FBF3F12368491C1E6A26F03F063143FE
:102C000019626168914210D84900401EB0FBF1F290
:102C1000521CC2F30B02042A01D2042022E0B0FBB2
:102C2000F1F0401CC0F30B001CE0A268F2B301EB12
:102C3000C10303EB0116431EB3FBF6F35B1C43F425
:102C400080431B0549D092B301EBC10202EB011195
:102C5000401EB0FBF1F0401CC0F30B0040F480407C
:102C600040F400402168CA694CF6FF739A43104350
:102C7000C861D4E9071001432068026822F0C0024D
:102C800011430160D4E9030101432068826848F2DE
:102C9000FF339A4311438160D4E905010843216859
:102CA000CA6822F0FF021043C86001E00EE016E09F
:102CB0002068016841F0010101602564202084F84A
:102CC0003D00256384F83E50002070BD01EB4106B5
:102CD000431EB3FBF6F35B1CB3E70120C2E701EB35
:102CE0004101401EB0FBF1F0401CC0F30B00B7E700
:102CF000A086010080841E0000093D0040420F00B4
:102D00002DE9F84F1F4690468A460446DDF8289084
:102D1000FFF72CFF054694F83D0020287FD11923AA
:102D2000012240492046009501F0F8FA002876D1AA
:102D300094F83C00012872D0012084F83C002068FF
:102D40000168C90703D1016841F0010101602068F1
:102D5000016821F400610160212084F83D00102009
:102D600084F83E0000262664C4F824806785608DC0
:102D700020852D48E0622B464A465146204601F008
:102D800081F990B9206841698069009036E02A464F
:102D90004946204601F0A0FB50B1206C042804D124
:102DA0002068016841F4007101600120BDE8F88FDE
:102DB000606A216800780861606A401C6062618D09
:102DC000491E6185218D491E89B22185226853697A
:102DD000DB435B070BD451B100781061606A401C83
:102DE0006062608D401E6085208D401E20852A46D1
:102DF0004946204601F066FA0028CED1208D0028F1
:102E0000C5D154F83D0B016841F4007101602020E8
:102E100004F81E09E67766770020C7E7FFE702207F
:102E2000C4E70000020010000000FFFF2DE9FF4F83
:102E300083B00025DDE910799A4693460446DDF813
:102E400048800095FFF792FE064694F83D00202842
:102E50007CD11923012285492046009601F05EFAB3
:102E60000028F5D194F83C0001286FD0012084F8A7
:102E70003C0020680168C90703D1016841F00101E5
:102E800001602068016821F400610160222084F85B
:102E90003D00402084F83E0025646762A4F82A9033
:102EA000608D20857248E062CDE9008653465A461F
:102EB0002046049901F034F900287DD1208DDFF8F7
:102EC000B491202768B1012814D002282068016835
:102ED0001ED041F4806101602068416980690090E2
:102EE000B6E02068416981690091016841F4007190
:102EF0000160ADE02068016821F48061016072B674
:102F00002068416981690091016841F400710AE01B
:102F100041F40061016072B62068416981690091E5
:102F2000016821F48061016062B691E0032868D8ED
:102F300001280CD0022843464FF0000249462046A3
:102F400000960FD001F0EAF9B0BB10E08BE03246FA
:102F50004146204601F088FA70BB20680069616A2A
:102F600008706CE001F0DAF930BB72B634E020682A
:102F7000016821F48061016072B620680069616AAD
:102F80000870606A401C6062208D401E2085608D44
:102F9000401E6085384846F2A8110068B0FBF1F089
:102FA000C0EBC00000EB80000090401E009008D0F5
:102FB00020684069C04300E029E040070CD5009834
:102FC000F3E744F8305F6773A573206940F0200091
:102FD000206162B625731AE02068016841F400712F
:102FE000016020680069616A0870606A401C606264
:102FF000218D491E2185618D491E618562B621683A
:103000001BE032464146204601F02EFA18B101205D
:1030100007B0BDE8F08F20680069616A0870606AD7
:10302000401C6062218D491E2185618D491E61858C
:1030300021684A69D24352070AD409690170606A5B
:10304000401C6062208D401E2085608D401E608582
:10305000208D00287FF46AAF84F83D7084F83E50DC
:1030600084F83C50D4E70220D2E7000002001000B0
:103070000000FFFF04000100300100202DE9FF4F98
:1030800083B09A46DDE9119793460446DDF8408007
:10309000FFF76CFD054694F83D0020287FD11923E9
:1030A000012240492046009501F038F9002876D1E8
:1030B00094F83C00012872D0012084F83C0020687C
:1030C0000168C90703D1016841F00101016020686E
:1030D000016821F400610160212084F83D00402056
:1030E00084F83E0000262664C4F82480A4F82A90C0
:1030F000608D20852C48E062CDE9007553465A4624
:103100002046049901F08AF870B930E02A46394621
:10311000204601F0E1F958B1206C042804D1206860
:10312000016841F400710160012007B0BDE8F08F33
:10313000606A216800780861606A401C6062218DC5
:10314000491E89B22185628D521E628522685369AB
:10315000DB435B070BD469B100781061606A401CE7
:103160006062208D401E2085608D401E6085208D10
:103170000028CBD12A463946204601F0A3F8002882
:10318000CAD154F83D0B016841F400710160202060
:1031900004F81E09E67766770020C6E7FFE70220FD
:1031A000C3E70000020010000000FFFF30B585B04B
:1031B000002100910191029103911E4D03681E4C64
:1031C000122103221D48AB4216D1A36943F0080324
:1031D000A361A369039203F008030493C023CDE91C
:1031E00000316946FFF7C8FBE06940F40010E06178
:1031F000E06900F4001019E0114DAB4217D1A3694A
:1032000043F00803A361A369039203F00803049346
:103210004FF44063CDE900316946FFF7ADFBE0694B
:1032200040F48000E061E06900F48000049005B0A3
:1032300030BD00000054004000100240000C01406E
:10324000005800400248816802781144816070474C
:1032500024010020074810B5016841F01001016009
:10326000032000F075F80F2000F006F800F024F8B5
:10327000002010BD0020024070B50D4D04464FF4F3
:103280007A712878B1FBF0F00A490968B1FBF0F0D7
:1032900000F0F0FA48B9102C07D200222146501E47
:1032A00000F036F800206C6070BD012070BD000099
:1032B00024010020300100200C4808B5816941F04C
:1032C00001018161816901F001010091C16941F051
:1032D0008051C161C06900F080500090044841688D
:1032E00021F0E06141F00071416008BD0010024032
:1032F00000000140002809DB00F01F02012191407D
:103300004009800000F1E020C0F800117047000083
:10331000F0B40E4B1B680C46C3F30223C3F1070540
:10332000042D00D90425191D072901D2002300E02E
:10333000DB1E012606FA05F1491E214099409E40F8
:10334000761E16403143F0BC01F0C5BD0CED00E027
:10335000064900F0070208684FF6FF03184040EAEC
:103360000220034A10430860704700000CED00E0A3
:103370000000FA05704700002DE9F0470F460500F0
:1033800061D0434E306800F00700B84209D230687F
:1033900020F0070038433060306800F00700B84282
:1033A00051D128683B4C810712D5400703D560688E
:1033B00040F4E06060602878000703D5606840F45E
:1033C000605060606068A96820F0F00008436060A9
:1033D0002878C00728D06868012810D02168022802
:1033E00010D0890700292EDA616821F0030101431A
:1033F0006160FFF7BBFB804641F288390DE0216830
:103400008903EFE78901EDE7FFF7B0FBA0EB0801C7
:10341000494502D90320BDE8F0876068696800F07B
:103420000C00B0EB810FEFD1306800F00700B8421C
:103430000BD9306820F0070038433060306800F066
:103440000700B84201D00120E5E72878400705D5FC
:103450006068E96820F4E06008436060287800074D
:1034600006D56068296920F4605040EAC1006060B8
:1034700000F03EF86168084AC1F30311515CC8408E
:103480000649086006480068FFF7F6FE0020C2E71C
:103490000020024000100240627600083001002047
:1034A0002801002001490120C86470470000424201
:1034B0000448054900684968044AC1F30221515C87
:1034C000C8407047300100200010024072760008AA
:1034D0000448054900684968044AC1F3C221515CA7
:1034E000C84070473001002000100240727600088A
:1034F0000E4A51680E4801F00C03042B11D0082B22
:103500000FD10C48C1F38343C903C05C0AD551688D
:10351000084AC1F34041921E515C054A5043B0FB3A
:10352000F1F0704704494843704700000010024022
:1035300000127A005276000800093D0010B5044CD4
:10354000A068000603D5FFF715FF8020A07210BD0C
:10355000001002402DE9F84F040070D02078C04DD3
:10356000C00749D06868C0F38100012807D06868A7
:10357000C0F38100022809D16868C00306D5286815
:10358000800339D560680028E7D035E06068B0F581
:10359000803F0BD010B1B0F5A02F11D0286820F4D7
:1035A00080302860286820F4802002E0286840F4F9
:1035B00080302860606890B1FFF7D8FA06460AE0CC
:1035C000286840F480202860F0E700BFFFF7CEFABB
:1035D000801B642873D828688003F7D50CE0FFF7B8
:1035E000C5FA064605E000BFFFF7C0FA801B642855
:1035F000F0D828688003F7D420789A4E80074FF0DF
:1036000001094FF0000839D5686810F00C0F07D099
:103610006868C0F38100022809D16868C00306D435
:103620002868800714D52069012808D110E0206996
:10363000B0B1C6F80090FFF799FA074605E00AE135
:10364000FFF794FAC01B0228C4D828688007F7D572
:103650002868616920F0F80040EAC10028600DE0A8
:10366000C6F80080FFF782FA074604E0FFF77EFA0B
:10367000C01B022823D828688007F7D420780007C9
:103680002CD57948A169D9B1C0F80090FFF76EFA3E
:10369000074604E0FFF76AFAC01B02280FD8686AE1
:1036A0008007F7D571484FF4FA510068B0FBF1F08C
:1036B000009000BF0098411E0091FAD20EE080E019
:1036C000C0F80080FFF752FA074604E0FFF74EFA11
:1036D000C01B022875D8686A8007F7D42078400795
:1036E00060D5E8690027C00008D4E86940F0805040
:1036F000E861E869012700F0805000905C480168AB
:10370000C90513D40168834641F480710160FFF755
:103710002DFA824606E000BFFFF728FAA0EB0A0068
:1037200064284ED8DBF80000C005F5D5E068012814
:103730000AD008B1052813D0286A20F001002862B9
:10374000286A20F0040002E0286A40F001002862A4
:10375000E06841F2883B98B1FFF708FA82460BE037
:10376000286A40F004002862EEE700BFFFF7FEF988
:10377000A0EB0A0159455AD8286A8007F6D50CE013
:10378000FFF7F4F9824605E0FFF7F0F9A0EB0A0134
:1037900059454CD8286A8007F6D41FB1E86920F053
:1037A0008050E861E06988B36968C1F3810102294A
:1037B00044D00228C6F8608004D0FFF7D7F9044649
:1037C00038E034E0FFF7D2F9074604E0FFF7CEF91E
:1037D000C01B02282BD828688001F7D4206AB0F5D6
:1037E000803F05D16868A16820F400300843686014
:1037F000D4E908010843696821F47411084368603A
:10380000C6F86090FFF7B2F9044606E025E000BF75
:10381000FFF7ACF9001B022809D828688001F7D50A
:103820001BE000BFFFF7A2F9001B022802D903200A
:10383000BDE8F88F28688001F4D40EE00128F7D0A5
:103840006868226A00F48031914204D1616A00F410
:103850007010884201D00120EAE70020E8E700006C
:103860000010024000004242800442423001002029
:103870000070004010B5401EB0F1807F01D30120E0
:1038800010BD4FF0E02460610F21601701F023FBB1
:103890000020A06107202061002010BD7047704704
:1038A00070B590F83C20012A26D0012480F83C40D5
:1038B000022280F83D2003685A689D6822F0700655
:1038C0000A6832435A600D4B02689A4208D0B2F13E
:1038D000804F05D00A4B9A4202D00A4B9A4204D13B
:1038E000496825F080031943916080F83D4000212C
:1038F00080F83C10084670BD022070BD002C0140CD
:10390000000400400008004010B5040003D094F803
:103910003D0010B107E0012010BD002084F83C00FC
:10392000204600F01FF8022084F83D00211D206889
:1039300001F0E8F8012084F8460084F83E0084F89D
:103940003F0084F8400084F8410084F8420084F885
:10395000430084F8440084F8450084F83D000020CA
:1039600010BD000008B501681448B1F1804F14D0B3
:10397000134A914220D1C16941F00201C161C0697D
:10398000002200F00200009011461D20FFF7C0FC4D
:103990001D20BDE80840FFF7ADBCC16941F0010141
:1039A000C161C069002200F00100009011461C2096
:1039B000FFF7AEFC1C20ECE708BD00000010024041
:1039C0000004004090F83D10012901D0012070470B
:1039D000022180F83D100168CA6842F00102CA6005
:1039E00000680B49884208D0B0F1804F05D00949E2
:1039F000884202D00849884204D1816801F0070159
:103A0000062903D0016841F00101016000207047E0
:103A1000002C0140000400400008004070B504463E
:103A200090F83C000025012817D0012684F83C605E
:103A3000022084F83D002068826822F0770222F498
:103A40007F4282600868502838D00DDC20284FD093
:103A500005DC90B3102811D14AE0022070BD302857
:103A600046D040280AD13BE060282FD070280DD0E6
:103A7000B0F5805F03D0B0F5005F12D0012584F867
:103A80003D60002084F83C00284670BDCB68D1E939
:103A90000121206801F06CF82068816841F077010D
:103AA00009E0CB68D1E90121206801F061F82068C4
:103AB000816841F480418160E1E719E0CA684968A2
:103AC000206801F067F85021206806E0CA6849685C
:103AD000206801F070F86021206801F053F8CEE70B
:103AE000CA684968206801F055F840212068F4E769
:103AF000226801461046F0E7704770B5044600683A
:103B000001694FF00005C943890715D4C168C9434D
:103B1000890711D4E91E016101202077206880699E
:103B20008007204602D0FFF7E7FF04E000F098F896
:103B3000204600F096F8257720680169C9434907B7
:103B400017D4C168C943490713D46FF00401016158
:103B5000022020772068806910F4407F204602D040
:103B6000FFF7CAFF04E000F07BF8204600F079F888
:103B7000257720680169C943090716D4C168C9437C
:103B8000090712D46FF00801016104202077206832
:103B9000C0698007204602D0FFF7AEFF04E000F0C6
:103BA0005FF8204600F05DF8257720680169C94379
:103BB000C90617D4C168C943C90613D46FF01001F0
:103BC0000161082020772068C06910F4407F2046FA
:103BD00002D0FFF791FF04E000F042F8204600F029
:103BE00040F8257720680169C943C90708D1C16831
:103BF000C943C90704D1891E0161204600F032F88B
:103C000020680169C943090609D4C168C943090686
:103C100005D46FF0800101612046FFF73FFE206868
:103C20000169C943490609D4C168C943490605D495
:103C30006FF040010161204600F020F82068016922
:103C4000C94389060BD4C168C943890607D46FF0FC
:103C5000200101612046BDE87040FFF720BE70BD25
:103C6000704770470068B0F1804F03D10248C07AB6
:103C700001F03CBC70470000000000207047704716
:103C800070470000F8B5016804460868CA684B69C7
:103C900010F00F0F4FF0000559D003F0010602F4A9
:103CA0009077374365D0C10705D0D10503D5616C46
:103CB00041F001016164410705D5D90703D0616C6A
:103CC00041F002016164810705D5D90703D0616C19
:103CD00041F004016164010707D502F0200131437E
:103CE00003D0616C41F008016164616C00293AD035
:103CF000800604D5900602D5204600F09DFF20687E
:103D00004069616CC0F38010090700D460B320469D
:103D100000F06BFF20684069400621D52068143010
:103D200050E8001F21F0400140E80012002AF5D1C0
:103D3000E06BA8B16D494163E06BFEF793FD00288D
:103D400011D0E06B416B01B0BDE8F040084783063D
:103D50000FD593060DD52046BDE8F84000F06CBFA6
:103D60002046FFF78DFFF8BD2046FFF789FF656409
:103D7000F8BD266B2023012E7CD1C6067AD5D60647
:103D800078D508684868009048694FF002064006F8
:103D900040D5E16B086840680004000CE8D0A28DB3
:103DA0008242E5D9E085886920282DD020680C3032
:103DB00050E8001F21F4807140E80012002AF5D17C
:103DC0002068143050E8001F21F0010140E8001283
:103DD000002AF5D12068143050E8001F21F040017E
:103DE00040E80012002AF5D184F8423025632068AB
:103DF0000C3050E8001F21F0100140E80012002AAA
:103E0000F5D1E06BFEF70AFD6663A08DE18D401AE7
:103E100081B22AE0A08DE18D401A81B2E08D0028A8
:103E2000A6D00029A4D022680C3252E8000F20F45A
:103E3000907042E80007002FF5D12068143050E858
:103E4000002F22F0010240E80027002FF5D184F86E
:103E50004230256320680C3050E8002F22F0100219
:103E600040E80023002BF5D166632046FFF707FFEB
:103E7000F8BDFFE705062BD5150629D594F84100B6
:103E80002128F5D1A068B0F5805F01D12069B0B1DB
:103E9000206A411C2162216800784860E08C401E45
:103EA0000004000CE084E3D12068C16821F08001A7
:103EB000C1602068C16841F04001C160D8E7206A54
:103EC0000088C0F308004860206A801C2062E5E793
:103ED0004006CDD55006CBD5CA68204622F0400218
:103EE000CA6084F8413000F0AFF8C1E7DB4B00084E
:103EF00070B5040004D094F84100002510B106E02C
:103F0000012070BD84F84050204600F023F82420A2
:103F100084F841002068C16821F40051C160204646
:103F200000F0ECFE2068016921F4904101612068F5
:103F3000416921F02A0141612068C16841F40051C2
:103F4000C1606564202084F8410084F84200656304
:103F5000002070BD70B586B00024009401940294D6
:103F600003940068184988422BD11848816941F4AC
:103F700080418161816901F480410491816941F04E
:103F8000040181618069022500F0040004904FF46F
:103F90000070CDE9000503200D4E039069463046C0
:103FA000FEF7EAFC68028DE8310069463046FEF70C
:103FB000E3FC002211462520FFF7AAF92520FFF790
:103FC00099F906B070BD00000038014000100240B1
:103FD0000008014090F84230202B01D002207047A9
:103FE00021B11AB10023036300F0E4BE0120704741
:103FF00010B500680549884207D10548FEF7FCFA6C
:10400000BDE81040024800F033BD10BD003801404B
:10401000B801002090F84130202B01D002207047D9
:1040200079B172B101628284C2840021416421218C
:1040300080F841100068C16841F08001C160002033
:104040007047012070470000014900204870704708
:10405000B8010020FEE701684A69D24352050FD437
:104060006FF480624A61002140F8301F20224273C1
:104070008173026942F004020261017301207047FA
:1040800000207047F8B50446C06A1E460D46174624
:10409000082807D0012805D010F5803F02D0206BFA
:1040A000122804D12068016841F480710160134630
:1040B00000224FF001112046009600F02FF940B188
:1040C00020680068C00502D54FF40070206403200A
:1040D000F8BD2069B0F5804F0ED00620216800EAB7
:1040E000D51040F0F000086133463A460B492046AF
:1040F00000F05CF978B902E005F0FE0000E0E8B2FB
:1041000021680861054933463A46891F204600F078
:104110004DF90028DCD00120F8BD000008000100A6
:104120002DE9F84F0446006889460B9D01689846C2
:10413000174641F4806101602068016841F4807194
:10414000016000954FF0011B0022594620460A9B52
:1041500000F0E4F84FF4007A40B120680068C00530
:1041600001D5C4F840A00320BDE8F88F216809F00C
:10417000FE0008612B46284920460A9A00F016F9ED
:10418000F0BB20684169806900902A4620460A9960
:1041900000F0A2F940B1206C04283AD120680168EF
:1041A00041F40071016034E0FEB2B8F1010F09D0B2
:1041B0002168380A08612A4620460A9900F08CF9DD
:1041C0000028E8D1206806612A4620460A9900F0B6
:1041D00083F90028DFD12068016841F48071016013
:1041E00000950022594620460A9B00F097F80028C7
:1041F000B3D1216809F0FF0040F00100086100E040
:1042000007E02B46044920460A9A00F0CFF8002820
:10421000AAD00120A8E70000020001002DE9F84320
:10422000044600680D46DDE9089701689846164681
:1042300041F4807101604B4600224FF0011120468D
:10424000009700F06BF848B120680068C00502D5FF
:104250004FF4007020640320BDE8F883216805F066
:10426000FE0008613B464A461549204600F09EF88C
:1042700088B920684169806900903A4649462046DD
:1042800000F02AF948B1206C042804D120680168A4
:1042900041F4007101600120DEE7F5B2B8F1010FD1
:1042A00009D02168300A08613A464946204600F0A4
:1042B00013F90028E7D1206805610020CCE7000051
:1042C0000200010070B516460D4604461EE0204669
:1042D000FFF7C1FE08B1012070BD681C16D0FEF7C3
:1042E00045FC801BA84200D885B920684069C043BE
:1042F00040070BD5002044F8300F20216173A073D4
:10430000216941F0200121612073E4E720684069C0
:10431000C0434007DBD4002070BD00002DE9F0470A
:10432000984617460D460446C1F30746DDF820902F
:104330002AE000BFB8F1FF3F26D0FEF717FCA0EB44
:104340000901414502D8B8F1000F1DD12068012EA6
:1043500016D0806925EA00000004000C12D000206D
:10436000B84211D1002044F8300F20216173A073AE
:10437000216941F02001216120730120BDE8F0870F
:104380004069E7E70120EBE72068012E0AD0806949
:1043900025EA00000004000C06D00020B842C9D075
:1043A0000020EBE74069F3E70120F7E72DE9F0474C
:1043B000984616460D4604464FF000094FF0200A75
:1043C000C1F3074723E020684069C043400515D486
:1043D0002068016841F40071016021686FF4806019
:1043E0004861C4F8309084F83DA084F83E90216C78
:1043F00041F00401216484F83C9021E0701C06D057
:10440000FEF7B4FBA0EB0800B04203D816B1012FB1
:104410001FD021E02068012F15D0806925EA000017
:104420000004000C18D000BF44F8309F84F80DA0A1
:1044300084F80E90216941F02001216184F80C90EC
:104440000120BDE8F087406925EA00000004000C67
:10445000EAD12068406901E02068806925EA00000F
:104460000004000CAFD1ECE72DE9F04100259046A7
:104470000E460446202728E04069C043C0060CD4FD
:1044800054F8301B6FF01000486144F810596777FA
:10449000A577206A2062257714E0FEF767FBA0EB82
:1044A0000800B04200D886B920684069C043400681
:1044B0000BD544F8305F6773A573206940F0200086
:1044C000206125730120BDE8F08120684169C9435E
:1044D0004906D1D40020F6E770B516460D460446CD
:1044E0001EE02046FFF7B7FD08B1012070BD681C33
:1044F00016D0FEF73BFB801BA84200D885B9206888
:104500004069C04300060BD5002044F8300F20213D
:104510006173A073216941F0200121612073E4E7F8
:1045200020684069C0430006DBD4002070BD000055
:10453000F8B53A4C02FB03F522706370002402E0E8
:104540000E5D0655641CA542FADC0024344E354F3E
:10455000DFF8D4C0DFF8D4E035492BE000EB840568
:10456000ED6AB54207D18D6945F004058D618D690D
:1045700005F004051CE0BD4207D18D6945F0080532
:104580008D618D6905F0080512E0654507D18D69DB
:1045900045F010058D618D6905F0100508E0754541
:1045A00007D18D6945F020058D618D6905F02005E5
:1045B0000095641C9442D1DB00222BE000EB8204C6
:1045C000E46CB44207D18C6944F004048C618C69BA
:1045D00004F004041CE0BC4207D18C6944F00804D8
:1045E0008C618C6904F0080412E0644507D18C6981
:1045F00044F010048C618C6904F0100408E07445E8
:1046000007D18C6944F020048C618C6904F020048B
:104610000094521C9A42D1DBF8BD00001C0100201E
:1046200000080140000C014000100140001401404E
:104630000010024070B50446FEF798FA074D69680D
:10464000401A0A2807D900202075204600F008F8F3
:10465000FEF78CFA6860207D70BD00001C01002010
:104660002DE9F04F0546002085B0064600900190E8
:1046700002904FF0010A2D4C814603900DE000BFDF
:1046800005EB46006946B0F840008DE8010605EBF1
:104690008600C06AFEF770F9761C20788642EFDB50
:1046A00000273BE005EB4706049636F85C0FCDE9A2
:1046B000000A0320CDE9029005EB870BD846694636
:1046C000DBF84C00FEF758F931880022D8F84C008E
:1046D000FEF747FA002615E005EB460005EB8608D5
:1046E000B0F84010D8F82C00FEF736FAE0B1002000
:1046F00008EB0701487520B160787043E919405C08
:104700002875761C20788642E6DB04980122B0F8F2
:104710005C10DBF84C00FEF724FA7F1C60788742BF
:10472000C0DB05B0BDE8F08F0120E1E71C010020EF
:1047300070B586B000242548009401940294039437
:10474000816941F010018161816901F010010491DA
:10475000816941F020018161816901F020010491AA
:10476000816941F008018161816901F008010491CA
:10477000816941F0040181618069154E00F00400F7
:104780004FF4C0450490002229463046FEF7E9F96F
:104790000220CDE902400095012569460195304689
:1047A000FEF7EAF8E80300900A48CDE901056946FA
:1047B0003046FEF7E1F8002211462820FEF7A8FD5A
:1047C0002820FEF797FD06B070BD000000100240E3
:1047D000001001400000311010B586B000241748C9
:1047E000009401940294039404944FF08041059442
:1047F000016040F21F11C0E901144CF24F31C0E9D1
:1048000003148461FFF780F808B172B6FEE74FF435
:104810008050009069460948FFF700F908B172B668
:10482000FEE7049404A905480594FFF739F8002829
:1048300001D072B6FEE706B010BD0000B80300203C
:1048400010B586B000241748009401940294039494
:1048500004941349059401608F21C0E901144CF2BE
:104860004F31C0E903148461FFF74EF808B172B606
:10487000FEE74FF48050009069460A48FFF7CEF8F3
:1048800008B172B6FEE7049404A906480594FFF740
:1048900007F8002801D072B6FEE706B010BD000090
:1048A0000004004000040020FEE7FEF747FEFEE79C
:1048B000704700000149086070470000180100209F
:1048C00008B50B460421401E009181B20022024827
:1048D000FDF75CFE08BD00009C0100207047000051
:1048E0001CB501AB8DF804008DF805100321401EA6
:1048F00000918DF8062081B200220248FDF75EFE8D
:104900001CBD00009C01002010B594B004464C2151
:1049100001A8FBF713FE0648502269460068009084
:104920000120607003480068FFF774FB14B010BDED
:10493000047600081801002030B595B00C460546F5
:10494000482102A8FBF7FAFD08495022D1E90E01DF
:10495000CDE900018DF804400120687004486946E3
:104960000068FFF757FB15B030BD00000476000863
:10497000180100202DE9F04395B00E46DDE91C89B1
:1049800007461C461546442103A8FBF7D7FD0C4AF1
:1049900007CA8DE807008DF804608DF805508DF882
:1049A00006408DF807808DF8089001207870054842
:1049B000502269460068FFF72DFB15B0BDE8F08373
:1049C00044760008180100202DE9F04796B00F4604
:1049D000DDE9209A04461D461646482102A8DDF866
:1049E0007880FBF7ABFD114914AAD1E90601CDE9A6
:1049F00000018DF804708DF805608DF806508DF873
:104A00000780CDE9149A00216846535C4518491C7B
:104A10002B720829F9DB0120607005485022694695
:104A20000068FFF7F7FA16B0BDE8F08704760008D3
:104A30001801002030B595B00C460546482102A863
:104A4000FBF77CFD08495022D1E90801CDE90001BE
:104A50008DF8044001206870044869460068FFF73B
:104A6000D9FA15B030BD0000047600081801002006
:104A70000348502201490068FFF7ACBAF00A002051
:104A800018010020FEF7DEBB30B58FB02821684644
:104A9000FBF754FD14210AA8FBF750FD012108047F
:104AA000CDE900100024029402250491CDE90750BD
:104AB0004FF4E01009906846FEF74CFD08B172B65D
:104AC000FEE70F20CDE90A054FF48060CDE90C40E8
:104AD00002210AA80E94FEF74FFC08B172B6FEE759
:104AE000FEF7E0FC0FB030BD704700000148FFF753
:104AF00004B80000B80300200148FEF7FEBF000024
:104B000000040020F0B50268164B174C174D4FF00B
:104B10008047984205D0B84203D0A04201D0A842B5
:104B200003D122F070064A683243984205D0B84259
:104B300003D0A04201D0A84203D122F44074CA6835
:104B400022434C6922F08002224302608A68C262DA
:104B50000A688262984201D10969016301214161B9
:104B6000F0BD0000002C014000040040000800409F
:104B700010B5846842EA032224F47F440A432243A6
:104B8000826010BD826822F070020A4342F0070181
:104B90008160704710B5036A046A24F0010404625E
:104BA000846924F0F00444EA021423F00A020A4360
:104BB0008461026210BD10B5036A046A24F0100417
:104BC0000462846923F0A00324F4704444EA0232AE
:104BD00043EA01118261016210BD10B5406A0021F3
:104BE000C185C184FFF74CF810BD01680C3151E854
:104BF000002F22F4907241E80023002BF5D10168C8
:104C0000143151E8002F22F0010241E80023002B6B
:104C1000F5D1016B012909D101680C3151E8002F50
:104C200022F0100241E80023002BF5D1202180F86A
:104C3000421000210163704708B590F84210222904
:104C400001D0022008BD82684FF480539A4201D1FE
:104C5000016921B1816A9A421BD04AB10AE0026817
:104C6000816A5268C2F308020A80816A891C08E0DE
:104C7000026972B10268526802F07F020A70816AAA
:104C8000491C8162C18D491E0904090CC18503D0EC
:104C90001BE002685268F1E70168CA6822F020024E
:104CA000CA600168CA6822F48072CA6001684A69F1
:104CB00022F001024A61202180F842100021416364
:104CC000026B012A03D0FFF793F9002008BD0163AE
:104CD00001680C3151E8002F22F0100241E8002356
:104CE000002BF5D101680A68D20602D50A68496826
:104CF0000091818DFEF7C3FFE7E7000070B5044621
:104D000000680169E26821F44051114301612169A1
:104D1000A0680843616908432168CA6841F20C63CE
:104D20009A430243CA6020684169A26921F4407134
:104D3000114341611E492068884202D1FEF7C8FB39
:104D400001E0FEF7B5FB00EBC00101EB001260686B
:104D500064218000B2FBF0F3B3FBF1F36FF01806AF
:104D60007343B2FBF0F5B2FBF0F605EB830532239B
:104D700003EB0515B5FBF1F5B6FBF1F605F0F00513
:104D800005EB0615B2FBF0F6B2FBF0F0B0FBF1F06C
:104D90006FF01802504306EB800003EB0010B0FBED
:104DA000F1F0216800F00F002844886070BD000019
:104DB0000038014081628285C28500214164222140
:104DC00080F84210016921B10168CA6842F480721A
:104DD000CA6001684A6942F001024A610068C1681C
:104DE00041F02001C1600020704700000148FEF73B
:104DF00049BF0000480400202DE9F0472A4F294E02
:104E000007F5967807F51679A6F1320501281BD02B
:104E1000022817D14FF47A70FDF770FD288D3146C6
:104E200080B2FFF74DFDB5F9280031783A1802F845
:104E3000011C08EB0001727801F8012C4844B2789B
:104E400000F8012CBDE8F087012427E01549204631
:104E5000FFF736FD307880B1698A491C69823919BB
:104E600001F8010C08EB0400717800F8011C09EB53
:104E70000400B17800F8011C0BE00020391901F89A
:104E8000010C08EB040101F8010C09EB040101F825
:104E9000010C0120FDF732FD641CA4B2288A844273
:104EA000D4D3CFE732000020E8060020FEE7490017
:104EB00050EAC12018BF04204A0D18BF40F001007D
:104EC00040F2FF72B2EB515F08BF40F002000128D0
:104ED00008BF052070470907090E002804DB00F110
:104EE000E02080F80014704700F00F0000F1E0208F
:104EF00080F8141D704740F2013200204FF0E0416D
:104F000002F030BB024A0020110702F02BBB000068
:104F100001FDFFFF10B50446D1E9000100F002F8E1
:104F2000206010BDF8B504460D466A4600F0A2F8B0
:104F300000987E30009000281EDC00221346204698
:104F4000294602F017F817D0002140F608004FF06C
:104F5000000006462046294601F0C6FF044640F6FA
:104F6000080006EA00014FF0000034F0004004BFE2
:104F70000220FCF700FC29E00098FF2828DB002134
:104F800008464FF0000000F4400600221346204679
:104F9000294602F0BBF88CBF002501250220FCF752
:104FA000EAFB4FF0FF4446B1002D0CBF4FF4000068
:104FB0004FF48000B04218BF084C042108464FF05F
:104FC0000000002D04BF84F00040F8BD2046F8BD6D
:104FD00020462946BDE8F84001F086BFFFFF7F7FED
:104FE00010B504460A46D4E90003194600F00CF94E
:104FF000C4E9000110BD30380A2801D201207047F1
:10500000002070472DE9F0410D46804600244FF402
:1050100000570B4E10E0012239463046FDF7A1FD46
:105020004046FDF76BFC002239463046FDF799FDFE
:105030004046FDF763FC641CAC42ECDBBDE8F0814C
:105040000010014010B50948FFF7F4FA0849084A72
:10505000C8730021F132535C834201D1012010BD9D
:10506000491C0A29F7D3002010BD00003801002098
:105070000000002010B5144600222260114A21F0E1
:1050800000439342A8BF10BD53EA000208BF10BD01
:10509000B3F5801FA8BF226807DA362202F062FA51
:1050A0006FF0350221F000432260DFF81CC06FF37F
:1050B0001E510CEB23531A4441F0FF5141F00051B3
:1050C000226010BD0000F07F02FCFFFF10B5012040
:1050D00000F0C8F9BDE810400220FDF70FBC000049
:1050E0001B4910B50860202000F0BCF9022800D14F
:1050F00001240A20FDF702FC282000F0B3F9022861
:1051000000D102240120FDF7F9FB082000F0AAF9E4
:10511000022800D103240120FDF7F0FB012000F05C
:10512000A1F9022800D104240220FDF7E7FB0620A4
:1051300000F098F9022800D105240120FDF7DEFBDC
:105140000C2000F08FF9022800D10624204610BD63
:105150001001002000B585B0012904D0022908D033
:10516000032913D00DE002F007F80B4602460AA10E
:1051700004E002F001F80B46024609A16846FBF77D
:1051800059F8684600F024F805B000BD01F0F4FFBE
:105190000B46024604A1F1E7252E3166000000000F
:1051A000252E326600000000252E33660000000028
:1051B00000B58DB0034605A232216846FBF74EF8D4
:1051C000684600F005F80DB000BD00002564000041
:1051D00010B5044602E0641C00F066F9207800284F
:1051E000F9D110BD1CB5074BD3E90023CDE900234D
:1051F0001DF811100844C0B240F0800000F032F9F0
:105200001CBD0000FC7500082DE9F04106460C4667
:1052100040F2FF75174635EA14502BD00022134692
:10522000304601F0A7FE25D03A463046214602F02E
:1052300099F906460C4635EA145010D00022134660
:10524000304601F097FE15D10220FCF794FAFFF7E3
:1052500059FE0A46214662F31E01BDE8F081022094
:10526000FCF789FAFFF747FE0A46214662F31E0162
:10527000BDE8F08130462146BDE8F08108B5FDF774
:10528000E9FFFFF701FCFFF753FA6B486949002477
:1052900001606A49C0E901144FF48045C0E9034543
:1052A00044618461C4610462FDF766FC08B172B6B2
:1052B000FEE761486249543001606249C0E9011467
:1052C000C0E9034544618461C4610462FDF754FC94
:1052D00008B172B6FEE75D485B4901604FF4E13109
:1052E000C0E901140C21C460C0E904418461C461B7
:1052F000FEF7FEFD08B172B6FEE7FFF76DFAFFF7A5
:105300009FFA40F2DC50FDF7F9FA4B485430FFF7B2
:10531000E7FE4F4C207320B101213220FFF772FECF
:10532000FAE74A480126E6729038FEF74BFB022165
:105330006420FFF767FE474FF1033846FDF70CFC8A
:10534000012834D0002229463846FDF70AFC3F48A0
:10535000FFF7B0FA4048FFF78BFB002506213E48D7
:10536000FFF7EAFA0A20FDF7C9FA6D1C322DF5DBCA
:1053700002216420FFF746FE3749A02303221C398F
:105380002D48FDF7E9F8344D00221C3DEB1D40F29D
:10539000FF1128460096FDF7C7F8A878012808D025
:1053A0001125E57201213220FFF72CFEF9E70122D9
:1053B000C9E70120FFF720FD02216420FFF722FE4C
:1053C0002548264980380222C164A0F85C20016586
:1053D000A0F85E60224980234165A0F86030402338
:1053E0008165A0F8623040F82C1F0425828241605C
:1053F000C5820822816002831022C160428301615C
:1054000020218183124914482B460522FB31803824
:10541000FFF78EF802216420FFF7F4FD0B484838AF
:10542000FEF7D0FAE572FFF751FEE67000F0AEFE2F
:10543000FCE700000054004010030020801A060022
:1054400000580040A08601000038014048040020B8
:105450000000002000100140B8010020000C0140B5
:105460000008014008B500F0F0020E4942F00C03BC
:1054700042F008020B704A70000140F00C028A7082
:1054800040F00800C87064200A460090101F0423F2
:105490004E210068FDF734FC08B1022008BD012050
:1054A00008BD00001401002008B500F0F0020E490C
:1054B00042F00D0342F009020B704A70000140F007
:1054C0000D028A7040F00900C87064200A460090FE
:1054D000101F04234E210068FDF712FC08B10220C2
:1054E00008BD012008BD0000140100202DE9F04195
:1054F000002849D0012854D0022858D0032863D06E
:10550000FF4CFE4EB4F91E20A6F13005D31E5FB24B
:10551000B4F91A3051B204287AD0A4460528BCF94F
:1055200020C076D0062875D0072874D0082873D0FC
:105530000E2872D00C2871D00D2870D00F286FD093
:1055400010286ED009286DD00A286CD1BCF1010F4B
:105550006AD0BCF1020FF8D100210220FFF742FE11
:10556000E8A000BFFFF734FE01210620FFF73AFE56
:10557000E9A0FFF72DFE03210420FFF733FEE8A08A
:10558000BDE8F041FFF724BE01210520FFF72AFE08
:10559000E7A0FFF71DFE02210420FFF723FEE7A08E
:1055A000EEE701210320FFF71DFEE8A0FEE3012145
:1055B0000320FFF717FEE9A0FFF70AFE02210120F2
:1055C000FFF710FEE9A0DBE700210846FFF70AFE1F
:1055D000EBA0FFF7FDFD01210020FFF703FEEBA08C
:1055E000FFF7F6FD02210020FFF7FCFDEAA0FFF720
:1055F000EFFD03210720FFF7F5FDC1488C30FFF7D1
:10560000E7FD03210F20FFF7EDFDBD486E30B7E742
:105610000BE0CDE054E155E390E3EEE3EEE3EEE39F
:10562000EFE3EFE3EFE33BE1EEE313B1012B2ED029
:1056300082E00920FFF7D6FDDAA0FFF7C9FD0021BF
:105640000846FFF7CFFDD8A0FFF7C2FD0121306863
:10565000FFF780FD01210020FFF7C4FDD3A0FFF775
:10566000B7FD01217068FFF775FD02210020FFF7EB
:10567000B9FDCFA0FFF7ACFD0121B068FFF76AFDCF
:1056800003210F20FFF7AEFD9D486E3052E0032A44
:1056900001DA092001E039461320FFF7A3FDC1A07C
:1056A000FFF796FD00210846FFF79CFDC1A0FFF71C
:1056B0008FFD01212868FFF74DFD01210020FFF734
:1056C00091FDBDA0FFF784FD01216868FFF742FD51
:1056D00002210020FFF786FDB8A0FFF779FD012128
:1056E000A868FFF737FD00210A20FFF77BFDB4A073
:1056F000FFF76EFD0121E868FFF72CFD01210A206C
:10570000FFF770FDAFA0FFF763FD01212869FFF7E8
:1057100021FD02210A20FFF765FDABA0FFF758FD30
:1057200001216869FFF716FD03210F20FFF75AFDDD
:1057300073487430FFF74CFD03210020FFF752FD42
:10574000B4F91C0020B1012805D0022822D028E09D
:105750006B487A3020E06A488030FFF739FD03213A
:105760000620FFF73FFD65481830FFF731FD21782F
:1057700031B9B4F9300018B10321801D40B205E001
:10578000B4F93000014309D103210720FFF72AFDB6
:105790008EA001E05A488630FFF71AFDA08B012841
:1057A0007ED003210720FFF71DFD55488C30E7E62A
:1057B000BCF1000F19D100210846FFF713FD84A0AA
:1057C000FFF706FD00211120FFF70CFD8448B4F916
:1057D0002610405C68B1FFF7EBFC03210020FFF7C7
:1057E00001FD4748B630FFF7F3FC208C012804D0B8
:1057F00020E07CA0FFF7ECFCEFE700210846FFF774
:10580000F1FC79A0FFF7E4FCA078B8B17AA000BF62
:10581000FFF7DEFC00211120FFF7E4FC37482C30B5
:10582000FFF7D6FC03210020FFF7DCFC3448CA3028
:10583000FFF7CEFC208C022802D03AE06FA0E7E709
:1058400000210846FFF7CEFC6DA0FFF7C1FC002148
:105850001120FFF7C7FCB4F9220020B1012805D0C0
:10586000022806D00DE02648403008E024484430A5
:1058700005E000211020FFF7B5FC21485830FFF764
:10588000A7FC01210020FFF7ADFC60A0FFF7A0FC02
:1058900001211120FFF7A6FC608AFFF789FC00E0D8
:1058A00028E003210020FFF79DFC1548C030FFF7DA
:1058B0008FFC03210E20FFF795FC114893305FE623
:1058C000B4F92400A0B1012813D0022812D100217C
:1058D0000846FFF787FC51A0FFF77AFCB4F92C00CB
:1058E000002808D0012807D0022806D0032899E014
:1058F0009CE06BE1E2E1A0E1A6E1ACE19C0A0020C2
:105900000000002057454C44494E47202050524F3C
:10591000434553530000000053544F50454400008A
:10592000524F424F5420484F4D494E47000000000F
:10593000454D455247454E4359210000524F424F75
:10594000542053544F5045440000000053595354C1
:10595000454D20424F4F54494E4700005052455349
:10596000532020454E54455200000000544F205310
:1059700054415254204155544F20484F4D4500004A
:1059800058503A484F4D494E4700000059503A4848
:105990004F4D494E470000005A503A484F4D494E2E
:1059A000470000003C00000058503A0059503A00AF
:1059B0005A503A0041313A0041323A0041333A00FC
:1059C00041343A0041353A0041363A002A2000007D
:1059D0004D617070656420506F696E7473000000D3
:1059E000E80600202D00000053656C6563742050AC
:1059F0006F696E7400000000200000002A000000A3
:105A0000536574205370656564000000546F7461C1
:105A10006C204D617070656400000000506174740A
:105A200065726E007ED004287DD02AE113B1012B6F
:105A300031D08FE00920FFF7D5FBAFF29800FFF7D8
:105A4000C7FB00210846FFF7CDFBAFF2A400FFF72C
:105A5000BFFB01213068FFF77DFB01210020FFF72C
:105A6000C1FBAFF2B800FFF7B3FB01217068FFF78D
:105A700071FB02210020FFF7B5FBAFF2CC00FFF76E
:105A8000A7FB0121B068FFF765FB03210F20FFF79B
:105A9000A9FBFE485CE0032A01DA092001E039464F
:105AA0001320FFF79FFBAFF20410FFF791FB0021DB
:105AB0000846FFF797FBAFF20410FFF789FB0121BF
:105AC0002868FFF747FB01210020FFF78BFBAFF2AF
:105AD0001810FFF77DFB01216868FFF73BFB0221EF
