:020000040800F2
:1000000030090020AD010008AB3800087933000842
:10001000A938000815210008B13A000800000000C6
:10002000000000000000000000000000AF380008E1
:100030003121000800000000AD380008B138000888
:10004000C7010008C7010008C7010008C701000870
:10005000C7010008C7010008C7010008C701000860
:10006000C7010008C7010008C7010008C701000850
:10007000C7010008C7010008192100082521000850
:10008000C7010008C7010008C7010008C701000830
:10009000C7010008C7010008C7010008C701000820
:1000A000C7010008C7010008C7010008C701000810
:1000B00015390008C7010008C7010008C70100087A
:1000C000C7010008C7010008C7010008C7010008F0
:1000D000C7010008C7010008C7010008C7010008E0
:1000E000C7010008C7010008C701000800F002F8B6
:1000F00000F04DF80AA090E8000C82448344AAF175
:100100000107DA4501D100F042F8AFF2090EBAE872
:100110000F0013F0010F18BFFB1A43F0010318473B
:100120001047000030470000103A24BF78C878C15B
:10013000FAD8520724BF30C830C144BF04680C60ED
:10014000704700000023002400250026103A28BF35
:1001500078C1FBD8520728BF30C148BF0B60704739
:10016000662904F08082002070471FB500F006FE6B
:1001700004000020002104F09FF8401C6060002073
:10018000002104F083F8E0601FBD10B510BD01F040
:10019000B8F81146FFF7E9FF03F0FEFD01F014FB8C
:1001A00003B4FFF7F2FF03BC01F058FB0948804796
:1001B00009480047FEE7FEE7FEE7FEE7FEE7FEE749
:1001C000FEE7FEE7FEE7FEE704480549054A064B61
:1001D0007047000013390008ED00000830030020CC
:1001E0003009002030050020300500200FB41CB578
:1001F000074B06AA7B4469460090059800F0EFFA89
:100200000020694600F0FEFA1CBC5DF814FB0000FB
:100210000D0600002DE9F0474FF0000A894604461C
:10022000C0F820A02046E1688847002876D025281D
:1002300006D0D4E901219047206A401C2062F1E7F2
:10024000E168204600258847C4F81CA00646002720
:10025000C4F818A02A2E09D0304603F0CEFC38B3DB
:1002600004EB8708303EC8F8186019E059F8041B01
:10027000204604EB87029161E1688847012F06461A
:1002800018D1E069002820DA25F020051DE0D8F813
:10029000180000EB800006EB40003038C8F818006A
:1002A0002046E1688847064603F0A7FC0028EED107
:1002B000012F0AD02E2E08D12046E16888477F1CE6
:1002C0000646022F45F02005C4DBA069002803DAAA
:1002D000404245F00105A061E80701D025F0100576
:1002E000B6B1A6F14100192802D8203645F40065C0
:1002F0004A463146204625604D46FFF731FF58B14A
:10030000012806D0ED1D25F0070000F1080989E756
:1003100004E005F1040985E730468AE7206ABDE874
:10032000F08700000FB400B58DB010A909900091BE
:100330000B904FF0FF300A9000200C900648784454
:100340000690064878446A4607900F9909A800F07D
:10035000E1FC0DB05DF814FBF30900000B0A00008E
:100360004FF0000200B5134694469646203922BF4E
:10037000A0E80C50A0E80C50B1F12001BFF4F7AF99
:10038000090728BFA0E80C5048BF0CC05DF804EB7B
:10039000890028BF40F8042B08BF704748BF20F8E9
:1003A000022B11F0804F18BF00F8012B70477047E7
:1003B0007047704770472DE9FF4F0C461E464FF0BF
:1003C000FF378BB0D2E90001DDF860800A908A46E1
:1003D000C1F30A5505B93D46002108464FF000001B
:1003E000BAF1000F00F4400005DA00EB80004FF492
:1003F000400101EA50004FEA9059B9F1010F00DDC8
:10040000B9460A9850EA4A000ED044F61050A5F2B8
:10041000FF3545432F14B8F1000F1ED07542291E39
:100420001EDDC9F100021CE0B8F1010F4FF0000021
:1004300001D0302103E0F24305E02154401CB042DA
:10044000FBDB30460022002121540B99C1F80880C3
:10045000C1E900200FB0BDE8F08FBD1B6D1CDEE7C9
:100460004A4600DA694206A800F0D8FE06AB93E8D7
:10047000070003AB83E8070050460A9901F015FA1C
:100480008DE80700A0F500501F3800900398002D5C
:100490000ADD42F21F014A460844002303A90390E3
:1004A000684601F0C1FC09E0A0F500504A461F383B
:1004B000002303A90390684601F0E0FC8DE80700E3
:1004C0000004000C03D04FF0FF30410800E010465C
:1004D000B8F1000F03D00022009215461EE0751EF1
:1004E00005D400F053FC303262556D1EF9D5B34689
:1004F0000122084302D000227F1C04E0207830282B
:1005000001D100227F1E002A099784D01DE0112D01
:1005100007DA00F03BFC303262556D1C50EA0102F4
:10052000F5D1084302D00098C8B10EE00021681E42
:1005300005E0235C625C63542254401E491C8142E6
:10054000F7DBAB46A81B401E0990002004F80B0007
:100550000B98099AC0F80880C0E9002B7AE71126A9
:100560004FF0000857E72DE9F04F88460446D21DAA
:1005700022F0070191B0D1E90001CDE90A0103F0B1
:1005800098FA02460B98C00F01D02D2007E0206892
:10059000810701D52B2002E0202101EAC000032AB7
:1005A000099001D0072A05DB03464146204600F0AA
:1005B0003BFC0BE12078800601D5E06900E00620D5
:1005C000B8F1650F814606D0B8F1660F18D0B8F1C2
:1005D000670F70D131E00020B9F1110F009001DBFD
:1005E000112301E009F101030AAA01A90CA8FFF7F0
:1005F000E2FEDDE90C70002609F10105834647E0C3
:1006000001204B4600904FF000470AAA01A90CA810
:10061000FFF7D1FEDDE90DB00C995D46002610B95B
:1006200009F101000D18B9EB050003D4C0F1FF3644
:1006300009F10105A5EB09002BE0B9F1010F01DA81
:100640004FF001090020B9F1110F0090484601DD7B
:10065000112300E003460AAA01A90CA8FFF7ABFE8C
:10066000DDE90C704D4600268346207800070AD449
:10067000AB4500DA5D4601A8012D04DD411911F8F2
:10068000011C302907D04F4502DA17F1040F04DAB4
:10069000012082460FE06D1EEEE7002F02DCED1B0D
:1006A0003E4403E0781CA84200DD7D1CB81B00F12D
:1006B000010A4FF000472078000703D4AA4501DB68
:1006C0004FF0FF3A0021B7F1004F0DF143088DF8CC
:1006D000431024D002202B23002F01DA7F422D2348
:1006E0000A21021EA0F1010000DC5FB197FBF1FCC2
:1006F00097FBF1F201FB1C7C17460CF1300C08F85B
:1007000001CDEEE7A8F1010003702188090501D5AC
:10071000452100E06521A0F1010800F8011C0998BD
:100720000FA9A1EB0807FF1D00B10120411901EB42
:10073000EA70A1693844081A401EA0612078C006FA
:1007400002D42046AFF30080099828B1D4E90121F2
:100750009047206A401C20622078C00622D520469F
:10076000AFF300801EE0002E04DBB34502DD01A8DC
:10077000805D00E03020D4E901219047206A401CD0
:100780002062761CAAF101005FEA000A0AD100F09B
:10079000F5FAC0680168405CD4E901219047206AFD
:1007A000401C2062281EA5F10105DCDC07E0D4E92D
:1007B000012118F8010B9047206A401C2062381E66
:1007C000A7F10107F3DC2046AFF30080032011B04E
:1007D00041E6000001694A1C02610878704700B5D3
:1007E0008FB0CDE901310021059105497944CDE96A
:1007F000031011466846FFF70DFD0FB000BD000065
:10080000E5FFFFFF0A6802F8010B0A60704700006D
:100810002DE9FF4F06468BB00878FF2806D0491C0B
:100820002D2805D000244FF0000908E000200CE03E
:100830000124F8E709EB8903491C00EB4309087818
:10084000FF28F7D114B1C9F10000814610780025C6
:100850002C46AA4629462D2801D02B2804D1521C0B
:100860002D2813D0002082468B461078FF280FD009
:100870004FF0000C0A21521CA5FB017804FB0181FA
:1008800005FB0C11C5194BEB0104EEE70120EAE76B
:10089000002108464FF00000BAF1000F02D000EB33
:1008A00080004008C0F38157012F01DD4FF0FF3772
:1008B0000E9955EA040009EB01080BD04FF002092C
:1008C00018F5FA7F16DA4FEACA70002F706008DD5B
:1008D000012007E04FEACA70C6E900B00FB0BDE8DA
:1008E000F08F0020306000F04DFAC0F80090182121
:1008F000084616E0B8F5FA7F18DD002F02DAF7484F
:10090000784401E0F6487844D0E90010C6E90010C8
:1009100040EACA70706000F035FAC0F80090142107
:1009200008460FB0BDE8F04F03F09ABE002108461C
:100930004FF00000B8F10001099002DAC7F100029F
:1009400000E03A4601DAC8F1000106A800F066FCB2
:1009500006AB93E8070003AB83E8070044F23E00D0
:100960005BEA04010090584604D144F21E012C4673
:100970005D460091210C0904014306D1009924042D
:1009800044EA15442D041039009104F07F410143DD
:1009900006D10099240244EA15642D020839009119
:1009A00004F07041014306D10099240144EA157412
:1009B0002D01091F009104F04041014306D1009927
:1009C000A40044EA9574AD00891E009104F0004132
:1009D000084304D100986D196441401E00904FF007
:1009E00001033A466846B8F1000FCDE9014503A975
:1009F00002DD01F058FA01E001F02BFABAF1000F24
:100A000004460D4601D084F00044002108464FF012
:100A10000000099940F2FF77484010F00C0F07D111
:100A200024F00040284303D0C4F30A50B84212D146
:100A300000F0A8F9C0F80090C4F30A50B8420AD1F7
:100A4000A8487844D0E90010C6E9001004F000413D
:100A50000843706042E7C6E900543FE72DE9FF4FC5
:100A60001F464FF0000A4FF0FF38454691B0D7E9D6
:100A70000146CDF83CA000F081F9C0680168405CF7
:100A80001090B96912986D1C8847396A8146884769
:100A90000028F6D1B9F1FF3F0AD0002E24F4D0642B
:100AA00011DDB9F12B0F08D0B9F12D0F0BD102E0F8
:100AB000404615B013E744F48064B96912986D1C80
:100AC0008847761E8146600504A901D52D2000E0E7
:100AD0002B20002E01F1010B0DF130088DF81000D4
:100AE0003FDDB9F1690F08D0B9F1490F05D0B9F16F
:100AF0006E0F02D0B9F14E0F1CD13B4601A80095F4
:100B000080E85002DDE912126FF0020003F011FEDE
:100B1000C11CCED10EE0B96912986D1C8847814680
:100B20001398761E44F4007405600F98401C002E44
:100B30000F9016DDB9F1300FEDD0B9F1780F02D07A
:100B4000B9F1580F0DD10F9801280AD13B46CDE9D4
:100B50000054DDE91212001F029603F0E8FDC11CEB
:100B6000A7D1109989453ED144F0800406E013993D
:100B7000681CAAF1010A44F400740860B9696D1C8C
:100B80001298761E884730288146F0D02BE01099C5
:100B9000894505D1200603D4761E44F0800418E070
:100BA000484603F02AF808B3761E0DF123018B4561
:100BB00044F4007408D2A9F130000BF8010B2006B0
:100BC00007D5AAF1010003E0200602D40AF10100D2
:100BD0008246A00502D51399681C0860B96912986D
:100BE0006D1C88478146002ED1DC53E0002E51DD7C
:100BF000B9F1650F02D0B9F1450F4BD1A00549D528
:100C0000B9696D1C1298761E24F440748847002E32
:100C100081460CDD2B2804D0B9F12D0F07D144F407
:100C20008074B96912986D1C8847761E8146E0056C
:100C300001D52D2100E02B2108F8011BCDF8008003
:100C400021E0761E0DF13901884544F400740CD280
:100C5000A9F1300010F0FF0088F8000002D10099DF
:100C6000884509D908F1010806E0E00501D51E48CC
:100C700001E042F20F708246B96912986D1C8847F4
:100C8000814613980560002E04DD484602F0B5FF4A
:100C90000028D6D1F96912988847FF2053468BF86F
:100CA000000088F8000000200A900B9004AA0CA90C
:100CB0000AA8FFF7ADFDA00502D46FF00100F8E629
:100CC00014F0240F12D0E0071CD13868DDE90A12B5
:100CD000031D3B600068C0E9001213E0543F0000B0
:100CE000463F00000A3E0000F1D8FFFF0AA968460F
:100CF00002F012FFE00705D13868009A011D396043
:100D0000006802602846D4E6026811441378016046
:100D100018467047D16005497944516104497944C6
:100D2000116200211161114600F0BEB8EDFFFFFF16
:100D3000F5000000426842B1016811F8013B23B19F
:100D4000521EC0E90012184670470121C160881E7A
:100D5000704742685AB1C368016843B983688B42DF
:100D600005D0491E521CC0E90012002070474FF008
:100D7000FF30704700487047D0020020004870479D
:100D8000F002002000487047D002002030B5B0F1DA
:100D90000A024FEA900E71F100034EEA817EB0EB39
:100DA0000E0061EB91014FEA101E4EEA017E10EB3E
:100DB0000E0041EB11114FEA102E4EEA016E10EBBE
:100DC0000E0041EB11214FEA104E4EEA014E10EB9E
:100DD0000E0041EB1141401841F100014FEAD000F3
:100DE00040EA41704FEAD10110EB80054FEA8104DF
:100DF00044EA907444EB01046D1944EB0404521B63
:100E0000A3414FF0000348BF0A3200D530BD401C5B
:100E100041F1000130BD10B5044600F097FA0068BA
:100E2000005D00F0010010BD2DE9F0411F460446B1
:100E300003260168072A01F4006004DB08B116A547
:100E400005E016A503E008B115A500E015A521F001
:100E500010002060A069C01EA0610FB1401EA061FB
:100E60002046AFF300804FB1D4E9012138469047C6
:100E7000206A401C2062C01C206206E0206AFAE75B
:100E8000D4E9012115F8010B9047761EF8D22046CF
:100E9000AFF30080BDE8F0814E414E006E616E0000
:100EA000494E4600696E66002DE9F34F4FF0000A87
:100EB0000C4656468DB001200C9001F10C000B90B1
:100EC00062690B9801219047051E2DD0252D2CD04D
:100ED000216A8847C0B162690B9801219047216A55
:100EE00088470028F7D16269411E0B98904700E0BF
:100EF000761CA1690D988847216A88470028F7D198
:100F0000E1690D988847DBE7A1690D988847A842F9
:100F1000074601D1761CD3E7E1690D9888477F1C0D
:100F200002D1BAF1000F6FD06CE162690B98002713
:100F30003D46394690472A2804D162690B98012121
:100F400090470125DFF8D08262690B980121904714
:100F5000A0F130010A290AD24745E5DC07EB8701F9
:100F600000EB4107303FDFD445F01005ECE7E90620
:100F700001D46FF000476C280AD04C2814D06828A0
:100F800015D06A280DD074281CD07A281AD01DE0FC
:100F900062690B98012190476C2802D045F0040546
:100FA00014E045F002050DE045F020050AE0626915
:100FB0000B9801219047682802D045F0080505E00C
:100FC00045F4006562690B9801219047C4E9015717
:100FD00065283DD019DC58287AD00CDC452837D05C
:100FE00004DC252826D041289ED131E046282FD088
:100FF000472899D12CE05B2877D0612828D0632836
:101000007CD0642823D15AE0F7E06F2848D008DC70
:1010100066281DD067281BD0692821D06E2816D1DC
:1010200027E0702845D0732868D0752847D07828E5
:101030000DD14DE0A1690D988847252805463FF45C
:1010400069AFE1690D9888476D1C3FF46AAFD9E03C
:101050000D9923466A466FF0010003F066FBC6E077
:1010600045F0400023464FF000026060A80736D4E8
:101070003EE0E8077FF447AF2068011D216000686B
:10108000290501D506701BE7290701D5068017E75A
:10109000A90703D5F117C0E9006111E706600FE762
:1010A00045F0400023464FF008026060A80716D4C0
:1010B0001EE040F60E0125EA0100606016E045F0F2
:1010C000400023464FF00A026060A80707D40FE0F3
:1010D00045F040006060A80708D5234610220D990E
:1010E0006FF00100AFF3008081E007E0102223469B
:1010F0000D996FF00100AFF3008078E04FF0000928
:1011000063284F46C8464B46CB4602D05B2807D0E3
:1011100039E02079C00601D40120A060012732E027
:101120006269D4F80CB00B98012190475E2807D172
:101130004FF0010949466269D4F80CB00B9890470A
:10114000216939B900210A4603AB43F82120491C23
:101150000829FADBD8B3216949B308F101086269AB
:101160000B98012190475D28F4D1B9F1000F09D007
:10117000002003A951F82020D24341F82020401C30
:101180000828F7DB03AB2069002820794FEA40707C
:101190001ED05B462246CDF80080CDE901970D991F
:1011A00000286FF0010020DAAFF300801FE0C117C4
:1011B00003AA00EBD1614B1121F01F0102EB830266
:1011C000411A13680120884003431360C7E719E000
:1011D0000D99224600286FF00100009702DAAFF364
:1011E000008004E0AFF3008001E0AFF3008000284E
:1011F0000ADA401C06D10C9820B14FF0FF300FB036
:10120000BDE8F08F5046FAE7E90701D10AF1010A7B
:10121000064400200C9053E6CCCCCC0C2DE9F047D2
:10122000814616468AB0354878440DC88DE80D00D1
:1012300032487844801C03AC0DC884E80D0041F6A8
:101240009B300844372190FBF1F290FBF1F5A5F1BA
:10125000800501FB12041B3C02D56442012000E022
:101260000020DFF898A080460027FA44AAF1BE0AC1
:101270000EE0E0070AD03246684607EB470101233B
:101280000AEB810100F0FAFD8DE8070064107F1C75
:10129000002CEED1194F7F44AE3F19E0E80715D07E
:1012A00007EB04100DF1180A90E80E008AE80E0012
:1012B000C068F04201D1981908903246012306A96E
:1012C00003A800F0DBFD03AB83E807006D10641C8E
:1012D000002DE3D14FF0010332466946B8F1000F0B
:1012E00003A802D000F0A0FD01E000F0C7FDC9E9AD
:1012F0000001C9F808200AB0BDE8F087EC3500000D
:1013000070477546FFF736FDAE4605006946534601
:1013100020F00700854618B020B5FEF755FFBDE860
:1013200020404FF000064FF000074FF000084FF04C
:10133000000B21F00701AC46ACE8C009ACE8C009DD
:10134000ACE8C009ACE8C0098D46704710B5FFF79E
:1013500015FD001D10BD00BF612F000010B5FFF787
:1013600011FD006810BD10B50446FFF70BFD0460C9
:1013700010BD00002DE9FF4F1F464FF03C0987B01C
:101380004FF00042DDE9141001F10108DDF858A02A
:1013900002EA40500390002005908346054604462B
:1013A0000490B969461E08988847AAF1010A02907C
:1013B000BAF1000F3BDD02982E2815D0102100F065
:1013C00066FA00282EDB4FF0010B0599014317D078
:1013D000B9F1000F0BDB4A46C11700F045FA05438F
:1013E0000C43A9F1040905E0012004900BE008B1C9
:1013F00045F0010501200590049820B9361D02E052
:10140000049800B1361FB969089808F101088847A7
:10141000BBF1000FAAF1010A0290C9D00999C1F8E5
:101420000080C5E70298702808D0502806D0F969D6
:1014300008988847BBF1000F14D04FE000200290BD
:101440000120BBF1000F049009D0B969089808F198
:1014500001088847AAF10109B9F1000F07DCF96911
:10146000089888476FF001000BB0BDE8F08F2B287B
:1014700004D02D280CD14FF0FF300490B9690898A2
:1014800008F101088847A9F10109B9F1000FE6DD6B
:10149000411CE4D00A2100F0FAF90028DFDB0299B0
:1014A00008F1010801EB810100EB41000290B969EC
:1014B000089888470A2100F0EAF9099AA9F1010978
:1014C000B9F1000FC2F8008001DD0028E7DAF96900
:1014D000089888470499029800FB016655EA0400C1
:1014E00004D004F04041090002D006E0039898E0DF
:1014F000A40044EA9574AD00B61E04F00041080053
:1015000002D16D196441761E159810F0240F03D096
:101510004FF00B095C4803E04FF028096FF07D00A5
:101520008246564507DAAAEB06018944B9F1410F14
:1015300001DD4FF0410901200021A9F1010200F075
:1015400093F9024628400B462140084301D001216F
:1015500000E00021501E029143F1FF31284021405C
:10156000084301D0012000E000200299834651EA9F
:101570000B014FD0002108464FF00000039900F402
:10158000400039B100EB80004FF4400100EBD07017
:1015900001EA60008015012802DD4FF0FF3000E015
:1015A00013D0401C36D0029860B3BBF1000F0CD1B1
:1015B0004A460120002100F057F928402140084305
:1015C00001D0012000E00020E0B101204A460021C6
:1015D00000F04AF9034640190A4661412D1A8C4130
:1015E00011D3B9F1400F09DD159810F0240F02D086
:1015F000AAF1340603E0AAF1170600E0761C0025E4
:101600004FF0004406E05B1E42F1FF3220EA030582
:1016100021EA0204CAF10100B04206DA1B4903982C
:1016200008430190002000900EE0039AC4F3D321F8
:10163000E80A0A43164940EA44500A433146CDE9D4
:101640000002684602F0CEFA159810F0240F0BD075
:101650001598C00715D13868DDE90012031D3B60FD
:101660000068C0E900120CE002A8694602F054FAD2
:101670001598C00705D13868029A011D39600068C5
:1016800002604046F0E6000002FCFFFF0000F07F31
:101690000000F03F2DE9FF4F92461D4685B04FF008
:1016A0000041DDE9124BDDE914727F1E01EA4B5067
:1016B000414940F0FF4940EA0108002122F02000A2
:1016C0004928049102D04E2828D04CE03BA00126A6
:1016D00007C88DE80700A9690698641C88477F1E23
:1016E000014606D41DF8060018B121F02001814200
:1016F0000BD0E96906988847032E34D0082E32D0E3
:101700006FF0010009B0BDE8F08F761C032E01D008
:10171000082EE0D1601CCAF80000DCE7A969069831
:10172000641C88477F1E2AD420F02000412826D13F
:10173000A9690698641C88477F1E20D420F02000E9
:101740004E281CD1A9690698641C88477F1E48F45E
:10175000002849F48009CAF8004001D4282806D09E
:10176000E969069888475FEACB7012D022E0A96940
:101770000698641C88477F1E01D4002803DAE969B3
:1017800006988847BCE72928F1D1641CCAF80040B4
:10179000E9E71BF0240F07D028680499031D2B608C
:1017A0000068C0E9001805E02868021D2A6000688A
:1017B000C0F800902046A5E70000F07F494E46495A
:1017C0004E4954590000000010B50446AFF30080A4
:1017D0002046BDE81040FEF7E3BC00004FF0013C9E
:1017E00050F8042B51F8043B9A4221D1A2EB0C0390
:1017F000934313EACC1317D150F8042B51F8043B50
:101800009A4215D1A2EB0C03934313EACC130BD1EC
:1018100050F8042B51F8043B9A4209D1A2EB0C0377
:10182000934313EACC13DBD04FF00000704700BFA6
:10183000D01A01BAB1FA81F101F0180122FA01F0CF
:10184000CB40C1F12001DBB2C0B2C01A2CFA01F3C7
:10185000D11A914311EAC311E6D17047014918200A
:10186000ABBEFEE726000200B2F120030AD5C2F1AA
:10187000200301FA02F120FA03F300FA02F041EA30
:101880000301704700FA03F14FF0000070473A2857
:1018900000D2303820F02002412A01D3A2F13700D3
:1018A000884201D34FF0FF3070475FEA400C08BF19
:1018B00091F0000F4FEA8C234FEAC12243EA5151C5
:1018C0004FEA1C5018BF00F5F0404FEA300018BF37
:1018D00041F000415FEA6C5C00F02980BCF1FF3F01
:1018E00008BF40F080407047130C06BF12044FF051
:1018F000100C4FF0000C130E04BF12020CF1080C78
:10190000130F04BF12010CF1040C930F04BF9200DB
:101910000CF1020CD30F04BF52000CF1010C114664
:101920004FF00002A0F11F00A0EB0C00704711F077
:10193000004F08BF704731F000413FF4D5AF0B0CAA
:1019400006BF09044FF0100C4FF0000C0B0E04BF43
:1019500009020CF1080C0B0F04BF09010CF1040C77
:101960008B0F04BF89000CF1020CCB0F04BF4900A0
:101970000CF1010CCCF12003A0EB0C0022FA03F3D4
:1019800002FA0CF241EA030100F10100704720F075
:101990007F4C80EA030023F07F47ACEB070303F59D
:1019A0007C5300F0004003F1FF032DE980494FEA2A
:1019B000154B09B44FEA144325EA0B4E24EA0348B9
:1019C0000FF2042606EB132749083E785FEA32023D
:1019D00003FB0667C7F5000707FB06F64FEA543717
:1019E0004FEAD64606F1020607FB066CCCF1005C16
:1019F0004FEA1C472CEA074C07FB06F40CFB06F5E4
:101A000004EB15464FEA961634BF00204FF0004015
:101A10004FEAD13706FB07FC4FEA1C4C0CFB0BF7D7
:101A2000D21B03FB0CF761EB07010CFB0EF7B0EBCD
:101A3000074072EB17420CFB08F734BFA2EB0742DA
:101A4000B2EB074261EB17414FEA0C444FEA9107B2
:101A500006FB07FC4FEA1C4C0CFB0BF7B0EBC74036
:101A600072EB573203FB0CF734BFA2EBC742B2EB69
:101A7000C74261EB57310CFB0EF7B0EBC70072EBBE
:101A800057720CFB08F734BFA2EBC702B2EBC702D8
:101A900061EB5771039F4FEA816141EA921104EBB8
:101AA000CC044FEAD1374FEA826206FB07FC42EAD8
:101AB00090124FEA80604FEA1C4C0CFB0BF7D21BD4
:101AC00003FB0CF761EB07010CFB0EF7B0EB0740D3
:101AD00072EB17420CFB08F734BFA2EB0742B2EBE4
:101AE000074261EB17414FEA8C554FEA910704EB2F
:101AF0009C2406FB07FC4FEA1C4C0CFB0BF7B0EBDD
:101B0000C74072EB573203FB0CF734BFA2EBC7425E
:101B1000B2EBC74261EB57310CFB0EF7B0EBC700DD
:101B200072EB57720CFB08F734BFA2EBC702B2EBA3
:101B3000C70261EB577115EB4C254FEA816141EA11
:101B400092114FEA82624FEAD13742EA901206FBC5
:101B500007FC44F100044FEA80604FEA1C4C0CFB88
:101B60000BF7D21B03FB0CF761EB07010CFB0EF725
:101B7000B0EB074072EB17420CFB08F734BFA2EB47
:101B80000742B2EB074261EB174115EB1C154FEA18
:101B9000813141EA92414FEA823242EA90424FEA71
:101BA00080304FEA0C7644F1000448EA03434EEAE1
:101BB0000B484FF0000EB2EB080C71EB030724BF8B
:101BC000624639464EEB0E0E4FF0000B00185241A4
:101BD00049414BEB0B0BB2EB080C71EB03077BF1AC
:101BE000000B24BF624639464EEB0E0E4FF0000B41
:101BF0000018524149414BEB0B0BB2EB080C71EB57
:101C000003077BF1000B24BF624639464EEB0E0EF4
:101C100051EA020718BF46F0010616EB0E7655F1A1
:101C2000000254F1000103D5BDE88901BDE8008838
:101C3000BDE88901BDE80048B619524141EB0101F8
:101C4000A3F10103704780807F7E7D7C7B7A797869
:101C5000777676757473727171706F6E6E6D6C6C71
:101C60006B6A6A6968686766666564646363626113
:101C70006160605F5F5E5E5D5D5C5C5B5B5A5A5994
:101C80005958585757565655555554545353525200
:101C90005251515050504F4F4F4E4E4D4D4D4C4C58
:101CA0004C4B4B4B4A4A4A494949484848474747A1
:101CB00047464646454545444444444343434342DE
:101CC000424242414141000046EA0646A3F57053B4
:101CD0004FEA164646EA42564FEAD22242EA4152BB
:101CE00010B54FEAD121A3F1010300F02FF820F045
:101CF000004000F1020C00F0004701EB00501146DB
:101D0000BCF5006F40EA070000D210BDBAF1000F29
:101D10000AD01CB503B44FF004004FF004014FF09B
:101D200000000FBCBDE810404FF00001BBF1010FF7
:101D3000B9BF04484FF0FF310348002140EA0700D3
:101D400010BD00BFFFFFEF7F0000F07F002B9C461F
:101D500030D477002BD01CB54FEA370703B44FF0CF
:101D600010004FF01001BAF1000F06D0BCF1000FC7
:101D7000DCBF40F0080040F008014FF000000FBC4D
:101D8000BDE810400BF1010BBBF1010F08BF5FEA8A
:101D9000170722BF12F1010211F101014FF00041BA
:101DA00043F1000300F0004043EA00007047F9D31C
:101DB0005708D0E746EA064613F1400F4FEA1646A9
:101DC0001FDD13F1200FDFBF16430A460021203329
:101DD0005B42BED0C3F1200746EA064602FA07F787
:101DE0004FEA164646EA0706C3F1200722FA03F235
:101DF00001FA07F721FA03F14FF0000342EA070264
:101E0000A7E746EA020646EA06464FEA164646EACB
:101E10000106BCBF46EA0646360C4FF000034FF001
:101E200000024FF0000194E72DE9804C9A4693465A
:101E300070B491E8380007C831EA400C48BF34EA72
:101E4000430C03D5FFF7A3FDFFF780FFF0BCBDE80F
:101E5000008C2DE9804C9A46934670B491E8380086
:101E600007C831EA400C48BF34EA430C03D5FFF7FA
:101E70008EFDFFF729FFF0BCBDE8008C2DE9804CFA
:101E80009A46934670B491E8380007C810F0804F26
:101E900008BF13F0804F03D100F01AF8FFF756FF88
:101EA000F0BCBDE8008C2DE9804C9A46934670B496
:101EB00091E8380007C810F0804F08BF13F0804F3A
:101EC00003D100F005F8FFF7FFFEF0BCBDE8008C81
:101ED00020F07F4780EA030023F07F4C07EB0C03E0
:101EE000A3F57C5300F00040A3F1FE0392F0000F35
:101EF00000F0B38095F0000F00F077802DE90149E4
:101F00004FEA11404FEA144621EA004800FB06FC64
:101F100024EA064708FB06F607FB08F800FB07F76C
:101F200018EB06484CEB164C4FEA124B18EB0748DF
:101F30004FEA15464CEB174022EA0B4E0BFB06FC12
:101F400025EA06470EFB06F607FB0EFE0BFB07F71E
:101F50001EEB064E4CEB164C4FF000061EEB074EE8
:101F60004CEB174B18EB0B0840F1000018EB0E0B75
:101F700058EB000840F100008F1A4FF000013CBF01
:101F8000C943661B14BFB5EB040C00213CBFC94319
:101F9000F61B4FEA17444EEA8E0E27EA04454FEA35
:101FA0001C4704FB07622CEA074C05FB07F70CFBF8
:101FB00005F604FB0CFC16EB074642EB174216EB4A
:101FC0000C4642EB1C421BEB060658EB0202414159
:101FD00046EA9E0601D5BDE80189B619524141EB9A
:101FE0000101A3F10103BDE801894FEA14454FEA5D
:101FF000114724EA054621EA074C05FB07F406FBD6
:1020000007F70CFB06F105FB0CFC11EB074144EB59
:1020100017444FEA124711EB0C4144EB1C4422EAEF
:10202000074C05FB07F206FB07F70CFB06F605FB62
:102030000CFC16EB074642EB174216EB0C4642EB44
:102040001C456A1854F1000148BF7047B619524147
:1020500041EB0101A3F10103704795F0000F37D068
:102060004FEA11424FEA144721EA024624EA074C9C
:1020700002FB07F106FB07F70CFB06F402FB0CFC66
:1020800014EB074441EB17414FEA154714EB0C449E
:1020900041EB1C4125EA074C02FB07F506FB07F75D
:1020A0000CFB06F602FB0CFC16EB074645EB17454E
:1020B00016EB0C4645EB1C42121951F1000148BFCA
:1020C0007047B619524141EB0101A3F1010370477A
:1020D0004FEA14454FEA114724EA054621EA074C26
:1020E00005FB07F106FB07F70CFB06F24FF00006B5
:1020F00005FB0CFC12EB074241EB174112EB0C42C3
:1021000051EB1C4148BF7047921841EB0101A3F10C
:1021100001037047FEE70000014800F00DB8000021
:102120008C020020014800F007B80000480200209F
:10213000704772B6FEE700002DE9F05FC16B0C68D6
:1021400001680B68D0F840C0042202FA0CF2494D35
:10215000DFF824A1494E4A4FDFF828B1DFF828E123
:1021600022422CD05A072AD50A68920603D40A685C
:1021700022F004020A600168A94201D1042219E098
:10218000514501D1402215E0B14202D14FF48062A5
:1021900010E0B94202D14FF480420BE0594502D120
:1021A0004FF4802206E0714502D14FF4800201E035
:1021B0004FF080622F4908394A60C16A3BE04FF016
:1021C000020808FA0CF818EA040F4FF000094FF063
:1021D000010235D05FEA837832D50B689B0605D4BF
:1021E0000B6823F00A030B6080F821200168A942E4
:1021F00001D1022219E0514501D1202215E0B1425E
:1022000002D14FF4007210E0B94202D14FF40052F3
:102210000BE0594502D14FF4003206E0714502D17E
:102220004FF4001201E04FF00072124908394A6081
:1022300080F82090816A00291AD0BDE8F05F084735
:10224000082505FA0CF5254212D01B0710D50B689E
:1022500023F00E030B6090F84010C36B02FA01F1FB
:102260005960826380F8212080F82090016BE2E7BA
:10227000BDE8F09F080002401C0002403000024010
:1022800044000240580002406C00024030B528B3C0
:1022900008C8134914221944B1FBF2F18900C16343
:1022A00010498163022141771A6843F6F0718A432D
:1022B000D0E900142143D0E902452C4321430469AD
:1022C000214344692143846921431143196000215A
:1022D0004163012242770177084630BD012030BDBD
:1022E000F8FFFDBF0000024070B5044600F008F999
:1022F0000546601C02D004480078044400F000F950
:10230000401BA042FAD370BD9C0000202DE9F84F7D
:10231000DFF8B8910024A9F1040B23460F2709F137
:10232000040AABF1040EC9E00125A5402A40AA42E7
:102330007DD1674ED1F804C0ACEB0608B44532D06D
:1023400014DCBCF1030F3AD009DCBCF1000F2AD039
:10235000BCF1010F1CD0BCF1020F31D11DE0BCF16A
:10236000110F17D0BCF1120F2AD119E0B8F5881F50
:1023700019D006DCB8F5803F15D0B8F5801F1FD105
:1023800011E0B8F5001F0ED0B8F5041F18D10AE00F
:10239000CB6815E0CB681B1D12E0CB6808330FE05B
:1023A000CB680C330CE08B682BB1012B4FF008038A
:1023B00003D0456104E0042302E0056100E000234E
:1023C000FF2A01D8064601E000F104064FEA840521
:1023D00001D9A5F12005D6F8008007FA05FC28EA06
:1023E0000C0803FA05F548EA0508C6F800804D68B0
:1023F000ED0062D5374DAE6946F00106AE61AD69BC
:1024000024F0030605F001050095334D06EB050C9D
:10241000DCF80850A607360F07FA06F825EA080583
:10242000DFF8B880404503D14FF0000817E044E0E2
:10243000DFF8AC80404502D14FF001080FE0DFF833
:10244000A480404502D14FF0020808E0DFF89880F0
:10245000404502D14FF0030801E04FF0040808FAAC
:1024600006F848EA0508CCF808804D68D9F80060FD
:10247000ED024D4601D5164300E096432E604D68AF
:10248000DAF80060AD02554601D5164300E09643E8
:102490002E604D68DBF80060AD035D4601D5164344
:1024A00000E096432E604D68DEF80060ED0375464F
:1024B00001D5164300E096432E60641C0D682A4641
:1024C000E5407FF431AFBDE8F88F0000080401401B
:1024D00000001110001002400000014000080140FF
:1024E000000C0140001001400014014080680840C9
:1024F00000D0012070470AB1016170470904FBE771
:1025000001488068704700009C00002070B50400FE
:1025100025D094F83D00002520B984F83C50204691
:1025200000F04EF9242084F83D002068016821F075
:10253000010101602068016841F4004101602068E8
:10254000016821F40041016000F0B4FA4D4A61686D
:10255000914201D84C4900E04C49884201D2012007
:1025600070BD4B492368B0FBF1F15E6826F03F0671
:102570000E435E606368934206D94FF496735943E5
:102580004FF47A73B1FBF3F12368491C1E6A26F0FD
:102590003F06314319626168914210D84900401EDC
:1025A000B0FBF1F2521CC2F30B02042A01D2042048
:1025B00022E0B0FBF1F0401CC0F30B001CE0A2686D
:1025C000F2B301EBC10303EB0116431EB3FBF6F3B9
:1025D0005B1C43F480431B0549D092B301EBC1025D
:1025E00002EB0111401EB0FBF1F0401CC0F30B00E8
:1025F00040F4804040F400402168CA694CF6FF7303
:102600009A431043C861D4E9071001432068026867
:1026100022F0C00211430160D4E9030101432068A4
:10262000826848F2FF339A4311438160D4E905017F
:1026300008432168CA6822F0FF021043C86001E025
:102640000EE016E02068016841F001010160256498
:10265000202084F83D00256384F83E50002070BDA2
:1026600001EB4106431EB3FBF6F35B1CB3E701200D
:10267000C2E701EB4101401EB0FBF1F0401CC0F38A
:102680000B00B7E7A086010080841E0000093D0012
:1026900040420F002DE9F84F1F4690468A460446F7
:1026A000DDF82890FFF72CFF054694F83D00202820
:1026B0007FD11923012240492046009500F0EEFE0B
:1026C000002876D194F83C00012872D0012084F8CB
:1026D0003C0020680168C90703D1016841F001018D
:1026E00001602068016821F400610160212084F804
:1026F0003D00102084F83E0000262664C4F82480A3
:102700006785608D20852D48E0622B464A465146FC
:10271000204600F049FE90B9206841698069009028
:1027200036E02A464946204600F05EFF50B1206C54
:10273000042804D12068016841F40071016001207F
:10274000BDE8F88F606A216800780861606A401C03
:102750006062618D491E6185218D491E89B2218586
:1027600022685369DB435B070BD451B100781061D9
:10277000606A401C6062608D401E6085208D401E36
:1027800020852A464946204600F05CFE0028CED12E
:10279000208D0028C5D154F83D0B016841F400712B
:1027A0000160202004F81E09E67766770020C7E75D
:1027B000FFE70220C4E70000020010000000FFFF56
:1027C00030B585B0002100910191029103911E4D19
:1027D00003681E4C122103221D48AB4216D1A36987
:1027E00043F00803A361A369039203F00803049371
:1027F000C023CDE900316946FFF788FDE06940F468
:102800000010E061E06900F4001019E0114DAB42E6
:1028100017D1A36943F00803A361A369039203F0EE
:10282000080304934FF44063CDE900316946FFF794
:102830006DFDE06940F48000E061E06900F4800033
:10284000049005B030BD000000540040001002406C
:10285000000C014000580040024881680278114491
:10286000816070479C000020074810B5016841F066
:1028700010010160032000F075F80F2000F006F849
:1028800000F024F8002010BD0020024070B50D4D6E
:1028900004464FF47A712878B1FBF0F00A490968D0
:1028A000B1FBF0F000F0DCFA48B9102C07D200229E
:1028B0002146501E00F036F800206C6070BD0120EB
:1028C00070BD00009C000020A80000200C4808B546
:1028D000816941F001018161816901F0010100918B
:1028E000C16941F08051C161C06900F08050009021
:1028F0000448416821F0E06141F00071416008BD89
:102900000010024000000140002809DB00F01F0217
:10291000012191404009800000F1E020C0F8001141
:1029200070470000F0B40E4B1B680C46C3F3022343
:10293000C3F10705042D00D90425191D072901D26B
:10294000002300E0DB1E012606FA05F1491E2140A6
:1029500099409E40761E16403143F0BC01F0BDB850
:102960000CED00E0064900F0070208684FF6FF038F
:10297000184040EA0220034A1043086070470000F4
:102980000CED00E00000FA052DE9F0470F460500C8
:1029900061D0434E306800F00700B84209D2306879
:1029A00020F0070038433060306800F00700B8427C
:1029B00051D128683B4C810712D5400703D5606888
:1029C00040F4E06060602878000703D5606840F458
:1029D000605060606068A96820F0F00008436060A3
:1029E0002878C00728D06868012810D021680228FC
:1029F00010D0890700292EDA616821F00301014314
:102A00006160FFF77DFD804641F288390DE0216865
:102A10008903EFE78901EDE7FFF772FDA0EB0801FD
:102A2000494502D90320BDE8F0876068696800F075
:102A30000C00B0EB810FEFD1306800F00700B84216
:102A40000BD9306820F0070038433060306800F060
:102A50000700B84201D00120E5E72878400705D5F6
:102A60006068E96820F4E060084360602878000747
:102A700006D56068296920F4605040EAC1006060B2
:102A800000F038F86168084AC1F30311515CC8408E
:102A90000649086006480068FFF7F8FE0020C2E714
:102AA000002002400010024082470008A8000020D9
:102AB000A00000200448054900684968044AC1F3A1
:102AC0000221515CC8407047A8000020001002405D
:102AD000924700080448054900684968044AC1F360
:102AE000C221515CC8407047A8000020001002407D
:102AF000924700080E4A51680E4801F00C03042B5F
:102B000011D0082B0FD10C48C1F38343C903C05C1B
:102B10000AD55168084AC1F34041921E515C054AEA
:102B20005043B0FBF1F07047044948437047000040
:102B30000010024000127A007247000800093D00B0
:102B40002DE9F84F040070D02078C04DC00749D05F
:102B50006868C0F38100012807D06868C0F381006D
:102B6000022809D16868C00306D52868800339D5D2
:102B700060680028E7D035E06068B0F5803F0BD092
:102B800010B1B0F5A02F11D0286820F48030286053
:102B9000286820F4802002E0286840F48030286013
:102BA000606890B1FFF7ACFC06460AE0286840F484
:102BB00080202860F0E700BFFFF7A2FC801B64289C
:102BC00073D828688003F7D50CE0FFF799FC064618
:102BD00005E000BFFFF794FC801B6428F0D828684C
:102BE0008003F7D420789A4E80074FF001094FF008
:102BF000000839D5686810F00C0F07D06868C0F37A
:102C00008100022809D16868C00306D428688007BB
:102C100014D52069012808D110E02069B0B1C6F8A8
:102C20000090FFF76DFC074605E00AE1FFF768FC3E
:102C3000C01B0228C4D828688007F7D528686169B6
:102C400020F0F80040EAC10028600DE0C6F80080DE
:102C5000FFF756FC074604E0FFF752FCC01B0228B2
:102C600023D828688007F7D4207800072CD5794826
:102C7000A169D9B1C0F80090FFF742FC074604E013
:102C8000FFF73EFCC01B02280FD8686A8007F7D503
:102C900071484FF4FA510068B0FBF1F0009000BFAA
:102CA0000098411E0091FAD20EE080E0C0F800804A
:102CB000FFF726FC074604E0FFF722FCC01B0228B2
:102CC00075D8686A8007F7D42078400760D5E8692E
:102CD0000027C00008D4E86940F08050E861E86946
:102CE000012700F0805000905C480168C90513D4AA
:102CF0000168834641F480710160FFF701FC824660
:102D000006E000BFFFF7FCFBA0EB0A0064284ED8EA
:102D1000DBF80000C005F5D5E06801280AD008B14D
:102D2000052813D0286A20F001002862286A20F0C4
:102D3000040002E0286A40F001002862E06841F2E5
:102D4000883B98B1FFF7DCFB82460BE0286A40F035
:102D500004002862EEE700BFFFF7D2FBA0EB0A01F8
:102D600059455AD8286A8007F6D50CE0FFF7C8FB0A
:102D7000824605E0FFF7C4FBA0EB0A0159454CD899
:102D8000286A8007F6D41FB1E86920F08050E86116
:102D9000E06988B36968C1F38101022944D002283F
:102DA000C6F8608004D0FFF7ABFB044638E034E09F
:102DB000FFF7A6FB074604E0FFF7A2FBC01B0228B3
:102DC0002BD828688001F7D4206AB0F5803F05D160
:102DD0006868A16820F4003008436860D4E90801FD
:102DE0000843696821F4741108436860C6F860906C
:102DF000FFF786FB044606E025E000BFFFF780FBF7
:102E0000001B022809D828688001F7D51BE000BF05
:102E1000FFF776FB001B022802D90320BDE8F88FDC
:102E200028688001F4D40EE00128F7D06868226A8F
:102E300000F48031914204D1616A00F4701088423C
:102E400001D00120EAE70020E8E70000001002407E
:102E50000000424280044242A8000020007000406E
:102E600010B5401EB0F1807F01D3012010BD4FF09E
:102E7000E02460610F21601700F02FFE0020A061A8
:102E800007202061002010BD7047704770B590F892
:102E90003C20012A26D0012480F83C40022280F800
:102EA0003D2003685A689D6822F070060A68324324
:102EB0005A600D4B02689A4208D0B2F1804F05D09B
:102EC0000A4B9A4202D00A4B9A4204D1496825F033
:102ED00080031943916080F83D40002180F83C1048
:102EE000084670BD022070BD002C01400004004067
:102EF0000008004010B5040003D094F83D0010B164
:102F000007E0012010BD002084F83C00204600F0BE
:102F10001FF8022084F83D00211D206800F000FD0C
:102F2000012084F8460084F83E0084F83F0084F8CD
:102F3000400084F8410084F8420084F8430084F89B
:102F4000440084F8450084F83D00002010BD0000D6
:102F500008B50068B0F1804F12D10A48C16941F04C
:102F60000101C161C069002200F00100009011461A
:102F70001C20FFF7D7FCBDE808401C20FFF7C4BCAD
:102F800008BD00000010024090F83D10012901D05A
:102F900001207047022180F83D100168CA6842F0A4
:102FA0000102CA6000680B49884208D0B0F1804F26
:102FB00005D00949884202D00849884204D1816875
:102FC00001F00701062903D0016841F00101016009
:102FD00000207047002C0140000400400008004021
:102FE00070B5044690F83C000025012817D0012652
:102FF00084F83C60022084F83D002068826822F05A
:10300000770222F47F4282600868502838D00DDCB5
:1030100020284FD005DC90B3102811D14AE00220BF
:1030200070BD302846D040280AD13BE060282FD020
:1030300070280DD0B0F5805F03D0B0F5005F12D0DE
:10304000012584F83D60002084F83C00284670BDCE
:10305000CB68D1E90121206800F098FC20688168E4
:1030600041F0770109E0CB68D1E90121206800F047
:103070008DFC2068816841F480418160E1E719E0BE
:10308000CA684968206800F093FC5021206806E077
:10309000CA684968206800F09CFC6021206800F044
:1030A0007FFCCEE7CA684968206800F081FC4021B7
:1030B0002068F4E7226801461046F0E7704770B5D3
:1030C0000446006801694FF00005C943890715D41B
:1030D000C168C943890711D4E91E01610120207725
:1030E000206880698007204602D0FFF7E7FF04E0F0
:1030F00000F098F8204600F096F8257720680169DE
:10310000C943490717D4C168C943490713D46FF0AD
:1031100004010161022020772068806910F4407F5B
:10312000204602D0FFF7CAFF04E000F07BF82046FB
:1031300000F079F8257720680169C943090716D49A
:10314000C168C943090712D46FF008010161042066
:1031500020772068C0698007204602D0FFF7AEFFC5
:1031600004E000F05FF8204600F05DF82577206865
:103170000169C943C90617D4C168C943C90613D434
:103180006FF010010161082020772068C06910F4F9
:10319000407F204602D0FFF791FF04E000F042F8A4
:1031A000204600F040F8257720680169C943C90727
:1031B00008D1C168C943C90704D1891E01612046ED
:1031C00000F032F820680169C943090609D4C168D2
:1031D000C943090605D46FF0800101612046FFF75D
:1031E00053FE20680169C943490609D4C168C9432F
:1031F000490605D46FF040010161204600F020F837
:1032000020680169C94389060BD4C168C94389068E
:1032100007D46FF0200101612046BDE87040FFF740
:1032200034BE70BD704770470068B0F1804F03D165
:103230000248407900F0ACBE70470000000000205A
:10324000704770B5040004D094F84100002510B117
:1032500006E0012070BD84F84050204600F024F8BC
:10326000242084F841002068C16821F40051C16025
:10327000204600F0C1FB2068016921F49041016102
:103280002068416921F02A0141612068C16841F448
:103290000051C1606564202084F8410084F8420038
:1032A0006563002070BD0000F0B585B000240646BF
:1032B00000940194029403940068294988424DD1F6
:1032C0002848816941F480418161816901F480412C
:1032D0000491816941F0040181618069224D00F00F
:1032E000040004904FF4007000900220019003202D
:1032F000039069462846FFF709F82815CDE9000430
:10330000694628460294FFF701F8194D17488027AF
:10331000C5E90004C5E9024720202C61C5E9054044
:103320000002E8612846FEF7B1FF08B1FEF701FF91
:10333000F5636E620D480F4D143801C5102091C51C
:10334000000245F810496C61C5E906400948FEF7DE
:103350009DFF08B1FEF7EDFEB5636E6205B0F0BDEE
:1033600000380140001002400008014058000240AF
:10337000480200208C020020FEE701684A69D2431F
:1033800052050FD46FF480624A61002140F8301F6B
:10339000202242738173026942F0040202610173C8
:1033A0000120704700207047F8B50446C06A1E46E9
:1033B0000D461746082807D0012805D010F5803F94
:1033C00002D0206B122804D12068016841F480717A
:1033D0000160134600224FF001112046009600F0D4
:1033E0005DF840B120680068C00502D54FF4007058
:1033F00020640320F8BD2069B0F5804F0ED0062070
:10340000216800EAD51040F0F000086133463A46E2
:103410000B49204600F08AF878B902E005F0FE007A
:1034200000E0E8B221680861054933463A46891F41
:10343000204600F07BF80028DCD00120F8BD000019
:103440000800010070B516460D4604461EE02046F1
:10345000FFF793FF08B1012070BD681C16D0FFF77D
:103460004FF8801BA84200D885B920684069C04346
:1034700040070BD5002044F8300F20216173A07362
:10348000216941F0200121612073E4E7206840694F
:10349000C0434007DBD4002070BD00002DE9F04799
:1034A000984617460D460446C1F30746DDF82090BE
:1034B0002AE000BFB8F1FF3F26D0FFF721F8A0EBCC
:1034C0000901414502D8B8F1000F1DD12068012E35
:1034D00016D0806925EA00000004000C12D00020FC
:1034E000B84211D1002044F8300F20216173A0733D
:1034F000216941F02001216120730120BDE8F0879E
:103500004069E7E70120EBE72068012E0AD08069D7
:1035100025EA00000004000C06D00020B842C9D003
:103520000020EBE74069F3E70120F7E72DE9F047DA
:10353000984616460D4604464FF000094FF0200A03
:10354000C1F3074723E020684069C043400515D414
:103550002068016841F40071016021686FF48060A7
:103560004861C4F8309084F83DA084F83E90216C06
:1035700041F00401216484F83C9021E0701C06D0E5
:10358000FEF7BEFFA0EB0800B04203D816B1012F32
:103590001FD021E02068012F15D0806925EA0000A6
:1035A0000004000C18D000BF44F8309F84F80DA030
:1035B00084F80E90216941F02001216184F80C907B
:1035C0000120BDE8F087406925EA00000004000CF6
:1035D000EAD12068406901E02068806925EA00009E
:1035E0000004000CAFD1ECE770B516460D4604465A
:1035F0001EE02046FFF7C1FE08B1012070BD681C27
:1036000016D0FEF77DFF801BA84200D885B9206840
:103610004069C04300060BD5002044F8300F20213C
:103620006173A073216941F0200121612073E4E7F7
:1036300020684069C0430006DBD4002070BD000054
:10364000F8B53A4C02FB03F522706370002402E0E7
:103650000E5D0655641CA542FADC0024344E354F3D
:10366000DFF8D4C0DFF8D4E035492BE000EB840567
:10367000ED6AB54207D18D6945F004058D618D690C
:1036800005F004051CE0BD4207D18D6945F0080531
:103690008D618D6905F0080512E0654507D18D69DA
:1036A00045F010058D618D6905F0100508E0754540
:1036B00007D18D6945F020058D618D6905F02005E4
:1036C0000095641C9442D1DB00222BE000EB8204C5
:1036D000E46CB44207D18C6944F004048C618C69B9
:1036E00004F004041CE0BC4207D18C6944F00804D7
:1036F0008C618C6904F0080412E0644507D18C6980
:1037000044F010048C618C6904F0100408E07445E6
:1037100007D18C6944F020048C618C6904F020048A
:103720000094521C9A42D1DBF8BD000094000020A6
:1037300000080140000C014000100140001401404D
:103740000010024070B50446FEF7DAFE074D6968C6
:10375000401A0A2807D900202075204600F008F8F2
:10376000FEF7CEFE6860207D70BD00009400002052
:103770002DE9F04F0546002085B0064600900190E7
:1037800002904FF0010A2D4C814603900DE000BFDE
:1037900005EB46006946B0F840008DE8010605EBF0
:1037A0008600C06AFEF7B2FD761C20788642EFDB09
:1037B00000273BE005EB4706049636F85C0FCDE9A1
:1037C000000A0320CDE9029005EB870BD846694635
:1037D000DBF84C00FEF79AFD31880022D8F84C0047
:1037E000FEF789FE002615E005EB460005EB86088E
:1037F000B0F84010D8F82C00FEF778FEE0B10020B9
:1038000008EB0701487520B160787043E919405C06
:103810002875761C20788642E6DB04980122B0F8F1
:103820005C10DBF84C00FEF766FE7F1C6078874278
:10383000C0DB05B0BDE8F08F0120E1E79400002077
:1038400010B586B0002417480094019402940394A4
:1038500004944FF080410594016040F21F11C0E9CB
:1038600001144FF22341C0E903148461FFF742FBC6
:1038700008B172B6FEE74FF48050009069460948DF
:10388000FFF7AEFB08B172B6FEE7049404A9054841
:103890000594FFF7FBFA002801D072B6FEE706B0E8
:1038A00010BD0000B8010020FEE7FEE7704770473A
:1038B000FEF7D2BF30B58FB028216846FCF750FD27
:1038C00014210AA8FCF74CFD01210804CDE90010E1
:1038D0000024029402250491CDE907504FF4E01032
:1038E00009906846FFF72CF908B172B6FEE70F2081
:1038F000CDE90A054FF48060CDE90C4002210AA809
:103900000E94FFF741F8002801D072B6FEE70FB021
:1039100030BD70470148FFF7D2BB0000B80100205E
:10392000F0B50268164B174C174D4FF08047984280
:1039300005D0B84203D0A04201D0A84203D122F062
:1039400070064A683243984205D0B84203D0A0427C
:1039500001D0A84203D122F44074CA6822434C69C2
:1039600022F08002224302608A68C2620A68826290
:10397000984201D10969016301214161F0BD000054
:10398000002C0140000400400008004010B584688D
:1039900042EA032224F47F440A432243826010BD9A
:1039A000826822F070020A4342F00701816070478A
:1039B00010B5036A046A24F001040462846924F0E7
:1039C000F00444EA021423F00A020A43846102620A
:1039D00010BD10B5036A046A24F0100404628469FF
:1039E00023F0A00324F4704444EA023243EA0111B4
:1039F0008261016210BD000070B504460068016973
:103A0000E26821F44051114301612169A068084333
:103A1000616908432168CA6841F20C639A43024312
:103A2000CA6020684169A26921F440711143416173
:103A30001E492068884202D1FFF74CF801E0FFF7E9
:103A400039F800EBC00101EB0012606864218000CE
:103A5000B2FBF0F3B3FBF1F36FF018067343B2FB64
:103A6000F0F5B2FBF0F605EB8305322303EB051509
:103A7000B5FBF1F5B6FBF1F605F0F00505EB061523
:103A8000B2FBF0F6B2FBF0F0B0FBF1F06FF0180211
:103A9000504306EB800003EB0010B0FBF1F021680F
:103AA00000F00F002844886070BD0000003801401D
:103AB000FEE7490050EAC12018BF04204A0D18BF94
:103AC00040F0010040F2FF72B2EB515F08BF40F0DE
:103AD0000200012808BF052070470907090E0028C9
:103AE00004DB00F1E02080F80014704700F00F00C4
:103AF00000F1E02080F8141D704740F201320020F0
:103B00004FF0E04100F0E3BD024A0020110700F051
:103B1000DEBD000001FDFFFF10B50446D1E9000144
:103B200000F002F8206010BDF8B504460D466A4664
:103B300000F06AF800987E30009000281EDC002219
:103B400013462046294600F013FC17D0002140F60A
:103B500008004FF0000006462046294600F0C2FB50
:103B6000044640F6080006EA00014FF0000034F079
:103B7000004004BF0220FDF7F6FB29E00098FF2873
:103B800028DB002108464FF0000000F44006002228
:103B900013462046294600F0B7FC8CBF00250125BE
:103BA0000220FDF7E0FB4FF0FF4446B1002D0CBFB3
:103BB0004FF400004FF48000B04218BF084C0421BD
:103BC00008464FF00000002D04BF84F00040F8BD0F
:103BD0002046F8BD20462946BDE8F84000F082BBEB
:103BE000FFFF7F7F10B504460A46D4E9000319465B
:103BF00000F098F8C4E9000110BD30380A2801D25D
:103C0000012070470020704710B514460022226042
:103C1000114A21F000439342A8BF10BD53EA0002AD
:103C200008BF10BDB3F5801FA8BF226807DA36228F
:103C300000F04DFD6FF0350221F000432260DFF807
:103C40001CC06FF31E510CEB23531A4441F0FF517B
:103C500041F00051226010BD0000F07F02FCFFFF28
:103C600010B5012000F050F9BDE810400220FEF729
:103C70003BBB0000124910B50860202000F044F959
:103C80000A20FEF731FB282000F03EF90120FEF764
:103C90002BFB082000F038F90120FEF725FB01205E
:103CA00000F032F90220FEF71FFB062000F02CF98D
:103CB0000120FEF719FBBDE810400C2000F024B9EC
:103CC0008C00002000B585B000F054FC02460B4685
:103CD00004A16846FCF78AFA684600F007F805B0C8
:103CE00000BD0000252E33660000000010B504461C
:103CF00002E0641C00F02AF920780028F9D110BDF8
:103D00001CB5074BD3E90023CDE900231DF81110A2
:103D10000844C0B240F0800000F0F6F81CBD00007E
:103D2000684700082DE9F04106460C4640F2FF7551
:103D3000174635EA14502BD000221346304600F0C7
:103D400017FB25D03A463046214600F0C0FC064617
:103D50000C4635EA145010D000221346304600F0CD
:103D600007FB15D10220FDF7FEFAFFF7CDFE0A464C
:103D7000214662F31E01BDE8F0810220FDF7F3FA4F
:103D8000FFF7BBFE0A46214662F31E01BDE8F08143
:103D900030462146BDE8F08108B5FEF765FDFFF726
:103DA00089FD5048816941F020018161816901F0FC
:103DB00020010091816941F008018161816901F070
:103DC00008010091816941F004018161816901F07C
:103DD00004010091416941F0010141614069002203
:103DE00000F00100009011460E20FEF79BFD0E2012
:103DF000FEF78AFD002211460F20FEF793FD0F20EB
:103E0000FEF782FD39483849394E00240160C0E987
:103E100001640D14C0E9034544618461C461046216
:103E2000FEF774FB08B172B6FEE7304831495430F2
:103E30000160C0E90164C0E9034544618461C46173
:103E40000462FEF763FB08B172B6FEE727482A4911
:103E5000F03001604FF41641C0E901140C21C46038
:103E6000C0E904418461C461FFF7EBF908B172B69F
:103E7000FEE7FFF7E5FC1D485430FFF7FBFE1F4847
:103E80000124447104701948A830FFF77DF81748E1
:103E90001B496438022240F82C1F4B1482820422F2
:103EA0004160C2820822816002831022C160428385
:103EB000202201618283134A0262038642624586A0
:103EC00082629A008286C162C4860C490748042334
:103ED000052275316438FFF7B3FB00BF00F04EF9DF
:103EE000FCE70000001002400054004010010020D8
:103EF000A08601000058004000380140000000206A
:103F0000000801400010014008B500F0F0020E4921
:103F100042F00C0342F008020B704A70000140F0BE
:103F20000C028A7040F00800C87064200A460090B5
:103F3000101F04234E210068FEF7ACFB08B10220DD
:103F400008BD012008BD00009000002008B500F069
:103F5000F0020E4942F00D0342F009020B704A7064
:103F6000000140F00D028A7040F00900C870642022
:103F70000A460090101F04234E210068FEF78AFBBA
:103F800008B1022008BD012008BD000090000020FB
:103F900010B500287DD0674C012817D0022878D1B1
:103FA00000210846FFF7ACFE63A0FFF79FFE01214A
:103FB0000020FFF7A5FE62A0FFF798FE0321002076
:103FC000FFF79EFE207900287ED0A9E0594862784C
:103FD000C07841B212B1012A2BD07EE00A20FFF74F
:103FE0008FFE59A0FFF782FE00210846FFF788FEEA
:103FF00056A0FFF77BFEA06AFFF764FE01210020B8
:10400000FFF77EFE53A0FFF771FEE06AFFF75AFE4E
:1040100002210020FFF774FE50A0FFF767FE206B1F
:10402000FFF750FE03211120FFF76AFE41480830D8
:1040300051E0032801D2082002E0C01E41B2122044
:10404000FFF75EFE40A0FFF751FE00210846FFF794
:1040500057FE44A0FFF74AFE2069FFF733FE012117
:104060000020FFF74DFE40A0FFF740FE6069FFF71C
:1040700029FE02210020FFF743FE3CA0FFF736FE99
:10408000A069FFF71FFE00210A20FFF739FE38A0C4
:1040900000E04EE0FFF72AFEE069FFF713FE012182
:1040A0000A20FFF72DFE33A0FFF720FE206AFFF75E
:1040B00009FE02210A20FFF723FE2FA0FFF716FEBC
:1040C000606AFFF7FFFD00E026E003211120FFF703
:1040D00017FE18480C30FFF709FE03210020FFF7F8
:1040E0000FFEA07818B913483830FFF7FFFDA0780D
:1040F00001280BD10F483D30FFF7F8FD03210520C3
:10410000FFF7FEFD0B485630FFF7F0FDA0780228C0
:104110000FD10848423008E006484E30FFF7E6FD70
:104120002079012805D103484730BDE81040FFF74A
:10413000DDBD10BD000000204D656D6F727900007F
:1041400053706565640000003C00000058504F53F8
:104150003A00000059504F533A0000005A504F5354
:104160003A00000041313A0041323A0041333A000E
:1041700041343A0041353A0041363A002DE9F047E2
:104180003F48FFF7DFFA3F4CE071A179884202D047
:1041900008B1FFF765FD607901286AD1E079002652
:1041A000572804D052280DD054281ED061E0A079A1
:1041B00057285ED06078401CC0B26070022858D387
:1041C000667056E0A079522853D0E078401CC0B207
:1041D000E070617811B1012904D04AE0022848D981
:1041E000E67046E00528FBD843E0A079542840D08B
:1041F000A078401CC0B2A070012836D1DFF88490AE
:10420000002509F16A09A9F114071D48FFF79AFA78
:10421000E071A179884202D008B1FFF721FDE07971
:10422000A37900210246CC461CF80180904504D1B8
:10423000934202D07A556D1CEDB2491C0B29F3D381
:104240003C2802D03E2807D017E03C2B15D06D1E2D
:10425000EDB23021795510E03E2B0ED0094A0AA16B
:10426000343202F12200FCF75DF8A078022800D970
:10427000A670E079A071BDE8F087A071C5E70000E5
:10428000AC000020000000202566000010B50029C9
:104290000AD00878002807D005487844FDF79EFA30
:1042A000002801D0002010BD0248784410BD000055
:1042B000C6050000BE05000010B500290AD0087828
:1042C000002807D005487844FDF788FA002801D077
:1042D000002010BD0248784410BD0000B605000063
:1042E000AE05000021F00042A2F16052B2F5801F3D
:1042F00001F0004328BFD2F17F6C0BD95FEA001CAC
:1043000043EAC20242EB507018BF704728BF20F04A
:1043100001007047B2F5801FBCBF184670474FEAD6
:10432000410C1CF5001F02D2084600F094B970B58C
:1043300000F096F800000089FFF7F6BF4FF000404C
:10434000A0F580007047000002494FF0000000F027
:104350008CB900BF0000F87F491058BFC1F140413F
:104360005B1058BFC3F140438B42EFF300807047AE
:1043700051EA030C17D41CF5801F58BFBCF5801FF1
:1043800000F10680994218BF704708BF90427047FD
:1043900007D711F5801F58BF13F5801F19D4994214
:1043A0007047894270471CF5801F08D5BCF5801FF7
:1043B000F7D58B4218BF704708BF824270474FF451
:1043C000001C1CEB410F38BF1CEB430F01D28B428A
:1043D000704770B500F044F8922449004FF0005146
:1043E0004FF08053FFF7B8BF51EA030C17D41CF508
:1043F000801F58BFBCF5801F00F10680994218BF8E
:10440000704708BF9042704707D711F5801F58BF0B
:1044100013F5801F19D499427047894270471CF5E3
:10442000801F08D5BCF5801FF7D58B4218BF704799
:1044300008BF824270474FF4001C1CEB410F38BF8D
:104440001CEB430F01D28B42704770B500F008F8A7
:10445000922449004FF000514FF08053FFF77CBF8A
:104460000EF1020E2EF0030E5EF8046B364205D4F8
:10447000012A43EB030515F5001F12D8012841EB73
:10448000010C1CF5001F0CD80ED14FEAD17C15F59C
:10449000001F0CEB4C0C0CF1020C08BF4CEBD37C56
:1044A00004E04FF0080C01E04FEAD37C0CEB4C0524
:1044B00026FA05F606F00706B6F1040C06D20EEB56
:1044C000860CBDE870404CF0010C6047DFE80CF052
:1044D000090B02024FF000414FF00000A1F500214E
:1044E00070BD19461046012851EB010418BFD4F5E0
:1044F000001484BF002001F0004170BD0808A0F541
:1045000000114FEA3101704753EA010C17D41CF532
:10451000801F58BFBCF5801F00F106808B4218BF7A
:10452000704708BF8242704707D713F5801F58BFF6
:1045300011F5801F19D48B4270479B4270471CF5C0
:10454000801F08D5BCF5801FF7D5994218BF70476A
:1045500008BF904270474FF4001C1CEB430F38BF5C
:104560001CEB410F01D2994270470FB40CBC03BC45
:10457000FFF76BBF43004FEAD30C4FEA3C0C4340BC
:104580001FBF40070CF1605113F0FE4F70471CF045
:10459000006F03D100200CF0004170470CF0004385
:1045A00043EA507010B540EACC0000F00EF800BFAE
:1045B000000000924FEA0001FFF7A0BF4FF000415A
:1045C0004FF00000A1F5002170470EF1020E2EF011
:1045D000030E5EF8044B244204D44FEA4102B2F1C8
:1045E0007F4F11D84FEA4003B3F17F4F0CD80ED163
:1045F0004FEAD07CB2F17F4F0CEB4C0C0CF1020C6B
:1046000008BF4CEBD17C04E04FF0080C01E04FEA0E
:10461000D17C0CEB4C0324FA03F404F00704B4F14E
:10462000040C06D20EEB840CBDE810404CF0010CDB
:104630006047DFE80CF0070802024FF00040A0F5E9
:10464000800010BD0846420018BFD2F1807288BFBA
:1046500000F0004010BDFF2141EAD050C005704776
:104660004FF000007047FBF77EBF0CF00F03092BE3
:1046700008BF082000F05F800A2B0BD0082B18BF62
:10468000704708BF1CF0400F0AD04FF000004FF0F9
:10469000000170471CF0400F18BF4FF000407047FA
:1046A0001CF0100F08D020F0704300F07F4242EA67
:1046B000D3014FEA4370704700F0604021F07F4221
:1046C00042EA000201F07F4040EA727070474FF00A
:1046D000FF0C4CF4E06C1CEA11531CBF9CEA030C69
:1046E0009445C2BFDA4201EB02517047002B0DD056
:1046F000BCF1000F0FD0002A01F00041A4BF41F02F
:10470000E04141F07F614FF00000704701F000414F
:104710004FF00000704750EA01334FF09B0C18BF78
:104720004CF0806C7FF410AE7047FCF797B9FCF743
:1047300021BEFCF7AFBF1CF4801F11D01CF4E02F8A
:1047400003D06FEACC31490070474FF04050EFF38F
:10475000008222F0704242EA000282F30088704731
:104760004FF00000704700000000400014005400AB
:10477000010202030405060708090A0B0C0D0E0FBF
:1047800010100000000000000000010203040607F2
:1047900008090000000001020304000002400000BC
:1047A000000000A00000000005400000000000C85C
:1047B000000000000C4000000000409C00000000D1
:1047C000194000000020BCBE000000003440000082
:1047D000BFC91B8E00000004B5400000504BCFD075
:1047E0006607E2CF010000006C4100003E8251AA42
:1047F000DFEEA73401000000D9420000DCB5A0E2E2
:104800003A301F97FFFFFFFFB4450000FD25A0C809
:10481000E9A3C14FFFFFFFFFFF3F00000000008042
:1048200000000000FF3F00000000008000000000CA
:104830008C49000800000020AC000000280100089E
:10484000384A0008AC000020840800004401000839
:10485000000000000000F07FFFFFFFFFFFFFEF7F81
:104860001C00000043000000F8FFFFFF0C000000E8
:104870000E0000000F0000002E00000010010000DC
:1048800043000000F8FFFFFF004040404040404030
:104890004040414141414140404040404040404013
:1048A00040404040404040404005020202020202B7
:1048B0000202020202020202022020202020202006
:1048C000202020020202020202029090909090901A
:1048D00010101010101010101010101010101010D8
:1048E000101010100202020202028888888888884C
:1048F0000808080808080808080808080808080838
:10490000080808080202020240000000000000003F
:104910000000000000000000000000000000000097
:104920000000000000000000000000000000000087
:104930000000000000000000000000000000000077
:104940000000000000000000000000000000000067
:104950000000000000000000000000000000000057
:104960000000000000000000000000000000000047
:104970000000000000000000000000000000000037
:104980000000000000000000000000000000000027
:1049900000000000504F5300414E4700000000004F
:1049A0000000000000000000000000000000000007
:1049B00000000000000000000000000000000000F7
:1049C00000000000434F4E540044495354005354D8
:1049D00045500052455045415400504154544552B1
:1049E0004E00302E3030300000000000000000008B
:1049F00000000000000031323334353637383930AA
:104A00002E515752543132335534353644373839B4
:104A10002E3C303E2300000000000000000000009B
:104A20000000000000000000010000001000000075
:084A3000000000000024F40066
:04000005080000ED02
:00000001FF
