:020000040800F2
:1000000048340020990200088B4A00080343000886
:10001000894A0008D1280008855200080000000025
:1000200000000000000000000000000001020008C5
:10003000D32800080000000045020008194E0008FF
:10004000B3020008B3020008B3020008B3020008BC
:10005000B3020008B3020008B3020008B3020008AC
:10006000B3020008B3020008B3020008B30200089C
:10007000B3020008B3020008B3020008B30200088C
:10008000B3020008B3020008B3020008B30200087C
:10009000B3020008B3020008B3020008B30200086C
:1000A000B3020008A94E0008B3020008B30200081A
:1000B000B3020008B3020008B3020008B30200084C
:1000C000B3020008B3020008B3020008B30200083C
:1000D000B3020008A9510008B3020008B3020008E7
:1000E000F1290008B3020008B302000800F002F88A
:1000F00000F077F80AA090E8000C82448344AAF14B
:100100000107DA4501D100F06CF8AFF2090EBAE848
:100110000F0013F0010F18BFFB1A43F0010318473B
:10012000CC9C0000EC9C00000A444FF0000C10F83E
:10013000013B13F0070408BF10F8014B1D1108BF65
:1001400010F8015B641E05D010F8016B641E01F805
:10015000016BF9D113F0080F1EBF10F8014BAD1C55
:100160000C1B09D16D1E58BF01F801CBFAD505E073
:1001700014F8016B01F8016B6D1EF9D59142D6D3CD
:10018000704700000023002400250026103A28BFF5
:1001900078C1FBD8520728BF30C148BF0B607047F9
:1001A000662909F0A084642900F04281782900F0D2
:1001B0007B81002070471FB59DE8030000F052FBD3
:1001C00001F00AF904000020002109F043FA401C64
:1001D00060600020002109F027FAE0601FBD10B523
:1001E00010BD01F029FC1146FFF7E5FF05F060FAAC
:1001F00001F08AFE03B4FFF7F2FF03BC01F0FAFE40
:10020000224B19680868B0E8F00F80F30988BFF343
:100210006F8F4FF0000080F311884EF00D0E704785
:100220000000000006480068006880F3088862B695
:1002300061B6BFF34F8FBFF36F8F00DF00BF00BF0A
:1002400008ED00E0EFF30980BFF36F8F0F4B1A68E2
:1002500020E9F00F106008B54FF0500080F31188CE
:10026000BFF34F8FBFF36F8F08F0AEFB4FF000006E
:1002700080F31188BDE8084019680868B0E8F00FFD
:1002800080F30988BFF36F8F704700BF9001002093
:10029000EFF3058070470000094880470948004790
:1002A000FEE7FEE7FEE7FEE7FEE7FEE7FEE7FEE726
:1002B000FEE7FEE704480549054A064B7047000083
:1002C000A54E0008ED000008482E0020483400200C
:1002D000483000204830002070B5064600F0A2FAF1
:1002E000056806F10B0020F00704B4429CBF002013
:1002F00070BD2B466A68BAB11068A04210D304F1F1
:10030000080188423CBF5068586007D351681019F3
:1003100041601168091B016058601460101D70BDB8
:1003200013465268002AE7D12146284600F086FA93
:100330000028DED170BD70B50446051F00F072FACA
:100340000068002C14BF446870BD002C18BFAC427C
:100350003CBF20466468F8D301680A18AA4218BF57
:10036000456003D12A680546114401602868411997
:10037000A1421CBF6C6070BD61686960216808445F
:10038000286070BD0FB41CB5074B06AA7B446946B4
:100390000090059800F009FD0020694600F018FD66
:1003A0001CBC5DF814FB0000410A00000FB41CB532
:1003B0000C0007AA009001D02044401E074B7B444C
:1003C00069460190069800F0F0FC002C03D06946C5
:1003D000002000F0FDFC1CBC5DF814FB190A0000B5
:1003E00070B5044685690068C10601D5302600E075
:1003F0002026C00707D070BDD4E9012130469047C0
:10040000206A401C20626D1EF6D570BD70B5044692
:1004100085690078C00707D170BDD4E9012120208B
:100420009047206A401C20626D1EF6D570BD00000A
:100430002DE9F0410646002410687529314616A5BD
:1004400010D0AFF30080002802DA404213A507E085
:1004500031688A0701D512A502E0490704D511A524
:10046000012401E0AFF3008000210A2206F12407F5
:1004700009E0B0FBF2FCB0FBF2F302FB1C003030F1
:1004800078541846491C0028F3D123462A463046A2
:10049000BDE8F04100F01CBA000000002D00000093
:1004A0002B0000002000000070B504460D462146D8
:1004B0001068AFF300802188090502D50F4A7A44FD
:1004C00002E00E4A7A440E32002104F1240305E0D2
:1004D00000F00F060009965D5E54491C0028F7D114
:1004E00020780023000704D5702D02D009B1022323
:1004F00011322046BDE8704000F0EAB924980000AF
:100500002DE9F05F894604464FF0000ADFF824B178
:10051000FB44C0F820A02046E168884700287DD031
:10052000252806D0D4E901219047206A401C20628A
:10053000F1E700255F462046E16888472028064607
:1005400007DB312E05D2B81910F8200C08B105438D
:10055000F1E7A80701D525F00405C4F81CA0002781
:10056000C4F818A02A2E09D0304604F030FF38B362
:1005700004EB8708303EC8F8186019E059F8041BEE
:10058000204604EB87029161E1688847012F064607
:1005900018D1E069002820DA25F020051DE0D8F800
:1005A000180000EB800006EB40003038C8F8180057
:1005B0002046E1688847064604F009FF0028EED18E
:1005C000012F0AD02E2E08D12046E16888477F1CD3
:1005D0000646022F45F02005C4DBA069002803DA97
:1005E000404245F00105A061E80701D025F0100563
:1005F000A6B1A6F14100192802D8203645F40065BD
:100600004A463146204625604D46FFF7C9FD60B198
:10061000012807D0ED1D25F0070000E007E000F1FC
:10062000080978E705F1040975E730467AE7206A9A
:10063000BDE8F09FFA9700000FB400B58DB010A987
:10064000099000910B904FF0FF300A9000200C9021
:10065000064878440690064878446A4607900F9901
:1006600009A800F045FE0DB05DF814FBBB0C0000BE
:10067000D30C000070B5064600F0D8F804680546B3
:1006800030460A22002100F063FE2C6070BD032A70
:1006900040F2308010F0030C00F0158011F8013B9F
:1006A000BCF1020F624498BF11F801CB00F8013B86
:1006B00038BF11F8013BA2F1040298BF00F801CB4A
:1006C00038BF00F8013B11F0030300F02580083A21
:1006D000C0F0088051F8043B083A51F804CBA0E878
:1006E0000810F5E7121D5CBF51F8043B40F8043BCD
:1006F000AFF30080D20724BF11F8013B11F801CB02
:1007000048BF11F8012B24BF00F8013B00F801CBD2
:1007100048BF00F8012B704710B5203AC0F00B809D
:10072000B1E81850203AA0E81850B1E81850A0E8F5
:100730001850BFF4F5AF5FEA027C24BFB1E818504F
:10074000A0E8185044BF18C918C0BDE810405FEABF
:10075000827C24BF51F8043B40F8043B08BF70473B
:10076000D20728BF31F8023B48BF11F8012B28BF40
:1007700020F8023B48BF00F8012B704702F0FF034E
:1007800043EA032242EA024200F002B84FF00002BC
:100790000429C0F0128010F0030C00F01B80CCF193
:1007A000040CBCF1020F18BF00F8012BA8BF20F801
:1007B000022BA1EB0C0100F00DB85FEAC17C24BF55
:1007C00000F8012B00F8012B48BF00F8012B7047FF
:1007D0004FF0000200B5134694469646203922BFDA
:1007E000A0E80C50A0E80C50B1F12001BFF4F7AF25
:1007F000090728BFA0E80C5048BF0CC05DF804EB07
:10080000890028BF40F8042B08BF704748BF20F874
:10081000022B11F0804F18BF00F8012B7047704772
:100820007047704700487047EC2D00200048704723
:10083000E42D0020704770477047704738B5044674
:100840000A4600206946AFF30080002808BF38BD83
:1008500002460099204600F0C3FD012038BD01206A
:1008600001F0E2B8F8B5AFF30080054600200C4671
:10087000102000BF0646A819A0420DD9324669468D
:100880000020AFF30080070008BF01F0CDF800980A
:10089000A04218BF0546C419FFF7C4FF056007460C
:1008A000F01D20F007004619284600F00AF8B4426F
:1008B00008BFF8BDA21B31463868BDE8F84000F01B
:1008C0008FBD00210160C0E9011070471020704702
:1008D0002DE9F0470D4699469246044600F124085A
:1008E0000168880604D5E06921F01001216000E06C
:1008F0000120A84201DD471B00E00027A1697A1909
:1009000002EB0900081AA0612078C00602D4204634
:10091000FFF766FD002608E0D4E901211AF8060079
:100920009047206A401C761C20624E45F4DB2078FC
:10093000C0060AD52046FFF753FD06E0D4E90121A1
:1009400030209047206A401C2062381EA7F1010722
:10095000F4DC07E0D4E9012118F805009047206A8B
:10096000401C2062281EA5F10105F3DC2046FFF79C
:100970004DFD2078000602D50220BDE8F087012059
:10098000FBE770472DE9FF4F0C461E464FF0FF373F
:100990008BB0D2E90001DDF860800A908A46C1F38D
:1009A0000A5505B93D46002108464FF00000BAF14E
:1009B000000F00F4400005DA00EB80004FF4400126
:1009C00001EA50004FEA9059B9F1010F00DDB94634
:1009D0000A9850EA4A000ED044F61050A5F2FF35AE
:1009E00045432F14B8F1000F1ED07542291E1EDD9D
:1009F000C9F100021CE0B8F1010F4FF0000001D076
:100A0000302103E0F24305E02154401CB042FBDBFF
:100A100030460022002121540B99C1F80880C1E919
:100A200000200FB0BDE8F08FBD1B6D1CDEE74A460D
:100A300000DA694206A800F085FF06AB93E80700DC
:100A400003AB83E8070050460A9901F00CFB8DE8E0
:100A50000700A0F500501F3800900398002D0ADD14
:100A600042F21F014A460844002303A90390684646
:100A700001F0B8FD09E0A0F500504A461F380023F8
:100A800003A90390684601F0D7FD8DE80700000434
:100A9000000C03D04FF0FF30410800E01046B8F1E1
:100AA000000F03D00022009215461EE0751E05D4EB
:100AB00000F0B0FC303262556D1EF9D5B34601220C
:100AC000084302D000227F1C04E02078302801D1A6
:100AD00000227F1E002A099784D01DE0112D07DA1D
:100AE00000F098FC303262556D1C50EA0102F5D1DD
:100AF000084302D00098C8B10EE00021681E05E04E
:100B0000235C625C63542254401E491C8142F7DB23
:100B1000AB46A81B401E0990002004F80B000B9860
:100B2000099AC0F80880C0E9002B7AE711264FF037
:100B3000000857E72DE9F04F88460446D21D22F001
:100B4000070191B0D1E90001CDE90A0104F09BFB56
:100B500002460B98C00F01D02D2007E020688107C6
:100B600001D52B2002E0202101EAC000032A0990D0
:100B700001D0072A05DB03464146204600F098FCD9
:100B80000BE12078800601D5E06900E00620B8F18D
:100B9000650F814606D0B8F1660F18D0B8F1670F1F
:100BA00070D131E00020B9F1110F009001DB112369
:100BB00001E009F101030AAA01A90CA8FFF7E2FE6E
:100BC000DDE90C70002609F10105834647E00120AC
:100BD0004B4600904FF000470AAA01A90CA8FFF766
:100BE000D1FEDDE90DB00C995D46002610B909F182
:100BF00001000D18B9EB050003D4C0F1FF3609F16F
:100C00000105A5EB09002BE0B9F1010F01DA4FF066
:100C100001090020B9F1110F0090484601DD1123B0
:100C200000E003460AAA01A90CA8FFF7ABFEDDE924
:100C30000C704D4600268346207800070AD4AB4549
:100C400000DA5D4601A8012D04DD411911F8011CEF
:100C5000302907D04F4502DA17F1040F04DA0120DA
:100C600082460FE06D1EEEE7002F02DCED1B3E44D6
:100C700003E0781CA84200DD7D1CB81B00F1010ACE
:100C80004FF000472078000703D4AA4501DB4FF05E
:100C9000FF3A0021B7F1004F0DF143088DF84310E2
:100CA00024D002202B23002F01DA7F422D230A219A
:100CB000021EA0F1010000DC5FB197FBF1FC97FB85
:100CC000F1F201FB1C7C17460CF1300C08F801CD49
:100CD000EEE7A8F1010003702188090501D545213F
:100CE00000E06521A0F1010800F8011C09980FA996
:100CF000A1EB0807FF1D00B10120411901EBEA70CB
:100D0000A1693844081A401EA0612078C00602D4A8
:100D10002046FFF765FB099828B1D4E901219047E7
:100D2000206A401C20622078C00622D52046FFF7AA
:100D300057FB1EE0002E04DBB34502DD01A8805DF9
:100D400000E03020D4E901219047206A401C206255
:100D5000761CAAF101005FEA000A0AD100F03CFB10
:100D6000C0680168405CD4E901219047206A401CBA
:100D70002062281EA5F10105DCDC07E0D4E9012191
:100D800018F8010B9047206A401C2062381EA7F11A
:100D90000107F3DC2046FFF739FB032011B041E6E1
:100DA00001694A1C02610878704700B58FB0CDE92F
:100DB00001310021059105497944CDE9031011461F
:100DC0006846FFF79DFB0FB000BD0000E5FFFFFF89
:100DD0000A6802F8010B0A607047D1E900239A42C1
:100DE00002D2531C0B601070704700002DE9FF4FBA
:100DF00006468BB00878FF2806D0491C2D2805D060
:100E000000244FF0000908E000200CE00124F8E77E
:100E100009EB8903491C00EB43090878FF28F7D147
:100E200014B1C9F100008146107800252C46AA466D
:100E300029462D2801D02B2804D1521C2D2813D04F
:100E4000002082468B461078FF280FD04FF0000C10
:100E50000A21521CA5FB017804FB018105FB0C1142
:100E6000C5194BEB0104EEE70120EAE70021084633
:100E70004FF00000BAF1000F02D000EB80004008F4
:100E8000C0F38157012F01DD4FF0FF370E9955EA6E
:100E9000040009EB01080BD04FF0020918F5FA7FA6
:100EA00016DA4FEACA70002F706008DD012007E0F3
:100EB0004FEACA70C6E900B00FB0BDE8F08F00205D
:100EC0003060FFF7B3FCC0F800901821084616E028
:100ED000B8F5FA7F18DD002F02DAF748784401E010
:100EE000F6487844D0E90010C6E9001040EACA701C
:100EF0007060FFF79BFCC0F80090142108460FB00B
:100F0000BDE8F04F08F0ECBD002108464FF00000AE
:100F1000B8F10001099002DAC7F1000200E03A4698
:100F200001DAC8F1000106A800F00CFD06AB93E859
:100F3000070003AB83E8070044F23E005BEA0401CC
:100F40000090584604D144F21E012C465D460091A3
:100F5000210C0904014306D10099240444EA1544F4
:100F60002D041039009104F07F41014306D100990E
:100F7000240244EA15642D020839009104F07041FE
:100F8000014306D10099240144EA15742D01091F7B
:100F9000009104F04041014306D10099A40044EAC5
:100FA0009574AD00891E009104F00041084304D1FE
:100FB00000986D196441401E00904FF001033A46BD
:100FC0006846B8F1000FCDE9014503A902DD01F043
:100FD00048FB01E001F01BFBBAF1000F04460D468F
:100FE00001D084F00044002108464FF00000099928
:100FF00040F2FF77484010F00C0F07D124F000407A
:10100000284303D0C4F30A50B84212D1FFF70EFCB4
:10101000C0F80090C4F30A50B8420AD1A8487844F6
:10102000D0E90010C6E9001004F0004108437060E8
:1010300042E7C6E900543FE72DE9FF4F1F464FF056
:10104000000A4FF0FF38454691B0D7E90146CDF888
:101050003CA000F0C1F9C0680168405C1090B9691B
:1010600012986D1C8847396A814688470028F6D156
:10107000B9F1FF3F0AD0002E24F4D06411DDB9F19C
:101080002B0F08D0B9F12D0F0BD102E0404615B05F
:1010900013E744F48064B96912986D1C8847761E82
:1010A0008146600504A901D52D2000E02B20002EEB
:1010B00001F1010B0DF130088DF810003FDDB9F1A1
:1010C000690F08D0B9F1490F05D0B9F16E0F02D000
:1010D000B9F14E0F1CD13B4601A8009580E85002A3
:1010E000DDE912126FF0020008F063FDC11CCED1E1
:1010F0000EE0B96912986D1C884781461398761ED8
:1011000044F4007405600F98401C002E0F9016DD0B
:10111000B9F1300FEDD0B9F1780F02D0B9F1580F15
:101120000DD10F9801280AD13B46CDE90054DDE9E5
:101130001212001F029608F03AFDC11CA7D11099A7
:1011400089453ED144F0800406E01399681CAAF159
:10115000010A44F400740860B9696D1C1298761E87
:10116000884730288146F0D02BE01099894505D179
:10117000200603D4761E44F0800418E0484604F0AC
:1011800026F908B3761E0DF123018B4544F4007453
:1011900008D2A9F130000BF8010B200607D5AAF1FF
:1011A000010003E0200602D40AF101008246A005F6
:1011B00002D51399681C0860B96912986D1C88479C
:1011C0008146002ED1DC53E0002E51DDB9F1650FD0
:1011D00002D0B9F1450F4BD1A00549D5B9696D1CB5
:1011E0001298761E24F440748847002E81460CDD48
:1011F0002B2804D0B9F12D0F07D144F48074B969BC
:1012000012986D1C8847761E8146E00501D52D2178
:1012100000E02B2108F8011BCDF8008021E0761EAC
:101220000DF13901884544F400740CD2A9F1300065
:1012300010F0FF0088F8000002D10099884509D914
:1012400008F1010806E0E00501D51E4801E042F280
:101250000F708246B96912986D1C884781461398B1
:101260000560002E04DD484604F0B1F80028D6D110
:10127000F96912988847FF2053468BF8000088F8D8
:10128000000000200A900B9004AA0CA90AA8FFF7FE
:10129000ADFDA00502D46FF00100F8E614F0240FB4
:1012A00012D0E0071CD13868DDE90A12031D3B604B
:1012B0000068C0E9001213E0348F0000268F0000A0
:1012C000EA8D0000F1D8FFFF0AA9684604F00EF885
:1012D000E00705D13868009A011D39600068026096
:1012E0002846D4E602681144137801601846704716
:1012F000D160054979445161044979441162002162
:101300001161114600F014B9EDFFFFFFA1010000CB
:10131000426842B1016811F8013B23B1521EC0E995
:101320000012184670470121C160881E704742684C
:101330005AB1C368016843B983688B4205D0491E1E
:10134000521CC0E90012002070474FF0FF30704778
:101350002DE9F04791460F4680460446002614F8D2
:10136000015B2DB100F030F80068405DC007F6D198
:101370002B2D02D02D2D18D0641E4A46394620460A
:1013800000F090FA27B13968A14201D1C7F8008076
:101390004FF0020471050BD54042002803DDFFF732
:1013A00045FA0460A007BDE8F08746F48066E4E7EC
:1013B0000028F8DAFFF73AFA04606FF00040F2E72D
:1013C00000487047E42D002010B500F005F8001D1E
:1013D00010BD00BF8182000000487047042E00202D
:1013E000034640688C46002818BF88423CBF03462D
:1013F0004068F8D318681844884207D00CF10300FD
:1014000020F00700001D411A521A0146081D0A600B
:10141000FEF791BF30B5B0F10A024FEA900E71F1BC
:1014200000034EEA817EB0EB0E0061EB91014FEAC2
:10143000101E4EEA017E10EB0E0041EB11114FEA37
:10144000102E4EEA016E10EB0E0041EB11214FEA17
:10145000104E4EEA014E10EB0E0041EB11414018C8
:1014600041F100014FEAD00040EA41704FEAD1015A
:1014700010EB80054FEA810444EA907444EB0104C8
:101480006D1944EB0404521BA3414FF0000348BF05
:101490000A3200D530BD401C41F1000130BD10B50D
:1014A0000446FFF791FF0068005D00F0010010BDE9
:1014B0002DE9F0411F46044603260168072A01F47E
:1014C000006004DB08B116A505E016A503E008B12D
:1014D00015A500E015A521F010002060A069C01E30
:1014E000A0610FB1401EA0612046FEF779FF4FB109
:1014F000D4E9012138469047206A401C2062C01C74
:10150000206206E0206AFAE7D4E9012115F8010B10
:101510009047761EF8D22046FEF778FFBDE8F081AE
:101520004E414E006E616E00494E4600696E660087
:101530002DE9F34F4FF0000A0C4656468DB00120BE
:101540000C9001F10C000B9062690B9801219047FF
:10155000051E2DD0252D2CD0216A8847C0B1626987
:101560000B9801219047216A88470028F7D16269CA
:10157000411E0B98904700E0761CA1690D988847A2
:10158000216A88470028F7D1E1690D988847DBE791
:10159000A1690D988847A842074601D1761CD3E778
:1015A000E1690D9888477F1C02D1BAF1000F6FD016
:1015B0006CE162690B9800273D46394690472A281E
:1015C00004D162690B98012190470125DFF8D08290
:1015D00062690B9801219047A0F130010A290AD2D3
:1015E0004745E5DC07EB870100EB4107303FDFD4DF
:1015F00045F01005ECE7E90601D46FF000476C28D0
:101600000AD04C2814D0682815D06A280DD0742828
:101610001CD07A281AD01DE062690B9801219047EE
:101620006C2802D045F0040514E045F002050DE0F9
:1016300045F020050AE062690B980121904768286F
:1016400002D045F0080505E045F4006562690B9895
:1016500001219047C4E9015765283DD019DC58287D
:101660007AD00CDC452837D004DC252826D0412848
:101670009ED131E046282FD0472899D12CE05B2815
:1016800077D0612828D063287CD0642823D15AE001
:10169000F7E06F2848D008DC66281DD067281BD0EB
:1016A000692821D06E2816D127E0702845D07328EC
:1016B00068D0752847D078280DD14DE0A1690D98E4
:1016C0008847252805463FF469AFE1690D988847AA
:1016D0006D1C3FF46AAFD9E00D9923466A466FF05E
:1016E000010008F062FAC6E045F0400023464FF0E2
:1016F00000026060A80736D43EE0E8077FF447AFF9
:101700002068011D21600068290501D506701BE7CE
:10171000290701D5068017E7A90703D5F117C0E906
:10172000006111E706600FE745F0400023464FF0E7
:1017300008026060A80716D41EE040F60E0125EAF4
:101740000100606016E045F0400023464FF00A02B9
:101750006060A80707D40FE045F040006060A8076C
:1017600008D5234610220D996FF00100AFF30080D9
:1017700081E007E0102223460D996FF00100AFF3DE
:10178000008078E04FF0000963284F46C8464B467A
:10179000CB4602D05B2807D039E02079C00601D4BF
:1017A0000120A060012732E06269D4F80CB00B98E8
:1017B000012190475E2807D14FF00109494662692F
:1017C000D4F80CB00B989047216939B900210A462A
:1017D00003AB43F82120491C0829FADBD8B321695F
:1017E00049B308F1010862690B98012190475D280F
:1017F000F4D1B9F1000F09D0002003A951F820203D
:10180000D24341F82020401C0828F7DB03AB2069B5
:10181000002820794FEA40701ED05B462246CDF862
:101820000080CDE901970D9900286FF0010020DAC2
:10183000AFF300801FE0C11703AA00EBD1614B1189
:1018400021F01F0102EB8302411A13680120884036
:1018500003431360C7E719E00D99224600286FF093
:101860000100009702DAAFF3008004E0AFF30080DC
:1018700001E0AFF3008000280ADA401C06D10C9882
:1018800020B14FF0FF300FB0BDE8F08F5046FAE7BF
:10189000E90701D10AF1010A064400200C9053E641
:1018A000CCCCCC0C2DE9F05F824615468B46002748
:1018B0000AF10104B9460078302801D09DB113E047
:1018C00014F8010B0127782803D0582801D045B11E
:1018D0000AE00DB1102D07D1002714F8010B1025D7
:1018E00002E0082500E00A250026B0460EE005FBD0
:1018F000080005FB06F101271FFA80F801EB1046EE
:10190000B6F5803F00D3B94614F8010B294600F024
:10191000C3F80028EBDABBF1000F05D00FB1641E4D
:1019200000E05446CBF80040B9F1000F06D0FEF7B6
:101930007DFF02210160C81EBDE8F09F48EA064015
:10194000FAE700002DE9F047814616468AB035488F
:1019500078440DC88DE80D0032487844801C03ACF3
:101960000DC884E80D0041F69B300844372190FBF8
:10197000F1F290FBF1F5A5F1800501FB12041B3C8F
:1019800002D56442012000E00020DFF898A08046E4
:101990000027FA44AAF1BE0A0EE0E0070AD0324658
:1019A000684607EB470101230AEB810100F044FE82
:1019B0008DE8070064107F1C002CEED1194F7F4486
:1019C000AE3F19E0E80715D007EB04100DF1180A37
:1019D00090E80E008AE80E00C068F04201D1981924
:1019E00008903246012306A903A800F025FE03ABA8
:1019F00083E807006D10641C002DE3D14FF0010354
:101A000032466946B8F1000F03A802D000F0EAFDA3
:101A100001E000F011FEC9E90001C9F808200AB090
:101A2000BDE8F0874884000010B500F07BFABDE8FF
:101A3000104000F072BA70477546FFF7C1FCAE4621
:101A400005006946534620F00700854618B020B5CA
:101A5000FEF730FCBDE820404FF000064FF00007D5
:101A60004FF000084FF0000B21F00701AC46ACE846
:101A7000C009ACE8C009ACE8C009ACE8C0098D46B3
:101A8000704710B5FEF7D2FE006810BD10B50446D1
:101A9000FEF7CCFE046010BD3A2800D2303820F0AA
:101AA0002002412A01D3A2F13700884201D34FF02E
:101AB000FF3070472DE9FF4F1F464FF03C0987B0BC
:101AC0004FF00042DDE9141001F10108DDF858A0E3
:101AD00002EA4050039000200590834605460446E4
:101AE0000490B969461E08988847AAF1010A029035
:101AF000BAF1000F3BDD02982E2815D01021FFF718
:101B0000CBFF00282EDB4FF0010B0599014317D0C6
:101B1000B9F1000F0BDB4A46C11700F071FA05431B
:101B20000C43A9F1040905E0012004900BE008B181
:101B300045F0010501200590049820B9361D02E00A
:101B4000049800B1361FB969089808F10108884760
:101B5000BBF1000FAAF1010A0290C9D00999C1F89E
:101B60000080C5E70298702808D0502806D0F9698F
:101B700008988847BBF1000F14D04FE00020029076
:101B80000120BBF1000F049009D0B969089808F151
:101B900001088847AAF10109B9F1000F07DCF969CA
:101BA000089888476FF001000BB0BDE8F08F2B2834
:101BB00004D02D280CD14FF0FF300490B96908985B
:101BC00008F101088847A9F10109B9F1000FE6DD24
:101BD000411CE4D00A21FFF75FFF0028DFDB0299F8
:101BE00008F1010801EB810100EB41000290B969A5
:101BF000089888470A21FFF74FFF099AA9F10109C0
:101C0000B9F1000FC2F8008001DD0028E7DAF969B8
:101C1000089888470499029800FB016655EA040079
:101C200004D004F04041090002D006E0039898E097
:101C3000A40044EA9574AD00B61E04F0004108000B
:101C400002D16D196441761E159810F0240F03D04F
:101C50004FF00B095C4803E04FF028096FF07D005E
:101C60008246564507DAAAEB06018944B9F1410FCD
:101C700001DD4FF0410901200021A9F1010200F02E
:101C8000BFF9024628400B462140084301D00121FC
:101C900000E00021501E029143F1FF312840214015
:101CA000084301D0012000E000200299834651EA58
:101CB0000B014FD0002108464FF00000039900F4BB
:101CC000400039B100EB80004FF4400100EBD070D0
:101CD00001EA60008015012802DD4FF0FF3000E0CE
:101CE00013D0401C36D0029860B3BBF1000F0CD16A
:101CF0004A460120002100F083F928402140084392
:101D000001D0012000E00020E0B101204A4600217E
:101D100000F076F9034640190A4661412D1A8C41BC
:101D200011D3B9F1400F09DD159810F0240F02D03E
:101D3000AAF1340603E0AAF1170600E0761C00259C
:101D40004FF0004406E05B1E42F1FF3220EA03053B
:101D500021EA0204CAF10100B04206DA1B490398E5
:101D600008430190002000900EE0039AC4F3D321B1
:101D7000E80A0A43164940EA44500A433146CDE98D
:101D80000002684603F018FB159810F0240F0BD0E2
:101D90001598C00715D13868DDE90012031D3B60B6
:101DA0000068C0E900120CE002A8694603F09EFA40
:101DB0001598C00705D13868029A011D396000687E
:101DC00002604046F0E6000002FCFFFF0000F07FEA
:101DD0000000F03F2DE9FF4F92461D4685B04FF0C1
:101DE0000041DDE9124BDDE914727F1E01EA4B5020
:101DF000414940F0FF4940EA0108002122F020005B
:101E00004928049102D04E2828D04CE03BA001265E
:101E100007C88DE80700A9690698641C88477F1EDB
:101E2000014606D41DF8060018B121F020018142B8
:101E30000BD0E96906988847032E34D0082E32D09B
:101E40006FF0010009B0BDE8F08F761C032E01D0C1
:101E5000082EE0D1601CCAF80000DCE7A9690698EA
:101E6000641C88477F1E2AD420F02000412826D1F8
:101E7000A9690698641C88477F1E20D420F02000A2
:101E80004E281CD1A9690698641C88477F1E48F417
:101E9000002849F48009CAF8004001D4282806D057
:101EA000E969069888475FEACB7012D022E0A969F9
:101EB0000698641C88477F1E01D4002803DAE9696C
:101EC00006988847BCE72928F1D1641CCAF800406D
:101ED000E9E71BF0240F07D028680499031D2B6045
:101EE0000068C0E9001805E02868021D2A60006843
:101EF000C0F800902046A5E70000F07F494E464913
:101F00004E4954590000000010B50446AFF300805C
:101F10002046BDE81040FEF76DB9002801D000F062
:101F200069B8704710B5012805D0002103A000F062
:101F30007AF8012010BD09A1F8E700005349475283
:101F4000544D454D3A204F7574206F662068656189
:101F500070206D656D6F7279000000003A20486551
:101F60006170206D656D6F727920636F727275702C
:101F7000746564004FF0013C50F8042B51F8043BA9
:101F80009A4221D1A2EB0C03934313EACC1317D14D
:101F900050F8042B51F8043B9A4215D1A2EB0C03E4
:101FA000934313EACC130BD150F8042B51F8043BA4
:101FB0009A4209D1A2EB0C03934313EACC13DBD072
:101FC0004FF00000704700BFD01A01BAB1FA81F19A
:101FD00001F0180122FA01F0CB40C1F12001DBB27F
:101FE000C0B2C01A2CFA01F3D11A914311EAC311FD
:101FF000E6D1704701491820ABBEFEE7260002007B
:10200000B2F120030AD5C2F1200301FA02F120FA4D
:1020100003F300FA02F041EA0301704700FA03F10A
:102020004FF00000704770B505460C460A2000E0EE
:102030006D1C00F011F835B128780028F8D102E0C5
:10204000641C00F009F814B120780028F8D1BDE82C
:1020500070400A20AFF3008008B569468DF8000093
:102060000320ABBE08BD5FEA400C08BF91F0000F33
:102070004FEA8C234FEAC12243EA51514FEA1C50E8
:1020800018BF00F5F0404FEA300018BF41F00041A2
:102090005FEA6C5C00F02980BCF1FF3F08BF40F0B4
:1020A00080407047130C06BF12044FF0100C4FF025
:1020B000000C130E04BF12020CF1080C130F04BF26
:1020C00012010CF1040C930F04BF92000CF1020CEE
:1020D000D30F04BF52000CF1010C11464FF0000267
:1020E000A0F11F00A0EB0C00704711F0004F08BFDB
:1020F000704731F000413FF4D5AF0B0C06BF090427
:102100004FF0100C4FF0000C0B0E04BF09020CF145
:10211000080C0B0F04BF09010CF1040C8B0F04BF5A
:1021200089000CF1020CCB0F04BF49000CF1010C2B
:10213000CCF12003A0EB0C0022FA03F302FA0CF21C
:1021400041EA030100F10100704720F07F4C80EA72
:10215000030023F07F47ACEB070303F57C5300F04B
:10216000004003F1FF032DE980494FEA154B09B404
:102170004FEA144325EA0B4E24EA03480FF20426E3
:1021800006EB132749083E785FEA320203FB066735
:10219000C7F5000707FB06F64FEA54374FEAD64665
:1021A00006F1020607FB066CCCF1005C4FEA1C4707
:1021B0002CEA074C07FB06F40CFB06F504EB15466E
:1021C0004FEA961634BF00204FF000404FEAD13757
:1021D00006FB07FC4FEA1C4C0CFB0BF7D21B03FB66
:1021E0000CF761EB07010CFB0EF7B0EB074072EB4D
:1021F00017420CFB08F734BFA2EB0742B2EB0742D1
:1022000061EB17414FEA0C444FEA910706FB07FCCC
:102210004FEA1C4C0CFB0BF7B0EBC74072EB57328C
:1022200003FB0CF734BFA2EBC742B2EBC74261EB32
:1022300057310CFB0EF7B0EBC70072EB57720CFB7B
:1022400008F734BFA2EBC702B2EBC70261EB5771CC
:10225000039F4FEA816141EA921104EBCC044FEAFB
:10226000D1374FEA826206FB07FC42EA90124FEA3E
:1022700080604FEA1C4C0CFB0BF7D21B03FB0CF7E6
:1022800061EB07010CFB0EF7B0EB074072EB174256
:102290000CFB08F734BFA2EB0742B2EB074261EB3D
:1022A00017414FEA8C554FEA910704EB9C2406FB3B
:1022B00007FC4FEA1C4C0CFB0BF7B0EBC74072EB72
:1022C000573203FB0CF734BFA2EBC742B2EBC74255
:1022D00061EB57310CFB0EF7B0EBC70072EB577296
:1022E0000CFB08F734BFA2EBC702B2EBC70261EBED
:1022F000577115EB4C254FEA816141EA92114FEA83
:1023000082624FEAD13742EA901206FB07FC44F1A1
:1023100000044FEA80604FEA1C4C0CFB0BF7D21B09
:1023200003FB0CF761EB07010CFB0EF7B0EB07406A
:1023300072EB17420CFB08F734BFA2EB0742B2EB7B
:10234000074261EB174115EB1C154FEA813141EA59
:1023500092414FEA823242EA90424FEA80304FEA9D
:102360000C7644F1000448EA03434EEA0B484FF070
:10237000000EB2EB080C71EB030724BF624639462E
:102380004EEB0E0E4FF0000B0018524149414BEB43
:102390000B0BB2EB080C71EB03077BF1000B24BFB6
:1023A000624639464EEB0E0E4FF0000B00185241BC
:1023B00049414BEB0B0BB2EB080C71EB03077BF1C4
:1023C000000B24BF624639464EEB0E0E51EA02075F
:1023D00018BF46F0010616EB0E7655F1000254F1D7
:1023E000000103D5BDE88901BDE80088BDE8890189
:1023F000BDE80048B619524141EB0101A3F10103C8
:10240000704780807F7E7D7C7B7A79787776767561
:102410007473727171706F6E6E6D6C6C6B6A6A69D9
:102420006868676666656464636362616160605F73
:102430005F5E5E5D5D5C5C5B5B5A5A5959585857EC
:102440005756565555555454535352525251515054
:1024500050504F4F4F4E4E4D4D4D4C4C4C4B4B4BA7
:102460004A4A4A49494948484847474747464646ED
:102470004545454444444443434343424242424128
:102480004141000046EA0646A3F570534FEA16465E
:1024900046EA42564FEAD22242EA415210B54FEA8A
:1024A000D121A3F1010300F02FF820F0004000F14A
:1024B000020C00F0004701EB00501146BCF5006F24
:1024C00040EA070000D210BDBAF1000F0AD01CB5D7
:1024D00003B44FF004004FF004014FF000000FBCB4
:1024E000BDE810404FF00001BBF1010FB9BF044837
:1024F0004FF0FF310348002140EA070010BD00BF44
:10250000FFFFEF7F0000F07F002B9C4630D4770068
:102510002BD01CB54FEA370703B44FF010004FF033
:102520001001BAF1000F06D0BCF1000FDCBF40F083
:10253000080040F008014FF000000FBCBDE810405B
:102540000BF1010BBBF1010F08BF5FEA170722BFB8
:1025500012F1010211F101014FF0004143F10003BA
:1025600000F0004043EA00007047F9D35708D0E775
:1025700046EA064613F1400F4FEA16461FDD13F1F7
:10258000200FDFBF16430A46002120335B42BED036
:10259000C3F1200746EA064602FA07F74FEA164655
:1025A00046EA0706C3F1200722FA03F201FA07F709
:1025B00021FA03F14FF0000342EA0702A7E746EAD7
:1025C000020646EA06464FEA164646EA0106BCBF40
:1025D00046EA0646360C4FF000034FF000024FF07B
:1025E000000194E72DE9804C9A46934670B491E837
:1025F000380007C831EA400C48BF34EA430C03D521
:10260000FFF7A3FDFFF780FFF0BCBDE8008C2DE9CC
:10261000804C9A46934670B491E8380007C831EA76
:10262000400C48BF34EA430C03D5FFF78EFDFFF79B
:1026300029FFF0BCBDE8008C2DE9804C9A469346FA
:1026400070B491E8380007C810F0804F08BF13F04D
:10265000804F03D100F01AF8FFF756FFF0BCBDE839
:10266000008C2DE9804C9A46934670B491E838006E
:1026700007C810F0804F08BF13F0804F03D100F05F
:1026800005F8FFF7FFFEF0BCBDE8008C20F07F47A7
:1026900080EA030023F07F4C07EB0C03A3F57C5387
:1026A00000F00040A3F1FE0392F0000F00F0B380B1
:1026B00095F0000F00F077802DE901494FEA1140B5
:1026C0004FEA144621EA004800FB06FC24EA0647CC
:1026D00008FB06F607FB08F800FB07F718EB0648AF
:1026E0004CEB164C4FEA124B18EB07484FEA1546D5
:1026F0004CEB174022EA0B4E0BFB06FC25EA064783
:102700000EFB06F607FB0EFE0BFB07F71EEB064E55
:102710004CEB164C4FF000061EEB074E4CEB174BE4
:1027200018EB0B0840F1000018EB0E0B58EB0008FB
:1027300040F100008F1A4FF000013CBFC943661BF7
:1027400014BFB5EB040C00213CBFC943F61B4FEA94
:1027500017444EEA8E0E27EA04454FEA1C4704FB55
:1027600007622CEA074C05FB07F70CFB05F604FB98
:102770000CFC16EB074642EB174216EB0C4642EBFD
:102780001C421BEB060658EB0202414146EA9E063C
:1027900001D5BDE80189B619524141EB0101A3F110
:1027A0000103BDE801894FEA14454FEA114724EAC5
:1027B000054621EA074C05FB07F406FB07F70CFB6F
:1027C00006F105FB0CFC11EB074144EB17444FEA03
:1027D000124711EB0C4144EB1C4422EA074C05FB69
:1027E00007F206FB07F70CFB06F605FB0CFC16EBE5
:1027F000074642EB174216EB0C4642EB1C456A18A3
:1028000054F1000148BF7047B619524141EB010134
:10281000A3F10103704795F0000F37D04FEA114242
:102820004FEA144721EA024624EA074C02FB07F16B
:1028300006FB07F70CFB06F402FB0CFC14EB074449
:1028400041EB17414FEA154714EB0C4441EB1C4197
:1028500025EA074C02FB07F506FB07F70CFB06F61B
:1028600002FB0CFC16EB074645EB174516EB0C4636
:1028700045EB1C42121951F1000148BF7047B619CF
:10288000524141EB0101A3F1010370474FEA1445A6
:102890004FEA114724EA054621EA074C05FB07F1F8
:1028A00006FB07F70CFB06F24FF0000605FB0CFCDD
:1028B00012EB074241EB174112EB0C4251EB1C416A
:1028C00048BF7047921841EB0101A3F10103704723
:1028D000FEE77047401E81B20022014800F04CB86C
:1028E0006C0200203EB50D4604460698617942EA26
:1028F0008512CDE900306425029541F0010192B2C4
:102900001023606900F03EFC10B1022020743EBD2F
:102910000120FBE748614B71402062B18300012A2E
:102920000CD0022A0ED0C300032A0BD0042A08D1EF
:102930000B80802004E00880102001E00B80202024
:10294000887070470B80FBE73EB50D46044606983D
:10295000617942EA8512CDE900306425029541F0A3
:10296000010192B21023606900F00CFC10B102204A
:1029700020743EBD0120FBE7FEB50446477942EADC
:10298000811086B2A078FDF7A7FC0546A178FDF777
:10299000FDFEA07864210095CDE9010110233246A7
:1029A0003946606900F016FD30B1022020742846D7
:1029B000BDE8FE40FDF7BFBC0120F7E73EB50D4680
:1029C00004460698617942EA8512CDE90030642513
:1029D000029592B21023606900F0FCFC01004FF0F8
:1029E000010003D00221217420743EBD2074FBE756
:1029F0004FF4004000F060B9F0B45D490A78FF2A56
:102A00007ED14A785A2A7BD18A78FF2A78D10A4621
:102A1000CB781479557992F806C0D779012B15D067
:102A2000022B1FD0966800F18002032B2FD0042BBD
:102A30003BD0052B45D0062B49D0072B76D0082B51
:102A40007AD0092B7ED00A2B6FD089E0012180F843
:102A5000281180F8294180F82B5180F82AC180F88C
:102A600039717DE0022280F828218A8852BAA0F8C4
:102A7000CC2080F834C180F832710A7A80F839218C
:102A80004A7A80F83321897A80F8351168E0032189
:102A900080F8281180F82C4180F82D5180F82EC143
:102AA00080F82F71C0F8D0605AE0042280F8282105
:102AB00080F8314180F83051C98849BAA0F8CA106D
:102AC0004EE0052180F8281180F8364148E00623C1
:102AD00080F828314B68C0F8D4309665CB68D36550
:102AE0000B6913664B6953668B699366CB69D36632
:102AF0000B6A13674B6A53678B6A9367CB6A00E074
:102B000034E0D3670A6BC0F8002191F83520A0F8B3
:102B1000CC2091F8362080F8322191F8371080F8D7
:102B200039111DE002E007E00CE016E0072180F813
:102B3000281180F8374113E0082180F8281180F827
:102B400038410DE0092280F8282180F83A41B1F897
:102B5000051049BAA0F8CE1002E00A2180F8281129
:102B6000F0BC64220249801CFDF791BDF0BC7047A7
:102B7000AC14002010B590F821100022022905D0D5
:102B80000421816380F82020012010BD01680B68BA
:102B900023F00E030B6001680B6823F001030B6048
:102BA00090F84030C46B012101FA03F3636080F8B0
:102BB000211080F82020104610BD000010B590F8BC
:102BC00021100024022903D00421816301243DE067
:102BD00001680A6822F00E020A6001680A6822F0A1
:102BE00001020A601A4A0168914201D1012121E0E3
:102BF000174A1432914201D110211BE0144A2832A5
:102C0000914201D1891515E0114A3C32914201D11E
:102C100089140FE00E4A5032914202D14FF48031B4
:102C200008E00B4A6432914202D14FF4801101E076
:102C30004FF08071064A083A5160012180F8211056
:102C4000002180F82010416B01B18847204610BD5B
:102C50000800024070B5044600F034F90546601CD7
:102C600002D004480078044400F02CF9401BA04234
:102C7000FAD370BD8001002010B54FF400418842A6
:102C800014D10B4C204600F013F938B1002209484A
:102C90004FF48041C2701AB1002202E00122F6E72F
:102CA00001222046BDE8104000F007B910BD000029
:102CB0000010014000000020044910B50A680242DB
:102CC00002D00860FFF7D8FF10BD000014040140D7
:102CD0002DE9F84FDFF8B8910024A9F1040B234641
:102CE0000F2709F1040AABF1040EC9E00125A54044
:102CF0002A40AA427DD1674ED1F804C0ACEB060849
:102D0000B44532D014DCBCF1030F3AD009DCBCF17D
:102D1000000F2AD0BCF1010F1CD0BCF1020F31D141
:102D20001DE0BCF1110F17D0BCF1120F2AD119E030
:102D3000B8F5881F19D006DCB8F5803F15D0B8F576
:102D4000801F1FD111E0B8F5001F0ED0B8F5041F89
:102D500018D10AE0CB6815E0CB681B1D12E0CB68E8
:102D600008330FE0CB680C330CE08B682BB1012BE0
:102D70004FF0080303D0456104E0042302E005613D
:102D800000E00023FF2A01D8064601E000F1040616
:102D90004FEA840501D9A5F12005D6F8008007FA8D
:102DA00005FC28EA0C0803FA05F548EA0508C6F808
:102DB00000804D68ED0062D5374DAE6946F00106E2
:102DC000AE61AD6924F0030605F001050095334DB1
:102DD00006EB050CDCF80850A607360F07FA06F8D4
:102DE00025EA0805DFF8B880404503D14FF0000818
:102DF00017E044E0DFF8AC80404502D14FF0010815
:102E00000FE0DFF8A480404502D14FF0020808E04F
:102E1000DFF89880404502D14FF0030801E04FF001
:102E2000040808FA06F848EA0508CCF808804D6856
:102E3000D9F80060ED024D4601D5164300E09643F7
:102E40002E604D68DAF80060AD02554601D5164394
:102E500000E096432E604D68DBF80060AD035D46F0
:102E600001D5164300E096432E604D68DEF8006001
:102E7000ED03754601D5164300E096432E60641CB1
:102E80000D682A46E5407FF431AFBDE8F88F0000B9
:102E90000804014000001110001002400000014031
:102EA00000080140000C01400010014000140140E6
:102EB0008068084000D0012070470AB10161704766
:102EC0000904FBE70148806870470000800100208A
:102ED00070B5040025D094F83D00002520B984F891
:102EE0003C50204600F00EFB242084F83D00206872
:102EF000016821F0010101602068016841F400418E
:102F000001602068016821F40041016000F0C8FC04
:102F10004D4A6168914201D84C4900E04C498842D1
:102F200001D2012070BD4B492368B0FBF1F15E680E
:102F300026F03F060E435E606368934206D94FF465
:102F4000967359434FF47A73B1FBF3F12368491C2C
:102F50001E6A26F03F06314319626168914210D81B
:102F60004900401EB0FBF1F2521CC2F30B02042ACE
:102F700001D2042022E0B0FBF1F0401CC0F30B00B2
:102F80001CE0A268F2B301EBC10303EB0116431E80
:102F9000B3FBF6F35B1C43F480431B0549D092B3AB
:102FA00001EBC10202EB0111401EB0FBF1F0401C2D
:102FB000C0F30B0040F4804040F400402168CA692F
:102FC0004CF6FF739A431043C861D4E907100143DC
:102FD0002068026822F0C00211430160D4E90301B5
:102FE00001432068826848F2FF339A4311438160AD
:102FF000D4E9050108432168CA6822F0FF021043A2
:10300000C86001E00EE016E02068016841F00101AF
:1030100001602564202084F83D00256384F83E503B
:10302000002070BD01EB4106431EB3FBF6F35B1CB1
:10303000B3E70120C2E701EB4101401EB0FBF1F014
:10304000401CC0F30B00B7E7A086010080841E007F
:1030500000093D0040420F002DE9F84F1F46904601
:103060008A460446DDF82890FFF72CFF054694F8C1
:103070003D0020287FD11923012240492046009598
:1030800001F0A4FA002876D194F83C00012872D00F
:10309000012084F83C0020680168C90703D1016859
:1030A00041F0010101602068016821F400610160C4
:1030B000212084F83D00102084F83E00002626647C
:1030C000C4F824806785608D20852D48E0622B46FA
:1030D0004A465146204601F02DF990B920684169D1
:1030E0008069009036E02A464946204601F04CFBB4
:1030F00050B1206C042804D12068016841F40071AB
:1031000001600120BDE8F88F606A216800780861DD
:10311000606A401C6062618D491E6185218D491E77
:1031200089B2218522685369DB435B070BD451B117
:1031300000781061606A401C6062608D401E60858E
:10314000208D401E20852A464946204601F012FA6D
:103150000028CED1208D0028C5D154F83D0B016840
:1031600041F400710160202004F81E09E6776677BB
:103170000020C7E7FFE70220C4E7000002001000BC
:103180000000FFFF2DE9FF4F83B00025DDE9107936
:103190009A4693460446DDF848800095FFF792FE74
:1031A000064694F83D0020287CD119230122854948
:1031B0002046009601F00AFA0028F5D194F83C0068
:1031C00001286FD0012084F83C0020680168C907FD
:1031D00003D1016841F0010101602068016821F418
:1031E00000610160222084F83D00402084F83E0008
:1031F00025646762A4F82A90608D20857248E06299
:10320000CDE9008653465A462046049901F0E0F87D
:1032100000287DD1208DDFF8B491202768B10128E6
:1032200014D00228206801681ED041F4806101603A
:103230002068416980690090B6E020684169816931
:103240000091016841F400710160ADE020680168FF
:1032500021F48061016072B6206841698169009142
:10326000016841F400710AE041F40061016072B646
:103270002068416981690091016821F480610160E1
:1032800062B691E0032868D801280CD00228434692
:103290004FF000024946204600960FD001F096F903
:1032A000B0BB10E08BE032464146204601F034FAD4
:1032B00070BB20680069616A08706CE001F086F9F3
:1032C00030BB72B634E02068016821F4806101608F
:1032D00072B620680069616A0870606A401C6062AA
:1032E000208D401E2085608D401E6085384846F246
:1032F000A8110068B0FBF1F0C0EBC00000EB80004B
:103300000090401E009008D020684069C04300E053
:1033100029E040070CD50098F3E744F8305F677365
:10332000A573206940F02000206162B625731AE081
:103330002068016841F40071016020680069616AD9
:103340000870606A401C6062218D491E2185618D74
:10335000491E618562B621681BE03246414620461F
:1033600001F0DAF918B1012007B0BDE8F08F20684C
:103370000069616A0870606A401C6062218D491EA4
:103380002185618D491E618521684A69D2435207B2
:103390000AD409690170606A401C6062208D401E79
:1033A0002085608D401E6085208D00287FF46AAFE7
:1033B00084F83D7084F83E5084F83C50D4E70220F5
:1033C000D2E70000020010000000FFFF040001002F
:1033D0008C0100202DE9FF4F83B09A46DDE911975B
:1033E00093460446DDF84080FFF76CFD054694F8EF
:1033F0003D0020287FD11923012240492046009515
:1034000001F0E4F8002876D194F83C00012872D04D
:10341000012084F83C0020680168C90703D10168D5
:1034200041F0010101602068016821F40061016040
:10343000212084F83D00402084F83E0000262664C8
:10344000C4F82480A4F82A90608D20852C48E0627E
:10345000CDE9007553465A462046049901F036F8E6
:1034600070B930E02A463946204601F08DF958B14E
:10347000206C042804D12068016841F400710160C7
:10348000012007B0BDE8F08F606A2168007808610C
:10349000606A401C6062218D491E89B22185628D5F
:1034A000521E628522685369DB435B070BD469B106
:1034B00000781061606A401C6062208D401E20858B
:1034C000608D401E6085208D0028CBD12A4639466C
:1034D000204601F04FF80028CAD154F83D0B01688E
:1034E00041F400710160202004F81E09E677667738
:1034F0000020C6E7FFE70220C3E70000020010003B
:103500000000FFFF30B585B00021009101910291CC
:1035100003911E4D03681E4C122103221D48AB422D
:1035200016D1A36943F00803A361A369039203F0D2
:1035300008030493C023CDE900316946FFF7C8FBB7
:10354000E06940F40010E061E06900F4001019E067
:10355000114DAB4217D1A36943F00803A361A369DE
:10356000039203F0080304934FF44063CDE9003164
:103570006946FFF7ADFBE06940F48000E061E06977
:1035800000F48000049005B030BD000000540040FD
:1035900000100240000C01400058004002488168C1
:1035A000027811448160704780010020074810B5FF
:1035B000016841F010010160032000F0A1F80F2024
:1035C00000F006F800F04AF8002010BD002002408C
:1035D00030B505461C4887B0816941F400618161BE
:1035E000806906A900F40060009001A800F038F995
:1035F00000F066F91549164AB0FBF1F11548491E6D
:103600000260416040F2E7320021C0E9032181609D
:10361000816100F029FB040012D10E4800F052FB3A
:1036200004000DD1192000F03DF8102D07D2002222
:103630002946192000F044F80748056000E00124FD
:1036400007B0204630BD00000010024040420F008D
:10365000002C014064140020840100200F4808B5AC
:10366000816941F001018161816901F001010091ED
:10367000C16941F08051C161C069002200F08050F1
:1036800000900F21901E00F01BF80548416821F0C2
:10369000E06141F00071416008BD0000001002408F
:1036A00000000140002809DB00F01F0201219140C9
:1036B0004009800000F1E020C0F8001170470000D0
:1036C000F0B40E4B1B680C46C3F30223C3F107058D
:1036D000042D00D90425191D072901D2002300E07B
:1036E000DB1E012606FA05F1491E214099409E4045
:1036F000761E16403143F0BC01F0D9BD0CED00E060
:10370000064900F0070208684FF6FF03184040EA38
:103710000220034A10430860704700000CED00E0EF
:103720000000FA05704700002DE9F0470F4605003C
:1037300061D0434E306800F00700B84209D23068CB
:1037400020F0070038433060306800F00700B842CE
:1037500051D128683B4C810712D5400703D56068DA
:1037600040F4E06060602878000703D5606840F4AA
:10377000605060606068A96820F0F00008436060F5
:103780002878C00728D06868012810D0216802284E
:1037900010D0890700292EDA616821F00301014366
:1037A0006160FFF78FFB804641F288390DE02168A8
:1037B0008903EFE78901EDE7FFF784FBA0EB080140
:1037C000494502D90320BDE8F0876068696800F0C8
:1037D0000C00B0EB810FEFD1306800F00700B84269
:1037E0000BD9306820F0070038433060306800F0B3
:1037F0000700B84201D00120E5E72878400705D549
:103800006068E96820F4E060084360602878000799
:1038100006D56068296920F4605040EAC100606004
:1038200000F05EF86168084AC1F30311515CC840BA
:103830000649086006480068FFF7CAFE0020C2E794
:103840000020024000100240CE9C00088C010020A5
:103850008401002001490120C864704700004242F1
:103860000F2202600C4A536803F00303436053685D
:1038700003F0F0038360536803F4E063C3605268AD
:103880004FF4E06303EAD20202610448006800F0EA
:10389000070008607047000000100240002002404E
:1038A0000448054900684968044AC1F30221515C93
:1038B000C84070478C01002000100240DE9C0008C8
:1038C0000448054900684968044AC1F3C221515CB3
:1038D000C84070478C01002000100240DE9C0008A8
:1038E0000E4A51680E4801F00C03042B11D0082B2E
:1038F0000FD10C48C1F38343C903C05C0AD551689A
:10390000084AC1F34041921E515C054A5043B0FB46
:10391000F1F070470449484370470000001002402E
:1039200000127A00BE9C000800093D0010B5044C4E
:10393000A068000603D5FFF7F5FE8020A07210BD39
:10394000001002402DE9F84F040070D02078C04DDF
:10395000C00749D06868C0F38100012807D06868B3
:10396000C0F38100022809D16868C00306D5286821
:10397000800339D560680028E7D035E06068B0F58D
:10398000803F0BD010B1B0F5A02F11D0286820F4E3
:1039900080302860286820F4802002E0286840F405
:1039A00080302860606890B1FFF78CFA06460AE024
:1039B000286840F480202860F0E700BFFFF782FA13
:1039C000801B642873D828688003F7D50CE0FFF7C4
:1039D00079FA064605E000BFFFF774FA801B6428F9
:1039E000F0D828688003F7D420789A4E80074FF0EB
:1039F00001094FF0000839D5686810F00C0F07D0A6
:103A00006868C0F38100022809D16868C00306D441
:103A10002868800714D52069012808D110E02069A2
:103A2000B0B1C6F80090FFF74DFA074605E00AE18D
:103A3000FFF748FAC01B0228C4D828688007F7D5CA
:103A40002868616920F0F80040EAC10028600DE0B4
:103A5000C6F80080FFF736FA074604E0FFF732FAAF
:103A6000C01B022823D828688007F7D420780007D5
:103A70002CD57948A169D9B1C0F80090FFF722FA96
:103A8000074604E0FFF71EFAC01B02280FD8686A39
:103A90008007F7D571484FF4FA510068B0FBF1F098
:103AA000009000BF0098411E0091FAD20EE080E025
:103AB000C0F80080FFF706FA074604E0FFF702FAB5
:103AC000C01B022875D8686A8007F7D420784007A1
:103AD00060D5E8690027C00008D4E86940F080504C
:103AE000E861E869012700F0805000905C480168B7
:103AF000C90513D40168834641F480710160FFF762
:103B0000E1F9824606E000BFFFF7DCF9A0EB0A000E
:103B100064284ED8DBF80000C005F5D5E068012820
:103B20000AD008B1052813D0286A20F001002862C5
:103B3000286A20F0040002E0286A40F001002862B0
:103B4000E06841F2883B98B1FFF7BCF982460BE090
:103B5000286A40F004002862EEE700BFFFF7B2F9E0
:103B6000A0EB0A0159455AD8286A8007F6D50CE01F
:103B7000FFF7A8F9824605E0FFF7A4F9A0EB0A01D8
:103B800059454CD8286A8007F6D41FB1E86920F05F
:103B90008050E861E06988B36968C1F38101022956
:103BA00044D00228C6F8608004D0FFF78BF90446A1
:103BB00038E034E0FFF786F9074604E0FFF782F9C2
:103BC000C01B02282BD828688001F7D4206AB0F5E2
:103BD000803F05D16868A16820F400300843686020
:103BE000D4E908010843696821F474110843686046
:103BF000C6F86090FFF766F9044606E025E000BFCE
:103C0000FFF760F9001B022809D828688001F7D562
:103C10001BE000BFFFF756F9001B022802D9032062
:103C2000BDE8F88F28688001F4D40EE00128F7D0B1
:103C30006868226A00F48031914204D1616A00F41C
:103C40007010884201D00120EAE70020E8E7000078
:103C50000010024000004242800442428C010020D9
:103C6000007000407047704710B5040003D094F80E
:103C70003D0010B107E0012010BD002084F83C0099
:103C8000204600F01EF8022084F83D00211D206827
:103C900001F010F9012084F8460084F83E0084F811
:103CA0003F0084F8400084F8410084F8420084F822
:103CB000430084F8440084F8450084F83D00002067
:103CC00010BD704790F83D10012901D001207047C8
:103CD000022180F83D100168CA6842F00102CA6002
:103CE00000680B49884208D0B0F1804F05D00949DF
:103CF000884202D00849884204D1816801F0070156
:103D0000062903D0016841F00101016000207047DD
:103D1000002C01400004004000080040704770B5CE
:103D20000446006801694FF00005C943890715D4AE
:103D3000C168C943890711D4E91E016101202077B8
:103D4000206880698007204602D0FFF7E7FF04E083
:103D500000F098F8204600F096F825772068016971
:103D6000C943490717D4C168C943490713D46FF041
:103D700004010161022020772068806910F4407FEF
:103D8000204602D0FFF7CAFF04E000F07BF820468F
:103D900000F079F8257720680169C943090716D42E
:103DA000C168C943090712D46FF0080101610420FA
:103DB00020772068C0698007204602D0FFF7AEFF59
:103DC00004E000F05FF8204600F05DF825772068F9
:103DD0000169C943C90617D4C168C943C90613D4C8
:103DE0006FF010010161082020772068C06910F48D
:103DF000407F204602D0FFF791FF04E000F042F838
:103E0000204600F040F8257720680169C943C907BA
:103E100008D1C168C943C90704D1891E0161204680
:103E200000F032F820680169C943090609D4C16865
:103E3000C943090605D46FF0800101612046FFF7F0
:103E400011FF20680169C943490609D4C168C94303
:103E5000490605D46FF040010161204600F01EF8CC
:103E600020680169C94389060BD4C168C943890622
:103E700007D46FF0200101612046BDE87040FFF7D4
:103E8000F2BE70BD7047704700680349884201D197
:103E9000FFF784BB70470000002C0140704770475B
:103EA00070470000F8B5016804460868CA684B69A5
:103EB00010F00F0F4FF0000559D003F0010602F487
:103EC0009077374365D0C10705D0D10503D5616C24
:103ED00041F001016164410705D5D90703D0616C48
:103EE00041F002016164810705D5D90703D0616CF7
:103EF00041F004016164010707D502F0200131435C
:103F000003D0616C41F008016164616C00293AD012
:103F1000800604D5900602D5204601F030F82068CE
:103F20004069616CC0F38010090700D460B320467B
:103F300000F0FEFF20684069400621D5206814305B
:103F400050E8001F21F0400140E80012002AF5D19E
:103F5000E06BA8B16D494163E06BFEF72FFE0028CE
:103F600011D0E06B416B01B0BDE8F040084783061B
:103F70000FD593060DD52046BDE8F84000F0FFBFF1
:103F80002046FFF78DFFF8BD2046FFF789FF6564E7
:103F9000F8BD266B2023012E7CD1C6067AD5D60625
:103FA00078D508684868009048694FF002064006D6
:103FB00040D5E16B086840680004000CE8D0A28D91
:103FC0008242E5D9E085886920282DD020680C3010
:103FD00050E8001F21F4807140E80012002AF5D15A
:103FE0002068143050E8001F21F0010140E8001261
:103FF000002AF5D12068143050E8001F21F040015C
:1040000040E80012002AF5D184F842302563206888
:104010000C3050E8001F21F0100140E80012002A87
:10402000F5D1E06BFEF7A6FD6663A08DE18D401A29
:1040300081B22AE0A08DE18D401A81B2E08D002886
:10404000A6D00029A4D022680C3252E8000F20F438
:10405000907042E80007002FF5D12068143050E836
:10406000002F22F0010240E80027002FF5D184F84C
:104070004230256320680C3050E8002F22F01002F7
:1040800040E80023002BF5D166632046FFF707FFC9
:10409000F8BDFFE705062BD5150629D594F8410094
:1040A0002128F5D1A068B0F5805F01D12069B0B1B9
:1040B000206A411C2162216800784860E08C401E23
:1040C0000004000CE084E3D12068C16821F0800185
:1040D000C1602068C16841F04001C160D8E7206A32
:1040E0000088C0F308004860206A801C2062E5E771
:1040F0004006CDD55006CBD5CA68204622F04002F6
:10410000CA6084F8413000F0FBF8C1E7214F000895
:1041100070B5040004D094F84100002510B106E009
:10412000012070BD84F84050204600F023F8242080
:1041300084F841002068C16821F40051C160204624
:1041400000F07EFF2068016921F490410161206840
:10415000416921F02A0141612068C16841F40051A0
:10416000C1606564202084F8410084F842006563E2
:10417000002070BD70B586B00024009401940294B4
:1041800003940068184988422BD11848816941F48A
:1041900080418161816901F480410491816941F02C
:1041A000040181618069022500F0040004904FF44D
:1041B0000070CDE9000503200D4E0390694630469E
:1041C000FEF786FD68028DE8310069463046FEF74D
:1041D0007FFD002205212520FFF772FA2520FFF739
:1041E00061FA06B070BD00000038014000100240C6
:1041F0000008014090F84230202B01D00220704787
:1042000021B11AB10023036300F076BF012070478B
:1042100010B500680549884207D1054C0121206F7F
:1042200001F0ECFBFEF74EFEA08110BD003801400E
:10423000000000202DE9F843044690F841001F4695
:1042400016460D46202802D00220BDE8F8837DB135
:1042500076B100206064212084F84100FEF732FE30
:10426000A6848046E684A068B0F5805F02D003E0B3
:104270000120EAE7206910B12E4600250EE0002655
:104280000CE08021204600F052FFA0B9AEB116F834
:10429000010B21684860E08C401EE084E08C4346BE
:1042A0004FF0000200970028EBD14FF0400120466C
:1042B00000F03DFF30B10320C7E735F8020BC0F333
:1042C0000800E6E7202084F841000020BDE790F8D0
:1042D0004130202B01D00220704779B172B10162C8
:1042E0008284C28400214164212180F84110006849
:1042F000C16841F08001C160002070470120704713
:104300007047FEE701684A69D24352050FD46FF443
:1043100080624A61002140F8301F2022427381737D
:10432000026942F00402026101730120704700201B
:1043300070470000F8B50446C06A1E460D46174691
:10434000082807D0012805D010F5803F02D0206B47
:10435000122804D12068016841F48071016013467D
:1043600000224FF001112046009600F02FF940B1D5
:1043700020680068C00502D54FF400702064032057
:10438000F8BD2069B0F5804F0ED00620216800EA04
:10439000D51040F0F000086133463A460B492046FC
:1043A00000F05CF978B902E005F0FE0000E0E8B248
:1043B00021680861054933463A46891F204600F0C6
:1043C0004DF90028DCD00120F8BD000008000100F4
:1043D0002DE9F84F0446006889460B9D0168984610
:1043E000174641F4806101602068016841F48071E2
:1043F000016000954FF0011B0022594620460A9BA0
:1044000000F0E4F84FF4007A40B120680068C0057D
:1044100001D5C4F840A00320BDE8F88F216809F059
:10442000FE0008612B46284920460A9A00F016F93A
:10443000F0BB20684169806900902A4620460A99AD
:1044400000F0A2F940B1206C04283AD1206801683C
:1044500041F40071016034E0FEB2B8F1010F09D0FF
:104460002168380A08612A4620460A9900F08CF92A
:104470000028E8D1206806612A4620460A9900F003
:1044800083F90028DFD12068016841F48071016060
:1044900000950022594620460A9B00F097F8002814
:1044A000B3D1216809F0FF0040F00100086100E08D
:1044B00007E02B46044920460A9A00F0CFF800286E
:1044C000AAD00120A8E70000020001002DE9F8436E
:1044D000044600680D46DDE90897016898461646CF
:1044E00041F4807101604B4600224FF001112046DB
:1044F000009700F06BF848B120680068C00502D54D
:104500004FF4007020640320BDE8F883216805F0B3
:10451000FE0008613B464A461549204600F09EF8D9
:1045200088B920684169806900903A46494620462A
:1045300000F02AF948B1206C042804D120680168F1
:1045400041F4007101600120DEE7F5B2B8F1010F1E
:1045500009D02168300A08613A464946204600F0F1
:1045600013F90028E7D1206805610020CCE700009E
:104570000200010070B516460D4604461EE02046B6
:10458000FFF7C0FE08B1012070BD681C16D0FEF711
:1045900099FC801BA84200D885B920684069C043B7
:1045A00040070BD5002044F8300F20216173A07321
:1045B000216941F0200121612073E4E7206840690E
:1045C000C0434007DBD4002070BD00002DE9F04758
:1045D000984617460D460446C1F30746DDF820907D
:1045E0002AE000BFB8F1FF3F26D0FEF76BFCA0EB3E
:1045F0000901414502D8B8F1000F1DD12068012EF4
:1046000016D0806925EA00000004000C12D00020BA
:10461000B84211D1002044F8300F20216173A073FB
:10462000216941F02001216120730120BDE8F0875C
:104630004069E7E70120EBE72068012E0AD0806996
:1046400025EA00000004000C06D00020B842C9D0C2
:104650000020EBE74069F3E70120F7E72DE9F04799
:10466000984616460D4604464FF000094FF0200AC2
:10467000C1F3074723E020684069C043400515D4D3
:104680002068016841F40071016021686FF4806066
:104690004861C4F8309084F83DA084F83E90216CC5
:1046A00041F00401216484F83C9021E0701C06D0A4
:1046B000FEF708FCA0EB0800B04203D816B1012FAA
:1046C0001FD021E02068012F15D0806925EA000065
:1046D0000004000C18D000BF44F8309F84F80DA0EF
:1046E00084F80E90216941F02001216184F80C903A
:1046F0000120BDE8F087406925EA00000004000CB5
:10470000EAD12068406901E02068806925EA00005C
:104710000004000CAFD1ECE72DE9F04100259046F4
:104720000E460446202728E04069C043C0060CD44A
:1047300054F8301B6FF01000486144F81059677747
:10474000A577206A2062257714E0FEF7BBFBA0EB7B
:104750000800B04200D886B920684069C0434006CE
:104760000BD544F8305F6773A573206940F02000D3
:10477000206125730120BDE8F08120684169C943AB
:104780004906D1D40020F6E770B516460D4604461A
:104790001EE02046FFF7B6FD08B1012070BD681C81
:1047A00016D0FEF78FFB801BA84200D885B9206881
:1047B0004069C04300060BD5002044F8300F20218B
:1047C0006173A073216941F0200121612073E4E746
:1047D00020684069C0430006DBD4002070BD0000A3
:1047E000F8B53A4C02FB03F522706370002402E036
:1047F0000E5D0655641CA542FADC0024344E354F8C
:10480000DFF8D4C0DFF8D4E035492BE000EB8405B5
:10481000ED6AB54207D18D6945F004058D618D695A
:1048200005F004051CE0BD4207D18D6945F008057F
:104830008D618D6905F0080512E0654507D18D6928
:1048400045F010058D618D6905F0100508E075458E
:1048500007D18D6945F020058D618D6905F0200532
:104860000095641C9442D1DB00222BE000EB820413
:10487000E46CB44207D18C6944F004048C618C6907
:1048800004F004041CE0BC4207D18C6944F0080425
:104890008C618C6904F0080412E0644507D18C69CE
:1048A00044F010048C618C6904F0100408E0744535
:1048B00007D18C6944F020048C618C6904F02004D9
:1048C0000094521C9A42D1DBF8BD00006C0100201C
:1048D00000080140000C014000100140001401409C
:1048E0000010024070B50446FEF7ECFA074D696807
:1048F000401A0A2807D900202075204600F008F841
:10490000FEF7E0FA6860207D70BD00006C010020B9
:104910002DE9F04F0546002085B006460090019035
:1049200002904FF0010A2D4C814603900DE000BF2C
:1049300005EB46006946B0F840008DE8010605EB3E
:104940008600C06AFEF7C4F9761C20788642EFDB49
:1049500000273BE005EB4706049636F85C0FCDE9EF
:10496000000A0320CDE9029005EB870BD846694683
:10497000DBF84C00FEF7ACF931880022D8F84C0087
:10498000FEF79BFA002615E005EB460005EB8608CE
:10499000B0F84010D8F82C00FEF78AFAE0B10020F9
:1049A00008EB0701487520B160787043E919405C55
:1049B0002875761C20788642E6DB04980122B0F840
:1049C0005C10DBF84C00FEF778FA7F1C60788742B9
:1049D000C0DB05B0BDE8F08F0120E1E76C010020ED
:1049E00070B586B000242548009401940294039485
:1049F000816941F010018161816901F01001049128
:104A0000816941F020018161816901F020010491F7
:104A1000816941F008018161816901F00801049117
:104A2000816941F0040181618069154E00F0040044
:104A30004FF4C0450490002229463046FEF73DFA67
:104A40000220CDE9024000950125694601953046D6
:104A5000FEF73EF9E80300900A48CDE901056946F2
:104A60003046FEF735F900220A212820FEF728FEFD
:104A70002820FEF717FE06B070BD000000100240AF
:104A80000010014000003110FEE7FEF74FFFFEE787
:104A900001490860704700007C01002008B50B4602
:104AA0000421401E009181B200220248FDF74CFF14
:104AB00008BD00006C020020002180F8281180F859
:104AC000291180F82A1180F82B1180F82C1180F818
:104AD0002D1180F82E1180F82F1180F8301180F8F8
:104AE000311180F8321180F8341180F8351180F8D6
:104AF000331180F8361180F8371180F8381180F8BA
:104B0000391180F83A1170471CB501AB8DF80400DB
:104B10008DF805100321401E00918DF8062081B20A
:104B200000220248FDF74AFF1CBD00006C02002075
:104B300030B599B00D4614465C2102A8FBF748FE3B
:104B40000A490A236422D1E90B01CDE900018DF85D
:104B50000450200A8DF8050005488DF80640694686
:104B60000068FFF767FB19B030BD00007C9C0008AF
:104B70007C0100202DE9F04399B00C4620A91D4688
:104B800091E880031646582103A8FBF721FE0E4A40
:104B900007CA8DE80700200A8DF804008DF805404B
:104BA0008DF8087009488DF806608DF809808DF839
:104BB00007508DF80A90642269460068FFF787FB6A
:104BC00019B0BDE8F0830000B09C00087C01002013
:104BD00070B59AB0FF20DDE91E458DF800005A2619
:104BE0008DF801608DF802008DF8041003208DF817
:104BF00003008DF8052006488DF806308DF8074033
:104C00000295642269460068FFF761FB1AB070BD27
:104C10007C01002070B59AB00E461C4615465C21FA
:104C200002A8FBF7D5FD0B490A236422D1E9030151
:104C3000CDE900018DF804608DF80550200A8DF84B
:104C4000060005488DF8074069460068FFF7F2FA4C
:104C50001AB070BD7C9C00087C010020F0B599B0B2
:104C60000E461C4615465C2102A81E9FFBF7B0FDB0
:104C70000A496422D1E90101CDE900018DF80460FF
:104C80008DF8055006488DF806408DF80770694686
:104C90000068FFF71CFB19B0F0BD00007C9C000809
:104CA0007C01002000B599B0602101A8FBF790FDC0
:104CB00005480A2364220068009004486946006899
:104CC000FFF7B8FA19B000BD7C9C00087C010020F9
:104CD00002F0CCFC012000F011FEF9E70A4CE06E76
:104CE00000F052FEC00708D000F0EAFB0A2000F0F6
:104CF00005FE0121E06E00F01BFE207901F01AFC98
:104D0000322000F0FBFDEAE7000000203A4C3B4D6A
:104D10004FF0000800231A460121286F00F0A4FE7E
:104D20000646354800F06EF8F00709D03248FDF726
:104D300063FE052000F0E2FD0121286F00F0F8FD80
:104D400094F82801092802D006282AD044E094F8D3
:104D50003A01092806D00A2808D00B280AD00C28C6
:104D60000FD039E000F062FC022006E000F05EFCAB
:104D7000032002E000F05AFC0420287184F83A81F4
:104D80002AE000F053FC1520287184F83A814FF492
:104D9000FA6000F0B3FD0D2000F040FB0120A88375
:104DA0001AE0174B002003F11807A3F1300201E0CD
:104DB000032808DA04EB800151F8D46F43F820602F
:104DC000C96847F8201004EB8001D1F8EC1042F8D4
:104DD0002010401C0628EBDBFEF774F8A989401A66
:104DE000FA2805D90448FFF767FEFEF76BF8A8819B
:104DF000052000F083FD8DE78802002000000020E0
:104E0000C40A00200348642201490068FFF7F2B990
:104E1000AC1400207C01002010B5502080F31188D4
:104E2000BFF34F8FBFF36F8F04F048FA18B10449F6
:104E30004FF080500860002080F3118810BD000002
:104E400004ED00E030B58FB028216846FBF7C0FCC8
:104E500014210AA8FBF7BCFC01210804CDE90010CD
:104E60000024029402250491CDE907504FF4E0108C
:104E700009906846FEF766FD08B172B6FEE70F209E
:104E8000CDE90A054FF48060CDE90C4002210AA863
:104E90000E94FEF749FC08B172B6FEE7FEF7DAFCA5
:104EA0000FB030BD704700000148FEF738BF00006A
:104EB00064140020F0B50268164B174C174D4FF0E4
:104EC0008047984205D0B84203D0A04201D0A84202
:104ED00003D122F070064A683243984205D0B842A6
:104EE00003D0A04201D0A84203D122F44074CA6882
:104EF00022434C6922F08002224302608A68C26227
:104F00000A688262984201D1096901630121416105
:104F1000F0BD0000002C01400004004000080040EB
:104F200010B5406A0021C185C184FEF7B9FF10BDEC
:104F300001680C3151E8002F22F4907241E80023FF
:104F4000002BF5D10168143151E8002F22F0010245
:104F500041E80023002BF5D1016B012909D101683B
:104F60000C3151E8002F22F0100241E80023002B01
:104F7000F5D1202180F8421000210163704708B567
:104F800090F84210222901D0022008BD82684FF417
:104F900080539A4201D1016921B1816A9A421BD0A2
:104FA0004AB10AE00268816A5268C2F308020A80C4
:104FB000816A891C08E0026972B10268526802F0D5
:104FC0007F020A70816A491C8162C18D491E0904F1
:104FD000090CC18503D01BE002685268F1E7016843
:104FE000CA6822F02002CA600168CA6822F480728E
:104FF000CA6001684A6922F001024A61202180F8F2
:10500000421000214163026B012A03D0FFF700F92F
:10501000002008BD016301680C3151E8002F22F027
:10502000100241E80023002BF5D101680A68D2067E
:1050300002D50A6849680091818DFEF730FFE7E7E5
:1050400070B5044600680169E26821F440511143DB
:1050500001612169A0680843616908432168CA6841
:1050600041F20C639A430243CA6020684169A26915
:1050700021F44071114341611E492068884202D1E8
:10508000FEF71EFC01E0FEF70BFC00EBC00101EB9C
:105090000012606864218000B2FBF0F3B3FBF1F30F
:1050A0006FF018067343B2FBF0F5B2FBF0F605EBB8
:1050B0008305322303EB0515B5FBF1F5B6FBF1F6DD
:1050C00005F0F00505EB0615B2FBF0F6B2FBF0F0CB
:1050D000B0FBF1F06FF01802504306EB800003EBD9
:1050E0000010B0FBF1F0216800F00F002844886048
:1050F00070BD00000038014081628285C2850021B8
:105100004164222180F84210016921B10168CA6816
:1051100042F48072CA6001684A6942F001024A6141
:105120000068C16841F02001C160002070472DE98E
:10513000F041984617460E460446069D27E0681C37
:1051400025D02DB1FDF7BEFEA0EB0800A8421ED968
:1051500020680C3050E8001F21F4D07140E80012A4
:10516000002AF5D12068143050E8001F21F0010119
:1051700040E80012002AF5D1202084F8410084F88C
:105180004200002084F840000320BDE8F081206840
:10519000006836EA000004D00020B842CFD00020DA
:1051A000F3E70120F9E700000148FEF77BBE0000AD
:1051B000700400202DE9F047314F304E07F5967806
:1051C00007F51679A6F13805012808D002283ED146
:1051D000A9784FF47A7091B300F090FB3BE04FF068
:1051E000000AA5F80EA001242EE024492046FFF76E
:1051F00055FC307880B1E989491CE981391901F8F9
:10520000010C08EB0400717800F8011C09EB0400A4
:10521000B17800F8011C0AE0391901F801AC08EB7B
:10522000040101F801AC09EB040101F801ACA87814
:1052300000284FF0010003D000F060FB02E008E01E
:10524000FDF708FD641CA4B268898442CDD3BDE893
:10525000F087FDF7FFFC0949A88CFFF71FFCA88C1D
:1052600031783A1802F8011C08EB0001727801F855
:10527000012C4844B27800F8012CE8E738000020FF
:1052800010070020FEE7490050EAC12018BF0420A3
:105290004A0D18BF40F0010040F2FF72B2EB515FBF
:1052A00008BF40F00200012808BF05207047090729
:1052B000090E002804DB00F1E02080F8001470479C
:1052C00000F00F0000F1E02080F8141D704740F25C
:1052D000013200204FF0E04104F039BC024A0020C6
:1052E000110704F034BC000001FDFFFF10B50446B7
:1052F000D1E9000100F002F8206010BDF8B50446C5
:105300000D466A4600F0B0F800987E300090002804
:105310001EDC002213462046294604F0F7F917D078
:10532000002140F608004FF00000064620462946BE
:1053300004F0A6F9044640F6080006EA00014FF022
:10534000000034F0004004BF0220FCF79FFB29E07E
:105350000098FF2828DB002108464FF0000000F4E9
:105360004006002213462046294604F09BFA8CBFD3
:10537000002501250220FCF789FB4FF0FF4446B1D0
:10538000002D0CBF4FF400004FF48000B04218BF56
:10539000084C042108464FF00000002D04BF84F0A3
:1053A0000040F8BD2046F8BD20462946BDE8F8403B
:1053B00004F066B9FFFF7F7F10B504460A46D4E9C2
:1053C0000003194600F03AF9C4E9000110BD303875
:1053D0000A2801D201207047002070472DE9F041D2
:1053E0000D46804600244FF400570B4E10E001227A
:1053F00039463046FDF761FD4046FDF72BFC0022A3
:1054000039463046FDF759FD4046FDF723FC641C44
:10541000AC42ECDBBDE8F0810010014010B5044661
:1054200000F004F9034804712046BDE8104001F083
:1054300011B800000000002010B50848FFF752FA2C
:105440000749084A08720021535C834201D10120B8
:1054500010BD491C0A29F7D3002010BD0802002006
:10546000000000204C01002010B5144600222260EC
:10547000114A21F000439342A8BF10BD53EA000235
:1054800008BF10BDB3F5801FA8BF226807DA362217
:1054900004F05DFB6FF0350221F000432260DFF87D
:1054A0001CC06FF31E510CEB23531A4441F0FF5103
:1054B00041F00051226010BD0000F07F02FCFFFFB0
:1054C000012000F0F3BF00001B4910B50860202048
:1054D00000F0ECFF022800D101240A20FDF7BAFBFE
:1054E000282000F0E3FF022800D102240120FDF76C
:1054F000B1FB082000F0DAFF022800D103240120CC
:10550000FDF7A8FB012000F0D1FF022800D1042400
:105510000220FDF79FFB062000F0C8FF022800D103
:1055200005240120FDF796FB0C2000F0BFFF0228A8
:1055300000D10624204610BD7401002000B585B0BE
:10554000012904D0022908D0032913D00DE004F06A
:10555000DFF90B4602460AA104E004F0D9F90B4634
:10556000024609A16846FAF70DFF684600F042F8C6
:1055700005B000BD04F0CCF90B46024604A1F1E7EA
:10558000252E316600000000252E32660000000046
:10559000252E33660000000000B58DB0012902D031
:1055A000022909D102E0C3B206A201E083B207A238
:1055B00032216846FAF7FAFE684600F01BF80DB093
:1055C00000BD00003078253032580000307825309A
:1055D0003458000000B58DB0034605A2322168465C
:1055E000FAF7E4FE684600F005F80DB000BD0000D3
:1055F0002564000010B5044602E0641C00F078FF4A
:1056000020780028F9D110BD1CB5074BD3E9002341
:10561000CDE900231DF811100844C0B240F080000D
:1056200000F044FF1CBD0000749C000802480121EA
:10563000C06E00F0E3B90000000000202DE9F04149
:1056400006460C4640F2FF75174635EA14502BD03B
:1056500000221346304604F059F825D03A46304629
:10566000214604F074FA06460C4635EA145010D070
:1056700000221346304604F049F815D10220FCF709
:1056800005FAFFF72BFE0A46214662F31E01BDE82C
:10569000F0810220FCF7FAF9FFF719FE0A462146CD
:1056A00062F31E01BDE8F08130462146BDE8F0817D
:1056B00008B5FDF77BFFFFF7C5FBFFF791F98048C1
:1056C0007E49002401607F49C0E901144FF48046FF
:1056D000C0E9034644618461C4610462FDF7F8FBDC
:1056E00008B172B6FEE776487749543001607749D1
:1056F000C0E90114C0E9034644618461C4610462E5
:10570000FDF7E6FB08B172B6FEE76D487049A830B8
:105710000C2501604FF4E131C0E90114C460C0E917
:1057200004458461C461FEF7F3FC08B172B6FEE77C
:105730004FF4FA60FDF78EFA61485430FFF7C4FE6B
:10574000644C607120B101213220FFF747FEFAE777
:10575000FFF7B6FE0A20FDF77DFA052000F0EAFE0D
:1057600002216420FFF73AFE5B4F4FF400413846B8
:10577000FDF79EFB01283DD0002231463846FDF75B
:105780009CFB4F48A830FFF783F95448FFF73AFBDA
:105790000026002208215148FFF7CAF90A20FDF728
:1057A00059FA761C322EF4DB02216420FFF716FE34
:1057B0004A49A02303221C394148FDF7ABF8474F63
:1057C00001261C3FBB1D002240F2FF113846009607
:1057D000FDF788F8387C01280ED0FFF771FE0A200B
:1057E000FDF738FA1A2000F0A5FE01213220FFF75C
:1057F000F5FDF7E70122C0E70120FFF7DBFC0221FE
:105800006420FFF7EBFD3548354980380222C1643A
:10581000A0F85C200165A0F85E60324980234165F4
:10582000A0F8603040238165A0F8623040F82C1F5A
:105830000423828204224160C282082281600283A2
:105840001022C16042830161202181832348052207
:1058500025498038FEF7C4FF02216420FFF7BEFD12
:10586000FFF72EFE0520FDF7F5F925714FF4FA70CC
:10587000FDF7F0F9A67000F035F91C4A00211C482C
:1058800000F06CF9194A206624320021194800F012
:1058900065F9164A606648320021174800F05EF943
:1058A000A06612486C3000F087F8E0660F487C3044
:1058B00000F082F8206700F031F9FEE70054004064
:1058C000C8030020801A060000580040A08601008E
:1058D0000038014000000020001001408802002034
:1058E000000C01400008014056010020E89B000820
:1058F000D14C00080D4D0008DD4C000810B5EFF349
:10590000058149B9EFF3108131B9084909680229C5
:1059100005D1EFF3118111B16FF0050403E000240C
:1059200008B102F03DFF204610BD0000E00100205C
:1059300070B50E46050002D0300E002802D06FF080
:1059400003041CE0EFF3058048B9EFF3108030B991
:105950000C48006802280ED1EFF3118058B1284698
:1059600003F0B0F804463146284603F07FF830B91A
:105970006FF0020403E0284603F058F8044620467E
:1059800070BD0000E0010020002811D0EFF3058178
:1059900049B9EFF3108131B906490968022904D1E8
:1059A000EFF3118109B103F08DB8002103F03EB887
:1059B00070470000E001002010B54FF00001EFF348
:1059C0000582BAB9EFF31082A2B90B4A1268022A13
:1059D00002D1EFF311826AB948B1D0E902202AB1AD
:1059E000202807D3104603F057F802E010B903F05F
:1059F00045F80146084610BDE001002038B50C46C8
:105A000010B1210E002902D06FF0030038BDEFF372
:105A1000058149B9EFF3108131B9114909680229AB
:105A200019D1EFF31181B1B1002100916A462146ED
:105A300003F09CF810B16FF0020038BD00992046C9
:105A40000029FAD0074A4FF080511160BFF34F8F01
:105A5000BFF36F8F38BD214603F041F838BD000019
:105A6000E001002004ED00E0F8B51D4616460C46A6
:105A700010B1210E002902D06FF00300F8BDEFF342
:105A8000058149B9EFF3108131B915490968022937
:105A900005D1EFF3118111B16FF00500F8BDF107E9
:105AA00001D0012300E00023B10701D5002200E06E
:105AB00001222146009503F061F8F3076FF0010120
:105AC0006FF0020206D0844206D1F8BD0846F8BD48
:105AD0001046F8BD0442FCD1002DF9D0F6E70000D5
